:100000000C9414020C94A5240C94D7240C94092568
:100010000C9433020C9433020C9433020C9433028C
:100020000C9433020C9473240C9433020C9433021A
:100030000C9433020C94D2220C9433020C94D222EE
:100040000C9433020C9433020C9433020C9433025C
:100050000C9433020C9433020C9433020C9433024C
:100060000C9433020C94E20A0C9433020C94330285
:100070000C9433020C9433020C9433020C9433022C
:100080000C9405230C9433020C9433020C94330229
:100090000C9433020C9433020C9433020C94EF044E
:1000A0000C9433020C9433020C9433020C943302FC
:1000B0000C9433020C9433020C9433020C943302EC
:1000C0000C9433020C9433020C9433020C943302DC
:1000D0000C9433020C9433020C9433020C943302CC
:1000E0000C9433020C94FE080C94EF080C94BF0897
:1000F0000C94BE090C94B0080C94A1080C948F08C1
:100100000C9480080C9433020C9433020C94330248
:100110000C9433020C9433020C9433020C9433028B
:10012000C20BCD0BD80BE30BEE0BF90B040C230C1D
:100130002F0C3B0C470C530C5F0C5F0C7D0C7F0CA1
:10014000810C830C850C870C890CA70CC70CE70C61
:10015000070D270D470D670D9D0DA90DB50DC10D9F
:10016000CD0DD90DE50DFD0D080E130E1E0E290E39
:10017000340E3F0EC711CD11D011D311D611D911A4
:10018000DF11DC11E211E511E811F111F411F711A1
:10019000FA11EE11C411CA11FD110012EB11C111B7
:1001A000B012B312BE12C312CA12D312D612DB128D
:1001B000E212EB1275617274207278207369672005
:1001C0006661696C65640D0A00554E4B4F574E00D1
:1001D00045787465726E616C205265736574004277
:1001E000726F776E204F7574204465746563740078
:1001F0004661696C656420746F2063726561746523
:100200002053656D6170686F7265004661696C6549
:100210006420746F20637265617465205369676E32
:10022000616C004B65726E656C2066756E637469F7
:100230006F6E206E6F7420696D706C656D656E7485
:100240006564004465766963652044726976657209
:10025000204572726F72005761746368646F672023
:1002600052657374617274005357205761746368E8
:10027000646F6720526573746172740054696D65B0
:1002800072204F766572666C6F7700556E68616E8E
:10029000646C656420496E74657272757074205662
:1002A0006563746F72004C6F7720566F6C74616772
:1002B00065004578747261205461736B20737461BA
:1002C000727465642C206973206E726B5F6366675D
:1002D0002E68206F6B3F0049646C65206F72204B65
:1002E00065726E656C20537461636B204F76657226
:1002F000666C6F7700556E65787065637465642011
:1003000052657374617274004475706C69636174D2
:100310006564205461736B204944005363686564CD
:10032000756C6572204D69737365642057616B65E8
:100330007570005461736B20526573657276652029
:1003400056696F6C61746564005265736572766599
:10035000204572726F7220696E2053636865647500
:100360006C657200496E76616C69642053746163D8
:100370006B20506F696E746572005461736B20530B
:100380007461636B204F766572666C6F770053748F
:1003900061636B20776173206E6F7420646566699A
:1003A0006E6564206173206C6172676520656E6F95
:1003B00075676821005461736B20706572696F64A2
:1003C00020746F6F206C617267652E2050657269B2
:1003D0006F64206D757374206265206C6573732083
:1003E0007468616E203631207365636F6E64732E9E
:1003F00000293A20002A4E524B204552524F522893
:10040000000D0A535441434B2044554D500D0A00F2
:1004100045464765666700202B2D2E303132333438
:10042000353637383968000011241FBECFEFD1E4CC
:10043000DEBFCDBF13E0A0E0B2E0E6ECF6E500E001
:100440000BBF02C007900D92AE3DB107D9F71FE078
:10045000AEEDB3E001C01D92A23CB107E1F70E94EE
:1004600030260C94612B0C94C8220E94F2138093C6
:100470002D078F3F21F488E592E00E944729809163
:100480002D070E940715C12CD12C7601C394CFE60D
:10049000D2E08091DE03813011F5F894DF93CF93A1
:1004A0000E942F2902EE1CE00F900F908091DF0335
:1004B00090E002979801225E3C40281739073CF4EF
:1004C000F80181918F0190E00E944129EFCF88E9E6
:1004D00093E00E9447291092DE037894DACFC70197
:1004E000B60100902D0704C0660F771F881F991F63
:1004F0000A94D2F70E94AD15CCCF85E792E00E9416
:10050000472911E0C8E0D3E08091370183608093F0
:100510003701989A14BA8DB1806E8DB98EB1806E04
:100520008EB90E9462060E94DA07813021F00E9493
:10053000B31814BAF8CFF8941093DE03809124070F
:100540008093DF031F928F93DF93CF930E942F2915
:100550004091DF0350E0609126077091270782EEFB
:100560009CE00E945D2880912D070E9438157894A8
:100570000E94B3180F900F900F900F90C5CF45E0D9
:1005800050E06FE672E088E69CE00E946628892BC6
:10059000D1F54091E10345504093E10350E06DE611
:1005A0007CE08DEC9BE00E945D288CE892E00E944C
:1005B000472921E02093E0038DEC9BE09093DE0C33
:1005C0008093DD0C8091E1038093DC0C8FEF9FEF33
:1005D0009093DB0C8093DA0C1092DF0C1092E00CFD
:1005E00024BB8AED9CE00E94A807813021F089E9B4
:1005F00092E00E94472988E893E10E9476211092B8
:10060000E00381E0089580E008950E94530BC82F15
:100610008F3F21F48EEA92E00E9447298C2F0E949E
:100620000715813021F089EC92E00E94472927E5E7
:1006300039E0309327072093260784E78093250726
:100640000E94B30F24E132E140E254E26DE081E226
:1006500097E00E94F30583E08093370181E083BB3C
:1006600084BB80EE8DB98EB980914C0183608093FC
:100670004C01C12CD12C7601C39404C0CC0CDD1CE0
:10068000EE1CFF1CCA95D2F7C0E0D0E080E00E94CB
:100690003C0B882349F18091B80F9091B90F0E94CB
:1006A000BF28843211F0209729F0FE01E859F34F5A
:1006B000808321968A3021F0C337D1052CF7E6CF0D
:1006C00087EE92E00E944729FE01E859F34FDF01CF
:1006D00012978C918D3081F71082C093E1030E94B4
:1006E000BF02813049F7D0CFC701B6010E94AD15D6
:1006F000CDCFCF93DF9385E093E090933407809341
:10070000330740E052E06BEC79E08EE297E00E9424
:100710007D2586E080933607C1E0C0933507C093FE
:100720003707C093380781E090E0A0E0B0E0809305
:10073000390790933A07A0933B07B0933C07109278
:100740003D0710923E0710923F071092400710920B
:1007500041071092420710924307109244071092EB
:1007600045071092460710924707109248071092CB
:10077000490710924A0710924B0710924C071092AB
:100780004D0710924E0710924F07109250078EE2BD
:1007900097E00E9421188DE792E090934B0C809394
:1007A0004A0C40E052E062E577E085E49CE00E947C
:1007B0007D25D3E0D0934D0CC0934C0CC0934E0CD0
:1007C000C0934F0C1092500C1092510C1092520C7E
:1007D0001092530C80E896E9A8E9B0E08093540C9D
:1007E0009093550CA093560CB093570C1092580C44
:1007F0001092590C10925A0C10925B0C10925C0CD7
:1008000010925D0C10925E0C10925F0C1092600CB6
:100810001092610C1092620C1092630C1092640C96
:100820001092650C1092660C1092670C85E49CE0A7
:100830000E94211885E392E09093030580930205BE
:1008400040E052E061E275E08DEF94E00E947D258A
:10085000D0930505C0930405C0930605C093070512
:10086000109208051092090510920A0510920B05C6
:1008700080E893ECA9ECB1E080930C0590930D0512
:10088000A0930E05B0930F0510921005109211055C
:10089000109212051092130510921405109215056E
:1008A000109216051092170510921805109219054E
:1008B00010921A0510921B0510921C0510921D052E
:1008C00010921E0510921F058DEF94E0DF91CF91DD
:1008D0000C94211808952091E3032F932091E203B3
:1008E0002F939F938F938CEF92E09F938F930E940F
:1008F0002F298091E2039091E30301969093E30303
:100900008093E2030F900F900F900F900F900F9035
:100910000895CF93DF93EC018CE093E00E94472988
:10092000CE01DF91CF91089580E28093B8008FEFE0
:100930008093BB0084E08093BC0008958091BC004C
:10094000817008958091BC0080FDFCCF80910002F1
:1009500008952091BC0020FDFCCF6093E603FC01CC
:1009600020812093E70320FF09C01092E40388EF61
:100970008093000285EA8093BC000895DC01119603
:10098000E8EEF3E081E08E1B982F9E0F961768F734
:100990009D919193F9CF8091BC0080FDFCCF109286
:1009A000E40388EF8093000285EA8093BC000895F9
:1009B0002091BC0020FDFCCF2091E40320FD04C069
:1009C0008091E4038170089527EE33E0FC01D901A2
:1009D0008A2F821B8617A0F78D918193F9CF1F92E2
:1009E0000F920FB60F9211240BB60F922F933F93D5
:1009F0008F939F93EF93FF938091B900883201F119
:100A000040F48031D9F08831D9F0883009F04AC0FB
:100A100015C0803491F128F4883309F043C085EA89
:100A200046C08035F1F08835E9F58091BB00E09152
:100A3000E503F0E0E951FC4F80832DC01092E503FF
:100A4000E091E5038091E603E81728F581E08E0F39
:100A50008093E503F0E0E951FC4F80818093BB0077
:100A600018C0E091E50381E08E0F8093E50380914B
:100A7000BB00F0E0E951FC4F80832091E50330E0BA
:100A80008091E60390E001972817390714F485EC6C
:100A90000EC085E80CC08091E40381608093E4037C
:100AA00084E905C08091B9008093000284E08093BE
:100AB000BC00FF91EF919F918F913F912F910F90EB
:100AC0000BBE0F900FBE0F901F9018959091410193
:100AD0009F719F31D9F380934201089581E0809303
:100AE000E00D08951092E00D0895809141018F71FD
:100AF0008F31D9F3809141018F71E1F08F30D1F0C6
:100B0000809141018F71883031F480913901826088
:100B1000809339010BC088E00E94660580914101F5
:100B20008F718830D9F7F1CF8F3021F0809141015A
:100B30008F71D1F70895809141018F718F31D9F371
:100B4000809141018F7111F08F3051F48091390102
:100B50008D7F80933901809141018F718830D9F761
:100B60000895E5E4F1E09081907F908390818F700B
:100B7000892B80830895E7E5F1E080818D7F808374
:100B80000895E7E5F1E08081826080830895EEE6D4
:100B9000F1E080818F7E80830895EEE6F1E0808130
:100BA00080618083089580936001909361019093A8
:100BB000EA0D8093E90D08959093E40D8093E30D81
:100BC000E8E4F1E08081807E80838081682B60830F
:100BD00008959093F4038093F30308959093F203A0
:100BE0008093F10308951F93CF93DF9370E2709386
:100BF000440170EC7093450160626093480165ECBC
:100C00006093490167EA60934B0160E860934C018F
:100C1000209360013093610140936201509363011E
:100C2000E6E4F1E0C081A08160811081C295C695A3
:100C3000C77070E4C79FE0011124129516951370D8
:100C40001C2BA295A695A37070E1A79FD00111243B
:100C50001A2B629566956370A4E06A9FB001112417
:100C6000162B10936D01608170817295769573706B
:100C7000706462956670672B60936E0110926C01D0
:100C80006FEF60934E019093E40D8093E30D10920B
:100C9000E50D1092E60D5093E80D4093E70D30936B
:100CA000EA0D2093E90D1092EB0D81E08093050E83
:100CB0001092240E1092F40D1092E00DDF91CF915E
:100CC0001F91089586E10C94660586E10C946605F3
:100CD00088E00E9466051092240E08953F924F927C
:100CE0005F926F927F928F929F92AF92BF92CF92BC
:100CF000DF92EF92FF920F931F93CF93DF93EC015C
:100D00003B018091050E811102C08FEF0FC19E81C2
:100D10008091E50D8F5F8093E50D80918101807E4C
:100D2000816090FB85F98F7380648093810188E8EE
:100D3000809382018091E00D882361F08FEF809392
:100D400083018AEA9AEA90938901809388018FEF60
:100D50009FEF10C08091E50D809383012091610188
:100D60008091600190E0922B90938901809388019B
:100D700088819981909387018093860120916301F6
:100D80008091620190E0922B909385018093840181
:100D90004A81552747FD50956B817C818AE891E017
:100DA0000E945D288A81855F809380018091410146
:100DB000982F9F71392E8F709FEF980F9230B0F35C
:100DC0009FE1391699F398EF930D923018F0863021
:100DD00009F09BCF86E10E9466058D8181110AC0D2
:100DE00089E00E9466058E81882391F089E10E9446
:100DF00066050EC08091480180688093480180910B
:100E0000410187FFFCCF8091410186FF7ECFE8CF73
:100E10006114710499F18CEE9DE00E94661A809134
:100E2000EC0D9091ED0DA091EE0DB091EF0D809332
:100E3000060E9093070EA093080EB093090ED301EF
:100E400020E432E44FE050E00E9498270091F00D3A
:100E50001091F10D2091F20D3091F30D600F711F83
:100E6000821F931F60930A0E70930B0E80930C0EDB
:100E700090930D0E86E09EE00E94501B1092F40DA0
:100E800082E00E946605412C512C8091F40D811165
:100E900008C08FEF481A580A98EE49169DEF590678
:100EA000A1F76114710421F48E8181112DC034C029
:100EB0008CEE9DE00E94661A8090EC0D9090ED0DF6
:100EC000A090EE0DB090EF0DC090F00DD090F10D10
:100ED000E090F20DF090F30D0091060E1091070EC8
:100EE0002091080E3091090E40910A0E50910B0E80
:100EF00060910C0E70910D0E85E29EE00E94C21A68
:100F00008F3F09F0BBCFD0CF80914201829586956B
:100F1000877011F0CFEF06C088EE48168DEF5806A7
:100F2000C9F3C1E0832D0E9466058C2FDF91CF911C
:100F30001F910F91FF90EF90DF90CF90BF90AF90F7
:100F40009F908F907F906F905F904F903F9008950B
:100F500060E070E00C946E06CF93DF938091050EF5
:100F6000882321F180914101C82FCF718F709FEFAD
:100F7000980F9230B8F3CF31A9F3C83011F0863012
:100F8000A9F486E10E9466058091480180688093FB
:100F900048018091410187FFFCCFD09141018C2F06
:100FA0000E946605D6FB882780F901C08FEFDF918C
:100FB000CF9108958091050E882309F49FC08091F8
:100FC000240E882309F498C080917B01E091E30D01
:100FD000F091E40D90E002972481332727FD3095AE
:100FE000281739070CF48AC0E091E30DF091E40D65
:100FF000809182018083E091E30DF091E40D809176
:1010000087019091880192838183E091E30DF091B3
:10101000E40D80917B018B508383A091E30DB0910F
:10102000E40DE091E30DF091E40D13969C91848121
:1010300089173CF0E091E30DF091E40D838187FF87
:101040000DC01092240E80914C018F7780934C013B
:1010500080914C01806880934C0150C0A091E30DB9
:10106000B091E40DE091E30DF091E40D13964C91F5
:10107000552747FD509569E871E0858196810E946A
:101080005D28E091E30DF091E40D8091800185FBF6
:10109000882780F98783E091E30DF091E40D80913A
:1010A00047018087E091E30DF091E40D80914601C6
:1010B0008695869586958187E091E30DF091E40D04
:1010C000809147018287E091E30DF091E40DA091BA
:1010D0007B01B0E0A058BE4F8C9183871092240E04
:1010E00080914C018F7780934C0180914C018068F6
:1010F00080934C0181E0089580E008958FEF08957A
:101100001F920F920FB60F9211248F9380E8809355
:101110004F018F910F900FBE0F901F9018951F9247
:101120000F920FB60F9211248F9381E08093F40DEC
:1011300080E480934F018F910F900FBE0F901F900E
:1011400018951F920F920FB60F9211248F9380E281
:1011500080934F018F910F900FBE0F901F901895A5
:101160001F920F920FB60F9211248F9380E18093FC
:101170004F018F910F900FBE0F901F9018951F92E7
:101180000F920FB60F9211240BB60F922F933F932D
:101190004F935F936F937F938F939F93AF93BF937F
:1011A000EF93FF9384E080934F01E091F303F0917C
:1011B000F403309709F00995FF91EF91BF91AF913A
:1011C0009F918F917F916F915F914F913F912F915F
:1011D0000F900BBE0F900FBE0F901F9018951F928F
:1011E0000F920FB60F9211248F9382E080934F01DC
:1011F0008F910F900FBE0F901F9018951F920F9216
:101200000FB60F9211248F9381E080934F018F913D
:101210000F900FBE0F901F901895E9E4F1E09081B8
:10122000907F908390818F70892B808308958FEFBA
:1012300008950895089508958FEF08958091DE0D23
:101240009091DF0D089580E00895089581E008955C
:1012500081E0089581E0089508950895089508951E
:101260000895089508950895E7E3F1E0808183608B
:101270008083989AA09A8DB1806E8DB98EB1806E60
:101280008EB90895E7E3F1E0808183608083989AC6
:10129000A0988DB1806E8DB98EB1806E8EB9089593
:1012A000CF92DF92EF92FF920F931F93CF93DF9332
:1012B000CDB7DEB727970FB6F894DEBF0FBECDBF10
:1012C0000E94B10FE091E30DF091E40DC080D38056
:1012D00005811681E0840E94DA0718161CF087E168
:1012E00093E006C0F801F080F11007C086E393E0B8
:1012F0000E9447290E94B30F32C0F5E0FF1204C0DC
:101300008AE090E00E944129C80101969F938F9343
:101310008E2D992787FD90959F93EF921F92FF92B4
:101320001F92CF9288E593E09F938F930E942F297D
:101330001D830C83FA94F801F082DB821E821F82E7
:101340008FEF9FEF9A8389830E94B30FCE0101969E
:101350000E94A8070FB6F894DEBF0FBECDBF279638
:101360000FB6F894DEBF0FBECDBFDF91CF911F91B6
:101370000F91FF90EF90DF90CF9008951F920F9202
:101380000FB60F9211240BB60F922F933F934F93EA
:101390005F936F937F938F939F93AF93BF93EF93DD
:1013A000FF9380E090917B01891710F48F5FFACF53
:1013B0008091460187FF04C081E08093240E04C021
:1013C00081E893E00E94472988E080934F01809153
:1013D000460187FF05C08091E00D81110E945009F0
:1013E000E091F103F091F203309709F00995FF9134
:1013F000EF91BF91AF919F918F917F916F915F918D
:101400004F913F912F910F900BBE0F900FBE0F90F9
:101410001F901895E5EFFDE0DC018C9181938D9193
:1014200080933F018EE0E530F807B9F780E1109234
:101430003E018150E1F780E880933C0180913D01BD
:1014400080FFFCCFEEE0FEE080913F0181938EE0D3
:10145000EE31F807C9F70895CF93662309F447C022
:10146000262F2F7009F043C0E5EFFDE02191209376
:101470003F012EE0E530F207C9F7A0E070E0B0E2EE
:1014800020E1A29FA00111244617570774F5A1116E
:1014900003C010923C0102C0B0933C0120E030E058
:1014A000480F591FFA01E20FF31FE081E0933E015C
:1014B0002F5F3F4F20313105A9F720913C01206873
:1014C00020933C0120913D0120FFFCCF20E030E043
:1014D000C0913E01FA01E20FF31FC0832F5F3F4F1F
:1014E00020313105A9F7AF5FCBCF80E001C081E0AB
:1014F000CF9108950F931F93CF93DF93613009F439
:101500004FC0262F2F7009F04BC0EEE0FEE0219176
:1015100020933F012EE0EE31F207C9F762956F701C
:10152000615008E06F3FD1F100933C0120E162027D
:10153000A001112420E030E0FC01E40FF51FDF01E1
:10154000A20FB31F7C9170933E012F5F3F4F20315C
:101550003105A9F720913C01206820933C0120919E
:101560003D0120FFFCCF4051510920E030E0480F01
:10157000591F10913E01DF01A20FB31F1C93662378
:1015800031F0EA01C20FD31F788171277C932F5F5E
:101590003F4F2031310569F76150C4CF80E001C071
:1015A00081E0DF91CF911F910F9108959091C0003C
:1015B00095FFFCCF9091C0009F7D9093C0008093D9
:1015C000C60008951F920F920FB60F9211240BB60A
:1015D0000F922F933F934F935F936F937F938F93CC
:1015E0009F93AF93BF93EF93FF938091C1008F7749
:1015F0008093C1008091C00087FFFCCF8091C00024
:101600008F778093C0002091C6008091F60490915E
:10161000F704FC01EA50FC4F20830196811521E07C
:10162000920729F09093F7048093F60404C0109277
:10163000F7041092F6048091F5030E94381580910A
:10164000C0008F778093C0008091C1008068809334
:10165000C100FF91EF91BF91AF919F918F917F91C9
:101660006F915F914F913F912F910F900BBE0F9013
:101670000FBE0F901F90189581110DC02091F80496
:101680003091F9048091F6049091F70428173907F6
:1016900041F480E008958130E1F78091C80087FF30
:1016A000F8CF81E008958091F5038F3F19F48EE023
:1016B0000E9427128091F5030895CF93DF93FC01D8
:1016C0002491EC012196222351F06091BA0F709180
:1016D000BB0F822F90E00E94FD28CE01F0CFDF915A
:1016E000CF9108952091F8043091F9048091F60487
:1016F0009091F7042817390749F46091F50377278B
:1017000067FD7095872F972F0E94AD156F3F21F4CD
:1017100084EB91E00E945D0B2091F8043091F90474
:10172000F901EA50FC4F80812F5F3F4F2F3F310579
:1017300009F028F43093F9042093F80408951092E6
:10174000F9041092F804089586E084B985B988EF09
:101750008AB980EF8BB982E08DB908950C94A40BFF
:101760008F3F09F45CC0482F477050E04730510567
:1017700008F055C0FA01E057FF4F8695869586958B
:101780000C94342892B121E030E0082E01C0220FE1
:101790000A94EAF7922B92B940C095B121E030E06B
:1017A000082E01C0220F0A94EAF7922B95B935C092
:1017B00098B121E030E0082E01C0220F0A94EAF728
:1017C000922B98B92AC09BB121E030E0082E01C0CD
:1017D000220F0A94EAF7922B9BB91FC09EB121E019
:1017E00030E0082E01C0220F0A94EAF7922B9EB92E
:1017F00014C091B321E030E0082E01C0220F0A94FA
:10180000EAF7922B91BB09C094B321E030E001C00C
:10181000220F8A95EAF7922B94BB81E008958FEF0F
:1018200008958F3F09F457C0482F477050E0473064
:10183000510508F050C0FA01E956FF4F869586958C
:1018400086950C94342892B121E030E0082E01C036
:10185000220F0A94EAF72095292322B93AC095B1BC
:1018600021E030E0082E01C0220F0A94EAF720950B
:10187000292325B92EC098B121E030E0082E01C0FF
:10188000220F0A94EAF72095292328B922C09BB198
:1018900021E030E0082E01C0220F0A94EAF72095DB
:1018A00029232BB916C09EB121E030E0082E01C0DB
:1018B000220F0A94EAF7209529232EB90AC091B382
:1018C00021E030E001C0220F8A95EAF72095292314
:1018D00021BB81E008958FEF08958F3F21F1482FBC
:1018E000477050E047305105F0F4FA01E256FF4FDF
:1018F0008695869586950C94342820B10BC023B12B
:1019000009C026B107C029B105C02CB103C02FB151
:1019100001C022B330E002C0359527958A95E2F7E1
:10192000822F817008958FEF08958F3F09F4EFC0E3
:10193000482F477050E04730510508F0E8C0FA01E1
:10194000EB55FF4F8695869586950C94342820B1EB
:1019500030E0082E02C0359527950A94E2F792B13F
:1019600020FD0AC021E030E0082E01C0220F0A94B9
:10197000EAF7922B92B91EC021E030E0082E01C098
:10198000220F0A94EAF72095292322B913C023B124
:1019900030E0082E02C0359527950A94E2F795B1FC
:1019A00020FD0AC021E030E001C0220F8A95EAF74D
:1019B000922B95B981E0089521E030E0082E01C016
:1019C000220F0A94EAF72095292325B9F3CF26B1EF
:1019D00030E0082E02C0359527950A94E2F798B1B9
:1019E00020FD0AC021E030E0082E01C0220F0A9439
:1019F000EAF7922B98B9DECF21E030E0082E01C043
:101A0000220F0A94EAF72095292328B9D3CF29B1C8
:101A100030E0082E02C0359527950A94E2F79BB175
:101A200020FD0AC021E030E0082E01C0220F0A94F8
:101A3000EAF7922B9BB9BECF21E030E0082E01C01F
:101A4000220F0A94EAF7209529232BB9B3CF2CB1A2
:101A500030E0082E02C0359527950A94E2F79EB132
:101A600020FD0AC021E030E0082E01C0220F0A94B8
:101A7000EAF7922B9EB99ECF21E030E0082E01C0FC
:101A8000220F0A94EAF7209529232EB993CF2FB17C
:101A900030E0082E02C0359527950A94E2F791B3FD
:101AA00020FD0AC021E030E0082E01C0220F0A9478
:101AB000EAF7922B91BB7ECF21E030E0082E01C0E7
:101AC000220F0A94EAF72095292321BB73CF22B372
:101AD00030E0082E02C0359527950A94E2F794B3BA
:101AE00020FD0AC021E030E0082E01C0220F0A9438
:101AF000EAF7922B94BB5ECF21E030E0082E01C0C4
:101B0000220F0A94EAF72095292324BB53CF8FEFA5
:101B100008958F3F09F4BEC0482F477050E061110F
:101B200060C04730510508F0B5C0FA01E455FF4FD9
:101B30008695869586950C94342891B121E030E005
:101B4000082E01C0220F0A94EAF72095292321B913
:101B50009FC094B121E030E0082E01C0220F0A940A
:101B6000EAF72095292324B993C097B121E030E00A
:101B7000082E01C0220F0A94EAF72095292327B9DD
:101B800087C09AB121E030E0082E01C0220F0A94EC
:101B9000EAF7209529232AB97BC09DB121E030E0E6
:101BA000082E01C0220F0A94EAF7209529232DB9A7
:101BB0006FC090B321E030E0082E01C0220F0A94DC
:101BC000EAF72095292320BB63C093B321E030E0DE
:101BD000082E01C0220F0A94EAF72095292323BB7F
:101BE00057C04730510508F055C0FA01ED54FF4F7A
:101BF0008695869586950C94342891B121E030E045
:101C0000082E01C0220F0A94EAF7922B91B940C026
:101C100094B121E030E0082E01C0220F0A94EAF7C7
:101C2000922B94B935C097B121E030E0082E01C065
:101C3000220F0A94EAF7922B97B92AC09AB121E0B1
:101C400030E0082E01C0220F0A94EAF7922B9AB9CD
:101C50001FC09DB121E030E0082E01C0220F0A9480
:101C6000EAF7922B9DB914C090B321E030E0082E22
:101C700001C0220F0A94EAF7922B90BB09C093B3DC
:101C800021E030E001C0220F8A95EAF7922B93BB46
:101C900081E008958FEF0895811106C080B1869587
:101CA000817091E0892708958FEF0895009711F4CE
:101CB00083E20DC08130910511F48BE208C08230BF
:101CC000910511F483E303C0039729F48BE30E9489
:101CD000950C81E008958FEF0895009711F483E249
:101CE0000DC08130910511F48BE208C0823091055E
:101CF00011F483E303C0039729F48BE30E94B00B34
:101D000081E008958FEF0895009711F483E20DC0EC
:101D10008130910511F48BE208C08230910511F4F5
:101D200083E303C0039729F48BE30E94110C81E045
:101D300008958FEF0895882319F085B78F7E02C02C
:101D400085B7806185BF81E008959091C80095FFB7
:101D5000FCCF8093CE0008959093C5008093C4007B
:101D600086E08093C200E1ECF0E080818B7F80838D
:101D7000A0ECB0E08C9182608C938081886180833C
:101D800008959093CD008093CC0086E08093CA00A4
:101D9000E9ECF0E080818B7F8083A8ECB0E08C914F
:101DA00082608C9380818861808308950E94AC0E4C
:101DB00062E77BE086ED9AE00E9474289093BB0F67
:101DC0008093BA0F62E77BE086ED9AE00E94742868
:101DD0009093B90F8093B80F0E94F2138093F5038C
:101DE0008F3F19F48EE00E9427121092F90410928E
:101DF000F8041092F7041092F6048091C1008068F4
:101E00008093C10008958091C80087FFFCCF809126
:101E1000C8008F778093C8008091CE00089500009D
:101E200000000000000001970097C9F708950C9486
:101E3000012A0E94092A0895EF92FF920F931F939F
:101E4000CF93DF93EC0180E090E00E94012AF82E0E
:101E50008B8381E090E00E94012AE82E8A8382E051
:101E600090E00E94012A082F898383E090E00E947D
:101E7000012A182F888384E090E00E94012A9E2D79
:101E80009F0D900F910F891302C081E001C08FEF69
:101E9000DF91CF911F910F91FF90EF900895CF9315
:101EA000DF93EC0185E090E00E94012A888381E0C5
:101EB000DF91CF910895FC01608186E090E00E945F
:101EC000092A81E00895CF93DF93EC0186E090E04A
:101ED0000E94012A888381E0DF91CF9108950F93BA
:101EE0001F93CF93DF938C01C8E0D0E0CE010E9416
:101EF000012AF80181938F012196C831D105B1F7EC
:101F000081E0DF91CF911F910F9108950F931F935F
:101F1000CF93DF938C01C8E0D0E0F80161918F018D
:101F2000CE010E94092A2196C831D105B1F781E07E
:101F3000DF91CF911F910F910895CF93DF93EC0123
:101F400087E090E00E94012A888381E0DF91CF91B1
:101F50000895FC01608187E090E00E94092A81E0F9
:101F60000895F8940895789408950E94B10FFFCFD2
:101F7000CF93DF93CDB7DEB7A3970FB6F894DEBF4C
:101F80000FBECDBF0E94F21380936E0F8F3F21F4DE
:101F900060E08EE00E9432120E94412380FF04C064
:101FA00060E086E00E9432120E9458258F3F31F493
:101FB0000E943B2560E080E10E9432120E94492588
:101FC0001092710F10927F0F10927E0F1092700F6F
:101FD00010926F0F1092800F10927D0FE0E6FFE0DD
:101FE0008FEFDF0112978C938083DF0111978C9321
:101FF00033962FE0EF36F207A1F7E9E3FEE093E630
:102000008FEF9083DF0112978C93BB962FE0E6361B
:10201000F207B9F7E1E8FFE0CF01059694838383E7
:10202000F783E6832FE0843A920711F0FC01F4CFA6
:102030001092830F1092820F1092A80F1092A70F88
:102040001092740F1092730F81E89FE090932E0E00
:1020500080932D0E67E87DE1CE0101960E947925DF
:1020600040E850E068E57DE0CE0101960E947D25C4
:1020700085E58093580D19861C861D861E861F8651
:10208000188A198A1A8A1B8A1C8A1D8A1E8A1F8A24
:10209000188E198E1A8E1B8E1C8E1D8E1E8E1F8EF4
:1020A00018A219A21AA21BA281E0888792E09A873F
:1020B0008B87CE0101960E942118A3960FB6F89443
:1020C000DEBF0FBECDBFDF91CF910895C7E3DEE045
:1020D000F12CD8808FEFD81221C0F394AB9697E003
:1020E000F912F7CF0E941E179BE28902F00111241A
:1020F000E15DF14F82858093800FF0937F0FE09335
:102100007E0FF093700FE0936F0F8093710F0E941A
:1021100001260E94EB250E94052614C007E31EE05D
:10212000E12CFE1441F0F8018081D81204C06D2D1D
:1021300085E00E943212E394055D1F4FF7E0EF1235
:10214000F0CFCBCFFFCFAF92BF92CF92DF92EF9283
:10215000FF920F931F93CF93DF931F92CDB7DEB7FC
:102160005C016B017A01DC0119968C911997823020
:1021700021F080916D0F8C9302C0F5011082809147
:102180006D0F873020F060E087E00E943212D501A9
:1021900019968C91823029F080916D0F8F5F80931A
:1021A0006D0F80916D0F811103C081E080936D0FE1
:1021B000F50130812BE23203F0011124E15DF14F92
:1021C000D182C082D50118968C91189782873C9154
:1021D0003203F0011124E15DF14F83E081873C91EE
:1021E0003203F0011124E15DF14F30870C910203BD
:1021F00080011124015D114FF8011582C5010B9674
:102200000E94D41CD80191966D937D938D939C93DD
:102210009497F50183859485A585B685883399487B
:10222000A144B10528F0D5016C9186E10E943212DB
:10223000F5010081112707FD1095C5014B960E94FD
:10224000D41C4BE2409FF001419FF00D1124E15D51
:10225000F14F658B768B878B908FD5012C91240362
:1022600060011124F601E15DF14F6F0105891689C6
:102270002789308D81A192A1A3A1B4A1080F191FB4
:102280002A1F3B1F018F128F238F348FC501439666
:1022900049830E94D41CF60165A376A387A390A767
:1022A000D5012C9149812403F0011124E15DF14F06
:1022B00085A196A1A7A1B0A5858F968FA78FB0A362
:1022C00081E090E092A781A7F382E28281E0848797
:1022D0000F90DF91CF911F910F91FF90EF90DF90C2
:1022E000CF90BF90AF9008950C94A11D85E690E02B
:1022F0000895E0917E0FF0917F0F84870895E0911B
:102300007E0FF0917F0F848508952091570D222331
:1023100041F0FB0120832091FC04FC01208381E03B
:10232000089580E008958091570D882309F48DC0A9
:1023300085EF93E00E945D0B8091FC041F928F93C8
:102340008AE993E09F938F930E942F2981EF93E076
:102350000E945D0B0F900F900F900F908091570D82
:10236000883110F01092570D8091570D90E0FC01CC
:102370003197E631F10508F046C0E654FF4F0C9462
:10238000342885EB93E041C08EE893E03EC08AE7B5
:1023900093E03BC084E693E038C089E493E035C025
:1023A00083E393E032C08BE193E02FC088E093E0B9
:1023B0002CC085EF92E029C087ED92E026C082EB29
:1023C00092E023C086EA92E020C08BE892E01DC034
:1023D0008CE792E01AC088E692E017C087E592E0A9
:1023E00014C083E492E011C083E292E00EC08BE05F
:1023F00092E00BC080EF91E008C08FED91E005C046
:1024000080ED91E002C089EC91E00E945D0B60914B
:10241000BA0F7091BB0F8DE090E00E94FD28609193
:10242000BA0F7091BB0F8AE090E00E94FD28809166
:10243000570D803141F08351823028F00E944925A8
:102440000E94B10FFFCF1092570D80E00895809346
:10245000570DE0917E0FF0917F0F80858093FC04F3
:102460000C949311CF93C82F8093570D6093FC0465
:102470000E949311C03141F0C351C23028F00E9434
:1024800049250E94B10FFFCFCF910895CF93DF93DD
:102490001F92CDB7DEB719828981843640F480ED72
:1024A00097E00E94762189818F5F8983F5CF0F9015
:1024B000DF91CF91089581E090E00E94840E0E9408
:1024C00046120E9446120E94461281E090E00E944D
:1024D0006D0E0C94461281E090E00E94840E0E94E2
:1024E000461281E090E00E946D0E0C944612FF921D
:1024F0000F931F93CF93DF9300D01F92CDB7DEB71A
:102500001F928F938AE993E09F938F938E010F5FC1
:102510001F4F1F930F930E9474290F900F900F90DD
:102520000F900F900F90F12CF80101900020E9F727
:102530003197E01BF10B8F2D90E08E179F0708F06D
:102540005CC0F801E80FF91F808190E0FC01F09772
:10255000EA30F10508F049C0E053FF4F0C943428ED
:102560000E945B1202C00E946B120E945B120E94CA
:102570005B120E945B120E945B1237C00E946B12BA
:102580000E946B12F4CF0E946B120E946B120E9489
:102590006B12EFCF0E946B120E946B120E946B12A3
:1025A0000E946B12E8CF0E946B1202C00E945B1265
:1025B0000E946B1204C00E945B120E945B120E9478
:1025C0006B1206C00E945B120E945B120E945B129B
:1025D0000E946B1208C00E945B120E945B120E9454
:1025E0005B120E945B120E946B120E9446120E94B4
:1025F00046120E944612F39497CF0F900F900F90BF
:10260000DF91CF911F910F91FF9008956F927F926C
:102610008F929F92AF92BF92CF92DF92EF92FF92F2
:102620000F931F93CF93DF9381E094E00E945D0BA3
:10263000E0917E0FF0917F0F2085822F992787FDF3
:1026400090959F932F938DE993E09F938F930E9492
:102650002F29E0917E0FF0917F0FC281D381DF930C
:10266000CF9381ED93E09F938F930E942F298881D0
:102670001F928F9386EA93E09F938F930E942F2956
:10268000E0917E0FF0917F0F81818F9380818F93F6
:1026900083EB93E09F938F930E942F2980917F0F6C
:1026A0008F9380917E0F8F938DEB93E09F938F9309
:1026B0000E942F29CFE2DEE0EDB7FEB774960FB689
:1026C000F894FEBF0FBEEDBF00E010E08DEC682E69
:1026D00083E0782E96EA892E93E0992E23EBA22EA2
:1026E00023E0B22E3DEBC32E33E0D32EEA80FB80F5
:1026F000FF92EF921F930F937F926F920E942F2968
:10270000F70180811F928F939F928F920E942F29B1
:1027100089818F9388818F93BF92AF920E942F29D6
:10272000DF93CF93DF92CF920E942F290F5F1F4F2D
:10273000AB96EDB7FEB772960FB6F894FEBF0FBE1C
:10274000EDBF0730110591F6DF91CF911F910F91E9
:10275000FF90EF90DF90CF90BF90AF909F908F90C1
:102760007F906F900895CF93DF93E0917E0FF0916B
:102770007F0FC281D3818881853539F00E9406138D
:1027800081E00E94271285E58883E0917E0FF09119
:102790007F0F808191818115924438F00E94061349
:1027A00082E1DF91CF910C942712DF91CF910895B0
:1027B0002BE28202F0011124E15DF14FA281B3818D
:1027C0008C91853519F085E58C9308C080819181C5
:1027D0008115924428F082E10E9427128FEF08951C
:1027E00081E008950F931F930091520910915309AE
:1027F000209154093091550980E090E0B901A80179
:10280000082E04C076956795579547950A94D2F798
:1028100040FD19C041E050E060E070E0082E04C0C7
:10282000440F551F661F771F0A94D2F7402B512B78
:10283000622B732B409352095093530960935409B0
:102840007093550905C0019680329105B9F68FEF56
:102850001F910F910895E0917E0FF0917F0F658594
:102860007685878590890895CF92DF92EF92FF92C7
:102870000F931F93CF93DF931F92CDB7DEB7C12C79
:10288000D12C7601C394082E04C0CC0CDD1CEE1CA8
:10289000FF1C0A94D2F7409152095091530960915C
:1028A0005409709155094C215D216E217F21452BE2
:1028B000462B472B09F463C089830E94B10FE8E3DC
:1028C000FEE097018601009510952095309593E0E4
:1028D0008981DF0111974C914F3F49F14481558126
:1028E000668177814C155D056E057F0541F4108684
:1028F000118612861386DF0112971C929083448101
:102900005581668177814023512362237323448359
:10291000558366837783408551856285738540231F
:102920005123622373234087518762877387BB9645
:102930004FE0E536F40769F64EEF5FEF6FEF7FEF9C
:1029400004C0440F551F661F771F8A95D2F78091E8
:10295000520990915309A0915409B09155098423CB
:102960009523A623B7238093520990935309A093EC
:102970005409B09355090E94B30F81E001C08FEF55
:102980000F90DF91CF911F910F91FF90EF90DF900B
:10299000CF9008950F931F9341E050E060E070E006
:1029A00004C0440F551F661F771F8A95D2F7E09128
:1029B0007E0FF0917F0F85859685A785B0898A0166
:1029C0009B01082319232A233B23012B022B032BD2
:1029D000D1F0409550956095709584239523A6235A
:1029E000B72385879687A787B08B81899289A3892A
:1029F000B48984239523A623B723818B928BA38B41
:102A0000B48B81E001C08FEF1F910F910895409129
:102A10005209509153096091540970915509082E3B
:102A200004C076956795579547950A94D2F740FF6D
:102A30001DC0E0917E0FF0917F0F41E050E060E01B
:102A400070E004C0440F551F661F771F8A95D2F7A8
:102A500085859685A785B089842B952BA62BB72BCA
:102A600085879687A787B08B81E008958FEF0895BB
:102A7000CF92DF92EF92FF921F93CF93DF93C12CFF
:102A8000D12C7601C39404C0CC0CDD1CEE1CFF1CC1
:102A90008A95D2F78091520990915309A0915409D7
:102AA000B09155098C219D21AE21BF21892B8A2B04
:102AB0008B2B11F481E044C00E94B10FE6E3FEE0ED
:102AC000C8E3DEE010E023E080818130B9F4828544
:102AD0009385A485B5858C219D21AE21BF21892BAD
:102AE0008A2B8B2B59F0288316861786108A118A19
:102AF0001082C286D386E486F58611E0808182301A
:102B0000A1F482859385A485B5858C159D05AE05B8
:102B1000BF0559F4288316861786108A118A1082F9
:102B2000128613861486158611E0BB96AB968FE04D
:102B3000E336F80749F60E94B30F111105C082E091
:102B40000E9479118FEF01C081E0DF91CF911F9139
:102B5000FF90EF90DF90CF9008950F931F93E09137
:102B60007E0FF0917F0F0585168527853089062316
:102B7000172328233923012B022B032B19F1618BF7
:102B8000728B838B948B21E02783DC01CB01009037
:102B90006E0F04C0B695A795979587950A94D2F7BE
:102BA00080FF03C00E948D1904C080E090E00E9465
:102BB0005D19E0917E0FF0917F0F618972898389A1
:102BC000948903C060E070E0CB011F910F910895DC
:102BD00090917D0F9430D0F4EEE5FFE020E030815D
:102BE0003F3F21F02F5F33962530C9F730E0F901E0
:102BF000EE0FFF1FE20FF31FE25AF04F8283808334
:102C000061839F5F90937D0FCF01089580E090E0F6
:102C100008952EE53FE040E02817390739F04F5F6F
:102C20002D5F3F4F4530C1F78FEF0895842F0895F2
:102C30000E9409168F3F11F481E003C0853029F40A
:102C400082E00E9479118FEF0895992787FD909572
:102C5000FC01EE0FFF1FE80FF91FE25AF04F8281CF
:102C60000895EF92FF920F931F93CF93DF931F92DC
:102C7000CDB7DEB70E9409168F3F11F481E003C083
:102C8000853029F482E00E9479118FEF40C089835A
:102C90000E94B10F8981E82EFF24E7FCF0948701A0
:102CA000000F111FD801AE0DBF1DA25AB04F1296D2
:102CB0009C91911116C0E0917E0FF0917F0F97814A
:102CC00092609783992787FD9095A92FB92F818BC3
:102CD000928BA38BB48B0E94B30F80E090E00E9494
:102CE0005D19F801EE0DFF1DE25AF04F828181500F
:102CF0008283A0917E0FB0917F0F81811B968C9370
:102D00001B9781E014968C930E94B30F81E00F9083
:102D1000DF91CF911F910F91FF90EF900895CF9287
:102D2000DF92EF92FF920F931F93CF93DF931F9247
:102D3000CDB7DEB70E9409168F3F11F481E003C0C2
:102D4000853029F482E00E9479118FEF4BC0282F43
:102D5000332727FD30958901000F111F020F131F24
:102D6000025A104FD80112962C9112979C91291754
:102D7000C4F589830E94B10FF80192819F5F92830D
:102D8000E0917E0FF0917F0F1482E6E3FEE008E30E
:102D90001EE08981C82EDD24C7FCD094ED2CFD2CCB
:102DA00023E030813230A1F44285538564857585F6
:102DB0004C155D056E057F0559F4D8012C931686D8
:102DC0001786108A118A1082128613861486158639
:102DD000BB96055D1F4FBFE0E336FB0711F70E946E
:102DE000B30F81E00F90DF91CF911F910F91FF9072
:102DF000EF90DF90CF9008950E9409168F3F11F455
:102E000081E003C0853029F482E00E9479118FEFC0
:102E10000895992787FD9095FC01EE0FFF1FE80F9D
:102E2000F91FE25AF04F8FEF808382838183809174
:102E30007D0F815080937D0F81E00895E091730FA5
:102E4000F091740F80810895E091730FF091740FE9
:102E5000309721F00380F481E02DFACF0895CF92CE
:102E6000DF92EF92FF920F931F93CF93DF93E09146
:102E70002D0EF0912E0E309709F48AC04091730FF9
:102E80005091740F4115510509F446C0DA019BE2D7
:102E9000692F782F760390011124215D314F89012C
:102EA000065F1F4F7901C4E0EC0EF11C255F3F4F18
:102EB0006C9170E0969FE001979FD00D1124C15D49
:102EC000D14FDC80DD2029F0DB84E801C880DC14F0
:102ED00028F1E701D880DD2061F0969FE001979FFF
:102EE000D00D1124C15DD14FDA84E901C880DC1412
:102EF000A8F0969FE001979FD00D1124C15DD14F9E
:102F00007A85E8016881761748F013960D90BC9198
:102F1000A02D109769F602C0A0E0B0E08083C381C5
:102F2000D481D0932E0EC0932D0EA417B507B1F403
:102F3000109749F0B483A383128211821296FC93F6
:102F4000EE93119706C01482138212821182FA83C3
:102F5000E983F093740FE093730F1AC011968D916B
:102F60009C911297AC17BD0759F092838183B4836B
:102F7000A3831196CD91DC911297FC83EB8304C05F
:102F800014821382928381831296FC93EE9311979D
:102F9000DF91CF911F910F91FF90EF90DF90CF9035
:102FA0000895CF93DF93E091730FF091740F3097F2
:102FB00009F444C0992787FD9095208130E02817B7
:102FC000390781F4A381B481B093740FA093730F78
:102FD00012961C921E92119718C00380F481E02D66
:102FE000309761F1208130E028173907B1F7C181AE
:102FF000D281838194819C838B83A381B481109738
:1030000021F01296DC93CE931197A0912D0EB091E2
:103010002E0E109739F4F0932E0EE0932D0E14829D
:1030200013820AC0B483A3831296FC93EE93119784
:10303000F0932E0EE0932D0E12821182DF91CF912C
:103040000895EF92FF920F931F93CF93DF93EC01BC
:103050004B815C8169817A818D819E810E949C2552
:103060002F81222371F04B815C81E12CF12C00E057
:1030700010E020E030E0BC01CE010E94A3101F82CE
:103080000CC0E8812BE2E202F0011124E15DF14F76
:1030900021852330B9F491838083E8818BE2E802B3
:1030A000F0011124E15DF14F458956896789708DE2
:1030B000452B462B472B41F482E0818788810E9473
:1030C0002F1702C08FEF01C081E0DF91CF911F91D8
:1030D0000F91FF90EF9008951F93CF93DF93CDB79B
:1030E000DEB728970FB6F894DEBF0FBECDBF298399
:1030F0003A834B835C836D837E838F8398870E94A2
:10310000B10F0E94C522182FCE0101960E94D41C37
:103110006330710598F0E0917E0FF0917F0F212FC1
:1031200030E0260F371FC901A0E0B0E0858B968BF9
:10313000A78BB08F0E94B30F81E001C08FEF28965C
:103140000FB6F894DEBF0FBECDBFDF91CF911F91B8
:1031500008950E946E25E0917E0FF0917F0F85818A
:103160008111F7CF0895CF930E94B3130E94B10F3E
:10317000E0917E0FF0917F0F81E090E092A781A710
:1031800081E085830E94C522C82F883F88F40E9471
:103190005F222C2F30E02F5F3F4F482F50E0241745
:1031A000350734F482E08C0F8093560D0E94632221
:1031B0000E94B30F0E94A91881E0CF910895E09179
:1031C0007E0FF0917F0F80850E94D117E0917E0FD6
:1031D000F0917F0F84E081870E94B31881E0089509
:1031E000CF93DF93EC010E94B313209711F4C1E059
:1031F000D0E00E94B10FE0917E0FF0917F0F81E04F
:103200008583D2A7C1A70E94C522C82F883F88F412
:103210000E945F222C2F30E02F5F3F4F482F50E05D
:103220002417350734F482E08C0F8093560D0E94EA
:1032300063220E94B30F0E94A91881E0DF91CF9111
:103240000895FF920F931F93CF93DF938C010E94F9
:10325000B10FE0917E0FF0917F0F81E085830E9496
:10326000C522F82EE0917E0FF0917F0FC82FD0E09D
:10327000AE01400F511F60E070E0458B568B678BAD
:10328000708F87EF8F1570F00E945F222196282F94
:1032900030E0C217D30734F482E08F0D8093560DCF
:1032A0000E9463220E94B30F0E94A91881E0DF915F
:1032B000CF911F910F91FF900895CF93DF93EC0171
:1032C0000E94B10FE0917E0FF0917F0F21E02583E6
:1032D000CE01A0E0B0E0858B968BA78BB08F0E94CB
:1032E000C522C82F883F88F40E945F222C2F30E02F
:1032F0002F5F3F4F482F50E02417350734F482E00A
:103300008C0F8093560D0E9463220E94B30F0E947F
:10331000A91881E0DF91CF910895CF930E94B10F5A
:10332000E0917E0FF0917F0F81E0858386830E947C
:10333000C522C82F883F88F40E945F222C2F30E0DE
:103340002F5F3F4F482F50E02417350734F482E0B9
:103350008C0F8093560D0E9463220E94B30F0E942F
:10336000A91881E0CF9108951F93CF93DF93CDB734
:10337000DEB728970FB6F894DEBF0FBECDBF298306
:103380003A834B835C836D837E838F8398870E940F
:10339000B3130E94B10FE0917E0FF0917F0F81E097
:1033A000858381E090E092A781A70E94C522182F13
:1033B000CE0101960E94D41CE0917E0FF0917F0F08
:1033C000610F711D811D911D658B768B878B908F91
:1033D000183F88F40E945F22212F30E02F5F3F4F7B
:1033E000482F50E02417350734F482E0810F809392
:1033F000560D0E9463220E94B30F0E94A91881E01B
:1034000028960FB6F894DEBF0FBECDBFDF91CF91E7
:103410001F9108958F929F92AF92BF92CF92DF92A9
:10342000EF92FF920F931F93CF93DF93CDB7DEB749
:1034300060970FB6F894DEBF0FBECDBF29873A87DD
:103440004B875C876D877E878F87988BCE0101962F
:103450000E94661A89809A80AB80BC80CD80DE8015
:10346000EF80F88409851A852B853C854D855E851E
:103470006F857889CE0109960E94C21A8F3F61F04C
:1034800029853A854B855C856D857E858F859889F4
:103490000E94B41981E001C08FEF60960FB6F894D6
:1034A000DEBF0FBECDBFDF91CF911F910F91FF9077
:1034B000EF90DF90CF90BF90AF909F908F90089546
:1034C000E0917E0FF0917F0F80850895CF92DF927B
:1034D000EF92FF92CF93DF93EC011C821D821E823C
:1034E0001F824091750F5091760F6091770F709108
:1034F000780F488359836A837B83C090790FD0907B
:103500007A0FE0907B0FF0907C0FCC82DD82EE8210
:10351000FF820E94C522A82FB0E023EB36EE4EE0DA
:1035200050E00E9498276C0D7D1D8E1D9F1D6C83A1
:103530007D838E839F834C815D816E817F81411568
:103540008AEC58078AE968078BE37807A0F05A5C91
:103550006A497B434C835D836E837F8348815981B5
:103560006A817B814F5F5F4F6F4F7F4F48835983E5
:103570006A837B83E0CFDF91CF91FF90EF90DF9064
:10358000CF9008958F929F92AF92BF92CF92DF9289
:10359000EF92FF920F931F93CF93DF93CDB7DEB7D8
:1035A00060970FB6F894DEBF0FBECDBFFC01098354
:1035B0001A832B833C834D835E836F837887898650
:1035C0009A86AB86BC86CD86DE86EF86F88A8980B1
:1035D0009A80AB80BC800D811E812F813885C98483
:1035E000DA84EB84FC844D855E856F8578898C1444
:1035F0009D04AE04BF0408F43FC0C814D904EA0413
:10360000FB0491F40417150726073707A8F1041BDC
:10361000150B260B370B0483158326833783108203
:1036200011821282138226C0041715072607370756
:1036300088F481E0881A9108A108B1088C189D08C7
:10364000AE08BF0880829182A282B38216532546BB
:10365000344C08C08C189D08AE08BF088082918247
:10366000A282B382041B150B260B370B0483158330
:103670002683378381E001C08FEF60960FB6F89400
:10368000DEBF0FBECDBFDF91CF911F910F91FF9095
:10369000EF90DF90CF90BF90AF909F908F90089564
:1036A000FC01448155816681778141158AEC580778
:1036B0008AE968078BE37807A0F05A5C6A497B4384
:1036C000448355836683778340815181628173810E
:1036D0004F5F5F4F6F4F7F4F408351836283738390
:1036E000E0CF08958F929F92AF92BF92CF92DF92D8
:1036F000EF92FF920F931F93CF93DF93CDB7DEB777
:1037000060970FB6F894DEBF0FBECDBF09831A8352
:103710002B833C834D835E836F83788789869A866B
:10372000AB86BC86CD86DE86EF86F88A49855A85CB
:103730006B857C8509811A812B813C81400F511F4B
:10374000621F731FFC0140835183628373834D8525
:103750005E856F8578890D811E812F813885400FA8
:10376000511F621F731F44835583668377830E94B2
:10377000501B81E060960FB6F894DEBF0FBECDBF40
:10378000DF91CF911F910F91FF90EF90DF90CF903D
:10379000BF90AF909F908F9008956093750F709336
:1037A000760F8093770F9093780F2093790F309353
:1037B0007A0F40937B0F50937C0F08952F923F9286
:1037C0004F925F926F927F928F929F92AF92BF9231
:1037D000CF92DF92EF92FF920F931F93CF93DF93DD
:1037E000CDB7DEB762970FB6F894DEBF0FBECDBF80
:1037F000DC014D905D906D907C90139714966D91C7
:103800007D918D919C91179741145104610471042D
:1038100009F46CC0B2E44B1651046104710408F061
:103820006DC07B018C0120E030E0A9016983FA8240
:103830000B831C832D833E834F835887A0E0B0E029
:10384000198A1A8A312C812CF0E0E0E0912C9D013C
:1038500049895A89632D782D8F2F9E2FA980BA8090
:10386000CB80DC80ED80FE800F8118850E943A2895
:10387000222E39874A875B876C877D878E879F8753
:103880009D0149895A89632D782D8F2F9E2F36539C
:103890004546544C6F4F7F4F8F4F9F4FD901498BF7
:1038A0005A8B362E872EF82FE92F492D50E060E0F5
:1038B00070E0441555056605770510F49394C7CF5D
:1038C00083EBA82E96EEB92E2EE0C22ED12CE12C41
:1038D000F12C00E010E0222D39854A855B856C854E
:1038E0007D858E859F850E94D72706C023EB36EE07
:1038F0004EE050E00E94B327C90102C080E090E092
:1039000062960FB6F894DEBF0FBECDBFDF91CF91A8
:103910001F910F91FF90EF90DF90CF90BF90AF90ED
:103920009F908F907F906F905F904F903F902F90DF
:103930000895CF92DF92EF92FF92CF93DF93CDB7AE
:10394000DEB728970FB6F894DEBF0FBECDBF6B0170
:103950007C013AE0F694E794D794C7943A95D1F76E
:10396000C982DA82EB82FC829B01AC01337044276E
:10397000552763EB76EE8EE090E00E94A3276D83DF
:103980007E838F8398872C2D3A814B815C8128968A
:103990000FB6F894DEBF0FBECDBFDF91CF91FF9081
:1039A000EF90DF90CF9008952F923F924F925F92C9
:1039B0006F927F928F929F92AF92BF92CF92DF923F
:1039C000EF92FF920F931F93CF93DF93CDB7DEB7A4
:1039D00062970FB6F894DEBF0FBECDBFDC014D90ED
:1039E0005D906D907C90139714966D917D918D9163
:1039F0009C911797411451046104710409F466C045
:103A00007B018C0120E030E0A9016983FA820B83FD
:103A10001C832D833E834F835887A0E0B0E0198A32
:103A20001A8A312C812CF0E0E0E0912C9D0149892B
:103A30005A89632D782D8F2F9E2FA980BA80CB8035
:103A4000DC80ED80FE800F8118850E943A28222EAE
:103A500039874A875B876C877D878E879F879D0123
:103A600049895A89632D782D8F2F9E2F36534546CD
:103A7000544C6F4F7F4F8F4F9F4FD901498B5A8BBB
:103A8000362E872EF82FE92F492D50E060E070E0A8
:103A9000441555056605770510F49394C7CF43EB9D
:103AA000A42E56EEB52E6EE0C62ED12CE12CF12CB4
:103AB00000E010E0222D39854A855B856C857D8587
:103AC0008E859F850E94D727CA0107C023EB36EE5B
:103AD0004EE050E00E94B327CA01B90162960FB6CA
:103AE000F894DEBF0FBECDBFDF91CF911F910F9134
:103AF000FF90EF90DF90CF90BF90AF909F908F900E
:103B00007F906F905F904F903F902F900895C1E00D
:103B10000E94B3130E945F22843010F4C093720F8E
:103B20000E946E258091580D853519F088E00E941D
:103B3000271280913A41853559F388E00E94271277
:103B4000E7CF2F923F924F925F926F927F928F9228
:103B50009F92AF92BF92CF92DF92EF92FF920F931C
:103B60001F93CF93DF93CDB7DEB727970FB6F894A7
:103B7000DEBF0FBECDBF0E9493210E94B10F8AEF1E
:103B80000E9463220E945F25A091560DB0E023EBB6
:103B900036EE4EE050E00E9498276B017C01809148
:103BA000790F90917A0FA0917B0FB0917C0FC80E86
:103BB000D91EEA1EFB1EC701B6010E94B327009161
:103BC000750F1091760F2091770F3091780FC61AEC
:103BD000D70AE80AF90A63EB462E66EE562E6EE027
:103BE000662E712C480159019FEF891A990AA90A7A
:103BF000B90AC114AAECDA06AAE9EA06ABE3FA06A6
:103C000098F08AECD81A8AE9E80A8BE3F80AC70127
:103C1000B601A30192010E94B327C61AD70AE80A87
:103C2000F90A95018401DECF0093750F1093760F8A
:103C30002093770F3093780FC092790FD0927A0F3C
:103C4000E0927B0FF0927C0FE0917E0FF0917F0F5E
:103C50008581882339F18185843021F18781823003
:103C600029F0882341F08681811102C085E001C0DE
:103C700083E0818714C083E081871782168285895B
:103C80009689A789B08D892B8A2B8B2B41F4818D46
:103C9000928DA38DB48D858B968BA78BB08F8085ED
:103CA0000E94D117E0917E0FF0917F0F85A196A120
:103CB000A7A1B0A5892B8A2B8B2B09F444C02085A2
:103CC000222309F440C081858430E9F1458D568D69
:103CD000678D70A18091560D90E0A0E0B0E048178C
:103CE00059076A077B0768F4622F82E00E9432124C
:103CF000E0917E0FF0917F0F158E168E178E10A219
:103D000008C0481B590B6A0B7B0B458F568F678F7A
:103D100070A3E0917E0FF0917F0F1085458D568D39
:103D2000678D70A1452B462B472B69F4612F83E0EB
:103D30000E943212E0917E0FF0917F0F83E0818725
:103D4000812F0E94D117E7E3FEE0FF83EE8338E383
:103D5000232E3EE0332E44E4A42E4EE0B42E86E320
:103D60009EE09C838B83A5E3BEE0BA83A98354E3E2
:103D7000852E5EE0952E00E61AEE1D82EE81FF8113
:103D800080818F3F09F433C1D4011C928081882344
:103D900009F46AC0F1018081843009F465C0D5015D
:103DA000CD90DD90ED90FC906091560D70E080E03C
:103DB00090E0C616D706E806F90650F0C61AD70AEC
:103DC000E80AF90AF501C082D182E282F38206C0D4
:103DD000D5011D921D921D921C921397EE81FF81B9
:103DE000C188D288E388F488C616D706E806F906A3
:103DF00048F0C61AD70AE80AF90AC18AD28AE38AC1
:103E0000F48A20C0EE81FF81218D328D438D548D47
:103E1000621773078407950758F469017A01C61A77
:103E2000D70AE80AF90AC18AD28AE38AF48A0AC060
:103E30000E94B327AE81BF8151966D937D938D9380
:103E40009C935497EE81FF8181899289A389B489DB
:103E5000892B8A2B8B2B41F4818D928DA38DB48D70
:103E6000818B928BA38BB48BD1018C91833009F021
:103E7000BEC0F50180819181A281B381892B8A2BFB
:103E80008B2B09F0A2C0AB81BC818C918823C1F03F
:103E9000E981FA818081882399F081E090E0A0E0B7
:103EA000B0E000906E0F04C0880F991FAA1FBB1FBF
:103EB0000A94D2F7EE81FF8181879287A387B48726
:103EC000AB81BC811C92E981FA811082D4011C92E1
:103ED000F50184899589AE81BF815D964D915D9193
:103EE0006D917C919097019761F5FD01458B568B03
:103EF000678B708FE2E0D101EC93EE81FF818189C5
:103F00009289A389B489F50180839183A283B383C5
:103F1000EE81FF81818D928DA38DB48D892B8A2BAB
:103F20008B2B59F42AEFC22ED12CE12CF12CD50188
:103F3000CD92DD92ED92FC9213978D810E942F1706
:103F400044C0EE81FF81458B568B678B708FD50106
:103F500054964D905C905597B1E04B1A5108612CE6
:103F6000712C618D728D838D948DA30192010E94BD
:103F7000A327F5016083718382839383AE81BF8120
:103F80005996CD90DD90ED90FC905C97C701B601FD
:103F90000E94A327EE81FF81618B728B838B948BB0
:103FA000CD28CE28CF2859F49AEFC92ED12CE12C58
:103FB000F12CD501CD92DD92ED92FC921397CC2499
:103FC000C394D12CF501D58AC48AF50180819181F1
:103FD000A281B3810097A105B10549F0A80160E075
:103FE00070E084179507A607B70708F48C01FD81D8
:103FF000FF5FFD838E819F818B969F838E839BE2E3
:10400000290E311CABE2AA0EB11CEB81FC81BB96E0
:10401000FC83EB8389819A818B969A8389839BE2C7
:10402000890E911CAD81A73009F0A8CE0E941E1701
:10403000B82EBBE28B02F0011124E15DF14F8285C5
:104040008093800FF093700FE0936F0FBB20D9F037
:1040500045A156A167A170A5452B462B472B99F08A
:10406000458D568D678D70A14A3F510561057105DB
:1040700050F46801E12CF12C4C155D056E057F05AF
:1040800010F48A0105C00B3F110510F00AEF10E093
:104090008093710FF0937F0FE0937E0F0093560D86
:1040A0000E94C522282F30E02F5F3F4F2017310795
:1040B00040F00E94C522082F10E00E5F1F4F0093B2
:1040C000560DB1101092720F802F0E9463220E9431
:1040D000FA2527960FB6F894DEBF0FBECDBFDF914D
:1040E000CF911F910F91FF90EF90DF90CF90BF90F5
:1040F000AF909F908F907F906F905F904F903F9088
:104100002F900C9405264091AA0F141694F054E0B9
:10411000450290011124F901E555F04F6083F90142
:10412000E355F04F918380834F5F4093AA0F81E066
:1041300008958FEF08950F931F93CF93DF93062F6A
:104140004091AA0F552747FD509510E0E82FF0E069
:10415000212F30E0241735078CF5E901CC0FDD1F46
:10416000CC0FDD1FDE01A555B04F8C91992787FD3F
:1041700090958E179F0701F5F901E155F04F808169
:1041800081110EC081E08083FE01E355F04F019064
:10419000F081E02D20E040E050E0602F80E00995C4
:1041A000C355D04FE881F98120E040E050E0602F16
:1041B00081E00995812F03C01F5FCACF8FEFDF9188
:1041C000CF911F910F910895E82FF0E08091AA0FF1
:1041D000992787FD90958E179F077CF0EE0FFF1FA4
:1041E000EE0FFF1FE355F04F0190F081E02D20E02E
:1041F00040E050E060E082E0099481E00E947911A3
:104200008FEF0895242FE82FF0E08091AA0F9927CF
:1042100087FD90958E179F076CF0EE0FFF1FEE0F36
:10422000FF1FE355F04F0190F081E02DAB0160E0FE
:1042300086E0099481E00E9479118FEF0895242F80
:10424000E82FF0E08091AA0F992787FD90958E17AF
:104250009F076CF0EE0FFF1FEE0FFF1FE355F04FAF
:104260000190F081E02DAB0160E085E0099481E0F0
:104270000E9479118FEF0895242FE82FF0E08091AC
:10428000AA0F992787FD90958E179F076CF0EE0F68
:10429000FF1FEE0FFF1FE355F04F0190F081E02D5F
:1042A00040E050E084E0099481E00E9479118FEFB2
:1042B0000895E82FF0E08091AA0F992787FD909547
:1042C0008E179F0774F0EE0FFF1FEE0FFF1FE355D1
:1042D000F04F0190F081E02D20E040E050E083E0DD
:1042E000099481E00E9479118FEF08950000000089
:1042F00000000000000000000000000000000000BE
:10430000000000000197009789F70895109221019D
:10431000089589E0809321018DE89CE39093290121
:104320008093280108951092250110922401089588
:10433000CF93DF9300D0CDB7DEB780912401909169
:1043400025019A83898389819A810F900F90DF914B
:10435000CF91089510928100089581E080938100AB
:10436000089583B5816083BD10928500109284000A
:104370000895CF93DF9300D0CDB7DEB7809184004E
:10438000909185009A83898389819A810F900F90FB
:10439000DF91CF910895CF92DF92EF92FF92CF936A
:1043A000DF93EC01CC0FDD1FC9378FEFD80710F07A
:1043B000C0E0D0E06B01E12CF12CCC0EDD1EE11C45
:1043C000F11C81E0C816D104E806F10440F081E058
:1043D000E81AF1080E94B921C817D907D8F30E943A
:1043E000B9218C159D05D8F3DF91CF91FF90EF9007
:1043F000DF90CF9008951092B100E0E7F0E0808167
:104400008D7F808380818E7F808308958093B2002A
:104410000895E0E7F0E080818360808383E080930B
:10442000B100089583B5826083BD1092B2001092EE
:1044300020051092560D0895CF93DF938EEF809351
:10444000560D80E28093B6008091560D8093B300A4
:1044500083E087BB92E09093B0008093B10093B566
:10446000926093BD87BB84BD83B5826083BD10928B
:10447000800081E08093810010928500109284007A
:1044800083B5826083BD83B5816083BD10922001B6
:10449000C4E2D1E01982188283B5826083BD83B5FE
:1044A000816083BD0E941222198218820E94092213
:1044B0000E94892110922005DF91CF91089580916B
:1044C000B3008F5F089581508093B30008958111E8
:1044D00002C0109271008FEF0895811106C01092F2
:1044E00095001092940081E008958FEF0895811156
:1044F00005C08091940090919500089580E090E02F
:104500000895811105C082E08093710081E00895D3
:104510008FEF0895811135C0CB010197059710F4F5
:104520006093E10C1092900088E08093910050938A
:104530009900409398003093FB042093FA048091F3
:10454000E10C813021F480919100816011C08230B2
:1045500021F48091910082600BC0833021F480911E
:104560009100836005C0843031F4809191008460B3
:104570008093910008C0853031F48091910085606E
:10458000F7CF8FEF089581E008958091B2000895EC
:104590001F920F920FB60F92112460E08AE00E94E2
:1045A0003212FFCF0F920FB60F921F922F923F92AF
:1045B0004F925F926F927F928F929F92AF92BF9233
:1045C000CF92DF92EF92FF920F931F932F933F931F
:1045D0004F935F936F937F938F939F93AF93BF930B
:1045E000CF93DF93EF93FF93A0917E0FB0917F0F56
:1045F0000DB60D920EB60D921F92A091CB0BB091FD
:10460000CC0B1E90BEBFADBF08951F920F920FB688
:104610000F9211240BB60F922F933F934F935F93FA
:104620006F937F938F939F93AF93BF93EF93FF937A
:10463000E091FA04F091FB04309711F0099504C061
:1046400060E08AE00E943212FF91EF91BF91AF913A
:104650009F918F917F916F915F914F913F912F919A
:104660000F900BBE0F900FBE0F901F9018951F92CA
:104670000F920FB60F9211240F900FBE0F901F9044
:10468000189504B603FC02C080E001C080E104B6C6
:1046900002FE06C094B79B7F94BF04B600FE846000
:1046A00004B601FE05C094B79D7F94BF8260089553
:1046B00081110CC004B600FE04C094B79E7F94BF65
:1046C00001C081E09091B000911181E008958111C5
:1046D00002C0E89A39C0813011F4E99A0895823015
:1046E00011F4EA9A31C0833021F480916B0081602B
:1046F00029C0843021F480916B00826023C0853012
:1047000021F480916B0084601DC0863021F480917B
:104710006B00886017C0873021F480916B00806146
:1047200011C0883021F480916B0080620BC0893009
:1047300021F480916B00806405C08A3039F4809147
:104740006B00806880936B0081E008958FEF08957F
:10475000811102C0E89839C0813011F4E9980895B8
:10476000823011F4E99831C0833021F480916B00DC
:104770008E7F29C0843021F480916B008D7F23C00F
:10478000853021F480916B008B7F1DC0863021F431
:1047900080916B00877F17C0873021F480916B0078
:1047A0008F7E11C0883021F480916B008F7D0BC00B
:1047B000893021F480916B008F7B05C08A3039F4F9
:1047C00080916B008F7780936B0081E008958FEF6D
:1047D0000895811126C05093B30F4093B20F611119
:1047E00004C0809169008C7F3DC0613049F48091A4
:1047F00069008D7F8093690080916900816032C07B
:10480000623049F4809169008260809369008091F0
:1048100069008E7F27C0633039F58091690083601D
:1048200021C0813049F55093B10F4093B00F611111
:1048300004C080916900837F15C0613049F4809184
:104840006900877F809369008091690084600AC055
:10485000623061F480916900886080936900809182
:1048600069008B7F8093690081E008956330E1F7F0
:10487000809169008C60F6CF823031F55093B50F8E
:104880004093B40F611104C0809169008F7CEACF1E
:10489000613049F4809169008F7D80936900809137
:1048A00069008061DFCF623049F4809169008062E5
:1048B00080936900809169008F7ED4CF6330A1F628
:1048C000809169008063CECF8350883050F480910E
:1048D00068008160809368005093B70F4093B60FD3
:1048E000C3CF8FEF08951F920F920FB60F9211242E
:1048F0000BB60F922F933F934F935F936F937F93DA
:104900008F939F93AF93BF93EF93FF93E091B60F75
:10491000F091B70F309711F0099504C060E08AE07C
:104920000E943212FF91EF91BF91AF919F918F91B1
:104930007F916F915F914F913F912F910F900BBE9F
:104940000F900FBE0F901F9018951F920F920FB6E9
:104950000F9211240BB60F922F933F934F935F93B7
:104960006F937F938F939F93AF93BF93EF93FF9337
:10497000E091B20FF091B30F309711F0099504C098
:1049800060E08AE00E943212FF91EF91BF91AF91F7
:104990009F918F917F916F915F914F913F912F9157
:1049A0000F900BBE0F900FBE0F901F9018951F9287
:1049B0000F920FB60F9211240BB60F922F933F93C5
:1049C0004F935F936F937F938F939F93AF93BF9317
:1049D000EF93FF93E091B00FF091B10F309711F08A
:1049E000099504C060E08AE00E943212FF91EF91C5
:1049F000BF91AF919F918F917F916F915F914F91F7
:104A00003F912F910F900BBE0F900FBE0F901F90F4
:104A100018951F920F920FB60F9211240BB60F929A
:104A20002F933F934F935F936F937F938F939F93B6
:104A3000AF93BF93EF93FF93E091B40FF091B50F55
:104A4000309711F0099504C060E08AE00E943212AC
:104A5000FF91EF91BF91AF919F918F917F916F9156
:104A60005F914F913F912F910F900BBE0F900FBE12
:104A70000F901F9018950E94B10FA89584B7877F5B
:104A800084BFE0E6F0E080818861808310820C942E
:104A9000B30F0E94B10FA89584B7877F84BFE0E66B
:104AA000F0E08081886180838DE080830C94B30F77
:104AB00004B603FC02C081E008958FEF0895A89525
:104AC0000895089583B7817F866083BF83B781602F
:104AD00083BF889583B78E7F83BF089583B7817F17
:104AE00083BF83B7816083BF889583B78E7F83BF81
:104AF0000895FC01768365830895EF92FF920F93EA
:104B00001F93CF93DF93EC018B017A014032510563
:104B100018F481E10E942712A70141505109400F6A
:104B2000511F5A8349831C830B83DF91CF911F91BF
:104B30000F91FF90EF90089525E5FA012083FB0186
:104B400032979083FB0131978083FB013497118268
:104B50001082FB01369711821082FB013897118277
:104B60001082FB013A9711821082FB013C9711825F
:104B70001082FB013E9711821082FB017097118217
:104B80001082FB01729711821082FB0174971182CF
:104B90001082FB01769711821082FB0178971182B7
:104BA0001082FB017A9711821082FB017C9711829F
:104BB0001082FB017E9711821082FB01B097118257
:104BC0001082FB01B29711821082CB018497FC0105
:104BD00011821082089585E580933A41EEEFF1E469
:104BE000F093CC0BE093CB0B84E791E1908380931F
:104BF000FF41089584E791E19093FE418093FF4146
:104C000008950E941C220C94B30FA0916F0FB091D5
:104C1000700FCD91CDBFDD91DEBFFF91EF91DF91A0
:104C2000CF91BF91AF919F918F917F916F915F9144
:104C30004F913F912F911F910F91FF90EF90DF9037
:104C4000CF90BF90AF909F908F907F906F905F902C
:104C50004F903F902F901F900F900FBE0F90189580
:104C60000E94AE0B80E190E00E94D60E8FEE92E0A3
:104C70000E9447290E94B80F20E030E0A90160E0BF
:104C800070E0CB010E94CD1B0E9479030E94661048
:104C900080E090E008956F927F929F92AF92BF92D2
:104CA000CF92DF92EF92FF920F931F93CF93DF93F8
:104CB000CDB7DEB72C970FB6F894DEBF0FBECDBFD1
:104CC0008C017B013A01FC0117821682838181FFEE
:104CD00019C1CE0101965C01F801D380F701D3FC24
:104CE0002591D3FE21917F01222309F407C12532AA
:104CF00049F4D3FC2591D3FE21917F01253211F097
:104D0000912C1BC0B801822F90E00E94FD28630106
:104D10003601E2CF222309F4F1C0622F70E087E16F
:104D200094E02C870E9452282C85892B49F0F701AA
:104D3000D3FC2591D3FE21917F0197FEEBCF0CC0D0
:104D4000233221F4F92DF0619F2EF1CF2C3639F466
:104D5000292D2068922EEBCF222309F4CFC0622F99
:104D600070E080E194E02C870E9452282C85892BEA
:104D700041F06301F4E0CF0ED11CB8018FE390E065
:104D800012C0233641F0233789F0233521F5F92D60
:104D9000F1609F2E0BC0630122E0C20ED11CB8014E
:104DA000F301808191810E94FD28B2CF630122E04E
:104DB000C20ED11CF30160807180F30190FC8591DB
:104DC00090FE81913F01882309F4A2CFB80190E0C1
:104DD0000E94FD28F2CF243611F0293639F56301FF
:104DE00097FE09C0F4E0CF0ED11CF3016081718100
:104DF000828193810AC0F2E0CF0ED11CF301608161
:104E00007181882777FD8095982FF92DFF7E9F2E41
:104E100097FF09C090958095709561957F4F8F4F52
:104E20009F4FF0649F2E2AE030E038C02037A1F079
:104E300040F42835D1F02F3609F060C028E030E08A
:104E400019C0253719F0283751F058C0292D2F7E69
:104E5000922E2AE030E00EC0892D8061982E992D87
:104E60009462992E20E130E005C0E92DE4609E2E89
:104E700020E132E0630197FE09C0F4E0CF0ED11CBF
:104E8000F301608171818281938108C0F2E0CF0ECD
:104E9000D11CF3016081718180E090E0A5010E9446
:104EA000A329782E7A1896FE05C0B8018DE290E00D
:104EB0000E94FD2894FE16C0FE01E70DF11D8081C1
:104EC000803381F0B80180E390E00E94FD2892FEDB
:104ED00009C0292D2072822F90E0B801885A9F4F77
:104EE0000E94FD287A94F501E70DF11D8081B8013B
:104EF00090E00E94FD287110F5CF0ACFF80186815D
:104F0000978102C08FEF9FEF2C960FB6F894DEBF0B
:104F10000FBECDBFDF91CF911F910F91FF90EF900A
:104F2000DF90CF90BF90AF909F907F906F9008954B
:104F30000E944328A59F900DB49F900DA49F800DC3
:104F4000911D11240895DB018F939F930E94982750
:104F5000BF91AF91A29F800D911DA39F900DB29F15
:104F6000900D11240895A1E21A2EAA1BBB1BFD016E
:104F70000DC0AA1FBB1FEE1FFF1FA217B307E40738
:104F8000F50720F0A21BB30BE40BF50B661F771F90
:104F9000881F991F1A9469F7609570958095909570
:104FA0009B01AC01BD01CF010895689401C0E89454
:104FB0008F929F92CF93DF930E94E327DF91CF914F
:104FC0009F908F90089588249924F401E401B0E41F
:104FD0009F93AA279A158B049C04ED05FE05CF0527
:104FE000D007A10798F4AD2FDC2FCF2FFE2FE92D8E
:104FF000982C892E982F872F762F652F542F432F8B
:10500000322F2227B85031F7BF9127C01B2EBF91F6
:10501000BB27220F331F441F551F661F771F881F92
:10502000991F881C991CEE1FFF1FCC1FDD1FAA1F94
:10503000BB1F8A149B04EC05FD05CE05DF05A00708
:10504000B10748F08A189B08EC09FD09CE09DF0971
:10505000A00BB10B21601A94E1F62EF49401AF017C
:10506000BE01CD01000C0895EE0FFF1F0590F491D5
:10507000E02D09942A0D3B1D4C1D5D1D6E1D7F1DED
:10508000801F911F0895A29FB001B39FC001A39FED
:10509000700D811D1124911DB29F700D811D112471
:1050A000911D0895FC010590061621F00020D9F706
:1050B000C00108953197CF010895FB01DC0102C0C2
:1050C00001900D9241505040D8F70895FB01DC014A
:1050D0004150504030F08D910190801919F400201A
:1050E000B9F7881B990B08950F931F93CF93DF9304
:1050F000EC018B01009731F46115710519F480E022
:1051000090E038C06EE070E081E090E00E94172AE5
:10511000FC010097A1F380E883830115110571F06C
:105120001387028781E883838091B80F9091B90F2C
:10513000892B21F4F093B90FE093B80F2097C9F0B1
:10514000D187C0878381826083838091BA0F9091D9
:10515000BB0F892B71F4F093BB0FE093BA0F8091D2
:10516000BC0F9091BD0F892B21F4F093BD0FE093FC
:10517000BC0FCF01DF91CF911F910F910895CF9375
:10518000DF93EC012B8120FF33C026FF0AC02F7B69
:105190002B838E819F8101969F838E838A8190E0ED
:1051A00029C022FF0FC0E881F9818081992787FDFE
:1051B0009095009719F420622B831AC03196F983D9
:1051C000E8830EC0EA85FB85099597FF09C02B810E
:1051D000019611F480E101C080E2822B8B8308C02C
:1051E0002E813F812F5F3F4F3F832E83992702C03F
:1051F0008FEF9FEFDF91CF9108950F931F93CF9380
:10520000DF93182F092FEB018B8181FD03C08FEFF6
:105210009FEF20C082FF10C04E815F812C813D81B5
:10522000421753077CF4E881F9819F012F5F3F4FBC
:1052300039832883108306C0E885F985812F099575
:10524000892B29F72E813F812F5F3F4F3F832E838C
:10525000812F902FDF91CF911F910F910895CF93C0
:10526000DF93CDB7DEB7FE01359661917191AF0145
:105270008091BA0F9091BB0F0E944B26DF91CF9186
:1052800008956091BA0F7091BB0F0C94FD280F9395
:105290001F93CF93DF93E091BA0FF091BB0F23815F
:1052A00021FF1BC0EC0100E010E089916091BA0F72
:1052B0007091BB0FDB011896ED91FC911997882333
:1052C00031F00995892B89F30FEF1FEFEECF8AE0BC
:1052D0000995892B11F4C80102C08FEF9FEFDF9170
:1052E000CF911F910F9108950F931F93CF93DF9349
:1052F000CDB7DEB72E970FB6F894DEBF0FBECDBF89
:105300000D891E8986E08C831A8309838FEF9FE7BE
:105310009E838D83AE01475E5F4F6F89788DCE018E
:1053200001960E944B26EF81F885E00FF11F108255
:105330002E960FB6F894DEBF0FBECDBFDF91CF9192
:105340001F910F910895FA01AA27283051F12031B9
:1053500081F1E8946F936E7F6E5F7F4F8F4F9F4F09
:10536000AF4FB1E03ED0B4E03CD0670F781F891F4B
:105370009A1FA11D680F791F8A1F911DA11D6A0F19
:10538000711D811D911DA11D20D009F468943F91CC
:105390002AE0269F11243019305D3193DEF6CF01CB
:1053A0000895462F4770405D4193B3E00FD0C9F791
:1053B000F6CF462F4F70405D4A3318F0495D31FDFE
:1053C0004052419302D0A9F7EACFB4E0A695979551
:1053D000879577956795BA95C9F700976105710527
:1053E00008959B01AC010A2E069457954795379571
:1053F0002795BA95C9F7620F731F841F951FA01DCB
:105400000895F999FECF92BD81BDF89A992780B58C
:105410000895262FF999FECF1FBA92BD81BD20BDF8
:105420000FB6F894FA9AF99A0FBE019608950F9361
:105430001F93CF93DF93869F8001879F100D969FC8
:10544000100D1124C8010E94332AEC01009729F0A5
:10545000A80160E070E00E945A2BCE01DF91CF914D
:105460001F910F910895CF93DF938230910510F42F
:1054700082E090E0E091C00FF091C10F20E030E0B9
:10548000A0E0B0E0309739F14081518148175907C9
:10549000B8F04817590771F482819381109729F069
:1054A00013969C938E9312972CC09093C10F809368
:1054B000C00F27C02115310531F04217530718F0EE
:1054C000A901DB0101C0EF019A01BD01DF010280EA
:1054D000F381E02DD7CF21153105F9F0281B390BC9
:1054E0002430310580F48A819B816115710521F09A
:1054F000FB019383828304C09093C10F8093C00FFC
:10550000FE01329644C0FE01E20FF31F8193919396
:1055100022503109398328833AC02091BE0F30913F
:10552000BF0F232B41F420910302309104023093EA
:10553000BF0F2093BE0F209101023091020221156E
:10554000310541F42DB73EB7409105025091060256
:10555000241B350BE091BE0FF091BF0FE217F3074C
:10556000A0F42E1B3F0B2817390778F0AC014E5FD3
:105570005F4F2417350748F04E0F5F1F5093BF0F42
:105580004093BE0F8193919302C0E0E0F0E0CF0121
:10559000DF91CF910895CF93DF93009709F487C0EF
:1055A000FC01329713821282C091C00FD091C10FBB
:1055B000209781F420813181280F391F8091BE0FFF
:1055C0009091BF0F8217930779F5F093BF0FE09387
:1055D000BE0F6DC0DE0120E030E0AE17BF0750F413
:1055E00012964D915C9113979D014115510509F15A
:1055F000DA01F3CFB383A28340815181840F951FD9
:105600008A179B0771F48D919C911197840F951FB8
:1056100002969183808312968D919C911397938328
:1056200082832115310529F4F093C10FE093C00F57
:105630003EC0D9011396FC93EE9312974D915D9164
:10564000A40FB51FEA17FB0779F480819181840FBD
:10565000951F0296D90111969C938E938281938116
:1056600013969C938E931297E0E0F0E08A819B81E1
:10567000009719F0FE01EC01F9CFCE0102962881C6
:105680003981820F931F2091BE0F3091BF0F2817D1
:10569000390769F4309729F41092C10F1092C00FA6
:1056A00002C013821282D093BF0FC093BE0FDF914E
:1056B000CF910895DC0101C06D9341505040E0F757
:0656C0000895F894FFCFED
:1056C600F80000C20F20003D352D251D150D053DA6
:1056D600352D251D150D052E261E160E06FFFF0C53
:1056E600043C342C241C140C043B332B231B130BBB
:1056F6003B332B231B130B03FFFFFFFFFFFFFFFFB4
:10570600393129211911090119110901FFFFFFFF7B
:10571600FFFFFFFFFFFFFFFF6572726F7220706170
:10572600636B65745F7278207369676E616C0024C1
:105736005241443A0057616974696E6720666F7218
:10574600207061636B65742E2E2E0D005041434B05
:105756004554205245414459002D2D2D2052465F77
:105766005458204552524F52202D2D2D0D00457272
:10577600726F72206372656174696E6720756172FB
:1057860074207369676E616C006572726F72207245
:1057960065676973746572696E67207561727420D6
:1057A6007369676E616C004E45574C494E450073F0
:1057B60074617274696E672E2E2E0D0063616C6CB7
:1057C6006261636B2025642025640A00474F5420DC
:1057D6005041434B45540072665F72785F70616357
:1057E6006B65745F6E6F6E626C6F636B206661696A
:1057F6006C65645D0D005061636B65742069732090
:10580600646F6E6520626F756E63696E6720617284
:105816006F756E64210D0A005345513A253475099A
:1058260054544C3A25326409525353493A25346448
:10583600095061796C6F61643A205B25735D0D0ACE
:1058460000525820656E64206661696C6564206349
:105856006865636B73756D210D0025640063757251
:105866003A202564200063616E617279203D20250F
:1058760078200073746B203D2025782000746362C5
:105886002061646472203D2025780D0A0025643A63
:0E58960020626F74746F6D203D202578200015
:00000001FF
