:100000000C9409020C94C1200C94F3200C9425212B
:100010000C9428020C9428020C9428020C942802B8
:100020000C9428020C948F200C9428020C94280223
:100030000C9428020C94EE1E0C9428020C94EE1ED4
:100040000C9428020C9428020C9428020C94280288
:100050000C9428020C9428020C9428020C94280278
:100060000C9428020C9428020C9428020C94280268
:100070000C9428020C9428020C9428020C94280258
:100080000C94211F0C9428020C9428020C94280232
:100090000C9428020C9428020C9428020C94280238
:1000A0000C9428020C9428020C9428020C94280228
:1000B0000C9428020C9428020C9428020C94280218
:1000C0000C9428020C9428020C9428020C94280208
:1000D0000C9428020C9428020C9428020C942802F8
:1000E0000C9428020C9458060C9449060C9419069A
:1000F0000C9418070C940A060C94FB050C94E90563
:100100000C94DA050C9428020C9428020C94280212
:100110000C9428020C9428020C9428020C942802B7
:100120008C089708A208AD08B808C308CE08ED08E7
:10013000F908050911091D0929092909470949096A
:100140004B094D094F095109530971099109B10929
:10015000D109F109110A310A670A730A7F0A8B0A69
:10016000970AA30AAF0AC70AD20ADD0AE80AF30A05
:10017000FE0A090BBB0EBE0EC90ECE0ED50EDE0E4C
:10018000E10EE60EED0EF60E4B0F510F540F570F0A
:100190005A0F5D0F630F600F660F690F6C0F750FBD
:1001A000780F7B0F7E0F720F480F4E0F810F840F59
:1001B0006F0F450F554E4B4F574E00457874657283
:1001C0006E616C2052657365740042726F776E20A9
:1001D0004F757420446574656374004661696C658D
:1001E0006420746F206372656174652053656D616E
:1001F00070686F7265004661696C656420746F2079
:10020000637265617465205369676E616C004B654C
:10021000726E656C2066756E6374696F6E206E6FAA
:100220007420696D706C656D656E746564004465FD
:100230007669636520447269766572204572726FD3
:1002400072005761746368646F67205265737461EC
:100250007274005357205761746368646F6720524B
:100260006573746172740054696D6572204F7665B0
:1002700072666C6F7700556E68616E646C656420A1
:10028000496E7465727275707420566563746F720E
:10029000004C6F7720566F6C746167650045787409
:1002A0007261205461736B20737461727465642C85
:1002B000206973206E726B5F6366672E68206F6BB8
:1002C0003F0049646C65206F72204B65726E656CEF
:1002D00020537461636B204F766572666C6F770094
:1002E000556E6578706563746564205265737461DA
:1002F0007274004475706C69636174656420546144
:10030000736B204944005363686564756C657220A3
:100310004D69737365642057616B65757000546136
:10032000736B20526573657276652056696F6C61D8
:100330007465640052657365727665204572726FEC
:100340007220696E205363686564756C657200493C
:100350006E76616C696420537461636B20506F69C1
:100360006E746572005461736B20537461636B200B
:100370004F766572666C6F7700537461636B20779C
:100380006173206E6F7420646566696E65642061B8
:1003900073206C6172676520656E6F7567682100F8
:1003A0005461736B20706572696F6420746F6F2085
:1003B0006C617267652E20506572696F64206D757F
:1003C0007374206265206C657373207468616E209D
:1003D0003631207365636F6E64732E00293A2000F6
:1003E0002A4E524B204552524F5228000D0A535468
:1003F00041434B2044554D500D0A00454647656624
:100400006700202B2D2E30313233343536373839D2
:10041000680011241FBECFEFD1E4DEBFCDBF13E0D3
:10042000A0E0B2E0EEEDFEE400E00BBF02C00790FA
:100430000D92AE3AB107D9F716E0AEEAB3E001C0CB
:100440001D92A238B107E1F70E944C220C946D274F
:100450000C94E41ECF93DF9382E090E00E94200B87
:1004600083E08093370181E083BB84BB80EE8DB94C
:100470008EB9C6E4D4E0D093BE04C093BD0467E552
:1004800072E0CE010E94B724FE0101900020E9F73E
:100490003197E654F440EF5FE093BC0485E192E1CC
:1004A0009093BB048093BA041092BF041092C004CE
:1004B00081E692E00E9453258AEB94E00E940205B7
:1004C000813031F08AE692E0DF91CF910C94532590
:1004D000DF91CF9108952091AF032F932091AE0328
:1004E0002F939F938F9384EB92E09F938F930E941F
:1004F0003B258091AE039091AF0301969093AF039B
:100500008093AE030F900F900F900F900F900F906D
:100510000895CF93DF93EC0182E090E00E944E0BB0
:1005200024EC32E03F932F930E943B2582E090E041
:100530000E94370B0F900F90CE01DF91CF9108955D
:1005400082E090E00E944E0B8FEC92E09F938F939D
:100550000E943B250F900F9082E090E00C94370BA7
:1005600082E090E00E944E0B8BED92E09F938F9380
:100570000E943B250F900F9082E090E00C94370B87
:10058000909141019F719F31D9F380934201089569
:1005900081E080934A05089510924A05089580915C
:1005A00041018F718F31D9F3809141018F71E1F059
:1005B0008F30D1F0809141018F71883031F480917A
:1005C00039018260809339010BC088E00E94C0022B
:1005D000809141018F718830D9F7F1CF8F3021F0B0
:1005E000809141018F71D1F70895809141018F7100
:1005F0008F31D9F3809141018F7111F08F3051F417
:10060000809139018D7F80933901809141018F71F3
:100610008830D9F70895E5E4F1E09081907F9083E8
:1006200090818F70892B80830895E7E5F1E08081C8
:100630008D7F80830895E7E5F1E08081826080838B
:100640000895EEE6F1E080818F7E80830895EEE6E6
:10065000F1E08081806180830895809360019093B0
:1006600061019093540580935305089590934E052E
:1006700080934D05E8E4F1E08081807E8083808175
:10068000682B608308959093B3038093B203089519
:100690009093B1038093B00308951F93CF93DF939A
:1006A00070E27093440170EC709345016062609356
:1006B000480165EC6093490167EA60934B0160E88B
:1006C00060934C012093600130936101409362017B
:1006D00050936301E6E4F1E0C081A0816081108164
:1006E000C295C695C77070E4C79FE00111241295AA
:1006F000169513701C2BA295A695A37070E1A79F69
:10070000D00111241A2B629566956370A4E06A9F4C
:10071000B0011124162B10936D01608170817295C8
:1007200076957370706462956670672B60936E0146
:1007300010926C016FEF60934E0190934E05809381
:100740004D0510924F05109250055093520540935D
:10075000510530935405209353051092550581E0BF
:1007600080936F0510928E0510925E0510924A05D7
:10077000DF91CF911F91089586E10C94C00286E12C
:100780000C94C00288E00E94C00210928E05089569
:100790003F924F925F926F927F928F929F92AF9211
:1007A000BF92CF92DF92EF92FF920F931F93CF935E
:1007B000DF93EC013B0180916F05811102C08FEF47
:1007C0000FC19E8180914F058F5F80934F0580916F
:1007D0008101807E816090FB85F98F7380648093B6
:1007E000810188E88093820180914A05882361F025
:1007F0008FEF809383018AEA9AEA9093890180932C
:1008000088018FEF9FEF10C080914F058093830187
:10081000209161018091600190E0922B9093890179
:1008200080938801888199819093870180938601C4
:10083000209163018091620190E0922B9093850159
:10084000809384014A81552747FD50956B817C81B7
:100850008AE891E00E94AE248A81855F80938001BE
:1008600080914101982F9F71392E8F709FEF980FC3
:100870009230B0F39FE1391699F398EF930D9230CF
:1008800018F0863009F09BCF86E10E94C0028D816E
:1008900081110AC089E00E94C0028E81882391F0F4
:1008A00089E10E94C0020EC0809148018068809357
:1008B00048018091410187FFFCCF8091410186FF73
:1008C0007ECFE8CF6114710499F186E595E00E942E
:1008D0006B178091560590915705A0915805B091DE
:1008E00059058093700590937105A0937205B0939C
:1008F0007305D30120E432E44FE050E00E94E92385
:1009000000915A0510915B0520915C0530915D05C1
:10091000600F711F821F931F60937405709375059C
:10092000809376059093770580E795E00E945518AF
:1009300010925E0582E00E94C002412C512C8091F1
:100940005E05811108C08FEF481A580A98EE4916C3
:100950009DEF5906A1F76114710421F48E81811174
:100960002DC034C086E595E00E946B178090560537
:1009700090905705A0905805B0905905C0905A0521
:10098000D0905B05E0905C05F0905D0500917005EE
:100990001091710520917205309173054091740595
:1009A0005091750560917605709177058FE895E017
:1009B0000E94C7178F3F09F0BBCFD0CF8091420173
:1009C00082958695877011F0CFEF06C088EE4816A5
:1009D0008DEF5806C9F3C1E0832D0E94C0028C2F11
:1009E000DF91CF911F910F91FF90EF90DF90CF900B
:1009F000BF90AF909F908F907F906F905F904F903F
:100A00003F90089560E070E00C94C803CF93DF93AB
:100A100080916F05882321F180914101C82FCF710A
:100A20008F709FEF980F9230B8F3CF31A9F3C83091
:100A300011F08630A9F486E10E94C002809148013D
:100A40008068809348018091410187FFFCCFD0915D
:100A500041018C2F0E94C002D6FB882780F901C07B
:100A60008FEFDF91CF91089580916F05882309F46E
:100A70009FC080918E05882309F498C080917B01E6
:100A8000E0914D05F0914E0590E0029724813327C7
:100A900027FD3095281739070CF48AC0E0914D05E1
:100AA000F0914E05809182018083E0914D05F09197
:100AB0004E05809187019091880192838183E09116
:100AC0004D05F0914E0580917B018B508383A09161
:100AD0004D05B0914E05E0914D05F0914E051396F0
:100AE0009C91848189173CF0E0914D05F0914E0571
:100AF000838187FF0DC010928E0580914C018F7706
:100B000080934C0180914C01806880934C0150C0CF
:100B1000A0914D05B0914E05E0914D05F0914E0527
:100B200013964C91552747FD509569E871E08581F2
:100B300096810E94AE24E0914D05F0914E05809182
:100B4000800185FB882780F98783E0914D05F0912E
:100B50004E05809147018087E0914D05F0914E054B
:100B6000809146018695869586958187E0914D0511
:100B7000F0914E05809147018287E0914D05F091FB
:100B80004E05A0917B01B0E0A058BE4F8C918387A9
:100B900010928E0580914C018F7780934C0180914B
:100BA0004C01806880934C0181E0089580E00895B5
:100BB0008FEF08951F920F920FB60F9211248F930B
:100BC00080E880934F018F910F900FBE0F901F9080
:100BD00018951F920F920FB60F9211248F9381E0F8
:100BE00080935E0580E480934F018F910F900FBE3C
:100BF0000F901F9018951F920F920FB60F9211240D
:100C00008F9380E280934F018F910F900FBE0F90D2
:100C10001F9018951F920F920FB60F9211248F9369
:100C200080E180934F018F910F900FBE0F901F9026
:100C300018951F920F920FB60F9211240BB60F92B8
:100C40002F933F934F935F936F937F938F939F93D4
:100C5000AF93BF93EF93FF9384E080934F01E091B4
:100C6000B203F091B303309709F00995FF91EF912A
:100C7000BF91AF919F918F917F916F915F914F91B4
:100C80003F912F910F900BBE0F900FBE0F901F90B2
:100C900018951F920F920FB60F9211248F9382E036
:100CA00080934F018F910F900FBE0F901F9018955A
:100CB0001F920F920FB60F9211248F9381E08093B1
:100CC0004F018F910F900FBE0F901F901895E9E480
:100CD000F1E09081907F908390818F70892B808349
:100CE00008958FEF08950895089508958FEF08955A
:100CF0008091480590914905089580E008950895F0
:100D000081E0089581E0089581E0089508950895AF
:100D1000089508950895089508950895E7E3F1E08A
:100D2000808183608083989AA09A8DB1806E8DB9FE
:100D30008EB1806E8EB90895E7E3F1E08081836023
:100D40008083989AA0988DB1806E8DB98EB1806E97
:100D50008EB90895CF92DF92EF92FF920F931F9377
:100D6000CF93DF93CDB7DEB727970FB6F894DEBFEA
:100D70000FBECDBF0E94650CE0914D05F0914E0570
:100D8000C080D38005811681E0840E943405181646
:100D90001CF087EE92E006C0F801F080F11007C069
:100DA00086E093E00E9453250E94670C32C0F5E074
:100DB000FF1204C08AE090E00E944D25C801019610
:100DC0009F938F938E2D992787FD90959F93EF92F8
:100DD0001F92FF921F92CF9288E293E09F938F938E
:100DE0000E943B251D830C83FA94F801F082DB827C
:100DF0001E821F828FEF9FEF9A8389830E94670C68
:100E0000CE0101960E9402050FB6F894DEBF0FBE18
:100E1000CDBF27960FB6F894DEBF0FBECDBFDF91D2
:100E2000CF911F910F91FF90EF90DF90CF90089599
:100E30001F920F920FB60F9211240BB60F922F93A1
:100E40003F934F935F936F937F938F939F93AF9352
:100E5000BF93EF93FF9380E090917B01891710F48B
:100E60008F5FFACF8091460187FF04C081E08093B5
:100E70008E0504C081E593E00E94532588E08093AD
:100E80004F018091460187FF05C080914A0581117D
:100E90000E94AA06E091B003F091B103309709F0E7
:100EA0000995FF91EF91BF91AF919F918F917F91A4
:100EB0006F915F914F913F912F910F900BBE0F90CB
:100EC0000FBE0F901F901895EFE5F5E0DC018C91B7
:100ED00081938D9180933F0185E0EF36F807B9F754
:100EE00080E110923E018150E1F780E880933C015F
:100EF00080913D0180FFFCCFE8E7F5E080913F0164
:100F0000819385E0E838F807C9F70895CF93662301
:100F100009F447C0262F2F7009F043C0EFE5F5E034
:100F2000219120933F0125E0EF36F207C9F7A0E0B9
:100F300070E0B0E220E1A29FA001112446175707FC
:100F400074F5A11103C010923C0102C0B0933C01A2
:100F500020E030E0480F591FFA01E20FF31FE08153
:100F6000E0933E012F5F3F4F20313105A9F72091DB
:100F70003C01206820933C0120913D0120FFFCCFE3
:100F800020E030E0C0913E01FA01E20FF31FC08380
:100F90002F5F3F4F20313105A9F7AF5FCBCF80E006
:100FA00001C081E0CF9108950F931F93CF93DF93FA
:100FB000613009F44FC0262F2F7009F04BC0E8E7CD
:100FC000F5E0219120933F0125E0E838F207C9F7C9
:100FD00062956F70615008E06F3FD1F100933C0162
:100FE00020E16202A001112420E030E0FC01E40FC6
:100FF000F51FDF01A20FB31F7C9170933E012F5F9D
:101000003F4F20313105A9F720913C012068209302
:101010003C0120913D0120FFFCCF4051510920E0CF
:1010200030E0480F591F10913E01DF01A20FB31F9E
:101030001C93662331F0EA01C20FD31F7881712718
:101040007C932F5F3F4F2031310569F76150C4CF4A
:1010500080E001C081E0DF91CF911F910F91089551
:101060008091C00087FFFCCF8091C0008F77809374
:10107000C0008091C60008959091C00095FFFCCFFC
:101080009091C0009F7D9093C0008093C60008950A
:101090008FEF0895813031F48091C80087FD07C03B
:1010A00080E008958111FCCF8091C000F7CF81E0EE
:1010B0000895CF93DF93FC012491EC012196222324
:1010C00051F060917A0670917B06822F90E00E9429
:1010D0000925CE01F0CFDF91CF91089586E084B944
:1010E00085B988EF8AB980EF8BB982E08DB9089510
:1010F0000C946E088F3F09F45CC0482F477050E095
:101100004730510508F055C0FA01E057FF4F86956A
:10111000869586950C94852492B121E030E0082EC6
:1011200001C0220F0A94EAF7922B92B940C095B100
:1011300021E030E0082E01C0220F0A94EAF7922B3A
:1011400095B935C098B121E030E0082E01C0220FDA
:101150000A94EAF7922B98B92AC09BB121E030E0BB
:10116000082E01C0220F0A94EAF7922B9BB91FC0E8
:101170009EB121E030E0082E01C0220F0A94EAF768
:10118000922B9EB914C091B321E030E0082E01C02B
:10119000220F0A94EAF7922B91BB09C094B321E085
:1011A00030E001C0220F8A95EAF7922B94BB81E0D0
:1011B00008958FEF08958F3F09F457C0482F477067
:1011C00050E04730510508F050C0FA01E956FF4F92
:1011D0008695869586950C94852492B121E030E021
:1011E000082E01C0220F0A94EAF72095292322B97C
:1011F0003AC095B121E030E0082E01C0220F0A94D8
:10120000EAF72095292325B92EC098B121E030E0D6
:10121000082E01C0220F0A94EAF72095292328B945
:1012200022C09BB121E030E0082E01C0220F0A94B9
:10123000EAF7209529232BB916C09EB121E030E0B2
:10124000082E01C0220F0A94EAF7209529232EB90F
:101250000AC091B321E030E001C0220F8A95EAF77D
:101260002095292321BB81E008958FEF08958F3FBA
:1012700021F1482F477050E047305105F0F4FA0152
:10128000E256FF4F8695869586950C94852420B16D
:101290000BC023B109C026B107C029B105C02CB1CC
:1012A00003C02FB101C022B330E002C035952795AD
:1012B0008A95E2F7822F817008958FEF08958F3F0E
:1012C00009F4EFC0482F477050E04730510508F04F
:1012D000E8C0FA01EB55FF4F8695869586950C94EC
:1012E000852420B130E0082E02C0359527950A9458
:1012F000E2F792B120FD0AC021E030E0082E01C0E3
:10130000220F0A94EAF7922B92B91EC021E030E036
:10131000082E01C0220F0A94EAF72095292322B94A
:1013200013C023B130E0082E02C0359527950A94EA
:10133000E2F795B120FD0AC021E030E001C0220FA4
:101340008A95EAF7922B95B981E0089521E030E083
:10135000082E01C0220F0A94EAF72095292325B907
:10136000F3CF26B130E0082E02C0359527950A94B8
:10137000E2F798B120FD0AC021E030E0082E01C05C
:10138000220F0A94EAF7922B98B9DECF21E030E0E1
:10139000082E01C0220F0A94EAF72095292328B9C4
:1013A000D3CF29B130E0082E02C0359527950A9495
:1013B000E2F79BB120FD0AC021E030E0082E01C019
:1013C000220F0A94EAF7922B9BB9BECF21E030E0BE
:1013D000082E01C0220F0A94EAF7209529232BB981
:1013E000B3CF2CB130E0082E02C0359527950A9472
:1013F000E2F79EB120FD0AC021E030E0082E01C0D6
:10140000220F0A94EAF7922B9EB99ECF21E030E09A
:10141000082E01C0220F0A94EAF7209529232EB93D
:1014200093CF2FB130E0082E02C0359527950A944E
:10143000E2F791B320FD0AC021E030E0082E01C0A0
:10144000220F0A94EAF7922B91BB7ECF21E030E085
:10145000082E01C0220F0A94EAF72095292321BB08
:1014600073CF22B330E0082E02C0359527950A9439
:10147000E2F794B320FD0AC021E030E0082E01C05D
:10148000220F0A94EAF7922B94BB5ECF21E030E062
:10149000082E01C0220F0A94EAF72095292324BBC5
:1014A00053CF8FEF08958F3F09F4BEC0482F477088
:1014B00050E0611160C04730510508F0B5C0FA0135
:1014C000E455FF4F8695869586950C94852491B1B9
:1014D00021E030E0082E01C0220F0A94EAF720959F
:1014E000292321B99FC094B121E030E0082E01C02A
:1014F000220F0A94EAF72095292324B993C097B1C3
:1015000021E030E0082E01C0220F0A94EAF720956E
:10151000292327B987C09AB121E030E0082E01C005
:10152000220F0A94EAF7209529232AB97BC09DB19E
:1015300021E030E0082E01C0220F0A94EAF720953E
:1015400029232DB96FC090B321E030E0082E01C0EF
:10155000220F0A94EAF72095292320BB63C093B396
:1015600021E030E0082E01C0220F0A94EAF720950E
:10157000292323BB57C04730510508F055C0FA0155
:10158000ED54FF4F8695869586950C94852491B1F0
:1015900021E030E0082E01C0220F0A94EAF7922BD6
:1015A00091B940C094B121E030E0082E01C0220F73
:1015B0000A94EAF7922B94B935C097B121E030E054
:1015C000082E01C0220F0A94EAF7922B97B92AC07D
:1015D0009AB121E030E0082E01C0220F0A94EAF708
:1015E000922B9AB91FC09DB121E030E0082E01C0B6
:1015F000220F0A94EAF7922B9DB914C090B321E010
:1016000030E0082E01C0220F0A94EAF7922B90BB1B
:1016100009C093B321E030E001C0220F8A95EAF7B8
:10162000922B93BB81E008958FEF0895811106C03E
:1016300080B18695817091E0892708958FEF089594
:10164000009711F483E20DC08130910511F48BE213
:1016500008C08230910511F483E303C0039729F495
:101660008BE30E945F0981E008958FEF0895009752
:1016700011F483E20DC08130910511F48BE208C0B2
:101680008230910511F483E303C0039729F48BE3BF
:101690000E947A0881E008958FEF0895009711F471
:1016A00083E20DC08130910511F48BE208C08230D5
:1016B000910511F483E303C0039729F48BE30E949F
:1016C000DB0881E008958FEF0895882319F085B72E
:1016D0008F7E02C085B7806185BF81E008959091BB
:1016E000C80095FFFCCF8093CE0008959093C5006D
:1016F0008093C40086E08093C200E1ECF0E080813A
:101700008B7F8083A0ECB0E08C9182608C93808191
:101710008861808308959093CD008093CC0086E00B
:101720008093CA00E9ECF0E080818B7F8083A8EC95
:10173000B0E08C9182608C93808188618083089571
:101740000E94760B60E378E08CE398E00E94BE2470
:1017500090937B0680937A0660E378E08CE398E0D0
:101760000E94BE2490937906809378060895809114
:10177000C80087FFFCCF8091C8008F778093C80096
:101780008091CE0008950000000000000000019745
:101790000097C9F708950C940D260E941526089508
:1017A000EF92FF920F931F93CF93DF93EC0180E0B2
:1017B00090E00E940D26F82E8B8381E090E00E943D
:1017C0000D26E82E8A8382E090E00E940D26082FE5
:1017D000898383E090E00E940D26182F888384E09F
:1017E00090E00E940D269E2D9F0D900F910F891362
:1017F00002C081E001C08FEFDF91CF911F910F9167
:10180000FF90EF900895CF93DF93EC0185E090E097
:101810000E940D26888381E0DF91CF910895FC011D
:10182000608186E090E00E94152681E00895CF93C4
:10183000DF93EC0186E090E00E940D26888381E032
:10184000DF91CF9108950F931F93CF93DF938C0176
:10185000C8E0D0E0CE010E940D26F80181938F01EF
:101860002196C831D105B1F781E0DF91CF911F9169
:101870000F9108950F931F93CF93DF938C01C8E0CE
:10188000D0E0F80161918F01CE010E9415262196CA
:10189000C831D105B1F781E0DF91CF911F910F9150
:1018A0000895CF93DF93EC0187E090E00E940D262E
:1018B000888381E0DF91CF910895FC01608187E00A
:1018C00090E00E94152681E00895F8940895789498
:1018D00008950E94650CFFCFCF93DF93CDB7DEB79D
:1018E000A3970FB6F894DEBF0FBECDBF0E941411B0
:1018F00080934B068F3F21F460E08EE00E94ED0F55
:101900000E945D1F80FF04C060E086E00E94ED0F32
:1019100010924E0610925C0610925B0610924D06D5
:1019200010924C0610925D0610925A068FEF80932B
:101930004706809349068093480693E69093A30553
:101940008093A1059093CE058093CC059093F905E3
:101950008093F705909324068093220623E636E0D1
:1019600030936206209361068EE596E090936506BB
:101970008093640648E656E05093670640936606F7
:1019800030936A06209369062DE636E030936C06A4
:1019900020936B0650936F0640936E0642E756E025
:1019A000509371064093700630937406209373062B
:1019B0001092600610925F061092760610927506DD
:1019C00010925106109250069093980580939705B7
:1019D0006CE87AE1CE0101960E94952140E850E042
:1019E00064EC74E0CE0101960E94992185E5809314
:1019F000C40419861C861D861E861F86188A198AAD
:101A00001A8A1B8A1C8A1D8A1E8A1F8A188E198EA2
:101A10001A8E1B8E1C8E1D8E1E8E1F8E18A219A252
:101A20001AA21BA281E0888792E09A878B87CE0159
:101A300001960E942615A3960FB6F894DEBF0FBE3E
:101A4000CDBFDF91CF910895C1EAD5E0F12CD880C8
:101A50008FEFD81221C0F394AB9694E0F912F7CF30
:101A60000E9423149BE28902F0011124E756FA4FE9
:101A7000828580935D06F0935C06E0935B06F093AD
:101A80004D06E0934C0680934E060E941D220E9454
:101A900007220E94212214C001EA15E0E12CFE1465
:101AA00041F0F8018081D81204C06D2D85E00E94BC
:101AB000ED0FE394055D1F4FF4E0EF12F0CFCBCFB5
:101AC000FFCFAF92BF92CF92DF92EF92FF920F9330
:101AD0001F93CF93DF931F92CDB7DEB75C016B01ED
:101AE0007A01DC0119968C911997823021F080914E
:101AF0004A068C9302C0F501108280914A06843018
:101B000020F060E087E00E94ED0FD50119968C91DE
:101B1000823029F080914A068F5F80934A06809137
:101B20004A06811103C081E080934A06F5013081A5
:101B30002BE23203F0011124E756FA4FD182C08222
:101B4000D50118968C91189782873C913203F00149
:101B50001124E756FA4F83E081873C913203F0016C
:101B60001124E756FA4F30870C91020380011124AB
:101B700007561A4FF8011582C5010B960E94D91914
:101B8000D80191966D937D938D939C939497F501D5
:101B900083859485A585B68588339948A144B10588
:101BA00028F0D5016C9186E10E94ED0FF5010081CE
:101BB000112707FD1095C5014B960E94D9194BE2DC
:101BC000409FF001419FF00D1124E756FA4F658BBD
:101BD000768B878B908FD5012C9124036001112483
:101BE000F601E756FA4F6F01058916892789308D6E
:101BF00081A192A1A3A1B4A1080F191F2A1F3B1F05
:101C0000018F128F238F348FC501439649830E9421
:101C1000D919F60165A376A387A390A7D5012C91C6
:101C200049812403F0011124E756FA4F85A196A1BA
:101C3000A7A1B0A5858F968FA78FB0A381E090E074
:101C400092A781A7F382E28281E084870F90DF91DF
:101C5000CF911F910F91FF90EF90DF90CF90BF90A9
:101C6000AF9008950C94A61A85E690E00895E0914F
:101C70005B06F0915C0684870895E0915B06F09125
:101C80005C06848508952091C304222341F0FB0162
:101C900020832091BA03FC01208381E0089580E035
:101CA0000895CF93DF931F92CDB7DEB71982898154
:101CB000843640F480ED97E00E94921D89818F5F09
:101CC0008983F5CF0F90DF91CF91089581E090E067
:101CD0000E944E0B0E94510E0E94510E0E94510E06
:101CE00081E090E00E94370B0C94510E81E090E06F
:101CF0000E944E0B0E94510E81E090E00E94370B33
:101D00000C94510EFF920F931F93CF93DF9300D04B
:101D10001F92CDB7DEB71F928F938AE693E09F9311
:101D20008F938E010F5F1F4F1F930F930E9480258B
:101D30000F900F900F900F900F900F90F12CF801D3
:101D400001900020E9F73197E01BF10B8F2D90E017
:101D50008E179F0708F05CC0F801E80FF91F80811B
:101D600090E0FC01F097EA30F10508F049C0E65434
:101D7000FF4F0C9485240E94660E02C00E94760ECE
:101D80000E94660E0E94660E0E94660E0E94660EFB
:101D900037C00E94760E0E94760EF4CF0E94760E17
:101DA0000E94760E0E94760EEFCF0E94760E0E9461
:101DB000760E0E94760E0E94760EE8CF0E94760E76
:101DC00002C00E94660E0E94760E04C00E94660E3B
:101DD0000E94660E0E94760E06C00E94660E0E9449
:101DE000660E0E94660E0E94760E08C00E94660E65
:101DF0000E94660E0E94660E0E94660E0E94760E7B
:101E00000E94510E0E94510E0E94510EF39497CFE2
:101E10000F900F900F90DF91CF911F910F91FF9036
:101E20000895CF93DF938091C304882309F4C6C03B
:101E30000E94650C0E94650C80EE93E00E94590898
:101E40008091BA031F928F938AE693E09F938F93BA
:101E50000E943B258CED93E00E9459080F900F9053
:101E60000F900F908091C304883110F01092C3043A
:101E70008091C30490E0FC013197E631F10508F050
:101E800046C0EC53FF4F0C94852480EA93E041C098
:101E900089E793E03EC085E693E03BC08FE493E0A2
:101EA00038C084E393E035C08EE193E032C086E031
:101EB00093E02FC083EF92E02CC080EE92E029C027
:101EC00082EC92E026C08DE992E023C081E992E0A5
:101ED00020C086E792E01DC087E692E01AC083E545
:101EE00092E017C082E492E014C08EE292E011C04A
:101EF0008EE092E00EC086EF91E00BC08BED91E09A
:101F000008C08AEC91E005C08BEB91E002C084EB45
:101F100091E00E94590860917A0670917B068DE0ED
:101F200090E00E94092560917A0670917B068AE014
:101F300090E00E940925C0E0C43104F582E090E001
:101F40000E944E0B83E090E00E94370BD4E688EEAF
:101F500093E00E94921DD150D1F783E090E00E945F
:101F60004E0B82E090E00E94370BD4E688EE93E0BF
:101F70000E94921DD150D1F7CF5FDECF83E090E079
:101F80000E94370B82E090E00E94370B8091BA03E9
:101F90000E94820E0E94510E82E090E00E944E0B41
:101FA0000E94510E82E090E00E94370B0E94510E79
:101FB0008091C3040E94820EC0E0C0CF80E0DF9118
:101FC000CF9108958093C304E0915B06F0915C0685
:101FD00080858093BA030C94110F182F062F8093DD
:101FE000C3046093BA030E94110FC0E0C43100F52E
:101FF00082E090E00E944E0B83E090E00E94370B5D
:10200000D4E688EE93E00E94921DD150D1F783E090
:1020100090E00E944E0B82E090E00E94370BD4E6E5
:1020200088EE93E00E94921DD150D1F7CF5FDECFB2
:1020300083E090E00E94370B82E090E00E94370B33
:10204000802F0E94820E812F0E94820EC0E0D0CF8E
:102050006F927F928F929F92AF92BF92CF92DF92B8
:10206000EF92FF920F931F93CF93DF938CEE93E049
:102070000E945908E0915B06F0915C062085822F52
:10208000992787FD90959F932F938DE693E09F93DB
:102090008F930E943B25E0915B06F0915C06C28124
:1020A000D381DF93CF9381EA93E09F938F930E9434
:1020B0003B2588811F928F9386E793E09F938F93B0
:1020C0000E943B25E0915B06F0915C0681818F9335
:1020D00080818F9383E893E09F938F930E943B25A9
:1020E00080915C068F9380915B068F938DE893E0DF
:1020F0009F938F930E943B25C9E9D5E0EDB7FEB7CA
:1021000074960FB6F894FEBF0FBEEDBF00E010E06E
:102110008DE9682E83E0782E96E7892E93E0992E3C
:1021200023E8A22E23E0B22E3DE8C32E33E0D32EC7
:10213000EA80FB80FF92EF921F930F937F926F9242
:102140000E943B25F70180811F928F939F928F926F
:102150000E943B2589818F9388818F93BF92AF9294
:102160000E943B25DF93CF93DF92CF920E943B25C5
:102170000F5F1F4FAB96EDB7FEB772960FB6F89490
:10218000FEBF0FBEEDBF0430110591F6DF91CF9178
:102190001F910F91FF90EF90DF90CF90BF90AF9085
:1021A0009F908F907F906F900895CF93DF93E091F1
:1021B0005B06F0915C06C281D3818881853539F058
:1021C0000E94281081E00E94E20F85E58883E0915B
:1021D0005B06F0915C06808191818115924438F014
:1021E0000E94281082E1DF91CF910C94E20FDF91E1
:1021F000CF9108952BE28202F0011124E756FA4FA5
:10220000A281B3818C91853519F085E58C9308C046
:10221000808191818115924428F082E10E94E20F31
:102220008FEF089581E008950F931F930091CC03E1
:102230001091CD032091CE033091CF0380E090E048
:10224000B901A801082E04C0769567955795479562
:102250000A94D2F740FD19C041E050E060E070E020
:10226000082E04C0440F551F661F771F0A94D2F72B
:10227000402B512B622B732B4093CC035093CD03F7
:102280006093CE037093CF0305C001968032910511
:10229000B9F68FEF1F910F910895E0915B06F091D1
:1022A0005C0665857685878590890895CF92DF9253
:1022B000EF92FF920F931F93CF93DF931F92CDB7AF
:1022C000DEB7C12CD12C7601C394082E04C0CC0CEF
:1022D000DD1CEE1CFF1C0A94D2F74091CC035091F8
:1022E000CD036091CE037091CF034C215D216E210F
:1022F0007F21452B462B472B09F463C089830E941D
:10230000650CE2EAF5E097018601009510952095AD
:10231000309593E08981DF0111974C914F3F49F14E
:1023200044815581668177814C155D056E057F0579
:1023300041F41086118612861386DF0112971C92D3
:1023400090834481558166817781402351236223A4
:1023500073234483558366837783408551856285E3
:1023600073854023512362237323408751876287FB
:102370007387BB9646E0EE34F40769F64EEF5FEFE5
:102380006FEF7FEF04C0440F551F661F771F8A95BC
:10239000D2F78091CC039091CD03A091CE03B09160
:1023A000CF0384239523A623B7238093CC03909354
:1023B000CD03A093CE03B093CF030E94670C81E0BE
:1023C00001C08FEF0F90DF91CF911F910F91FF9080
:1023D000EF90DF90CF9008950F931F9341E050E06E
:1023E00060E070E004C0440F551F661F771F8A9598
:1023F000D2F7E0915B06F0915C0685859685A7850E
:10240000B0898A019B01082319232A233B23012B2E
:10241000022B032BD1F04095509560957095842345
:102420009523A623B72385879687A787B08B8189B5
:102430009289A389B48984239523A623B723818B0A
:10244000928BA38BB48B81E001C08FEF1F910F9112
:1024500008954091CC035091CD036091CE037091CB
:10246000CF03082E04C076956795579547950A9433
:10247000D2F740FF1DC0E0915B06F0915C0641E0A1
:1024800050E060E070E004C0440F551F661F771FE6
:102490008A95D2F785859685A785B089842B952B5B
:1024A000A62BB72B85879687A787B08B81E00895E9
:1024B0008FEF0895CF92DF92EF92FF921F93CF9309
:1024C000DF93C12CD12C7601C39404C0CC0CDD1C4D
:1024D000EE1CFF1C8A95D2F78091CC039091CD031E
:1024E000A091CE03B091CF038C219D21AE21BF21BD
:1024F000892B8A2B8B2B11F481E044C00E94650C40
:10250000E0EAF5E0C2EAD5E010E023E08081813026
:10251000B9F482859385A485B5858C219D21AE2152
:10252000BF21892B8A2B8B2B59F02883168617867F
:10253000108A118A1082C286D386E486F58611E05D
:1025400080818230A1F482859385A485B5858C1520
:102550009D05AE05BF0559F4288316861786108A97
:10256000118A1082128613861486158611E0BB9696
:10257000AB9686E0EC34F80749F60E94670C11111F
:1025800005C082E00E94370E8FEF01C081E0DF912D
:10259000CF911F91FF90EF90DF90CF9008950F9310
:1025A0001F93E0915B06F0915C06058516852785F3
:1025B00030890623172328233923012B022B032BD1
:1025C00019F1618B728B838B948B21E02783DC0163
:1025D000CB0100904B0604C0B695A79597958795BB
:1025E0000A94D2F780FF03C00E94921604C080E0D4
:1025F00090E00E946216E0915B06F0915C066189B2
:1026000072898389948903C060E070E0CB011F91D7
:102610000F91089580E090E0089521E0875496405E
:1026200009F420E0822F819508950E940D138F3FB9
:1026300011F481E003C0813029F482E00E94370E5A
:102640008FEF0895992787FD9095FC01EE0FFF1FEE
:10265000E80FF91FE75BF94F80810895EF92FF9231
:102660000F931F93CF93DF931F92CDB7DEB70E94D6
:102670000D138F3F11F481E003C0813029F482E013
:102680000E94370E8FEF3FC089830E94650C8981BD
:10269000E82EFF24E7FCF0948701000F111FF801DA
:1026A000EE0DFF1DE75BF94F9081911116C0E0918F
:1026B0005B06F0915C06978192609783992787FD6E
:1026C0009095A92FB92F818B928BA38BB48B0E94ED
:1026D000670C80E090E00E9462160E0D1F1DF8014D
:1026E000E75BF94F808181508083E0915B06F09138
:1026F0005C06D801A85BB94F8C91838781E0848305
:102700000E94670C81E00F90DF91CF911F910F9194
:10271000FF90EF900895CF92DF92EF92FF920F9388
:102720001F93CF93DF931F92CDB7DEB70E940D1397
:102730008F3F11F481E003C0813029F482E00E94D0
:10274000370E8FEF4DC0482F552747FD50959A0102
:10275000220F331F240F351F8901075B194FF90121
:10276000E95BF94FD8014C9190814917C4F58983F1
:102770000E94650CF80190819F5F9083E0915B0659
:10278000F0915C061482E0EAF5E002EA15E0898146
:10279000C82EDD24C7FCD094ED2CFD2C23E0308125
:1027A0003230A1F442855385648575854C155D05ED
:1027B0006E057F0559F4D8012C9316861786108A6A
:1027C000118A10821286138614861586BB96055DC3
:1027D0001F4FB6E0EC34FB0711F70E94670C81E055
:1027E0000F90DF91CF911F910F91FF90EF90DF90AD
:1027F000CF9008950E940D138F3F11F481E003C024
:10280000813029F482E00E94370E8FEF08959927D6
:1028100087FD90959C01220F331F280F391FF90166
:10282000E95BF94F8FEF8083F901E75BF94F808314
:10283000F901E85BF94F808380915A0681508093BB
:102840005A0681E00895E0915006F091510680818A
:102850000895E0915006F0915106309721F00380E1
:10286000F481E02DFACF0895CF92DF92EF92FF929C
:102870000F931F93CF93DF93E0919705F091980505
:10288000309709F48AC04091500650915106411585
:10289000510509F446C0DA019BE2692F782F7603CF
:1028A0009001112427563A4F8901065F1F4F790185
:1028B000C4E0EC0EF11C255F3F4F6C9170E0969FD9
:1028C000E001979FD00D1124C756DA4FDC80DD2040
:1028D00029F0DB84E801C880DC1428F1E701D88006
:1028E000DD2061F0969FE001979FD00D1124C7561F
:1028F000DA4FDA84E901C880DC14A8F0969FE00181
:10290000979FD00D1124C756DA4F7A85E801688168
:10291000761748F013960D90BC91A02D109769F68C
:1029200002C0A0E0B0E08083C381D481D093980539
:10293000C0939705A417B507B1F4109749F0B48375
:10294000A383128211821296FC93EE93119706C014
:102950001482138212821182FA83E983F093510662
:10296000E09350061AC011968D919C911297AC1766
:10297000BD0759F092838183B483A3831196CD91CF
:10298000DC911297FC83EB8304C014821382928340
:1029900081831296FC93EE931197DF91CF911F9153
:1029A0000F91FF90EF90DF90CF900895CF93DF933A
:1029B000E0915006F0915106309709F444C09927F0
:1029C00087FD9095208130E02817390781F4A38195
:1029D000B481B0935106A093500612961C921E9299
:1029E000119718C00380F481E02D309761F12081A8
:1029F00030E028173907B1F7C181D28183819481F2
:102A00009C838B83A381B481109721F01296DC9371
:102A1000CE931197A0919705B0919805109739F42E
:102A2000F0939805E0939705148213820AC0B4834B
:102A3000A3831296FC93EE931197F0939805E0937D
:102A4000970512821182DF91CF910895EF92FF9244
:102A50000F931F93CF93DF93EC014B815C816981CE
:102A60007A818D819E810E94B8212F81222371F06D
:102A70004B815C81E12CF12C00E010E020E030E0A3
:102A8000BC01CE010E94610D1F820CC0E8812BE2C7
:102A9000E202F0011124E756FA4F21852330B9F400
:102AA00091838083E8818BE2E802F0011124E756EC
:102AB000FA4F458956896789708D452B462B472BE0
:102AC00041F482E0818788810E94341402C08FEF34
:102AD00001C081E0DF91CF911F910F91FF90EF90A6
:102AE00008951F93CF93DF93CDB7DEB728970FB626
:102AF000F894DEBF0FBECDBF29833A834B835C833E
:102B00006D837E838F8398870E94650C0E94E11EEF
:102B1000182FCE0101960E94D9196330710598F0E3
:102B2000E0915B06F0915C06212F30E0260F371F05
:102B3000C901A0E0B0E0858B968BA78BB08F0E9477
:102B4000670C81E001C08FEF28960FB6F894DEBFC6
:102B50000FBECDBFDF91CF911F9108950E948A21B2
:102B6000E0915B06F0915C0685818111F7CF0895B5
:102B7000CF930E94D5100E94650CE0915B06F09106
:102B80005C0681E090E092A781A781E085830E94A6
:102B9000E11EC82F883F88F40E947B1E2C2F30E056
:102BA0002F5F3F4F482F50E02417350734F482E061
:102BB0008C0F8093C2040E947F1E0E94670C0E94AB
:102BC000AE1581E0CF910895E0915B06F0915C062F
:102BD00080850E94D614E0915B06F0915C0684E04B
:102BE00081870E94B81581E00895CF93DF93EC01AF
:102BF0000E94D510209711F4C1E0D0E00E94650C2E
:102C0000E0915B06F0915C0681E08583D2A7C1A7C5
:102C10000E94E11EC82F883F88F40E947B1E2C2F43
:102C200030E02F5F3F4F482F50E02417350734F432
:102C300082E08C0F8093C2040E947F1E0E94670C6A
:102C40000E94AE1581E0DF91CF910895FF920F931E
:102C50001F93CF93DF938C010E94650CE0915B067C
:102C6000F0915C0681E085830E94E11EF82EE091E0
:102C70005B06F0915C06C82FD0E0AE01400F511FFB
:102C800060E070E0458B568B678B708F87EF8F15F8
:102C900070F00E947B1E2196282F30E0C217D307C8
:102CA00034F482E08F0D8093C2040E947F1E0E9444
:102CB000670C0E94AE1581E0DF91CF911F910F91BB
:102CC000FF900895CF93DF93EC010E94650CE09193
:102CD0005B06F0915C0621E02583CE01A0E0B0E028
:102CE000858B968BA78BB08F0E94E11EC82F883FE3
:102CF00088F40E947B1E2C2F30E02F5F3F4F482F1F
:102D000050E02417350734F482E08C0F8093C2041E
:102D10000E947F1E0E94670C0E94AE1581E0DF9129
:102D2000CF910895CF930E94650CE0915B06F091DE
:102D30005C0681E0858386830E94E11EC82F883F60
:102D400088F40E947B1E2C2F30E02F5F3F4F482FCE
:102D500050E02417350734F482E08C0F8093C204CE
:102D60000E947F1E0E94670C0E94AE1581E0CF91E9
:102D700008951F93CF93DF93CDB7DEB728970FB693
:102D8000F894DEBF0FBECDBF29833A834B835C83AB
:102D90006D837E838F8398870E94D5100E94650C77
:102DA000E0915B06F0915C0681E0858381E090E034
:102DB00092A781A70E94E11E182FCE0101960E94C2
:102DC000D919E0915B06F0915C06610F711D811DC0
:102DD000911D658B768B878B908F183F88F40E94AE
:102DE0007B1E212F30E02F5F3F4F482F50E02417EC
:102DF000350734F482E0810F8093C2040E947F1E65
:102E00000E94670C0E94AE1581E028960FB6F894D8
:102E1000DEBF0FBECDBFDF91CF911F9108958F927E
:102E20009F92AF92BF92CF92DF92EF92FF920F9359
:102E30001F93CF93DF93CDB7DEB760970FB6F894AB
:102E4000DEBF0FBECDBF29873A874B875C876D8772
:102E50007E878F87988BCE0101960E946B178980A1
:102E60009A80AB80BC80CD80DE80EF80F8840985BD
:102E70001A852B853C854D855E856F857889CE01C9
:102E800009960E94C7178F3F61F029853A854B85C7
:102E90005C856D857E858F8598890E94B91681E055
:102EA00001C08FEF60960FB6F894DEBF0FBECDBFA6
:102EB000DF91CF911F910F91FF90EF90DF90CF9016
:102EC000BF90AF909F908F900895E0915B06F09136
:102ED0005C0680850895CF92DF92EF92FF92CF93A8
:102EE000DF93EC011C821D821E821F8240915206DC
:102EF000509153066091540670915506488359834A
:102F00006A837B83C0905606D0905706E09058069F
:102F1000F0905906CC82DD82EE82FF820E94E11E93
:102F2000A82FB0E023EB36EE4EE050E00E94E923FC
:102F30006C0D7D1D8E1D9F1D6C837D838E839F83F5
:102F40004C815D816E817F8141158AEC58078AE949
:102F500068078BE37807A0F05A5C6A497B434C838F
:102F60005D836E837F83488159816A817B814F5F56
:102F70005F4F6F4F7F4F488359836A837B83E0CFD6
:102F8000DF91CF91FF90EF90DF90CF9008958F92D7
:102F90009F92AF92BF92CF92DF92EF92FF920F93E8
:102FA0001F93CF93DF93CDB7DEB760970FB6F8943A
:102FB000DEBF0FBECDBFFC0109831A832B833C8388
:102FC0004D835E836F83788789869A86AB86BC86BD
:102FD000CD86DE86EF86F88A89809A80AB80BC80B9
:102FE0000D811E812F813885C984DA84EB84FC84AD
:102FF0004D855E856F8578898C149D04AE04BF0471
:1030000008F43FC0C814D904EA04FB0491F404177F
:10301000150726073707A8F1041B150B260B370BDE
:1030200004831583268337831082118212821382D0
:1030300026C0041715072607370788F481E0881A89
:103040009108A108B1088C189D08AE08BF088082BD
:103050009182A282B38216532546344C08C08C1844
:103060009D08AE08BF0880829182A282B382041BB1
:10307000150B260B370B048315832683378381E0DA
:1030800001C08FEF60960FB6F894DEBF0FBECDBFC4
:10309000DF91CF911F910F91FF90EF90DF90CF9034
:1030A000BF90AF909F908F900895FC01448155810F
:1030B0006681778141158AEC58078AE968078BE3B6
:1030C0007807A0F05A5C6A497B4344835583668342
:1030D000778340815181628173814F5F5F4F6F4F72
:1030E0007F4F4083518362837383E0CF08958F9233
:1030F0009F92AF92BF92CF92DF92EF92FF920F9387
:103100001F93CF93DF93CDB7DEB760970FB6F894D8
:10311000DEBF0FBECDBF09831A832B833C834D8353
:103120005E836F83788789869A86AB86BC86CD86D8
:10313000DE86EF86F88A49855A856B857C8509810C
:103140001A812B813C81400F511F621F731FFC01AC
:1031500040835183628373834D855E856F85788953
:103160000D811E812F813885400F511F621F731FF3
:1031700044835583668377830E94551881E0609667
:103180000FB6F894DEBF0FBECDBFDF91CF911F9178
:103190000F91FF90EF90DF90CF90BF90AF909F90F6
:1031A0008F9008956093520670935306809354064F
:1031B0009093550620935606309357064093580631
:1031C0005093590608952F923F924F925F926F92BB
:1031D0007F928F929F92AF92BF92CF92DF92EF92A7
:1031E000FF920F931F93CF93DF93CDB7DEB7629714
:1031F0000FB6F894DEBF0FBECDBFDC014D905D90E1
:103200006D907C90139714966D917D918D919C910A
:103210001797411451046104710409F46CC0B2E4BD
:103220004B1651046104710408F06DC07B018C01E0
:1032300020E030E0A9016983FA820B831C832D838F
:103240003E834F835887A0E0B0E0198A1A8A312C58
:10325000812CF0E0E0E0912C9D0149895A89632D91
:10326000782D8F2F9E2FA980BA80CB80DC80ED80B7
:10327000FE800F8118850E948B24222E39874A8771
:103280005B876C877D878E879F879D0149895A89D7
:10329000632D782D8F2F9E2F36534546544C6F4FFC
:1032A0007F4F8F4F9F4FD901498B5A8B362E872ED8
:1032B000F82FE92F492D50E060E070E044155505E6
:1032C0006605770510F49394C7CF83EBA82E96EE8E
:1032D000B92E2EE0C22ED12CE12CF12C00E010E012
:1032E000222D39854A855B856C857D858E859F85F8
:1032F0000E94282406C023EB36EE4EE050E00E94E8
:103300000424C90102C080E090E062960FB6F894F0
:10331000DEBF0FBECDBFDF91CF911F910F91FF9008
:10332000EF90DF90CF90BF90AF909F908F907F9065
:103330006F905F904F903F902F900895CF92DF92C3
:10334000EF92FF92CF93DF93CDB7DEB728970FB6FA
:10335000F894DEBF0FBECDBF6B017C013AE0F6945E
:10336000E794D794C7943A95D1F7C982DA82EB8271
:10337000FC829B01AC0133704427552763EB76EE4A
:103380008EE090E00E94F4236D837E838F83988784
:103390002C2D3A814B815C8128960FB6F894DEBFC4
:1033A0000FBECDBFDF91CF91FF90EF90DF90CF9018
:1033B00008952F923F924F925F926F927F928F92D9
:1033C0009F92AF92BF92CF92DF92EF92FF920F93B4
:1033D0001F93CF93DF93CDB7DEB762970FB6F89404
:1033E000DEBF0FBECDBFDC014D905D906D907C9037
:1033F000139714966D917D918D919C91179741141F
:1034000051046104710409F466C07B018C0120E061
:1034100030E0A9016983FA820B831C832D833E83EC
:103420004F835887A0E0B0E0198A1A8A312C812C8A
:10343000F0E0E0E0912C9D0149895A89632D782DB7
:103440008F2F9E2FA980BA80CB80DC80ED80FE80FC
:103450000F8118850E948B24222E39874A875B872B
:103460006C877D878E879F879D0149895A89632D47
:10347000782D8F2F9E2F36534546544C6F4F7F4FDC
:103480008F4F9F4FD901498B5A8B362E872EF82F9D
:10349000E92F492D50E060E070E0441555056605C0
:1034A000770510F49394C7CF43EBA42E56EEB52EB8
:1034B0006EE0C62ED12CE12CF12C00E010E0222D84
:1034C00039854A855B856C857D858E859F850E94C3
:1034D0002824CA0107C023EB36EE4EE050E00E94DC
:1034E0000424CA01B90162960FB6F894DEBF0FBE7C
:1034F000CDBFDF91CF911F910F91FF90EF90DF90A3
:10350000CF90BF90AF909F908F907F906F905F9083
:103510004F903F902F900895C1E00E94D5100E94D7
:103520007B1E843010F4C0934F060E948A21809144
:10353000C404853519F088E00E94E20F80917E4135
:10354000853559F388E00E94E20FE7CF2F923F9232
:103550004F925F926F927F928F929F92AF92BF92A3
:10356000CF92DF92EF92FF920F931F93CF93DF934F
:10357000CDB7DEB729970FB6F894DEBF0FBECDBF2B
:103580000E94AF1D0E94650C0E94CD1D0E94D51D9A
:103590009F838E838AEF0E947F1EA091C204B0E0B9
:1035A00023EB36EE4EE050E00E94E9236B017C01F4
:1035B0008091560690915706A0915806B0915906F1
:1035C000C80ED91EEA1EFB1EC701B6010E940424C4
:1035D00000915206109153062091540630915506E1
:1035E000C61AD70AE80AF90A63EB462E66EE562E8B
:1035F0006EE0662E712C480159019FEF891A990AD5
:10360000A90AB90AC114AAECDA06AAE9EA06ABE3E8
:10361000FA0698F08AECD81A8AE9E80A8BE3F80AE5
:10362000C701B601A30192010E940424C61AD70A59
:10363000E80AF90A95018401DECF0093520610933F
:1036400053062093540630935506C0925606D092E6
:103650005706E0925806F0925906E0915B06F09109
:103660005C068581882339F18185843021F1878149
:10367000823029F0882341F08681811102C085E0E3
:1036800001C083E0818714C083E08187178216829E
:1036900085899689A789B08D892B8A2B8B2B41F43C
:1036A000818D928DA38DB48D858B968BA78BB08FDA
:1036B00080850E94D614E0915B06F0915C0685A19E
:1036C00096A1A7A1B0A5892B8A2B8B2B09F444C006
:1036D0002085222309F440C081858430E9F1458D9D
:1036E000568D678D70A18091C20490E0A0E0B0E09B
:1036F000481759076A077B0768F4622F82E00E9427
:10370000ED0FE0915B06F0915C06158E168E178E1C
:1037100010A208C0481B590B6A0B7B0B458F568FB4
:10372000678F70A3E0915B06F0915C061085458D74
:10373000568D678D70A1452B462B472B69F4612F61
:1037400083E00E94ED0FE0915B06F0915C0683E060
:103750008187812F0E94D614E1EAF5E0F987E88796
:1037600032EA232E35E0332E4EEAA42E45E0B42E65
:1037700080EA95E09C838B83AFE9B5E0BA83A983A7
:103780005EE9852E55E0952E00E61AEE1D82E8854D
:10379000F98580818F3F09F433C1D4011C92808167
:1037A000882309F46AC0F1018081843009F465C07E
:1037B000D501CD90DD90ED90FC906091C20470E059
:1037C00080E090E0C616D706E806F90650F0C61A63
:1037D000D70AE80AF90AF501C082D182E282F382AF
:1037E00006C0D5011D921D921D921C921397E8856B
:1037F000F985C188D288E388F488C616D706E8061A
:10380000F90648F0C61AD70AE80AF90AC18AD28A24
:10381000E38AF48A20C0E885F985218D328D438DB5
:10382000548D621773078407950758F469017A016C
:10383000C61AD70AE80AF90AC18AD28AE38AF48A40
:103840000AC00E940424A885B98551966D937D9382
:103850008D939C935497E885F98581899289A389F2
:10386000B489892B8A2B8B2B41F4818D928DA38D6A
:10387000B48D818B928BA38BB48BD1018C918330CF
:1038800009F0BEC0F50180819181A281B381892BAD
:103890008A2B8B2B09F0A2C0AB81BC818C91882331
:1038A000C1F0E981FA818081882399F081E090E07C
:1038B000A0E0B0E000904B0604C0880F991FAA1F3B
:1038C000BB1F0A94D2F7E885F98581879287A38781
:1038D000B487AB81BC811C92E981FA811082D4014A
:1038E0001C92F50184899589A885B9855D964D91CD
:1038F0005D916D917C919097019761F5FD01458BEC
:10390000568B678B708FE2E0D101EC93E885F985E7
:1039100081899289A389B489F50180839183A283E7
:10392000B383E885F985818D928DA38DB48D892B24
:103930008A2B8B2B59F42AEFC22ED12CE12CF12C9F
:10394000D501CD92DD92ED92FC9213978D810E946C
:10395000341444C0E885F985458B568B678B708F8E
:10396000D50154964D905C905597B1E04B1A510893
:10397000612C712C618D728D838D948DA3019201C8
:103980000E94F423F5016083718382839383A88569
:10399000B9855996CD90DD90ED90FC905C97C7016C
:1039A000B6010E94F423E885F985618B728B838BC5
:1039B000948BCD28CE28CF2859F49AEFC92ED12C3C
:1039C000E12CF12CD501CD92DD92ED92FC92139772
:1039D000CC24C394D12CF501D58AC48AF501808109
:1039E0009181A281B3810097A105B10549F0A80199
:1039F00060E070E084179507A607B70708F48C010C
:103A0000FD81FF5FFD83888599858B9699878887DF
:103A10009BE2290E311CABE2AA0EB11CEB81FC81AA
:103A2000BB96FC83EB8389819A818B969A838983E9
:103A30009BE2890E911CAD81A43009F0A8CE0E94B2
:103A40002314B82EBBE28B02F0011124E756FA4F83
:103A5000828580935D06F0934D06E0934C06BB2073
:103A6000D9F045A156A167A170A5452B462B472B40
:103A700099F0458D568D678D70A14A3F51056105BE
:103A8000710550F46801E12CF12C4C155D056E05B3
:103A90007F0510F48A0105C00B3F110510F00AEFF5
:103AA00010E080934E06F0935C06E0935B06009373
:103AB000C2040E94E11E282F30E02F5F3F4F2017E5
:103AC000310740F00E94E11E082F10E00E5F1F4FEB
:103AD0000093C204B11010924F06802F0E947F1EE7
:103AE0006CED75E08E819F810E94E71D0E94162279
:103AF00029960FB6F894DEBF0FBECDBFDF91CF91F0
:103B00001F910F91FF90EF90DF90CF90BF90AF90FB
:103B10009F908F907F906F905F904F903F902F90ED
:103B20000C942122000000000000000000000000B2
:103B30000000000000000000000000000197009756
:103B400089F7089510922101089589E08093210159
:103B50008DE89CE3909329018093280108951092A9
:103B60002501109224010895CF93DF9300D0CDB7A3
:103B7000DEB780912401909125019A838983898100
:103B80009A810F900F90DF91CF910895109281004C
:103B9000089581E080938100089583B5816083BD9D
:103BA00010928500109284000895CF93DF9300D087
:103BB000CDB7DEB780918400909185009A83898388
:103BC00089819A810F900F90DF91CF910895CF92C4
:103BD000DF92EF92FF92CF93DF93EC01CC0FDD1FCA
:103BE000C9378FEFD80710F0C0E0D0E06B01E12CAF
:103BF000F12CCC0EDD1EE11CF11C81E0C816D104B5
:103C0000E806F10440F081E0E81AF1080E94D51DB1
:103C1000C817D907D8F30E94D51D8C159D05D8F378
:103C2000DF91CF91FF90EF90DF90CF9008951092A9
:103C3000B100E0E7F0E080818D7F808380818E7F1E
:103C4000808308958093B2000895E0E7F0E08081DA
:103C50008360808383E08093B100089583B58260A0
:103C600083BD1092B2001092BB031092C20408955B
:103C7000CF93DF938EEF8093C20480E28093B600EF
:103C80008091C2048093B30083E087BB92E090935D
:103C9000B0008093B10093B5926093BD87BB84BDA3
:103CA00083B5826083BD1092800081E080938100A3
:103CB000109285001092840083B5826083BD83B525
:103CC000816083BD10922001C4E2D1E01982188284
:103CD00083B5826083BD83B5816083BD0E942E1E43
:103CE000198218820E94251E0E94A51D1092BB03F6
:103CF000DF91CF9108958091B3008F5F0895815037
:103D00008093B3000895811102C0109271008FEF6B
:103D10000895811106C0109295001092940081E0E0
:103D200008958FEF0895811105C0809194009091BE
:103D30009500089580E090E00895811105C082E02B
:103D40008093710081E008958FEF0895811135C04F
:103D5000CB010197059710F46093C1041092900075
:103D600088E080939100509399004093980030939D
:103D7000B5032093B4038091C104813021F4809174
:103D80009100816011C0823021F4809191008260A5
:103D90000BC0833021F480919100836005C0843092
:103DA00031F48091910084608093910008C0853047
:103DB00031F4809191008560F7CF8FEF089581E015
:103DC00008958091B20008951F920F920FB60F923E
:103DD000112460E08AE00E94ED0FFFCF0F920FB632
:103DE0000F921F922F923F924F925F926F927F920B
:103DF0008F929F92AF92BF92CF92DF92EF92FF92FB
:103E00000F931F932F933F934F935F936F937F93E2
:103E10008F939F93AF93BF93CF93DF93EF93FF93D2
:103E2000A0915B06B0915C060DB60D920EB60D9298
:103E30001F92A0914404B09145041E90BEBFADBF37
:103E400008951F920F920FB60F9211240BB60F9286
:103E50002F933F934F935F936F937F938F939F9392
:103E6000AF93BF93EF93FF93E091B403F091B50349
:103E7000309711F0099504C060E08AE00E94ED0FD0
:103E8000FF91EF91BF91AF919F918F917F916F9132
:103E90005F914F913F912F910F900BBE0F900FBEEE
:103EA0000F901F9018951F920F920FB60F9211242A
:103EB0000F900FBE0F901F90189504B603FC02C020
:103EC00080E001C080E104B602FE06C094B79B7F8B
:103ED00094BF04B600FE846004B601FE05C094B72A
:103EE0009D7F94BF8260089581110CC004B600FECE
:103EF00004C094B79E7F94BF01C081E09091B00050
:103F0000911181E00895811102C0E89A39C0813091
:103F100011F4E99A0895823011F4EA9A31C083309D
:103F200021F480916B00816029C0843021F480915C
:103F30006B00826023C0853021F480916B00846027
:103F40001DC0863021F480916B00886017C08730D7
:103F500021F480916B00806111C0883021F4809140
:103F60006B0080620BC0893021F480916B0080640B
:103F700005C08A3039F480916B00806880936B00B3
:103F800081E008958FEF0895811102C0E89839C04B
:103F9000813011F4E9980895823011F4E99831C024
:103FA000833021F480916B008E7F29C0843021F40E
:103FB00080916B008D7F23C0853021F480916B0050
:103FC0008B7F1DC0863021F480916B00877F17C0E6
:103FD000873021F480916B008F7E11C0883021F4EE
:103FE00080916B008F7D0BC0893021F480916B0034
:103FF0008F7B05C08A3039F480916B008F77809376
:104000006B0081E008958FEF0895811126C05093D1
:10401000B9034093B803611104C0809169008C7F9B
:104020003DC0613049F4809169008D7F80936900C3
:1040300080916900816032C0623049F480916900EA
:10404000826080936900809169008E7F27C0633011
:1040500039F580916900836021C0813049F5509322
:10406000B7034093B603611104C080916900837F58
:1040700015C0613049F480916900877F80936900A1
:104080008091690084600AC0623061F480916900A7
:10409000886080936900809169008B7F80936900BC
:1040A00081E008956330E1F7809169008C60F6CF7C
:1040B000823031F55093C9034093C803611104C0A5
:1040C000809169008F7CEACF613049F4809169006A
:1040D0008F7D80936900809169008061DFCF6230BD
:1040E00049F4809169008062809369008091690041
:1040F0008F7ED4CF6330A1F6809169008063CECFEC
:104100008350883050F4809168008160809368000B
:104110005093CB034093CA03C3CF8FEF08951F92F0
:104120000F920FB60F9211240BB60F922F933F935D
:104130004F935F936F937F938F939F93AF93BF93AF
:10414000EF93FF93E091CA03F091CB03309711F006
:10415000099504C060E08AE00E94ED0FFF91EF91A5
:10416000BF91AF919F918F917F916F915F914F918F
:104170003F912F910F900BBE0F900FBE0F901F908D
:1041800018951F920F920FB60F9211240BB60F9233
:104190002F933F934F935F936F937F938F939F934F
:1041A000AF93BF93EF93FF93E091B803F091B903FE
:1041B000309711F0099504C060E08AE00E94ED0F8D
:1041C000FF91EF91BF91AF919F918F917F916F91EF
:1041D0005F914F913F912F910F900BBE0F900FBEAB
:1041E0000F901F9018951F920F920FB60F921124E7
:1041F0000BB60F922F933F934F935F936F937F93E1
:104200008F939F93AF93BF93EF93FF93E091B60388
:10421000F091B703309711F0099504C060E08AE08F
:104220000E94ED0FFF91EF91BF91AF919F918F9100
:104230007F916F915F914F913F912F910F900BBEA6
:104240000F900FBE0F901F9018951F920F920FB6F0
:104250000F9211240BB60F922F933F934F935F93BE
:104260006F937F938F939F93AF93BF93EF93FF933E
:10427000E091C803F091C903309711F0099504C08B
:1042800060E08AE00E94ED0FFF91EF91BF91AF9146
:104290009F918F917F916F915F914F913F912F915E
:1042A0000F900BBE0F900FBE0F901F9018950E949D
:1042B000650CA89584B7877F84BFE0E6F0E0808135
:1042C0008861808310820C94670C0E94650CA8950D
:1042D00084B7877F84BFE0E6F0E0808188618083D7
:1042E0008DE080830C94670C04B603FC02C081E06F
:1042F00008958FEF0895A8950895089583B7817F55
:10430000866083BF83B7816083BF889583B78E7FC4
:1043100083BF089583B7817F83BF83B7816083BFE5
:10432000889583B78E7F83BF0895FC01768365836C
:104330000895EF92FF920F931F93CF93DF93EC01B9
:104340008B017A014032510518F481E10E94E20F9D
:10435000A70141505109400F511F5A8349831C83C3
:104360000B83DF91CF911F910F91FF90EF900895F4
:1043700025E5FA012083FB0132979083FB013197F9
:104380008083FB01349711821082FB0136971182E2
:104390001082FB01389711821082FB013A9711823B
:1043A0001082FB013C9711821082FB013E97118223
:1043B0001082FB01709711821082FB0172971182AB
:1043C0001082FB01749711821082FB017697118293
:1043D0001082FB01789711821082FB017A9711827B
:1043E0001082FB017C9711821082FB017E97118263
:1043F0001082FB01B09711821082FB01B2971182EB
:104400001082CB018497FC0111821082089585E50A
:1044100080937E41EEEFF1E4F0934504E093440491
:1044200082E39EE090838093FF41089582E39EE0C3
:104430009093FE418093FF4108950E94381E0C9492
:10444000670CA0914C06B0914D06CD91CDBFDD918A
:10445000DEBFFF91EF91DF91CF91BF91AF919F911F
:104460008F917F916F915F914F913F912F911F910C
:104470000F91FF90EF90DF90CF90BF90AF909F9003
:104480008F907F906F905F904F903F902F901F90F4
:104490000F900FBE0F9018950E94780880E190E071
:1044A0000E94A00B8FE792E00E94532580E090E0ED
:1044B0000E94370B81E090E00E94370B82E090E091
:1044C0000E94370B83E090E00E94370B80ED93E071
:1044D0009093C2038093C10384E78093C00310923A
:1044E000C3030E94670C25E132E140E254E26DE033
:1044F0008CEB93E00E944D0360E080914C020E949F
:10450000530A4AE252E060E082E00E940520C82F90
:1045100082E00E94831F1F92CF938CE892E09F93CA
:104520008F930E943B2582EA92E00E9453250F90D0
:104530000F900F900F90FFCF6F927F929F92AF924C
:10454000BF92CF92DF92EF92FF920F931F93CF9380
:10455000DF93CDB7DEB72C970FB6F894DEBF0FBE52
:10456000CDBF8C017B013A01FC0117821682838149
:1045700081FF19C1CE0101965C01F801D380F701DA
:10458000D3FC2591D3FE21917F01222309F407C199
:10459000253249F4D3FC2591D3FE21917F012532A8
:1045A00011F0912C1BC0B801822F90E00E940925C8
:1045B00063013601E2CF222309F4F1C0622F70E0DB
:1045C00082E094E02C870E94A3242C85892B49F05B
:1045D000F701D3FC2591D3FE21917F0197FEEBCF0C
:1045E0000CC0233221F4F92DF0619F2EF1CF2C362F
:1045F00039F4292D2068922EEBCF222309F4CFC065
:10460000622F70E08BEF93E02C870E94A3242C850F
:10461000892B41F06301F4E0CF0ED11CB8018FE388
:1046200090E012C0233641F0233789F0233521F57D
:10463000F92DF1609F2E0BC0630122E0C20ED11C48
:10464000B801F301808191810E940925B2CF6301F5
:1046500022E0C20ED11CF30160807180F30190FC56
:10466000859190FE81913F01882309F4A2CFB80182
:1046700090E00E940925F2CF243611F0293639F551
:10468000630197FE09C0F4E0CF0ED11CF3016081F5
:104690007181828193810AC0F2E0CF0ED11CF301B7
:1046A00060817181882777FD8095982FF92DFF7E95
:1046B0009F2E97FF09C090958095709561957F4FCB
:1046C0008F4F9F4FF0649F2E2AE030E038C0203794
:1046D000A1F040F42835D1F02F3609F060C028E071
:1046E00030E019C0253719F0283751F058C0292D6E
:1046F0002F7E922E2AE030E00EC0892D8061982E08
:10470000992D9462992E20E130E005C0E92DE460F6
:104710009E2E20E132E0630197FE09C0F4E0CF0E47
:10472000D11CF301608171818281938108C0F2E024
:10473000CF0ED11CF3016081718180E090E0A50172
:104740000E94AF25782E7A1896FE05C0B8018DE23A
:1047500090E00E94092594FE16C0FE01E70DF11DB0
:104760008081803381F0B80180E390E00E940925C8
:1047700092FE09C0292D2072822F90E0B801885A3C
:104780009F4F0E9409257A94F501E70DF11D808164
:10479000B80190E00E9409257110F5CF0ACFF80109
:1047A0008681978102C08FEF9FEF2C960FB6F89409
:1047B000DEBF0FBECDBFDF91CF911F910F91FF9054
:1047C000EF90DF90CF90BF90AF909F907F906F90D1
:1047D00008950E949424A59F900DB49F900DA49FCE
:1047E000800D911D11240895DB018F939F930E94EA
:1047F000E923BF91AF91A29F800D911DA39F900DC2
:10480000B29F900D11240895A1E21A2EAA1BBB1B82
:10481000FD010DC0AA1FBB1FEE1FFF1FA217B3078C
:10482000E407F50720F0A21BB30BE40BF50B661FA2
:10483000771F881F991F1A9469F760957095809566
:1048400090959B01AC01BD01CF010895689401C012
:10485000E8948F929F92CF93DF930E943424DF914C
:10486000CF919F908F90089588249924F401E401BA
:10487000B0E49F93AA279A158B049C04ED05FE05CE
:10488000CF05D007A10798F4AD2FDC2FCF2FFE2F37
:10489000E92D982C892E982F872F762F652F542F4E
:1048A000432F322F2227B85031F7BF9127C01B2E3C
:1048B000BF91BB27220F331F441F551F661F771F51
:1048C000881F991F881C991CEE1FFF1FCC1FDD1F1E
:1048D000AA1FBB1F8A149B04EC05FD05CE05DF054E
:1048E000A007B10748F08A189B08EC09FD09CE091A
:1048F000DF09A00BB10B21601A94E1F62EF49401AC
:10490000AF01BE01CD01000C0895EE0FFF1F059011
:10491000F491E02D09942A0D3B1D4C1D5D1D6E1D6B
:104920007F1D801F911F0895A29FB001B39FC001FA
:10493000A39F700D811D1124911DB29F700D811DCB
:104940001124911D0895FC010590061621F0002008
:10495000D9F7C00108953197CF010895FB01DC011B
:1049600002C001900D9241505040D8F70895FB01CC
:10497000DC0101900D920020E1F708950F931F9341
:10498000CF93DF93EC018B01009731F46115710532
:1049900019F480E090E038C06EE070E081E090E0D3
:1049A0000E942326FC010097A1F380E88383011570
:1049B000110571F01387028781E88383809178065F
:1049C00090917906892B21F4F0937906E09378068B
:1049D0002097C9F0D187C0878381826083838091CB
:1049E0007A0690917B06892B71F4F0937B06E09315
:1049F0007A0680917C0690917D06892B21F4F093B4
:104A00007D06E0937C06CF01DF91CF911F910F913E
:104A100008950F931F93CF93DF93182F092FEB0166
:104A20008B8181FD03C08FEF9FEF20C082FF10C0FC
:104A30004E815F812C813D81421753077CF4E881D0
:104A4000F9819F012F5F3F4F39832883108306C070
:104A5000E885F985812F0995892B29F72E813F81DA
:104A60002F5F3F4F3F832E83812F902FDF91CF9178
:104A70001F910F910895CF93DF93CDB7DEB7FE015D
:104A8000359661917191AF0180917A0690917B0684
:104A90000E949C22DF91CF91089560917A067091D7
:104AA0007B060C9409250F931F93CF93DF93E0911E
:104AB0007A06F0917B06238121FF1BC0EC0100E008
:104AC00010E0899160917A0670917B06DB0118965F
:104AD000ED91FC911997882331F00995892B89F381
:104AE0000FEF1FEFEECF8AE00995892B11F4C80173
:104AF00002C08FEF9FEFDF91CF911F910F9108952B
:104B00000F931F93CF93DF93CDB7DEB72E970FB6DA
:104B1000F894DEBF0FBECDBF0D891E8986E08C8361
:104B20001A8309838FEF9FE79E838D83AE01475ED3
:104B30005F4F6F89788DCE0101960E949C22EF8194
:104B4000F885E00FF11F10822E960FB6F894DEBFA5
:104B50000FBECDBFDF91CF911F910F910895FA0144
:104B6000AA27283051F1203181F1E8946F936E7FAC
:104B70006E5F7F4F8F4F9F4FAF4FB1E03ED0B4E09D
:104B80003CD0670F781F891F9A1FA11D680F791FDE
:104B90008A1F911DA11D6A0F711D811D911DA11DEF
:104BA00020D009F468943F912AE0269F11243019FF
:104BB000305D3193DEF6CF010895462F4770405D9A
:104BC0004193B3E00FD0C9F7F6CF462F4F70405D49
:104BD0004A3318F0495D31FD4052419302D0A9F7A4
:104BE000EACFB4E0A6959795879577956795BA959E
:104BF000C9F700976105710508959B01AC010A2E64
:104C000006945795479537952795BA95C9F7620F3A
:104C1000731F841F951FA01D0895F999FECF92BDA3
:104C200081BDF89A992780B50895262FF999FECF6E
:104C30001FBA92BD81BD20BD0FB6F894FA9AF99AB9
:104C40000FBE019608950F931F93CF93DF93869F16
:104C50008001879F100D969F100D1124C8010E949E
:104C60003F26EC01009729F0A80160E070E00E9467
:104C70006627CE01DF91CF911F910F910895CF93B9
:104C8000DF938230910510F482E090E0E09180069D
:104C9000F091810620E030E0A0E0B0E0309739F1FB
:104CA0004081518148175907B8F04817590771F4E6
:104CB00082819381109729F013969C938E9312977B
:104CC0002CC0909381068093800627C02115310562
:104CD00031F04217530718F0A901DB0101C0EF01C1
:104CE0009A01BD01DF010280F381E02DD7CF2115AC
:104CF0003105F9F0281B390B2430310580F48A8105
:104D00009B816115710521F0FB019383828304C0AF
:104D10009093810680938006FE01329644C0FE0186
:104D2000E20FF31F81939193225031093983288335
:104D30003AC020917E0630917F06232B41F42091CA
:104D400002023091030230937F0620937E06209169
:104D50000002309101022115310541F42DB73EB713
:104D60004091040250910502241B350BE0917E0610
:104D7000F0917F06E217F307A0F42E1B3F0B2817D4
:104D8000390778F0AC014E5F5F4F2417350748F0C4
:104D90004E0F5F1F50937F0640937E068193919341
:104DA00002C0E0E0F0E0CF01DF91CF910895CF9312
:104DB000DF93009709F487C0FC01329713821282B7
:104DC000C0918006D0918106209781F420813181A5
:104DD000280F391F80917E0690917F0682179307D6
:104DE00079F5F0937F06E0937E066DC0DE0120E04A
:104DF00030E0AE17BF0750F412964D915C911397B7
:104E00009D014115510509F1DA01F3CFB383A28366
:104E100040815181840F951F8A179B0771F48D91F2
:104E20009C911197840F951F02969183808312960F
:104E30008D919C911397938382832115310529F4D9
:104E4000F0938106E09380063EC0D9011396FC934F
:104E5000EE9312974D915D91A40FB51FEA17FB07D2
:104E600079F480819181840F951F0296D901119662
:104E70009C938E938281938113969C938E93129729
:104E8000E0E0F0E08A819B81009719F0FE01EC01DF
:104E9000F9CFCE01029628813981820F931F20918C
:104EA0007E0630917F062817390769F4309729F478
:104EB000109281061092800602C013821282D09353
:104EC0007F06C0937E06DF91CF910895DC0101C07B
:0E4ED0006D9341505040E0F70895F894FFCFE5
:104EDE000000820620003D352D251D150D053D35A2
:104EEE002D251D150D052E261E160E06FFFF0C0474
:104EFE003C342C241C140C043B332B231B130B3B74
:104F0E00332B231B130B03FFFFFFFFFFFFFFFF39A5
:104F1E003129211911090119110901FFFFFFFFFFA5
:104F2E00FFFFFFFFFFFFFF496E74657272757074AD
:104F3E000053656E64696E670D002D2D2D2052464F
:104F4E005F5458204552524F52202D2D2D0D0047A3
:104F5E004C4F53534265652054580D00696E7420B2
:104F6E0072657475726E20636F64653A2025640DE8
:104F7E000A004C6F6F70207374617274696E672EC5
:104F8E002E2E0D0063616C6C6261636B20256420B4
:104F9E0025640A00696E74657272757074210069F9
:104FAE006E74657272757074213200696E746572FA
:104FBE007275707421330072665F72785F70616310
:104FCE006B65745F6E6F6E626C6F636B206661698A
:104FDE006C65645D0D005061636B657420697320B0
:104FEE00646F6E6520626F756E63696E67206172A5
:104FFE006F756E64210D0A005345513A25347509BB
:10500E0054544C3A25326409525353493A25346468
:10501E00095061796C6F61643A205B25735D0D0AEE
:10502E0000525820656E64206661696C6564206369
:10503E006865636B73756D210D0025640063757271
:10504E003A202564200063616E617279203D20252F
:10505E0078200073746B203D2025782000746362E5
:10506E002061646472203D2025780D0A0025643A83
:0E507E0020626F74746F6D203D202578200035
:00000001FF
