:100000000C9409020C944A200C947C200C94AE2091
:100010000C9428020C9428020C9428020C942802B8
:100020000C9428020C9418200C9428020C9428029A
:100030000C9428020C94771E0C9428020C94771EC2
:100040000C9428020C9428020C9428020C94280288
:100050000C9428020C9428020C9428020C94280278
:100060000C9428020C9428020C9428020C94280268
:100070000C9428020C9428020C9428020C94280258
:100080000C94AA1E0C9428020C9428020C942802AA
:100090000C9428020C9428020C9428020C94280238
:1000A0000C9428020C9428020C9428020C94280228
:1000B0000C9428020C9428020C9428020C94280218
:1000C0000C9428020C9428020C9428020C94280208
:1000D0000C9428020C9428020C9428020C942802F8
:1000E0000C9428020C94E1050C94D2050C94A20502
:1000F0000C94A1060C9493050C9484050C94720541
:100100000C9463050C9428020C9428020C94280289
:100110000C9428020C9428020C9428020C942802B7
:10012000150820082B08360841084C08570876089F
:1001300082088E089A08A608B208B208D008D20829
:10014000D408D608D808DA08DC08FA081A093A09E7
:100150005A097A099A09BA09F009FC09080A140A25
:10016000200A2C0A380A500A5B0A660A710A7C0ABD
:10017000870A920A440E470E520E570E5E0E670E05
:100180006A0E6F0E760E7F0ED40EDA0EDD0EE00EC6
:10019000E30EE60EEC0EE90EEF0EF20EF50EFE0E7D
:1001A000010F040F070FFB0ED10ED70E0A0F0D0F14
:1001B000F80ECE0E554E4B4F574E00457874657273
:1001C0006E616C2052657365740042726F776E20A9
:1001D0004F757420446574656374004661696C658D
:1001E0006420746F206372656174652053656D616E
:1001F00070686F7265004661696C656420746F2079
:10020000637265617465205369676E616C004B654C
:10021000726E656C2066756E6374696F6E206E6FAA
:100220007420696D706C656D656E746564004465FD
:100230007669636520447269766572204572726FD3
:1002400072005761746368646F67205265737461EC
:100250007274005357205761746368646F6720524B
:100260006573746172740054696D6572204F7665B0
:1002700072666C6F7700556E68616E646C656420A1
:10028000496E7465727275707420566563746F720E
:10029000004C6F7720566F6C746167650045787409
:1002A0007261205461736B20737461727465642C85
:1002B000206973206E726B5F6366672E68206F6BB8
:1002C0003F0049646C65206F72204B65726E656CEF
:1002D00020537461636B204F766572666C6F770094
:1002E000556E6578706563746564205265737461DA
:1002F0007274004475706C69636174656420546144
:10030000736B204944005363686564756C657220A3
:100310004D69737365642057616B65757000546136
:10032000736B20526573657276652056696F6C61D8
:100330007465640052657365727665204572726FEC
:100340007220696E205363686564756C657200493C
:100350006E76616C696420537461636B20506F69C1
:100360006E746572005461736B20537461636B200B
:100370004F766572666C6F7700537461636B20779C
:100380006173206E6F7420646566696E65642061B8
:1003900073206C6172676520656E6F7567682100F8
:1003A0005461736B20706572696F6420746F6F2085
:1003B0006C617267652E20506572696F64206D757F
:1003C0007374206265206C657373207468616E209D
:1003D0003631207365636F6E64732E00293A2000F6
:1003E0002A4E524B204552524F5228000D0A535468
:1003F00041434B2044554D500D0A00454647656624
:100400006700202B2D2E30313233343536373839D2
:10041000680011241FBECFEFD1E4DEBFCDBF13E0D3
:10042000A0E0B2E0E0E5FEE400E00BBF02C0079010
:100430000D92A437B107D9F716E0A4E7B3E001C0E5
:100440001D92A834B107E1F70E94D5210C9426270C
:100450000C946D1E209175032F93209174032F939C
:100460009F938F938FE992E09F938F930E94F42440
:100470008091740390917503019690937503809316
:1004800074030F900F900F900F900F900F9008959E
:100490000895909141019F719F31D9F3809342015A
:1004A000089581E080938104089510928104089555
:1004B000809141018F718F31D9F3809141018F710A
:1004C000E1F08F30D1F0809141018F71883031F4AB
:1004D000809139018260809339010BC088E00E94CD
:1004E0004902809141018F718830D9F7F1CF8F3067
:1004F00021F0809141018F71D1F7089580914101E0
:100500008F718F31D9F3809141018F7111F08F304C
:1005100051F4809139018D7F80933901809141019F
:100520008F718830D9F70895E5E4F1E09081907FEC
:10053000908390818F70892B80830895E7E5F1E0A7
:1005400080818D7F80830895E7E5F1E0808182607E
:1005500080830895EEE6F1E080818F7E80830895A8
:10056000EEE6F1E0808180618083089580936001F0
:100570009093610190938C0480938B0408959093E1
:10058000860480938504E8E4F1E08081807E8083A6
:100590008081682B6083089590937903809378031A
:1005A0000895909377038093760308951F93CF93D4
:1005B000DF9370E27093440170EC709345016062C8
:1005C0006093480165EC6093490167EA60934B01D1
:1005D00060E860934C012093600130936101409387
:1005E000620150936301E6E4F1E0C081A081608183
:1005F0001081C295C695C77070E4C79FE0011124B1
:100600001295169513701C2BA295A695A37070E1F8
:10061000A79FD00111241A2B629566956370A4E000
:100620006A9FB0011124162B10936D0160817081B7
:10063000729576957370706462956670672B60939F
:100640006E0110926C016FEF60934E0190938604DF
:1006500080938504109287041092880450938A0432
:100660004093890430938C0420938B0410928D0462
:1006700081E08093A8041092CC0410929704109209
:100680008104DF91CF911F91089586E10C94490276
:1006900086E10C94490288E00E9449021092CC0441
:1006A00008953F924F925F926F927F928F929F92A6
:1006B000AF92BF92CF92DF92EF92FF920F931F9370
:1006C000CF93DF93EC013B018091A804811102C01C
:1006D0008FEF0FC19E81809187048F5F8093870485
:1006E00080918101807E816090FB85F98F738064A9
:1006F0008093810188E8809382018091810488231E
:1007000061F08FEF809383018AEA9AEA90938901DE
:10071000809388018FEF9FEF10C0809187048093B2
:100720008301209161018091600190E0922B909370
:1007300089018093880188819981909387018093B2
:100740008601209163018091620190E0922B909349
:100750008501809384014A81552747FD50956B811F
:100760007C818AE891E00E946E248A81855F809373
:10077000800180914101982F9F71392E8F709FEFDA
:10078000980F9230B0F39FE1391699F398EF930DDB
:10079000923018F0863009F09BCF86E10E94490222
:1007A0008D8181110AC089E00E9449028E818823CF
:1007B00091F089E10E9449020EC080914801806851
:1007C000809348018091410187FFFCCF80914101D6
:1007D00086FF7ECFE8CF6114710499F18FE894E031
:1007E0000E94F41680918F0490919004A09191043E
:1007F000B09192048093A9049093AA04A093AB04AF
:10080000B093AC04D30120E432E44FE050E00E9406
:10081000A9230091930410919404209195043091A0
:100820009604600F711F821F931F6093AD04709335
:10083000AE048093AF049093B00489EA94E00E94E0
:10084000DE171092970482E00E944902412C512C3D
:1008500080919704811108C08FEF481A580A98EECA
:1008600049169DEF5906A1F76114710421F48E8198
:1008700081112DC034C08FE894E00E94F41680905E
:100880008F0490909004A0909104B0909204C09036
:100890009304D0909404E0909504F0909604009115
:1008A000A9041091AA042091AB043091AC044091AA
:1008B000AD045091AE046091AF047091B0048DE42A
:1008C00095E00E9450178F3F09F0BBCFD0CF8091A9
:1008D000420182958695877011F0CFEF06C088EEB1
:1008E00048168DEF5806C9F3C1E0832D0E944902D6
:1008F0008C2FDF91CF911F910F91FF90EF90DF90A0
:10090000CF90BF90AF909F908F907F906F905F90AF
:100910004F903F90089560E070E00C945103CF93A6
:10092000DF938091A804882321F180914101C82F91
:10093000CF718F709FEF980F9230B8F3CF31A9F33A
:10094000C83011F08630A9F486E10E9449028091F6
:1009500048018068809348018091410187FFFCCF66
:10096000D09141018C2F0E944902D6FB882780F943
:1009700001C08FEFDF91CF9108958091A804882363
:1009800009F49FC08091CC04882309F498C0809119
:100990007B01E0918504F091860490E00297248128
:1009A000332727FD3095281739070CF48AC0E091CA
:1009B0008504F0918604809182018083E091850412
:1009C000F0918604809187019091880192838183C0
:1009D000E0918504F091860480917B018B508383A4
:1009E000A0918504B0918604E0918504F09186047D
:1009F00013969C91848189173CF0E0918504F091D5
:100A00008604838187FF0DC01092CC0480914C0135
:100A10008F7780934C0180914C01806880934C01CA
:100A200050C0A0918504B0918604E0918504F091B6
:100A3000860413964C91552747FD509569E871E05F
:100A4000858196810E946E24E0918504F091860450
:100A50008091800185FB882780F98783E091850458
:100A6000F0918604809147018087E0918504F091A0
:100A70008604809146018695869586958187E091CA
:100A80008504F0918604809147018287E091850476
:100A9000F0918604A0917B01B0E0A058BE4F8C91EC
:100AA00083871092CC0480914C018F7780934C0106
:100AB00080914C01806880934C0181E0089580E032
:100AC00008958FEF08951F920F920FB60F92112481
:100AD0008F9380E880934F018F910F900FBE0F90FE
:100AE0001F9018951F920F920FB60F9211248F939B
:100AF00081E08093970480E480934F018F910F9061
:100B00000FBE0F901F9018951F920F920FB60F9265
:100B100011248F9380E280934F018F910F900FBE2D
:100B20000F901F9018951F920F920FB60F921124DD
:100B30008F9380E180934F018F910F900FBE0F90A4
:100B40001F9018951F920F920FB60F9211240BB69B
:100B50000F922F933F934F935F936F937F938F9356
:100B60009F93AF93BF93EF93FF9384E080934F01E4
:100B7000E0917803F0917903309709F00995FF919E
:100B8000EF91BF91AF919F918F917F916F915F9105
:100B90004F913F912F910F900BBE0F900FBE0F9072
:100BA0001F9018951F920F920FB60F9211248F93DA
:100BB00082E080934F018F910F900FBE0F901F9096
:100BC00018951F920F920FB60F9211248F9381E008
:100BD00080934F018F910F900FBE0F901F9018952B
:100BE000E9E4F1E09081907F908390818F70892B70
:100BF000808308958FEF08950895089508958FEFE5
:100C0000089580917F0490918004089580E0089574
:100C1000089581E0089581E0089581E008950895A0
:100C20000895089508950895089508950895E7E3AF
:100C3000F1E0808183608083989AA09A8DB1806E64
:100C40008DB98EB1806E8EB90895E7E3F1E08081B1
:100C500083608083989AA0988DB1806E8DB98EB193
:100C6000806E8EB90895CF92DF92EF92FF920F932C
:100C70001F93CF93DF93CDB7DEB727970FB6F894C6
:100C8000DEBF0FBECDBF0E94EE0BE0918504F09158
:100C90008604C080D38005811681E0840E94BD0453
:100CA00018161CF08FEA92E006C0F801F080F110EF
:100CB00007C08EEC92E00E940C250E94F00B32C01F
:100CC000F5E0FF1204C08AE090E00E940625C8010A
:100CD00001969F938F938E2D992787FD90959F93D3
:100CE000EF921F92FF921F92CF9280EF92E09F931C
:100CF0008F930E94F4241D830C83FA94F801F082F0
:100D0000DB821E821F828FEF9FEF9A8389830E946E
:100D1000F00BCE0101960E948B040FB6F894DEBF53
:100D20000FBECDBF27960FB6F894DEBF0FBECDBF66
:100D3000DF91CF911F910F91FF90EF90DF90CF90B7
:100D400008951F920F920FB60F9211240BB60F92B7
:100D50002F933F934F935F936F937F938F939F93C3
:100D6000AF93BF93EF93FF9380E090917B0189173E
:100D700010F48F5FFACF8091460187FF04C081E0B5
:100D80008093CC0404C089E193E00E940C2588E0A4
:100D900080934F018091460187FF05C080918104B7
:100DA00081110E943306E0917603F091770330972A
:100DB00009F00995FF91EF91BF91AF919F918F91AC
:100DC0007F916F915F914F913F912F910F900BBE4B
:100DD0000F900FBE0F901F901895E8E9F4E0DC012A
:100DE0008C9181938D9180933F0184E0E83AF807DC
:100DF000B9F780E110923E018150E1F780E88093DD
:100E00003C0180913D0180FFFCCFE3EBF4E0809159
:100E10003F01819384E0E33CF807C9F70895CF933D
:100E2000662309F447C0262F2F7009F043C0E8E974
:100E3000F4E0219120933F0124E0E83AF207C9F75A
:100E4000A0E070E0B0E220E1A29FA00111244617CB
:100E5000570774F5A11103C010923C0102C0B09372
:100E60003C0120E030E0480F591FFA01E20FF31F68
:100E7000E081E0933E012F5F3F4F20313105A9F71C
:100E800020913C01206820933C0120913D0120FFEE
:100E9000FCCF20E030E0C0913E01FA01E20FF31FE9
:100EA000C0832F5F3F4F20313105A9F7AF5FCBCF14
:100EB00080E001C081E0CF9108950F931F93CF93FD
:100EC000DF93613009F44FC0262F2F7009F04BC01B
:100ED000E3EBF4E0219120933F0124E0E33CF207AF
:100EE000C9F762956F70615008E06F3FD1F10093D0
:100EF0003C0120E16202A001112420E030E0FC016D
:100F0000E40FF51FDF01A20FB31F7C9170933E0128
:100F10002F5F3F4F20313105A9F720913C01206818
:100F200020933C0120913D0120FFFCCF405151090D
:100F300020E030E0480F591F10913E01DF01A20F61
:100F4000B31F1C93662331F0EA01C20FD31F7881CF
:100F500071277C932F5F3F4F2031310569F7615036
:100F6000C4CF80E001C081E0DF91CF911F910F914C
:100F700008958091C00087FFFCCF8091C0008F77DB
:100F80008093C0008091C60008959091C00095FFA5
:100F9000FCCF9091C0009F7D9093C0008093C600CD
:100FA00008958FEF0895813031F48091C80087FD56
:100FB00007C080E008958111FCCF8091C000F7CF79
:100FC00081E00895CF93DF93FC012491EC012196F9
:100FD000222351F06091400670914106822F90E0EB
:100FE0000E94C224CE01F0CFDF91CF91089586E018
:100FF00084B985B988EF8AB980EF8BB982E08DB961
:1010000008950C94F7078F3F09F45CC0482F477090
:1010100050E04730510508F055C0FA01E057FF4F46
:101020008695869586950C94452492B121E030E012
:10103000082E01C0220F0A94EAF7922B92B940C001
:1010400095B121E030E0082E01C0220F0A94EAF7A2
:10105000922B95B935C098B121E030E0082E01C03F
:10106000220F0A94EAF7922B98B92AC09BB121E08B
:1010700030E0082E01C0220F0A94EAF7922B9BB9A8
:101080001FC09EB121E030E0082E01C0220F0A945B
:10109000EAF7922B9EB914C091B321E030E0082EFC
:1010A00001C0220F0A94EAF7922B91BB09C094B3B6
:1010B00021E030E001C0220F8A95EAF7922B94BB21
:1010C00081E008958FEF08958F3F09F457C0482FAE
:1010D000477050E04730510508F050C0FA01E9561A
:1010E000FF4F8695869586950C94452492B121E014
:1010F00030E0082E01C0220F0A94EAF72095292338
:1011000022B93AC095B121E030E0082E01C0220F8B
:101110000A94EAF72095292325B92EC098B121E039
:1011200030E0082E01C0220F0A94EAF72095292307
:1011300028B922C09BB121E030E0082E01C0220F67
:101140000A94EAF7209529232BB916C09EB121E015
:1011500030E0082E01C0220F0A94EAF720952923D7
:101160002EB90AC091B321E030E001C0220F8A9568
:10117000EAF72095292321BB81E008958FEF089598
:101180008F3F21F1482F477050E047305105F0F470
:10119000FA01E256FF4F8695869586950C94452474
:1011A00020B10BC023B109C026B107C029B105C0C9
:1011B0002CB103C02FB101C022B330E002C035957D
:1011C00027958A95E2F7822F817008958FEF089511
:1011D0008F3F09F4EFC0482F477050E0473051056A
:1011E00008F0E8C0FA01EB55FF4F86958695869585
:1011F0000C94452420B130E0082E02C03595279587
:101200000A94E2F792B120FD0AC021E030E0082EF6
:1012100001C0220F0A94EAF7922B92B91EC021E076
:1012200030E0082E01C0220F0A94EAF72095292306
:1012300022B913C023B130E0082E02C0359527959E
:101240000A94E2F795B120FD0AC021E030E001C028
:10125000220F8A95EAF7922B95B981E0089521E053
:1012600030E0082E01C0220F0A94EAF720952923C6
:1012700025B9F3CF26B130E0082E02C03595279569
:101280000A94E2F798B120FD0AC021E030E0082E70
:1012900001C0220F0A94EAF7922B98B9DECF21E021
:1012A00030E0082E01C0220F0A94EAF72095292386
:1012B00028B9D3CF29B130E0082E02C03595279543
:1012C0000A94E2F79BB120FD0AC021E030E0082E2D
:1012D00001C0220F0A94EAF7922B9BB9BECF21E0FE
:1012E00030E0082E01C0220F0A94EAF72095292346
:1012F0002BB9B3CF2CB130E0082E02C0359527951D
:101300000A94E2F79EB120FD0AC021E030E0082EE9
:1013100001C0220F0A94EAF7922B9EB99ECF21E0DA
:1013200030E0082E01C0220F0A94EAF72095292305
:101330002EB993CF2FB130E0082E02C035952795F6
:101340000A94E2F791B320FD0AC021E030E0082EB4
:1013500001C0220F0A94EAF7922B91BB7ECF21E0C5
:1013600030E0082E01C0220F0A94EAF720952923C5
:1013700021BB73CF22B330E0082E02C035952795EC
:101380000A94E2F794B320FD0AC021E030E0082E71
:1013900001C0220F0A94EAF7922B94BB5ECF21E0A2
:1013A00030E0082E01C0220F0A94EAF72095292385
:1013B00024BB53CF8FEF08958F3F09F4BEC0482F51
:1013C000477050E0611160C04730510508F0B5C06A
:1013D000FA01E455FF4F8695869586950C94452431
:1013E00091B121E030E0082E01C0220F0A94EAF703
:1013F0002095292321B99FC094B121E030E0082E27
:1014000001C0220F0A94EAF72095292324B993C03A
:1014100097B121E030E0082E01C0220F0A94EAF7CC
:101420002095292327B987C09AB121E030E0082E02
:1014300001C0220F0A94EAF7209529232AB97BC01C
:101440009DB121E030E0082E01C0220F0A94EAF796
:10145000209529232DB96FC090B321E030E0082EEC
:1014600001C0220F0A94EAF72095292320BB63C00C
:1014700093B321E030E0082E01C0220F0A94EAF76E
:101480002095292323BB57C04730510508F055C08C
:10149000FA01ED54FF4F8695869586950C94452468
:1014A00091B121E030E0082E01C0220F0A94EAF742
:1014B000922B91B940C094B121E030E0082E01C0D8
:1014C000220F0A94EAF7922B94B935C097B121E024
:1014D00030E0082E01C0220F0A94EAF7922B97B948
:1014E0002AC09AB121E030E0082E01C0220F0A94F0
:1014F000EAF7922B9AB91FC09DB121E030E0082E87
:1015000001C0220F0A94EAF7922B9DB914C090B340
:1015100021E030E0082E01C0220F0A94EAF7922B56
:1015200090BB09C093B321E030E001C0220F8A953F
:10153000EAF7922B93BB81E008958FEF0895811114
:1015400006C080B18695817091E0892708958FEF5C
:101550000895009711F483E20DC08130910511F4D4
:101560008BE208C08230910511F483E303C0039736
:1015700029F48BE30E94E80881E008958FEF089535
:10158000009711F483E20DC08130910511F48BE2D4
:1015900008C08230910511F483E303C0039729F456
:1015A0008BE30E94030881E008958FEF0895009770
:1015B00011F483E20DC08130910511F48BE208C073
:1015C0008230910511F483E303C0039729F48BE380
:1015D0000E94640881E008958FEF0895882319F030
:1015E00085B78F7E02C085B7806185BF81E0089591
:1015F0009091C80095FFFCCF8093CE000895909302
:10160000C5008093C40086E08093C200E1ECF0E066
:1016100080818B7F8083A0ECB0E08C9182608C9382
:1016200080818861808308959093CD008093CC0061
:1016300086E08093CA00E9ECF0E080818B7F8083B4
:10164000A8ECB0E08C9182608C938081886180836B
:1016500008950E94FF0A69EB77E085EC97E00E940D
:101660007724909341068093400669EB77E085EC00
:1016700097E00E94772490933F0680933E0608955A
:101680008091C80087FFFCCF8091C8008F7780933E
:10169000C8008091CE000895000000000000000006
:1016A00001970097C9F708950C94C6250E94CE258E
:1016B0000895EF92FF920F931F93CF93DF93EC0166
:1016C00080E090E00E94C625F82E8B8381E090E0B8
:1016D0000E94C625E82E8A8382E090E00E94C625FB
:1016E000082F898383E090E00E94C625182F888305
:1016F00084E090E00E94C6259E2D9F0D900F910FD3
:10170000891302C081E001C08FEFDF91CF911F915B
:101710000F91FF90EF900895CF93DF93EC0185E058
:1017200090E00E94C625888381E0DF91CF910895E3
:10173000FC01608186E090E00E94CE2581E0089562
:10174000CF93DF93EC0186E090E00E94C62588836A
:1017500081E0DF91CF9108950F931F93CF93DF9393
:101760008C01C8E0D0E0CE010E94C625F80181932B
:101770008F012196C831D105B1F781E0DF91CF917A
:101780001F910F9108950F931F93CF93DF938C01B7
:10179000C8E0D0E0F80161918F01CE010E94CE2512
:1017A0002196C831D105B1F781E0DF91CF911F912A
:1017B0000F910895CF93DF93EC0187E090E00E94B2
:1017C000C625888381E0DF91CF910895FC01608177
:1017D00087E090E00E94CE2581E00895F894089576
:1017E000789408950E94EE0BFFCFCF93DF93CDB78F
:1017F000DEB7A3970FB6F894DEBF0FBECDBF0E9431
:101800009D10809309068F3F21F460E08EE00E94D6
:10181000760F0E94E61E80FF04C060E086E00E9412
:10182000760F10920C0610921A061092190610925A
:101830000B0610920A0610921B06109218068FEFE4
:1018400080930506809307068093060693E690939F
:10185000610580935F0590938C0580938A05909332
:10186000B7058093B5059093E2058093E00521E2EA
:1018700036E03093200620931F068CE196E090938B
:1018800023068093220646E256E0509325064093B5
:10189000240630932806209327062BE236E0309367
:1018A0002A062093290650932D0640932C0640E3E8
:1018B00056E050932F0640932E0630933206209325
:1018C000310610921E0610921D06109234061092D8
:1018D000330610920F0610920E06909356058093D1
:1018E000550565E17AE1CE0101960E941E2140E88E
:1018F00050E06DEC74E0CE0101960E94222185E556
:101900008093CD0419861C861D861E861F86188A24
:10191000198A1A8A1B8A1C8A1D8A1E8A1F8A188E97
:10192000198E1A8E1B8E1C8E1D8E1E8E1F8E18A257
:1019300019A21AA21BA281E0888792E09A878B875E
:10194000CE0101960E94AF14A3960FB6F894DEBFA5
:101950000FBECDBFDF91CF910895CFE5D5E0F12C3B
:10196000D8808FEFD81221C0F394AB9694E0F9128F
:10197000F7CF0E94AC139BE28902F0011124E95ACF
:10198000FA4F828580931B06F0931A06E09319069E
:10199000F0930B06E0930A0680930C060E94A621A2
:1019A0000E9490210E94AA2114C00FE515E0E12CAD
:1019B000FE1441F0F8018081D81204C06D2D85E03D
:1019C0000E94760FE394055D1F4FF4E0EF12F0CF15
:1019D000CBCFFFCFAF92BF92CF92DF92EF92FF9229
:1019E0000F931F93CF93DF931F92CDB7DEB75C01A8
:1019F0006B017A01DC0119968C911997823021F0E4
:101A0000809108068C9302C0F5011082809108062F
:101A1000843020F060E087E00E94760FD5011996AF
:101A20008C91823029F0809108068F5F80930806A0
:101A300080910806811103C081E080930806F501BA
:101A400030812BE23203F0011124E95AFA4FD1829E
:101A5000C082D50118968C91189782873C913203E9
:101A6000F0011124E95AFA4F83E081873C91320357
:101A7000F0011124E95AFA4F30870C9102038001DA
:101A80001124095A1A4FF8011582C5010B960E94BC
:101A90006219D80191966D937D938D939C93949741
:101AA000F50183859485A585B68588339948A14439
:101AB000B10528F0D5016C9186E10E94760FF50101
:101AC0000081112707FD1095C5014B960E946219F0
:101AD0004BE2409FF001419FF00D1124E95AFA4F6B
:101AE000658B768B878B908FD5012C9124036001B9
:101AF0001124F601E95AFA4F6F01058916892789E1
:101B0000308D81A192A1A3A1B4A1080F191F2A1F92
:101B10003B1F018F128F238F348FC501439649835A
:101B20000E946219F60165A376A387A390A7D50149
:101B30002C9149812403F0011124E95AFA4F85A11F
:101B400096A1A7A1B0A5858F968FA78FB0A381E09E
:101B500090E092A781A7F382E28281E084870F90D0
:101B6000DF91CF911F910F91FF90EF90DF90CF9079
:101B7000BF90AF9008950C942F1A85E690E00895D9
:101B8000E0911906F0911A0684870895E0911906EC
:101B9000F0911A06848508952091CB04222341F008
:101BA000FB01208320918204FC01208381E00895C1
:101BB00080E00895CF93DF931F92CDB7DEB71982EF
:101BC0008981843640F480ED97E00E941B1D898155
:101BD0008F5F8983F5CF0F90DF91CF91089581E0DA
:101BE00090E00E94D70A0E94DA0D0E94DA0D0E944E
:101BF000DA0D81E090E00E94C00A0C94DA0D81E0D9
:101C000090E00E94D70A0E94DA0D81E090E00E94E5
:101C1000C00A0C94DA0DFF920F931F93CF93DF93BA
:101C200000D01F92CDB7DEB71F928F938EE792E060
:101C30009F938F938E010F5F1F4F1F930F930E94EF
:101C400039250F900F900F900F900F900F90F12C5F
:101C5000F80101900020E9F73197E01BF10B8F2D7F
:101C600090E08E179F0708F05CC0F801E80FF91F9D
:101C7000808190E0FC01F097EA30F10508F049C05E
:101C8000E654FF4F0C9445240E94EF0D02C00E94C1
:101C9000FF0D0E94EF0D0E94EF0D0E94EF0D0E94BC
:101CA000EF0D37C00E94FF0D0E94FF0DF4CF0E9480
:101CB000FF0D0E94FF0D0E94FF0DEFCF0E94FF0D50
:101CC0000E94FF0D0E94FF0D0E94FF0DE8CF0E94B1
:101CD000FF0D02C00E94EF0D0E94FF0D04C00E9484
:101CE000EF0D0E94EF0D0E94FF0D06C00E94EF0D48
:101CF0000E94EF0D0E94EF0D0E94FF0D08C00E9490
:101D0000EF0D0E94EF0D0E94EF0D0E94EF0D0E945B
:101D1000FF0D0E94DA0D0E94DA0D0E94DA0DF39495
:101D200097CF0F900F900F90DF91CF911F910F9150
:101D3000FF900895CF93DF938091CB04882309F41B
:101D4000C6C00E94EE0B0E94EE0B80EE93E00E9454
:101D5000E207809182041F928F938EE792E09F9317
:101D60008F930E94F4248CED93E00E94E2070F9081
:101D70000F900F900F908091CB04883110F010924B
:101D8000CB048091CB0490E0FC013197E631F10562
:101D900008F046C0EC53FF4F0C94452480EA93E0D2
:101DA00041C089E793E03EC085E693E03BC08FE405
:101DB00093E038C084E393E035C08EE193E032C015
:101DC00086E093E02FC083EF92E02CC080EE92E09B
:101DD00029C082EC92E026C08DE992E023C081E91F
:101DE00092E020C086E792E01DC087E692E01AC02C
:101DF00083E592E017C082E492E014C08EE292E0A4
:101E000011C08EE092E00EC086EF91E00BC08BED2A
:101E100091E008C08AEC91E005C08BEB91E002C034
:101E200084EB91E00E94E2076091400670914106C8
:101E30008DE090E00E94C2246091400670914106BE
:101E40008AE090E00E94C224C0E0C43104F582E040
:101E500090E00E94D70A83E090E00E94C00AD4E696
:101E600088EE93E00E941B1DD150D1F783E090E0F3
:101E70000E94D70A82E090E00E94C00AD4E688EE71
:101E800093E00E941B1DD150D1F7CF5FDECF83E0DE
:101E900090E00E94C00A82E090E00E94C00A809117
:101EA00082040E940B0E0E94DA0D82E090E00E94F4
:101EB000D70A0E94DA0D82E090E00E94C00A0E94D8
:101EC000DA0D8091CB040E940B0EC0E0C0CF80E001
:101ED000DF91CF9108958093CB04E0911906F091A2
:101EE0001A068085809382040C949A0E182F062F70
:101EF0008093CB04609382040E949A0EC0E0C431A8
:101F000000F582E090E00E94D70A83E090E00E9412
:101F1000C00AD4E688EE93E00E941B1DD150D1F791
:101F200083E090E00E94D70A82E090E00E94C00A1D
:101F3000D4E688EE93E00E941B1DD150D1F7CF5F0D
:101F4000DECF83E090E00E94C00A82E090E00E9431
:101F5000C00A802F0E940B0E812F0E940B0EC0E042
:101F6000D0CF6F927F928F929F92AF92BF92CF927B
:101F7000DF92EF92FF920F931F93CF93DF938CEE3C
:101F800093E00E94E207E0911906F0911A0620857D
:101F9000822F992787FD90959F932F9382E393E05B
:101FA0009F938F930E94F424E0911906F0911A06F2
:101FB000C281D381DF93CF9386E693E09F938F9383
:101FC0000E94F42488811F928F938BE393E09F9368
:101FD0008F930E94F424E0911906F0911A068181F2
:101FE0008F9380818F9388E493E09F938F930E94D7
:101FF000F42480911A068F93809119068F9382E5BD
:1020000093E09F938F930E94F424C7E5D5E0EDB74A
:10201000FEB774960FB6F894FEBF0FBEEDBF00E09A
:1020200010E082E6682E83E0782E9BE3892E93E011
:10203000992E28E4A22E23E0B22E32E5C32E33E0FF
:10204000D32EEA80FB80FF92EF921F930F937F9233
:102050006F920E94F424F70180811F928F939F92C8
:102060008F920E94F42489818F9388818F93BF92ED
:10207000AF920E94F424DF93CF93DF92CF920E941D
:10208000F4240F5F1F4FAB96EDB7FEB772960FB6F5
:10209000F894FEBF0FBEEDBF0430110591F6DF913D
:1020A000CF911F910F91FF90EF90DF90CF90BF9055
:1020B000AF909F908F907F906F900895CF93DF9314
:1020C000E0911906F0911A06C281D3818881853585
:1020D00039F00E94B10F81E00E946B0F85E5888383
:1020E000E0911906F0911A06808191818115924440
:1020F00038F00E94B10F82E1DF91CF910C946B0F09
:10210000DF91CF9108952BE28202F0011124E95A68
:10211000FA4FA281B3818C91853519F085E58C93B6
:1021200008C0808191818115924428F082E10E944B
:102130006B0F8FEF089581E008950F931F93009127
:10214000860310918703209188033091890380E0F2
:1021500090E0B901A801082E04C0769567955795BF
:1021600047950A94D2F740FD19C041E050E060E085
:1021700070E0082E04C0440F551F661F771F0A9495
:10218000D2F7402B512B622B732B40938603509335
:102190008703609388037093890305C0019680329A
:1021A0009105B9F68FEF1F910F910895E0911906EF
:1021B000F0911A0665857685878590890895CF9276
:1021C000DF92EF92FF920F931F93CF93DF931F92B3
:1021D000CDB7DEB7C12CD12C7601C394082E04C034
:1021E000CC0CDD1CEE1CFF1C0A94D2F74091860338
:1021F0005091870360918803709189034C215D2180
:102200006E217F21452B462B472B09F463C0898320
:102210000E94EE0BE0E6F5E097018601009510952F
:102220002095309593E08981DF0111974C914F3FC4
:1022300049F144815581668177814C155D056E05B4
:102240007F0541F41086118612861386DF011297EE
:102250001C9290834481558166817781402351236C
:102260006223732344835583668377834085518536
:1022700062857385402351236223732340875187EE
:1022800062877387BB9646E0EC30F40769F64EEF41
:102290005FEF6FEF7FEF04C0440F551F661F771F7E
:1022A0008A95D2F78091860390918703A091880345
:1022B000B091890384239523A623B72380938603B3
:1022C00090938703A0938803B09389030E94F00B37
:1022D00081E001C08FEF0F90DF91CF911F910F919F
:1022E000FF90EF90DF90CF9008950F931F9341E000
:1022F00050E060E070E004C0440F551F661F771F78
:102300008A95D2F7E0911906F0911A06858596858F
:10231000A785B0898A019B01082319232A233B231F
:10232000012B022B032BD1F04095509560957095B1
:1023300084239523A623B72385879687A787B08B09
:1023400081899289A389B48984239523A623B723FD
:10235000818B928BA38BB48B81E001C08FEF1F9197
:102360000F910895409186035091870360918803EF
:1023700070918903082E04C0769567955795479507
:102380000A94D2F740FF1DC0E0911906F0911A0699
:1023900041E050E060E070E004C0440F551F661F4C
:1023A000771F8A95D2F785859685A785B089842B76
:1023B000952BA62BB72B85879687A787B08B81E0B7
:1023C00008958FEF0895CF92DF92EF92FF921F93BF
:1023D000CF93DF93C12CD12C7601C39404C0CC0CD5
:1023E000DD1CEE1CFF1C8A95D2F78091860390912C
:1023F0008703A0918803B09189038C219D21AE2190
:10240000BF21892B8A2B8B2B11F481E044C00E94C1
:10241000EE0BEEE5F5E0C0E6D5E010E023E08081CC
:102420008130B9F482859385A485B5858C219D2161
:10243000AE21BF21892B8A2B8B2B59F0288316863E
:102440001786108A118A1082C286D386E486F586A2
:1024500011E080818230A1F482859385A485B585C1
:102460008C159D05AE05BF0559F428831686178681
:10247000108A118A1082128613861486158611E03E
:10248000BB96AB9686E0EA30F80749F60E94F00B5F
:10249000111105C082E00E94C00D8FEF01C081E0E4
:1024A000DF91CF911F91FF90EF90DF90CF90089533
:1024B0000F931F93E0911906F0911A060585168572
:1024C000278530890623172328233923012B022B44
:1024D000032B19F1618B728B838B948B21E0278303
:1024E000DC01CB010090090604C0B695A79597952D
:1024F00087950A94D2F780FF03C00E941B1604C080
:1025000080E090E00E94EB15E0911906F0911A0628
:10251000618972898389948903C060E070E0CB018E
:102520001F910F91089580E090E0089521E085507B
:10253000964009F420E0822F819508950E9496121A
:102540008F3F11F481E003C0813029F482E00E94C2
:10255000C00D8FEF0895992787FD9095FC01EE0F30
:10256000FF1FE80FF91FE95FF94F80810895EF928F
:10257000FF920F931F93CF93DF931F92CDB7DEB7D8
:102580000E9496128F3F11F481E003C0813029F43C
:1025900082E00E94C00D8FEF3FC089830E94EE0B46
:1025A0008981E82EFF24E7FCF0948701000F111FBA
:1025B000F801EE0DFF1DE95FF94F9081911116C0F2
:1025C000E0911906F0911A069781926097839927F6
:1025D00087FD9095A92FB92F818B928BA38BB48BFC
:1025E0000E94F00B80E090E00E94EB150E0D1F1D85
:1025F000F801E95FF94F808181508083E0911906ED
:10260000F0911A06D801AA5FB94F8C91838781E0B7
:1026100084830E94F00B81E00F90DF91CF911F9196
:102620000F91FF90EF900895CF92DF92EF92FF927B
:102630000F931F93CF93DF931F92CDB7DEB70E9406
:1026400096128F3F11F481E003C0813029F482E0BB
:102650000E94C00D8FEF4DC0482F552747FD509564
:102660009A01220F331F240F351F8901095F194F6B
:10267000F901EB5FF94FD8014C9190814917C4F5EE
:1026800089830E94EE0BF80190819F5F9083E09117
:102690001906F0911A061482EEE5F5E000E615E061
:1026A0008981C82EDD24C7FCD094ED2CFD2C23E0BD
:1026B00030813230A1F442855385648575854C158F
:1026C0005D056E057F0559F4D8012C931686178693
:1026D000108A118A10821286138614861586BB967C
:1026E000055D1F4FB6E0EA30FB0711F70E94F00BC3
:1026F00081E00F90DF91CF911F910F91FF90EF90AC
:10270000DF90CF9008950E9496128F3F11F481E0E0
:1027100003C0813029F482E00E94C00D8FEF08953C
:10272000992787FD90959C01220F331F280F391F91
:10273000F901EB5FF94F8FEF8083F901E95FF94F02
:102740008083F901EA5FF94F8083809118068150F8
:102750008093180681E00895E0910E06F0910F062F
:1027600080810895E0910E06F0910F06309721F0D8
:102770000380F481E02DFACF0895CF92DF92EF929B
:10278000FF920F931F93CF93DF93E0915505F09144
:102790005605309709F48AC040910E0650910F06F5
:1027A0004115510509F446C0DA019BE2692F782FE3
:1027B000760390011124295A3A4F8901065F1F4F71
:1027C0007901C4E0EC0EF11C255F3F4F6C9170E085
:1027D000969FE001979FD00D1124C95ADA4FDC80F3
:1027E000DD2029F0DB84E801C880DC1428F1E70152
:1027F000D880DD2061F0969FE001979FD00D1124D5
:10280000C95ADA4FDA84E901C880DC14A8F0969F2F
:10281000E001979FD00D1124C95ADA4F7A85E8015B
:102820006881761748F013960D90BC91A02D1097F3
:1028300069F602C0A0E0B0E08083C381D481D09368
:102840005605C0935505A417B507B1F4109749F084
:10285000B483A383128211821296FC93EE93119794
:1028600006C01482138212821182FA83E983F093E4
:102870000F06E0930E061AC011968D919C91129747
:10288000AC17BD0759F092838183B483A38311965B
:10289000CD91DC911297FC83EB8304C014821382E8
:1028A000928381831296FC93EE931197DF91CF91DF
:1028B0001F910F91FF90EF90DF90CF900895CF93ED
:1028C000DF93E0910E06F0910F06309709F444C0B3
:1028D000992787FD9095208130E02817390781F4EA
:1028E000A381B481B0930F06A0930E0612961C929A
:1028F0001E92119718C00380F481E02D309761F18A
:10290000208130E028173907B1F7C181D281838156
:1029100094819C838B83A381B481109721F01296BC
:10292000DC93CE931197A0915505B0915605109761
:1029300039F4F0935605E0935505148213820AC0CA
:10294000B483A3831296FC93EE931197F0935605EC
:10295000E093550512821182DF91CF910895EF9295
:10296000FF920F931F93CF93DF93EC014B815C8118
:1029700069817A818D819E810E9441212F8122234C
:1029800071F04B815C81E12CF12C00E010E020E043
:1029900030E0BC01CE010E94EA0C1F820CC0E8812D
:1029A0002BE2E202F0011124E95AFA4F218523308B
:1029B000B9F491838083E8818BE2E802F00111246D
:1029C000E95AFA4F458956896789708D452B462B00
:1029D000472B41F482E0818788810E94BD1302C0A9
:1029E0008FEF01C081E0DF91CF911F910F91FF9098
:1029F000EF9008951F93CF93DF93CDB7DEB728975D
:102A00000FB6F894DEBF0FBECDBF29833A834B8348
:102A10005C836D837E838F8398870E94EE0B0E9478
:102A20006A1E182FCE0101960E946219633071054B
:102A300098F0E0911906F0911A06212F30E0260F48
:102A4000371FC901A0E0B0E0858B968BA78BB08FB4
:102A50000E94F00B81E001C08FEF28960FB6F8942A
:102A6000DEBF0FBECDBFDF91CF911F9108950E94B1
:102A70001321E0911906F0911A0685818111F7CF93
:102A80000895CF930E945E100E94EE0BE09119060C
:102A9000F0911A0681E090E092A781A781E08583FA
:102AA0000E946A1EC82F883F88F40E94041E2C2FA3
:102AB00030E02F5F3F4F482F50E02417350734F4A4
:102AC00082E08C0F8093CA040E94081E0E94F00BC3
:102AD0000E94371581E0CF910895E0911906F09199
:102AE0001A0680850E945F14E0911906F0911A067B
:102AF00084E081870E94411581E00895CF93DF93A0
:102B0000EC010E945E10209711F4C1E0D0E00E9419
:102B1000EE0BE0911906F0911A0681E08583D2A7A9
:102B2000C1A70E946A1EC82F883F88F40E94041E15
:102B30002C2F30E02F5F3F4F482F50E024173507F0
:102B400034F482E08C0F8093CA040E94081E0E9415
:102B5000F00B0E94371581E0DF91CF910895FF922D
:102B60000F931F93CF93DF938C010E94EE0BE091A4
:102B70001906F0911A0681E085830E946A1EF82EDC
:102B8000E0911906F0911A06C82FD0E0AE01400F6F
:102B9000511F60E070E0458B568B678B708F87EF1D
:102BA0008F1570F00E94041E2196282F30E0C21766
:102BB000D30734F482E08F0D8093CA040E94081E6C
:102BC0000E94F00B0E94371581E0DF91CF911F9199
:102BD0000F91FF900895CF93DF93EC010E94EE0BCD
:102BE000E0911906F0911A0621E02583CE01A0E0BC
:102BF000B0E0858B968BA78BB08F0E946A1EC82F82
:102C0000883F88F40E94041E2C2F30E02F5F3F4F36
:102C1000482F50E02417350734F482E08C0F80935E
:102C2000CA040E94081E0E94F00B0E94371581E022
:102C3000DF91CF910895CF930E94EE0BE09119069A
:102C4000F0911A0681E0858386830E946A1EC82F50
:102C5000883F88F40E94041E2C2F30E02F5F3F4FE6
:102C6000482F50E02417350734F482E08C0F80930E
:102C7000CA040E94081E0E94F00B0E94371581E0D2
:102C8000CF9108951F93CF93DF93CDB7DEB72897E9
:102C90000FB6F894DEBF0FBECDBF29833A834B83B6
:102CA0005C836D837E838F8398870E945E100E9471
:102CB000EE0BE0911906F0911A0681E0858381E020
:102CC00090E092A781A70E946A1E182FCE0101965C
:102CD0000E946219E0911906F0911A06610F711DA8
:102CE000811D911D658B768B878B908F183F88F4A3
:102CF0000E94041E212F30E02F5F3F4F482F50E0ED
:102D00002417350734F482E0810F8093CA040E94AF
:102D1000081E0E94F00B0E94371581E028960FB61E
:102D2000F894DEBF0FBECDBFDF91CF911F91089504
:102D30008F929F92AF92BF92CF92DF92EF92FF92CB
:102D40000F931F93CF93DF93CDB7DEB760970FB686
:102D5000F894DEBF0FBECDBF29873A874B875C87CB
:102D60006D877E878F87988BCE0101960E94F4161F
:102D700089809A80AB80BC80CD80DE80EF80F88433
:102D800009851A852B853C854D855E856F857889FB
:102D9000CE0109960E9450178F3F61F029853A8530
:102DA0004B855C856D857E858F8598890E9442164E
:102DB00081E001C08FEF60960FB6F894DEBF0FBEC2
:102DC000CDBFDF91CF911F910F91FF90EF90DF90DA
:102DD000CF90BF90AF909F908F900895E09119068B
:102DE000F0911A0680850895CF92DF92EF92FF92BC
:102DF000CF93DF93EC011C821D821E821F824091C3
:102E000010065091110660911206709113064883C6
:102E100059836A837B83C0901406D0901506E09096
:102E20001606F0901706CC82DD82EE82FF820E94A9
:102E30006A1EA82FB0E023EB36EE4EE050E00E9471
:102E4000A9236C0D7D1D8E1D9F1D6C837D838E833C
:102E50009F834C815D816E817F8141158AEC58078B
:102E60008AE968078BE37807A0F05A5C6A497B43DC
:102E70004C835D836E837F83488159816A817B8126
:102E80004F5F5F4F6F4F7F4F488359836A837B83C8
:102E9000E0CFDF91CF91FF90EF90DF90CF9008953A
:102EA0008F929F92AF92BF92CF92DF92EF92FF925A
:102EB0000F931F93CF93DF93CDB7DEB760970FB615
:102EC000F894DEBF0FBECDBFFC0109831A832B83AC
:102ED0003C834D835E836F83788789869A86AB8631
:102EE000BC86CD86DE86EF86F88A89809A80AB80A4
:102EF000BC800D811E812F813885C984DA84EB84E2
:102F0000FC844D855E856F8578898C149D04AE04A4
:102F1000BF0408F43FC0C814D904EA04FB0491F4C8
:102F20000417150726073707A8F1041B150B260BF6
:102F3000370B048315832683378310821182128214
:102F4000138226C0041715072607370788F481E087
:102F5000881A9108A108B1088C189D08AE08BF080E
:102F600080829182A282B38216532546344C08C0D7
:102F70008C189D08AE08BF0880829182A282B3821D
:102F8000041B150B260B370B04831583268337830D
:102F900081E001C08FEF60960FB6F894DEBF0FBEE0
:102FA000CDBFDF91CF911F910F91FF90EF90DF90F8
:102FB000CF90BF90AF909F908F900895FC01448177
:102FC00055816681778141158AEC58078AE968073F
:102FD0008BE37807A0F05A5C6A497B4344835583AE
:102FE0006683778340815181628173814F5F5F4F38
:102FF0006F4F7F4F4083518362837383E0CF089587
:103000008F929F92AF92BF92CF92DF92EF92FF92F8
:103010000F931F93CF93DF93CDB7DEB760970FB6B3
:10302000F894DEBF0FBECDBF09831A832B833C8388
:103030004D835E836F83788789869A86AB86BC864C
:10304000CD86DE86EF86F88A49855A856B857C8534
:1030500009811A812B813C81400F511F621F731F10
:10306000FC0140835183628373834D855E856F8548
:1030700078890D811E812F813885400F511F621F75
:10308000731F44835583668377830E94DE1781E034
:1030900060960FB6F894DEBF0FBECDBFDF91CF9123
:1030A0001F910F91FF90EF90DF90CF90BF90AF9066
:1030B0009F908F90089560931006709311068093EF
:1030C000120690931306209314063093150640932E
:1030D00016065093170608952F923F924F925F92D3
:1030E0006F927F928F929F92AF92BF92CF92DF9218
:1030F000EF92FF920F931F93CF93DF93CDB7DEB77D
:1031000062970FB6F894DEBF0FBECDBFDC014D90C5
:103110005D906D907C90139714966D917D918D913B
:103120009C911797411451046104710409F46CC017
:10313000B2E44B1651046104710408F06DC07B01C8
:103140008C0120E030E0A9016983FA820B831C83A3
:103150002D833E834F835887A0E0B0E0198A1A8AF6
:10316000312C812CF0E0E0E0912C9D0149895A89B5
:10317000632D782D8F2F9E2FA980BA80CB80DC8085
:10318000ED80FE800F8118850E944B24222E398706
:103190004A875B876C877D878E879F879D014989DA
:1031A0005A89632D782D8F2F9E2F36534546544CC8
:1031B0006F4F7F4F8F4F9F4FD901498B5A8B362EC0
:1031C000872EF82FE92F492D50E060E070E044157C
:1031D00055056605770510F49394C7CF83EBA82EA9
:1031E00096EEB92E2EE0C22ED12CE12CF12C00E06F
:1031F00010E0222D39854A855B856C857D858E851D
:103200009F850E94E82306C023EB36EE4EE050E097
:103210000E94C423C90102C080E090E062960FB60C
:10322000F894DEBF0FBECDBFDF91CF911F910F91FC
:10323000FF90EF90DF90CF90BF90AF909F908F90D6
:103240007F906F905F904F903F902F900895CF9216
:10325000DF92EF92FF92CF93DF93CDB7DEB728973F
:103260000FB6F894DEBF0FBECDBF6B017C013AE014
:10327000F694E794D794C7943A95D1F7C982DA8245
:10328000EB82FC829B01AC0133704427552763EB32
:1032900076EE8EE090E00E94B4236D837E838F8370
:1032A00098872C2D3A814B815C8128960FB6F89433
:1032B000DEBF0FBECDBFDF91CF91FF90EF90DF90CB
:1032C000CF9008952F923F924F925F926F927F928C
:1032D0008F929F92AF92BF92CF92DF92EF92FF9226
:1032E0000F931F93CF93DF93CDB7DEB762970FB6DF
:1032F000F894DEBF0FBECDBFDC014D905D906D90A8
:103300007C90139714966D917D918D919C91179758
:10331000411451046104710409F466C07B018C01FD
:1033200020E030E0A9016983FA820B831C832D839E
:103330003E834F835887A0E0B0E0198A1A8A312C67
:10334000812CF0E0E0E0912C9D0149895A89632DA0
:10335000782D8F2F9E2FA980BA80CB80DC80ED80C6
:10336000FE800F8118850E944B24222E39874A87C0
:103370005B876C877D878E879F879D0149895A89E6
:10338000632D782D8F2F9E2F36534546544C6F4F0B
:103390007F4F8F4F9F4FD901498B5A8B362E872EE7
:1033A000F82FE92F492D50E060E070E044155505F5
:1033B0006605770510F49394C7CF43EBA42E56EE21
:1033C000B52E6EE0C62ED12CE12CF12C00E010E0E1
:1033D000222D39854A855B856C857D858E859F8507
:1033E0000E94E823CA0107C023EB36EE4EE050E00E
:1033F0000E94C423CA01B90162960FB6F894DEBFD9
:103400000FBECDBFDF91CF911F910F91FF90EF9035
:10341000DF90CF90BF90AF909F908F907F906F90F4
:103420005F904F903F902F900895C1E00E945E10F2
:103430000E94041E843010F4C0930D060E941321D4
:103440008091CD04853519F088E00E946B0F809142
:103450007E41853559F388E00E946B0FE7CF2F92AC
:103460003F924F925F926F927F928F929F92AF9214
:10347000BF92CF92DF92EF92FF920F931F93CF9361
:10348000DF93CDB7DEB729970FB6F894DEBF0FBE36
:10349000CDBF0E94381D0E94EE0B0E94561D0E9457
:1034A0005E1D9F838E838AEF0E94081EA091CA042E
:1034B000B0E023EB36EE4EE050E00E94A9236B0112
:1034C0007C018091140690911506A0911606B0918A
:1034D0001706C80ED91EEA1EFB1EC701B6010E94C0
:1034E000C42300911006109111062091120630910C
:1034F0001306C61AD70AE80AF90A63EB462E66EEE7
:10350000562E6EE0662E712C480159019FEF891AE4
:10351000990AA90AB90AC114AAECDA06AAE9EA06C4
:10352000ABE3FA0698F08AECD81A8AE9E80A8BE34A
:10353000F80AC701B601A30192010E94C423C61A6A
:10354000D70AE80AF90A95018401DECF0093100634
:10355000109311062093120630931306C09214069E
:10356000D0921506E0921606F0921706E091190621
:10357000F0911A068581882339F18185843021F103
:103580008781823029F0882341F08681811102C031
:1035900085E001C083E0818714C083E081871782C2
:1035A000168285899689A789B08D892B8A2B8B2BCA
:1035B00041F4818D928DA38DB48D858B968BA78BD5
:1035C000B08F80850E945F14E0911906F0911A0671
:1035D00085A196A1A7A1B0A5892B8A2B8B2B09F4D5
:1035E00044C02085222309F440C081858430E9F15C
:1035F000458D568D678D70A18091CA0490E0A0E042
:10360000B0E0481759076A077B0768F4622F82E029
:103610000E94760FE0911906F0911A06158E168E0B
:10362000178E10A208C0481B590B6A0B7B0B458FE5
:10363000568F678F70A3E0911906F0911A061085D6
:10364000458D568D678D70A1452B462B472B69F410
:10365000612F83E00E94760FE0911906F0911A061F
:1036600083E08187812F0E945F14EFE5F5E0F98701
:10367000E88730E6232E35E0332E4CE6A42E45E0D5
:10368000B42E8EE595E09C838B83ADE5B5E0BA83DF
:10369000A9835CE5852E55E0952E00E61AEE1D8285
:1036A000E885F98580818F3F09F433C1D4011C92EC
:1036B0008081882309F46AC0F1018081843009F493
:1036C00065C0D501CD90DD90ED90FC906091CA046D
:1036D00070E080E090E0C616D706E806F90650F0E4
:1036E000C61AD70AE80AF90AF501C082D182E28235
:1036F000F38206C0D5011D921D921D921C92139754
:10370000E885F985C188D288E388F488C616D7068B
:10371000E806F90648F0C61AD70AE80AF90AC18A83
:10372000D28AE38AF48A20C0E885F985218D328D1A
:10373000438D548D621773078407950758F4690108
:103740007A01C61AD70AE80AF90AC18AD28AE38A34
:10375000F48A0AC00E94C423A885B98551966D9346
:103760007D938D939C935497E885F98581899289FF
:10377000A389B489892B8A2B8B2B41F4818D928D5F
:10378000A38DB48D818B928BA38BB48BD1018C9143
:10379000833009F0BEC0F50180819181A281B3819F
:1037A000892B8A2B8B2B09F0A2C0AB81BC818C9119
:1037B0008823C1F0E981FA818081882399F081E032
:1037C00090E0A0E0B0E00090090604C0880F991FC7
:1037D000AA1FBB1F0A94D2F7E885F98581879287D3
:1037E000A387B487AB81BC811C92E981FA811082E6
:1037F000D4011C92F50184899589A885B9855D96C7
:103800004D915D916D917C919097019761F5FD01CE
:10381000458B568B678B708FE2E0D101EC93E88586
:10382000F98581899289A389B489F501808391837F
:10383000A283B383E885F985818D928DA38DB48DA4
:10384000892B8A2B8B2B59F42AEFC22ED12CE12CF9
:10385000F12CD501CD92DD92ED92FC9213978D81E2
:103860000E94BD1344C0E885F985458B568B678B54
:10387000708FD50154964D905C905597B1E04B1ADE
:103880005108612C712C618D728D838D948DA301F3
:1038900092010E94B423F501608371838283938334
:1038A000A885B9855996CD90DD90ED90FC905C97F8
:1038B000C701B6010E94B423E885F985618B728B3C
:1038C000838B948BCD28CE28CF2859F49AEFC92E1C
:1038D000D12CE12CF12CD501CD92DD92ED92FC9210
:1038E0001397CC24C394D12CF501D58AC48AF50151
:1038F00080819181A281B3810097A105B10549F032
:10390000A80160E070E084179507A607B70708F4E0
:103910008C01FD81FF5FFD83888599858B96998752
:1039200088879BE2290E311CABE2AA0EB11CEB8109
:10393000FC81BB96FC83EB8389819A818B969A8369
:1039400089839BE2890E911CAD81A43009F0A8CE39
:103950000E94AC13B82EBBE28B02F0011124E95A8D
:10396000FA4F828580931B06F0930B06E0930A06BC
:10397000BB20D9F045A156A167A170A5452B462BC8
:10398000472B99F0458D568D678D70A14A3F5105A3
:103990006105710550F46801E12CF12C4C155D05B1
:1039A0006E057F0510F48A0105C00B3F110510F06C
:1039B0000AEF10E080930C06F0931A06E0931906C4
:1039C0000093CA040E946A1E282F30E02F5F3F4FE9
:1039D0002017310740F00E946A1E082F10E00E5F8A
:1039E0001F4F0093CA04B11010920D06802F0E9441
:1039F000081E6CED75E08E819F810E94701D0E94F3
:103A00009F2129960FB6F894DEBF0FBECDBFDF9180
:103A1000CF911F910F91FF90EF90DF90CF90BF90CB
:103A2000AF909F908F907F906F905F904F903F905E
:103A30002F900C94AA21000000000000000000005C
:103A400000000000000000000000000000000197DE
:103A5000009789F7089510922101089589E08093D5
:103A600021018DE89CE3909329018093280108951A
:103A700010922501109224010895CF93DF9300D076
:103A8000CDB7DEB780912401909125019A83898377
:103A900089819A810F900F90DF91CF9108951092B4
:103AA0008100089581E080938100089583B581604D
:103AB00083BD10928500109284000895CF93DF9308
:103AC00000D0CDB7DEB780918400909185009A83B5
:103AD000898389819A810F900F90DF91CF9108950A
:103AE000CF92DF92EF92FF92CF93DF93EC01CC0F56
:103AF000DD1FC9378FEFD80710F0C0E0D0E06B01B1
:103B0000E12CF12CCC0EDD1EE11CF11C81E0C8166D
:103B1000D104E806F10440F081E0E81AF1080E94BF
:103B20005E1DC817D907D8F30E945E1D8C159D0530
:103B3000D8F3DF91CF91FF90EF90DF90CF90089571
:103B40001092B100E0E7F0E080818D7F808380817A
:103B50008E7F808308958093B2000895E0E7F0E0BF
:103B600080818360808383E08093B100089583B572
:103B7000826083BD1092B20010928E041092CA042B
:103B80000895CF93DF938EEF8093CA0480E28093F1
:103B9000B6008091CA048093B30083E087BB92E0B3
:103BA0009093B0008093B10093B5926093BD87BBB2
:103BB00084BD83B5826083BD1092800081E08093D4
:103BC0008100109285001092840083B5826083BDCD
:103BD00083B5816083BD10922001C4E2D1E01982D7
:103BE000188283B5826083BD83B5816083BD0E94E6
:103BF000B71D198218820E94AE1D0E942E1D1092C0
:103C00008E04DF91CF9108958091B3008F5F089566
:103C100081508093B3000895811102C01092710009
:103C20008FEF0895811106C01092950010929400B4
:103C300081E008958FEF0895811105C0809194006F
:103C400090919500089580E090E00895811105C05D
:103C500082E08093710081E008958FEF08958111D3
:103C600035C0CB010197059710F46093C3041092FF
:103C7000900088E0809391005093990040939800C1
:103C800030937E0420937D048091C304813021F41D
:103C900080919100816011C0823021F48091910067
:103CA00082600BC0833021F480919100836005C055
:103CB000843031F48091910084608093910008C039
:103CC000853031F4809191008560F7CF8FEF0895B2
:103CD00081E008958091B20008951F920F920FB66F
:103CE0000F92112460E08AE00E94760FFFCF0F92BE
:103CF0000FB60F921F922F923F924F925F926F9248
:103D00007F928F929F92AF92BF92CF92DF92EF926B
:103D1000FF920F931F932F933F934F935F936F9354
:103D20007F938F939F93AF93BF93CF93DF93EF9343
:103D3000FF93A0911906B0911A060DB60D920EB61A
:103D40000D921F92A091B104B091B2041E90BEBF1B
:103D5000ADBF08951F920F920FB60F9211240BB6AC
:103D60000F922F933F934F935F936F937F938F9314
:103D70009F93AF93BF93EF93FF93E0917D04F091F6
:103D80007E04309711F0099504C060E08AE00E943B
:103D9000760FFF91EF91BF91AF919F918F917F919E
:103DA0006F915F914F913F912F910F900BBE0F90AC
:103DB0000FBE0F901F9018951F920F920FB60F9283
:103DC00011240F900FBE0F901F90189504B603FC9E
:103DD00002C080E001C080E104B602FE06C094B7D4
:103DE0009B7F94BF04B600FE846004B601FE05C04C
:103DF00094B79D7F94BF8260089581110CC004B672
:103E000000FE04C094B79E7F94BF01C081E09091F2
:103E1000B000911181E00895811102C0E89A39C083
:103E2000813011F4E99A0895823011F4EA9A31C090
:103E3000833021F480916B00816029C0843021F4AB
:103E400080916B00826023C0853021F480916B00EB
:103E500084601DC0863021F480916B00886017C09B
:103E6000873021F480916B00806111C0883021F48B
:103E700080916B0080620BC0893021F480916B00CF
:103E8000806405C08A3039F480916B00806880932B
:103E90006B0081E008958FEF0895811102C0E898CA
:103EA00039C0813011F4E9980895823011F4E9980D
:103EB00031C0833021F480916B008E7F29C0843023
:103EC00021F480916B008D7F23C0853021F4809197
:103ED0006B008B7F1DC0863021F480916B00877F43
:103EE00017C0873021F480916B008F7E11C088301D
:103EF00021F480916B008F7D0BC0893021F480917B
:103F00006B008F7B05C08A3039F480916B008F770E
:103F100080936B0081E008958FEF0895811126C092
:103F20005093390640933806611104C080916900AE
:103F30008C7F3DC0613049F4809169008D7F809312
:103F4000690080916900816032C0623049F48091DB
:103F50006900826080936900809169008E7F27C02C
:103F6000633039F580916900836021C0813049F563
:103F70005093370640933606611104C08091690062
:103F8000837F15C0613049F480916900877F8093F9
:103F900069008091690084600AC0623061F4809198
:103FA0006900886080936900809169008B7F8093AD
:103FB000690081E008956330E1F7809169008C60C9
:103FC000F6CF823031F550933B0640933A066111AB
:103FD00004C0809169008F7CEACF613049F4809100
:103FE00069008F7D80936900809169008061DFCFD7
:103FF000623049F480916900806280936900809109
:1040000069008F7ED4CF6330A1F680916900806310
:10401000CECF8350883050F48091680081608093C7
:10402000680050933D0640933C06C3CF8FEF089540
:104030001F920F920FB60F9211240BB60F922F936F
:104040003F934F935F936F937F938F939F93AF9320
:10405000BF93EF93FF93E0913C06F0913D063097BC
:1040600011F0099504C060E08AE00E94760FFF918C
:10407000EF91BF91AF919F918F917F916F915F91E0
:104080004F913F912F910F900BBE0F900FBE0F904D
:104090001F9018951F920F920FB60F9211240BB616
:1040A0000F922F933F934F935F936F937F938F93D1
:1040B0009F93AF93BF93EF93FF93E0913806F091F6
:1040C0003906309711F0099504C060E08AE00E943B
:1040D000760FFF91EF91BF91AF919F918F917F915B
:1040E0006F915F914F913F912F910F900BBE0F9069
:1040F0000FBE0F901F9018951F920F920FB60F9240
:1041000011240BB60F922F933F934F935F936F93AE
:104110007F938F939F93AF93BF93EF93FF93E09120
:104120003606F0913706309711F0099504C060E02B
:104130008AE00E94760FFF91EF91BF91AF919F911E
:104140008F917F916F915F914F913F912F910F9040
:104150000BBE0F900FBE0F901F9018951F920F92DD
:104160000FB60F9211240BB60F922F933F934F93DC
:104170005F936F937F938F939F93AF93BF93EF93CF
:10418000FF93E0913A06F0913B06309711F00995C4
:1041900004C060E08AE00E94760FFF91EF91BF912A
:1041A000AF919F918F917F916F915F914F913F91CF
:1041B0002F910F900BBE0F900FBE0F901F90189570
:1041C0000E94EE0BA89584B7877F84BFE0E6F0E0FD
:1041D00080818861808310820C94F00B0E94EE0B2A
:1041E000A89584B7877F84BFE0E6F0E0808188618E
:1041F00080838DE080830C94F00B04B603FC02C036
:1042000081E008958FEF0895A8950895089583B7E4
:10421000817F866083BF83B7816083BF889583B7C2
:104220008E7F83BF089583B7817F83BF83B781600B
:1042300083BF889583B78E7F83BF0895FC01768303
:1042400065830895EF92FF920F931F93CF93DF93AF
:10425000EC018B017A014032510518F481E10E9492
:104260006B0FA70141505109400F511F5A834983D9
:104270001C830B83DF91CF911F910F91FF90EF90E3
:10428000089525E5FA012083FB0132979083FB0115
:1042900031978083FB01349711821082FB0136979E
:1042A00011821082FB01389711821082FB013A972C
:1042B00011821082FB013C9711821082FB013E9714
:1042C00011821082FB01709711821082FB0172979C
:1042D00011821082FB01749711821082FB01769784
:1042E00011821082FB01789711821082FB017A976C
:1042F00011821082FB017C9711821082FB017E9754
:1043000011821082FB01B09711821082FB01B297DB
:1043100011821082CB018497FC01118210820895D2
:1043200085E580937E41EEEFF1E4F093B204E093F3
:10433000B1048BEB9DE090838093FF4108958BEB5C
:104340009DE09093FE418093FF4108950E94C11D1E
:104350000C94F00BA0910A06B0910B06CD91CDBF45
:10436000DD91DEBFFF91EF91DF91CF91BF91AF91D2
:104370009F918F917F916F915F914F913F912F917D
:104380001F910F91FF90EF90DF90CF90BF90AF9073
:104390009F908F907F906F905F904F903F902F9065
:1043A0001F900F900FBE0F9018950E94010880E19A
:1043B00090E00E94290B87E592E00E940C2580E0A6
:1043C00090E00E94D70A81E090E00E94D70A82E044
:1043D00090E00E94C00A83E090E00E94C00A8AE850
:1043E00093E09093800380937F0384E780937E0320
:1043F0000E94F00B24E132E140E254E26DE08AE7F2
:1044000093E00E94D602D12C23E0922EBB24B394D9
:1044100030EEA32ECEEFD3E004E612E045E1E42E29
:1044200042E1F42E90923701B3BAB4BAADB8AEB847
:10443000D0937604C09375041F92DF921F930F935D
:10444000DF93CF930E943925FE0101900020E9F708
:104450003197EE5FF340EF5FE0937404F0927304E2
:10446000E0927204109277041092780481E892E04E
:104470000E940C2582E794E00E948B040F900F901D
:104480000F900F900F900F90813021F08AE892E00A
:104490000E940C25D39490E5C92E80E197E20E94FA
:1044A0004C0BCA94D1F784E1C82E80E197E20E94B8
:1044B0004C0BCA94D1F7B6CF6F927F929F92AF9276
:1044C000BF92CF92DF92EF92FF920F931F93CF9301
:1044D000DF93CDB7DEB72C970FB6F894DEBF0FBED3
:1044E000CDBF8C017B013A01FC01178216828381CA
:1044F00081FF19C1CE0101965C01F801D380F7015B
:10450000D3FC2591D3FE21917F01222309F407C119
:10451000253249F4D3FC2591D3FE21917F01253228
:1045200011F0912C1BC0B801822F90E00E94C22490
:1045300063013601E2CF222309F4F1C0622F70E05B
:1045400082E094E02C870E9463242C85892B49F01B
:10455000F701D3FC2591D3FE21917F0197FEEBCF8C
:104560000CC0233221F4F92DF0619F2EF1CF2C36AF
:1045700039F4292D2068922EEBCF222309F4CFC0E5
:10458000622F70E08BEF93E02C870E9463242C85D0
:10459000892B41F06301F4E0CF0ED11CB8018FE309
:1045A00090E012C0233641F0233789F0233521F5FE
:1045B000F92DF1609F2E0BC0630122E0C20ED11CC9
:1045C000B801F301808191810E94C224B2CF6301BE
:1045D00022E0C20ED11CF30160807180F30190FCD7
:1045E000859190FE81913F01882309F4A2CFB80103
:1045F00090E00E94C224F2CF243611F0293639F51A
:10460000630197FE09C0F4E0CF0ED11CF301608175
:104610007181828193810AC0F2E0CF0ED11CF30137
:1046200060817181882777FD8095982FF92DFF7E15
:104630009F2E97FF09C090958095709561957F4F4B
:104640008F4F9F4FF0649F2E2AE030E038C0203714
:10465000A1F040F42835D1F02F3609F060C028E0F1
:1046600030E019C0253719F0283751F058C0292DEE
:104670002F7E922E2AE030E00EC0892D8061982E88
:10468000992D9462992E20E130E005C0E92DE46077
:104690009E2E20E132E0630197FE09C0F4E0CF0EC8
:1046A000D11CF301608171818281938108C0F2E0A5
:1046B000CF0ED11CF3016081718180E090E0A501F3
:1046C0000E946825782E7A1896FE05C0B8018DE202
:1046D00090E00E94C22494FE16C0FE01E70DF11D79
:1046E0008081803381F0B80180E390E00E94C22491
:1046F00092FE09C0292D2072822F90E0B801885ABD
:104700009F4F0E94C2247A94F501E70DF11D80812C
:10471000B80190E00E94C2247110F5CF0ACFF801D1
:104720008681978102C08FEF9FEF2C960FB6F89489
:10473000DEBF0FBECDBFDF91CF911F910F91FF90D4
:10474000EF90DF90CF90BF90AF909F907F906F9051
:1047500008950E945424A59F900DB49F900DA49F8E
:10476000800D911D11240895DB018F939F930E946A
:10477000A923BF91AF91A29F800D911DA39F900D82
:10478000B29F900D11240895A1E21A2EAA1BBB1B03
:10479000FD010DC0AA1FBB1FEE1FFF1FA217B3070D
:1047A000E407F50720F0A21BB30BE40BF50B661F23
:1047B000771F881F991F1A9469F7609570958095E7
:1047C00090959B01AC01BD01CF010895689401C093
:1047D000E8948F929F92CF93DF930E94F423DF910E
:1047E000CF919F908F90089588249924F401E4013B
:1047F000B0E49F93AA279A158B049C04ED05FE054F
:10480000CF05D007A10798F4AD2FDC2FCF2FFE2FB7
:10481000E92D982C892E982F872F762F652F542FCE
:10482000432F322F2227B85031F7BF9127C01B2EBC
:10483000BF91BB27220F331F441F551F661F771FD1
:10484000881F991F881C991CEE1FFF1FCC1FDD1F9E
:10485000AA1FBB1F8A149B04EC05FD05CE05DF05CE
:10486000A007B10748F08A189B08EC09FD09CE099A
:10487000DF09A00BB10B21601A94E1F62EF494012C
:10488000AF01BE01CD01000C0895EE0FFF1F059092
:10489000F491E02D09942A0D3B1D4C1D5D1D6E1DEC
:1048A0007F1D801F911F0895A29FB001B39FC0017B
:1048B000A39F700D811D1124911DB29F700D811D4C
:1048C0001124911D0895FC010590061621F0002089
:1048D000D9F7C00108953197CF010895FB01DC019C
:1048E00002C001900D9241505040D8F708950F93A7
:1048F0001F93CF93DF93EC018B01009731F4611587
:10490000710519F480E090E038C06EE070E081E05D
:1049100090E00E94DC25FC010097A1F380E88383EE
:104920000115110571F01387028781E88383809157
:104930003E0690913F06892B21F4F0933F06E093C9
:104940003E062097C9F0D187C08783818260838328
:104950008091400690914106892B71F4F0934106B5
:10496000E09340068091420690914306892B21F402
:10497000F0934306E0934206CF01DF91CF911F9160
:104980000F9108950F931F93CF93DF93182F092F43
:10499000EB018B8181FD03C08FEF9FEF20C082FF71
:1049A00010C04E815F812C813D81421753077CF4FA
:1049B000E881F9819F012F5F3F4F3983288310835E
:1049C00006C0E885F985812F0995892B29F72E8165
:1049D0003F812F5F3F4F3F832E83812F902FDF91A9
:1049E000CF911F910F910895CF93DF93CDB7DEB78D
:1049F000FE01359661917191AF01809140069091D1
:104A000041060E945C22DF91CF910895609140069B
:104A1000709141060C94C2240F931F93CF93DF93A0
:104A2000E0914006F0914106238121FF1BC0EC017B
:104A300000E010E089916091400670914106DB0131
:104A40001896ED91FC911997882331F00995892BDF
:104A500089F30FEF1FEFEECF8AE00995892B11F450
:104A6000C80102C08FEF9FEFDF91CF911F910F918F
:104A700008950F931F93CF93DF93CDB7DEB72E9793
:104A80000FB6F894DEBF0FBECDBF0D891E8986E03C
:104A90008C831A8309838FEF9FE79E838D83AE01FA
:104AA000475E5F4F6F89788DCE0101960E945C2230
:104AB000EF81F885E00FF11F10822E960FB6F89463
:104AC000DEBF0FBECDBFDF91CF911F910F91089533
:104AD000FA01AA27283051F1203181F1E8946F932F
:104AE0006E7F6E5F7F4F8F4F9F4FAF4FB1E03ED0D5
:104AF000B4E03CD0670F781F891F9A1FA11D680F73
:104B0000791F8A1F911DA11D6A0F711D811D911DA5
:104B1000A11D20D009F468943F912AE0269F11241A
:104B20003019305D3193DEF6CF010895462F47707E
:104B3000405D4193B3E00FD0C9F7F6CF462F4F70D9
:104B4000405D4A3318F0495D31FD4052419302D037
:104B5000A9F7EACFB4E0A6959795879577956795DD
:104B6000BA95C9F700976105710508959B01AC01DD
:104B70000A2E06945795479537952795BA95C9F704
:104B8000620F731F841F951FA01D0895F999FECF12
:104B900092BD81BDF89A992780B50895262FF9997D
:104BA000FECF1FBA92BD81BD20BD0FB6F894FA9A10
:104BB000F99A0FBE019608950F931F93CF93DF9339
:104BC000869F8001879F100D969F100D1124C801AC
:104BD0000E94F825EC01009729F0A80160E070E040
:104BE0000E941F27CE01DF91CF911F910F91089551
:104BF000CF93DF938230910510F482E090E0E09152
:104C00004606F091470620E030E0A0E0B0E03097A3
:104C100039F14081518148175907B8F048175907B1
:104C200071F482819381109729F013969C938E934F
:104C300012972CC0909347068093460627C02115F3
:104C4000310531F04217530718F0A901DB0101C00B
:104C5000EF019A01BD01DF010280F381E02DD7CF82
:104C600021153105F9F0281B390B2430310580F46A
:104C70008A819B816115710521F0FB0193838283F9
:104C800004C09093470680934606FE01329644C0C6
:104C9000FE01E20FF31F8193919322503109398372
:104CA00028833AC02091440630914506232B41F4D5
:104CB000209102023091030230934506209344066E
:104CC00020910002309101022115310541F42DB7E8
:104CD0003EB74091040250910502241B350BE09130
:104CE0004406F0914506E217F307A0F42E1B3F0B94
:104CF0002817390778F0AC014E5F5F4F241735074E
:104D000048F04E0F5F1F5093450640934406819331
:104D1000919302C0E0E0F0E0CF01DF91CF910895E0
:104D2000CF93DF93009709F487C0FC013297138279
:104D30001282C0914606D0914706209781F42081C7
:104D40003181280F391F80914406909145068217C2
:104D5000930779F5F0934506E09344066DC0DE01B4
:104D600020E030E0AE17BF0750F412964D915C91F1
:104D700013979D014115510509F1DA01F3CFB38372
:104D8000A28340815181840F951F8A179B0771F47C
:104D90008D919C911197840F951F0296918380832A
:104DA00012968D919C9113979383828321153105DF
:104DB00029F4F0934706E09346063EC0D9011396C6
:104DC000FC93EE9312974D915D91A40FB51FEA17D6
:104DD000FB0779F480819181840F951F0296D90198
:104DE00011969C938E938281938113969C938E93BC
:104DF0001297E0E0F0E08A819B81009719F0FE01B4
:104E0000EC01F9CFCE01029628813981820F931FE0
:104E100020914406309145062817390769F43097E8
:104E200029F4109247061092460602C0138212829D
:104E3000D0934506C0934406DF91CF910895DC01DD
:104E400001C06D9341505040E0F70895F894FFCFB2
:104E50000000480620003D352D251D150D053D356A
:104E60002D251D150D052E261E160E06FFFF0C0402
:104E70003C342C241C140C043B332B231B130B3B02
:104E8000332B231B130B03FFFFFFFFFFFFFFFF3934
:104E90003129211911090119110901FFFFFFFFFF34
:104EA000FFFFFFFFFFFFFF42617369632054582E2D
:104EB0002E2E0D0054686973206973206D7920735C
:104EC0007472696E6720636F756E746572202564F5
:104ED0000053656E64696E670D002D2D2D205246BE
:104EE0005F5458204552524F52202D2D2D0D0063F6
:104EF000616C6C6261636B2025642025640A00721A
:104F0000665F72785F7061636B65745F6E6F6E620F
:104F10006C6F636B206661696C65645D0D00506148
:104F2000636B657420697320646F6E6520626F75B2
:104F30006E63696E672061726F756E64210D0A0081
:104F40005345513A2534750954544C3A2532640975
:104F5000525353493A253464095061796C6F616446
:104F60003A205B25735D0D0A00525820656E64205F
:104F70006661696C656420636865636B73756D2138
:104F80000D006375723A202564200063616E6172C2
:104F900079203D202578200073746B203D202578F2
:104FA00020007463622061646472203D2025780DC6
:104FB0000A0025643A20626F74746F6D203D2025CD
:044FC0007820000055
:00000001FF
