:100000000C9409020C942B200C945D200C948F20EE
:100010000C9428020C9428020C9428020C942802B8
:100020000C9428020C94F91F0C9428020C942802BA
:100030000C9428020C94581E0C9428020C94581E00
:100040000C9428020C9428020C9428020C94280288
:100050000C9428020C9428020C9428020C94280278
:100060000C9428020C9428020C9428020C94280268
:100070000C9428020C9428020C9428020C94280258
:100080000C948B1E0C9428020C9428020C942802C9
:100090000C9428020C9428020C9428020C94280238
:1000A0000C9428020C9428020C9428020C94280228
:1000B0000C9428020C9428020C9428020C94280218
:1000C0000C9428020C9428020C9428020C94280208
:1000D0000C9428020C9428020C9428020C942802F8
:1000E0000C9428020C94C2050C94B3050C9483055F
:1000F0000C9482060C9474050C9465050C945305BD
:100100000C9444050C9428020C9428020C942802A8
:100110000C9428020C9428020C9428020C942802B7
:10012000F60701080C08170822082D083808570898
:1001300063086F087B08870893089308B108B30821
:10014000B508B708B908BB08BD08DB08FB081B09E0
:100150003B095B097B099B09D109DD09E909F5091F
:10016000010A0D0A190A310A3C0A470A520A5D0AB5
:10017000680A730A250E280E330E380E3F0E480EFD
:100180004B0E500E570E600EB50EBB0EBE0EC10EBE
:10019000C40EC70ECD0ECA0ED00ED30ED60EDF0E75
:1001A000E20EE50EE80EDC0EB20EB80EEB0EEE0E11
:1001B000D90EAF0E554E4B4F574E004578746572B1
:1001C0006E616C2052657365740042726F776E20A9
:1001D0004F757420446574656374004661696C658D
:1001E0006420746F206372656174652053656D616E
:1001F00070686F7265004661696C656420746F2079
:10020000637265617465205369676E616C004B654C
:10021000726E656C2066756E6374696F6E206E6FAA
:100220007420696D706C656D656E746564004465FD
:100230007669636520447269766572204572726FD3
:1002400072005761746368646F67205265737461EC
:100250007274005357205761746368646F6720524B
:100260006573746172740054696D6572204F7665B0
:1002700072666C6F7700556E68616E646C656420A1
:10028000496E7465727275707420566563746F720E
:10029000004C6F7720566F6C746167650045787409
:1002A0007261205461736B20737461727465642C85
:1002B000206973206E726B5F6366672E68206F6BB8
:1002C0003F0049646C65206F72204B65726E656CEF
:1002D00020537461636B204F766572666C6F770094
:1002E000556E6578706563746564205265737461DA
:1002F0007274004475706C69636174656420546144
:10030000736B204944005363686564756C657220A3
:100310004D69737365642057616B65757000546136
:10032000736B20526573657276652056696F6C61D8
:100330007465640052657365727665204572726FEC
:100340007220696E205363686564756C657200493C
:100350006E76616C696420537461636B20506F69C1
:100360006E746572005461736B20537461636B200B
:100370004F766572666C6F7700537461636B20779C
:100380006173206E6F7420646566696E65642061B8
:1003900073206C6172676520656E6F7567682100F8
:1003A0005461736B20706572696F6420746F6F2085
:1003B0006C617267652E20506572696F64206D757F
:1003C0007374206265206C657373207468616E209D
:1003D0003631207365636F6E64732E00293A2000F6
:1003E0002A4E524B204552524F5228000D0A535468
:1003F00041434B2044554D500D0A00454647656624
:100400006700202B2D2E30313233343536373839D2
:10041000680011241FBECFEFD1E4DEBFCDBF13E0D3
:10042000A0E0B2E0E8E4FEE400E00BBF02C0079009
:100430000D92A838B107D9F716E0A8E8B3E001C0DB
:100440001D92AA35B107E1F70E94B6210C9422272C
:100450000C944E1E909141019F719F31D9F380936E
:100460004201089581E080939304089510929304CB
:100470000895809141018F718F31D9F380914101AD
:100480008F71E1F08F30D1F0809141018F71883010
:1004900031F4809139018260809339010BC088E08A
:1004A0000E942A02809141018F718830D9F7F1CFE3
:1004B0008F3021F0809141018F71D1F708958091A3
:1004C00041018F718F31D9F3809141018F7111F00A
:1004D0008F3051F4809139018D7F80933901809163
:1004E00041018F718830D9F70895E5E4F1E09081FA
:1004F000907F908390818F70892B80830895E7E5AA
:10050000F1E080818D7F80830895E7E5F1E08081CF
:10051000826080830895EEE6F1E080818F7E8083A3
:100520000895EEE6F1E080818061808308958093F4
:1005300060019093610190939E0480939D040895BF
:100540009093980480939704E8E4F1E08081807EA2
:1005500080838081682B6083089590938B038093C0
:100560008A030895909389038093880308951F93C5
:10057000CF93DF9370E27093440170EC7093450168
:1005800060626093480165EC6093490167EA60939B
:100590004B0160E860934C0120936001309361014E
:1005A0004093620150936301E6E4F1E0C081A081D1
:1005B00060811081C295C695C77070E4C79FE00145
:1005C00011241295169513701C2BA295A695A37055
:1005D00070E1A79FD00111241A2B62956695637074
:1005E000A4E06A9FB0011124162B10936D01608165
:1005F0007081729576957370706462956670672BE2
:1006000060936E0110926C016FEF60934E019093B6
:100610009804809397041092990410929A0450932E
:100620009C0440939B0430939E0420939D0410925D
:100630009F0481E08093BA041092DE041092A90412
:1006400010929304DF91CF911F91089586E10C944D
:100650002A0286E10C942A0288E00E942A02109263
:10066000DE0408953F924F925F926F927F928F9235
:100670009F92AF92BF92CF92DF92EF92FF920F9331
:100680001F93CF93DF93EC013B018091BA0481115A
:1006900002C08FEF0FC19E81809199048F5F80937C
:1006A000990480918101807E816090FB85F98F7330
:1006B00080648093810188E8809382018091930413
:1006C000882361F08FEF809383018AEA9AEA9093FE
:1006D0008901809388018FEF9FEF10C0809199046A
:1006E00080938301209161018091600190E0922BC1
:1006F00090938901809388018881998190938701E3
:1007000080938601209163018091620190E0922B99
:1007100090938501809384014A81552747FD509528
:100720006B817C818AE891E00E946A248A81855FDE
:100730008093800180914101982F9F71392E8F7095
:100740009FEF980F9230B0F39FE1391699F398EF2D
:10075000930D923018F0863009F09BCF86E10E940D
:100760002A028D8181110AC089E00E942A028E81AD
:10077000882391F089E10E942A020EC080914801ED
:100780008068809348018091410187FFFCCF809170
:10079000410186FF7ECFE8CF6114710499F181EAAF
:1007A00094E00E94D5168091A1049091A204A0919A
:1007B000A304B091A4048093BB049093BC04A093C1
:1007C000BD04B093BE04D30120E432E44FE050E016
:1007D0000E94A5230091A5041091A6042091A704CE
:1007E0003091A804600F711F821F931F6093BF0494
:1007F0007093C0048093C1049093C2048BEB94E087
:100800000E94BF171092A90482E00E942A02412C84
:10081000512C8091A904811108C08FEF481A580A01
:1008200098EE49169DEF5906A1F76114710421F461
:100830008E8181112DC034C081EA94E00E94D516CA
:100840008090A1049090A204A090A304B090A4046E
:10085000C090A504D090A604E090A704F090A8044E
:100860000091BB041091BC042091BD043091BE04E2
:100870004091BF045091C0046091C1047091C204C2
:100880008FE595E00E9431178F3F09F0BBCFD0CFA5
:100890008091420182958695877011F0CFEF06C056
:1008A00088EE48168DEF5806C9F3C1E0832D0E94EB
:1008B0002A028C2FDF91CF911F910F91FF90EF9023
:1008C000DF90CF90BF90AF909F908F907F906F9070
:1008D0005F904F903F90089560E070E00C94320379
:1008E000CF93DF938091BA04882321F18091410155
:1008F000C82FCF718F709FEF980F9230B8F3CF3120
:10090000A9F3C83011F08630A9F486E10E942A02CA
:10091000809148018068809348018091410187FF60
:10092000FCCFD09141018C2F0E942A02D6FB882750
:1009300080F901C08FEFDF91CF9108958091BA04C3
:10094000882309F49FC08091DE04882309F498C0AD
:1009500080917B01E0919704F091980490E00297D8
:100960002481332727FD3095281739070CF48AC0D6
:10097000E0919704F0919804809182018083E09146
:100980009704F09198048091870190918801928357
:100990008183E0919704F091980480917B018B50C2
:1009A0008383A0919704B0919804E0919704F0910B
:1009B000980413969C91848189173CF0E0919704E8
:1009C000F0919804838187FF0DC01092DE0480911E
:1009D0004C018F7780934C0180914C01806880930B
:1009E0004C0150C0A0919704B0919804E0919704F5
:1009F000F091980413964C91552747FD509569E85E
:100A000071E0858196810E946A24E0919704F091BB
:100A100098048091800185FB882780F98783E09185
:100A20009704F0919804809147018087E0919704A2
:100A3000F0919804809146018695869586958187E8
:100A4000E0919704F0919804809147018287E091AA
:100A50009704F0919804A0917B01B0E0A058BE4F9C
:100A60008C9183871092DE0480914C018F77809364
:100A70004C0180914C01806880934C0181E0089585
:100A800080E008958FEF08951F920F920FB60F9296
:100A900011248F9380E880934F018F910F900FBEA8
:100AA0000F901F9018951F920F920FB60F9211245E
:100AB0008F9381E08093A90480E480934F018F910C
:100AC0000F900FBE0F901F9018951F920F920FB6A8
:100AD0000F9211248F9380E280934F018F910F909A
:100AE0000FBE0F901F9018951F920F920FB60F9286
:100AF00011248F9380E180934F018F910F900FBE4F
:100B00000F901F9018951F920F920FB60F921124FD
:100B10000BB60F922F933F934F935F936F937F93F7
:100B20008F939F93AF93BF93EF93FF9384E0809352
:100B30004F01E0918A03F0918B03309709F00995FA
:100B4000FF91EF91BF91AF919F918F917F916F91A5
:100B50005F914F913F912F910F900BBE0F900FBE61
:100B60000F901F9018951F920F920FB60F9211249D
:100B70008F9382E080934F018F910F900FBE0F9063
:100B80001F9018951F920F920FB60F9211248F93FA
:100B900081E080934F018F910F900FBE0F901F90B7
:100BA0001895E9E4F1E09081907F908390818F70B7
:100BB000892B808308958FEF0895089508950895EF
:100BC0008FEF08958091910490919204089580E0B0
:100BD0000895089581E0089581E0089581E00895E1
:100BE000089508950895089508950895089508951D
:100BF000E7E3F1E0808183608083989AA09A8DB1C9
:100C0000806E8DB98EB1806E8EB90895E7E3F1E004
:100C1000808183608083989AA0988DB1806E8DB911
:100C20008EB1806E8EB90895CF92DF92EF92FF92CF
:100C30000F931F93CF93DF93CDB7DEB727970FB6F0
:100C4000F894DEBF0FBECDBF0E94CF0BE09197049A
:100C5000F0919804C080D38005811681E0840E94C1
:100C60009E0418161CF081EC92E006C0F801F0809A
:100C7000F11007C080EE92E00E9408250E94D10B7F
:100C800032C0F5E0FF1204C08AE090E00E94022525
:100C9000C80101969F938F938E2D992787FD90957C
:100CA0009F93EF921F92FF921F92CF9282E093E068
:100CB0009F938F930E94F0241D830C83FA94F80174
:100CC000F082DB821E821F828FEF9FEF9A838983DF
:100CD0000E94D10BCE0101960E946C040FB6F894CD
:100CE000DEBF0FBECDBF27960FB6F894DEBF0FBE96
:100CF000CDBFDF91CF911F910F91FF90EF90DF90CB
:100D0000CF9008951F920F920FB60F9211240BB639
:100D10000F922F933F934F935F936F937F938F9394
:100D20009F93AF93BF93EF93FF9380E090917B01EC
:100D3000891710F48F5FFACF8091460187FF04C0B6
:100D400081E08093DE0404C08BE293E00E940825DA
:100D500088E080934F018091460187FF05C0809114
:100D6000930481110E941406E0918803F091890395
:100D7000309709F00995FF91EF91BF91AF919F9145
:100D80008F917F916F915F914F913F912F910F9034
:100D90000BBE0F900FBE0F901F901895EAEAF4E07B
:100DA000DC018C9181938D9180933F0184E0EA3B3B
:100DB000F807B9F780E110923E018150E1F780E831
:100DC00080933C0180913D0180FFFCCFE5ECF4E095
:100DD00080913F01819384E0E53DF807C9F70895CC
:100DE000CF93662309F447C0262F2F7009F043C024
:100DF000EAEAF4E0219120933F0124E0EA3BF20784
:100E0000C9F7A0E070E0B0E220E1A29FA0011124A8
:100E10004617570774F5A11103C010923C0102C098
:100E2000B0933C0120E030E0480F591FFA01E20F77
:100E3000F31FE081E0933E012F5F3F4F20313105EA
:100E4000A9F720913C01206820933C0120913D01AD
:100E500020FFFCCF20E030E0C0913E01FA01E20F1C
:100E6000F31FC0832F5F3F4F20313105A9F7AF5FDC
:100E7000CBCF80E001C081E0CF9108950F931F9305
:100E8000CF93DF93613009F44FC0262F2F7009F004
:100E90004BC0E5ECF4E0219120933F0124E0E53DD7
:100EA000F207C9F762956F70615008E06F3FD1F1AA
:100EB00000933C0120E16202A001112420E030E017
:100EC000FC01E40FF51FDF01A20FB31F7C917093AB
:100ED0003E012F5F3F4F20313105A9F720913C01A2
:100EE000206820933C0120913D0120FFFCCF405120
:100EF000510920E030E0480F591F10913E01DF01F9
:100F0000A20FB31F1C93662331F0EA01C20FD31F57
:100F1000788171277C932F5F3F4F2031310569F72E
:100F20006150C4CF80E001C081E0DF91CF911F917B
:100F30000F9108958091C00087FFFCCF8091C00081
:100F40008F778093C0008091C60008959091C00073
:100F500095FFFCCF9091C0009F7D9093C00080933F
:100F6000C60008958FEF0895813031F48091C80054
:100F700087FD07C080E008958111FCCF8091C000FB
:100F8000F7CF81E00895CF93DF93FC012491EC012A
:100F90002196222351F06091520670915306822FC0
:100FA00090E00E94BE24CE01F0CFDF91CF91089552
:100FB00086E084B985B988EF8AB980EF8BB982E081
:100FC0008DB908950C94D8078F3F09F45CC0482F61
:100FD000477050E04730510508F055C0FA01E0571E
:100FE000FF4F8695869586950C94412492B121E019
:100FF00030E0082E01C0220F0A94EAF7922B92B932
:1010000040C095B121E030E0082E01C0220F0A94C3
:10101000EAF7922B95B935C098B121E030E0082E5F
:1010200001C0220F0A94EAF7922B98B92AC09BB10B
:1010300021E030E0082E01C0220F0A94EAF7922B3B
:101040009BB91FC09EB121E030E0082E01C0220FE5
:101050000A94EAF7922B9EB914C091B321E030E0D4
:10106000082E01C0220F0A94EAF7922B91BB09C007
:1010700094B321E030E001C0220F8A95EAF7922B69
:1010800094BB81E008958FEF08958F3F09F457C016
:10109000482F477050E04730510508F050C0FA0122
:1010A000E956FF4F8695869586950C94412492B11A
:1010B00021E030E0082E01C0220F0A94EAF72095C3
:1010C000292322B93AC095B121E030E0082E01C0B1
:1010D000220F0A94EAF72095292325B92EC098B14A
:1010E00021E030E0082E01C0220F0A94EAF7209593
:1010F000292328B922C09BB121E030E0082E01C08D
:10110000220F0A94EAF7209529232BB916C09EB125
:1011100021E030E0082E01C0220F0A94EAF7209562
:1011200029232EB90AC091B321E030E001C0220F7B
:101130008A95EAF72095292321BB81E008958FEF56
:1011400008958F3F21F1482F477050E047305105F7
:10115000F0F4FA01E256FF4F8695869586950C9439
:10116000412420B10BC023B109C026B107C029B169
:1011700005C02CB103C02FB101C022B330E002C0C2
:10118000359527958A95E2F7822F817008958FEF24
:1011900008958F3F09F4EFC0482F477050E0473063
:1011A000510508F0E8C0FA01EB55FF4F869586958A
:1011B00086950C94412420B130E0082E02C035956C
:1011C00027950A94E2F792B120FD0AC021E030E0B1
:1011D000082E01C0220F0A94EAF7922B92B91EC082
:1011E00021E030E0082E01C0220F0A94EAF7209592
:1011F000292322B913C023B130E0082E02C035954F
:1012000027950A94E2F795B120FD0AC021E030E06D
:1012100001C0220F8A95EAF7922B95B981E00895D3
:1012200021E030E0082E01C0220F0A94EAF7209551
:10123000292325B9F3CF26B130E0082E02C0359519
:1012400027950A94E2F798B120FD0AC021E030E02A
:10125000082E01C0220F0A94EAF7922B98B9DECF2C
:1012600021E030E0082E01C0220F0A94EAF7209511
:10127000292328B9D3CF29B130E0082E02C03595F3
:1012800027950A94E2F79BB120FD0AC021E030E0E7
:10129000082E01C0220F0A94EAF7922B9BB9BECF09
:1012A00021E030E0082E01C0220F0A94EAF72095D1
:1012B00029232BB9B3CF2CB130E0082E02C03595CD
:1012C00027950A94E2F79EB120FD0AC021E030E0A4
:1012D000082E01C0220F0A94EAF7922B9EB99ECFE6
:1012E00021E030E0082E01C0220F0A94EAF7209591
:1012F00029232EB993CF2FB130E0082E02C03595A7
:1013000027950A94E2F791B320FD0AC021E030E06E
:10131000082E01C0220F0A94EAF7922B91BB7ECFD0
:1013200021E030E0082E01C0220F0A94EAF7209550
:10133000292321BB73CF22B330E0082E02C035959C
:1013400027950A94E2F794B320FD0AC021E030E02B
:10135000082E01C0220F0A94EAF7922B94BB5ECFAD
:1013600021E030E0082E01C0220F0A94EAF7209510
:10137000292324BB53CF8FEF08958F3F09F4BEC0BC
:10138000482F477050E0611160C04730510508F0A8
:10139000B5C0FA01E455FF4F8695869586950C9465
:1013A000412491B121E030E0082E01C0220F0A94BF
:1013B000EAF72095292321B99FC094B121E030E0BC
:1013C000082E01C0220F0A94EAF72095292324B998
:1013D00093C097B121E030E0082E01C0220F0A949B
:1013E000EAF72095292327B987C09AB121E030E098
:1013F000082E01C0220F0A94EAF7209529232AB962
:101400007BC09DB121E030E0082E01C0220F0A947C
:10141000EAF7209529232DB96FC090B321E030E081
:10142000082E01C0220F0A94EAF72095292320BB39
:1014300063C093B321E030E0082E01C0220F0A946C
:10144000EAF72095292323BB57C04730510508F000
:1014500055C0FA01ED54FF4F8695869586950C94FC
:10146000412491B121E030E0082E01C0220F0A94FE
:10147000EAF7922B91B940C094B121E030E0082EF8
:1014800001C0220F0A94EAF7922B94B935C097B1A4
:1014900021E030E0082E01C0220F0A94EAF7922BD7
:1014A00097B92AC09AB121E030E0082E01C0220F7E
:1014B0000A94EAF7922B9AB91FC09DB121E030E05F
:1014C000082E01C0220F0A94EAF7922B9DB914C08E
:1014D00090B321E030E0082E01C0220F0A94EAF711
:1014E000922B90BB09C093B321E030E001C0220FE2
:1014F0008A95EAF7922B93BB81E008958FEF0895C8
:10150000811106C080B18695817091E08927089588
:101510008FEF0895009711F483E20DC0813091059B
:1015200011F48BE208C08230910511F483E303C00B
:10153000039729F48BE30E94C90881E008958FEF97
:101540000895009711F483E20DC08130910511F4E4
:101550008BE208C08230910511F483E303C0039746
:1015600029F48BE30E94E40781E008958FEF08954A
:10157000009711F483E20DC08130910511F48BE2E4
:1015800008C08230910511F483E303C0039729F466
:101590008BE30E94450881E008958FEF089588232A
:1015A00019F085B78F7E02C085B7806185BF81E065
:1015B00008959091C80095FFFCCF8093CE000895C8
:1015C0009093C5008093C40086E08093C200E1EC54
:1015D000F0E080818B7F8083A0ECB0E08C91826012
:1015E0008C9380818861808308959093CD0080934F
:1015F000CC0086E08093CA00E9ECF0E080818B7F2C
:101600008083A8ECB0E08C9182608C9380818861AB
:10161000808308950E94E00A6AE977E086EA97E00D
:101620000E94732490935306809352066AE977E0F0
:1016300086EA97E00E9473249093510680935006A7
:1016400008958091C80087FFFCCF8091C8008F77F4
:101650008093C8008091CE00089500000000000033
:10166000000001970097C9F708950C94C2250E94C5
:10167000CA250895EF92FF920F931F93CF93DF93A4
:10168000EC0180E090E00E94C225F82E8B8381E07F
:1016900090E00E94C225E82E8A8382E090E00E94BA
:1016A000C225082F898383E090E00E94C225182F6D
:1016B000888384E090E00E94C2259E2D9F0D900FAC
:1016C000910F891302C081E001C08FEFDF91CF91AC
:1016D0001F910F91FF90EF900895CF93DF93EC014E
:1016E00085E090E00E94C225888381E0DF91CF9160
:1016F0000895FC01608186E090E00E94CA2581E0A7
:101700000895CF93DF93EC0186E090E00E94C2251C
:10171000888381E0DF91CF9108950F931F93CF933A
:10172000DF938C01C8E0D0E0CE010E94C225F80111
:1017300081938F012196C831D105B1F781E0DF9106
:10174000CF911F910F9108950F931F93CF93DF9324
:101750008C01C8E0D0E0F80161918F01CE010E94B8
:10176000CA252196C831D105B1F781E0DF91CF912B
:101770001F910F910895CF93DF93EC0187E090E0E4
:101780000E94C225888381E0DF91CF910895FC01FA
:10179000608187E090E00E94CA2581E00895F89476
:1017A0000895789408950E94CF0BFFCFCF93DF93D5
:1017B000CDB7DEB7A3970FB6F894DEBF0FBECDBF8F
:1017C0000E947E1080931B068F3F21F460E08EE024
:1017D0000E94570F0E94C71E80FF04C060E086E091
:1017E0000E94570F10921E0610922C0610922B0684
:1017F00010921D0610921C0610922D0610922A06B9
:101800008FEF80931706809319068093180693E64E
:10181000909373058093710590939E0580939C052A
:101820009093C9058093C7059093F4058093F205C2
:1018300023E336E030933206209331068EE296E0C1
:10184000909335068093340648E356E0509337066C
:101850004093360630933A06209339062DE336E05E
:1018600030933C0620933B0650933F0640933E0640
:1018700042E456E0509341064093400630934406BC
:10188000209343061092300610922F0610924606BF
:10189000109245061092210610922006909368053A
:1018A0008093670566EF79E1CE0101960E94FF20E3
:1018B00040E850E06FED74E0CE0101960E940321F4
:1018C00085E58093DF0419861C861D861E861F868B
:1018D000188A198A1A8A1B8A1C8A1D8A1E8A1F8ADC
:1018E000188E198E1A8E1B8E1C8E1D8E1E8E1F8EAC
:1018F00018A219A21AA21BA281E0888792E09A87F7
:101900008B87CE0101960E949014A3960FB6F8948F
:10191000DEBF0FBECDBFDF91CF910895C1E7D5E007
:10192000F12CD8808FEFD81221C0F394AB9694E0BD
:10193000F912F7CF0E948D139BE28902F001112466
:10194000E759FA4F828580932D06F0932C06E09399
:101950002B06F0931D06E0931C0680931E060E9442
:1019600087210E9471210E948B2114C001E715E09C
:10197000E12CFE1441F0F8018081D81204C06D2DD5
:1019800085E00E94570FE394055D1F4FF4E0EF12CE
:10199000F0CFCBCFFFCFAF92BF92CF92DF92EF923B
:1019A000FF920F931F93CF93DF931F92CDB7DEB7B4
:1019B0005C016B017A01DC0119968C9119978230D8
:1019C00021F080911A068C9302C0F501108280915B
:1019D0001A06843020F060E087E00E94570FD5019E
:1019E00019968C91823029F080911A068F5F80932E
:1019F0001A0680911A06811103C081E080931A06AD
:101A0000F50130812BE23203F0011124E759FA4F3E
:101A1000D182C082D50118968C91189782873C910B
:101A20003203F0011124E759FA4F83E081873C919A
:101A30003203F0011124E759FA4F30870C91020369
:101A40008001112407591A4FF8011582C5010B9620
:101A50000E944319D80191966D937D938D939C9329
:101A60009497F50183859485A585B6858833994833
:101A7000A144B10528F0D5016C9186E10E94570F71
:101A8000F5010081112707FD1095C5014B960E94B5
:101A900043194BE2409FF001419FF00D1124E7599B
:101AA000FA4F658B768B878B908FD5012C91240311
:101AB00060011124F601E759FA4F6F010589168973
:101AC0002789308D81A192A1A3A1B4A1080F191F6C
:101AD0002A1F3B1F018F128F238F348FC50143961E
:101AE00049830E944319F60165A376A387A390A7B3
:101AF000D5012C9149812403F0011124E759FA4FB3
:101B000085A196A1A7A1B0A5858F968FA78FB0A319
:101B100081E090E092A781A7F382E28281E084874E
:101B20000F90DF91CF911F910F91FF90EF90DF9079
:101B3000CF90BF90AF9008950C94101A85E690E076
:101B40000895E0912B06F0912C0684870895E0918A
:101B50002B06F0912C06848508952091DD04222324
:101B600041F0FB01208320919404FC01208381E05B
:101B7000089580E00895CF93DF931F92CDB7DEB72D
:101B800019828981843640F480ED97E00E94FC1C24
:101B900089818F5F8983F5CF0F90DF91CF91089571
:101BA00081E090E00E94B80A0E94BB0D0E94BB0D2C
:101BB0000E94BB0D81E090E00E94A10A0C94BB0D35
:101BC00081E090E00E94B80A0E94BB0D81E090E0A5
:101BD0000E94A10A0C94BB0DFF920F931F93CF9309
:101BE000DF9300D01F92CDB7DEB71F928F9384E4AE
:101BF00093E09F938F938E010F5F1F4F1F930F935F
:101C00000E9435250F900F900F900F900F900F901E
:101C1000F12CF80101900020E9F73197E01BF10B5E
:101C20008F2D90E08E179F0708F05CC0F801E80F39
:101C3000F91F808190E0FC01F097EA30F10508F08F
:101C400049C0E654FF4F0C9441240E94D00D02C0BD
:101C50000E94E00D0E94D00D0E94D00D0E94D00D78
:101C60000E94D00D37C00E94E00D0E94E00DF4CF1D
:101C70000E94E00D0E94E00D0E94E00DEFCF0E9457
:101C8000E00D0E94E00D0E94E00D0E94E00DE8CF03
:101C90000E94E00D02C00E94D00D0E94E00D04C021
:101CA0000E94D00D0E94D00D0E94E00D06C00E943F
:101CB000D00D0E94D00D0E94D00D0E94E00D08C0F2
:101CC0000E94D00D0E94D00D0E94D00D0E94D00D18
:101CD0000E94E00D0E94BB0D0E94BB0D0E94BB0D37
:101CE000F39497CF0F900F900F90DF91CF911F91AA
:101CF0000F91FF900895CF93DF938091DD048823A7
:101D000009F4C6C00E94CF0B0E94CF0B80EE93E077
:101D10000E94C307809194041F928F9384E493E000
:101D20009F938F930E94F0248CED93E00E94C30751
:101D30000F900F900F900F908091DD04883110F07C
:101D40001092DD048091DD0490E0FC013197E631D2
:101D5000F10508F046C0EC53FF4F0C94412480EA93
:101D600093E041C089E793E03EC085E693E03BC045
:101D70008FE493E038C084E393E035C08EE193E0D4
:101D800032C086E093E02FC083EF92E02CC080EE5B
:101D900092E029C082EC92E026C08DE992E023C057
:101DA00081E992E020C086E792E01DC087E692E0DC
:101DB0001AC083E592E017C082E492E014C08EE27C
:101DC00092E011C08EE092E00EC086EF91E00BC071
:101DD0008BED91E008C08AEC91E005C08BEB91E0BF
:101DE00002C084EB91E00E94C3076091520670919B
:101DF00053068DE090E00E94BE24609152067091DF
:101E000053068AE090E00E94BE24C0E0C43104F58D
:101E100082E090E00E94B80A83E090E00E94A10A6C
:101E2000D4E688EE93E00E94FC1CD150D1F783E009
:101E300090E00E94B80A82E090E00E94A10AD4E6F5
:101E400088EE93E00E94FC1CD150D1F7CF5FDECF2B
:101E500083E090E00E94A10A82E090E00E94A10A43
:101E6000809194040E94EC0D0E94BB0D82E090E0F2
:101E70000E94B80A0E94BB0D82E090E00E94A10A75
:101E80000E94BB0D8091DD040E94EC0DC0E0C0CF2C
:101E900080E0DF91CF9108958093DD04E0912B06DF
:101EA000F0912C068085809394040C947B0E182F5F
:101EB000062F8093DD04609394040E947B0EC0E0A3
:101EC000C43100F582E090E00E94B80A83E090E01F
:101ED0000E94A10AD4E688EE93E00E94FC1CD15037
:101EE000D1F783E090E00E94B80A82E090E00E947F
:101EF000A10AD4E688EE93E00E94FC1CD150D1F7F1
:101F0000CF5FDECF83E090E00E94A10A82E090E004
:101F10000E94A10A802F0E94EC0D812F0E94EC0DDF
:101F2000C0E0D0CF6F927F928F929F92AF92BF927C
:101F3000CF92DF92EF92FF920F931F93CF93DF9395
:101F40008CEE93E00E94C307E0912B06F0912C06E3
:101F50002085822F992787FD90959F932F9387E463
:101F600093E09F938F930E94F024E0912B06F091D1
:101F70002C06C281D381DF93CF938BE793E09F93AD
:101F80008F930E94F02488811F928F9380E593E0C5
:101F90009F938F930E94F024E0912B06F0912C06E2
:101FA00081818F9380818F938DE593E09F938F93B1
:101FB0000E94F02480912C068F9380912B068F93A2
:101FC00087E693E09F938F930E94F024C9E6D5E0C3
:101FD000EDB7FEB774960FB6F894FEBF0FBEEDBF17
:101FE00000E010E087E7682E83E0782E90E5892EE8
:101FF00093E0992E2DE5A22E23E0B22E37E6C32ED4
:1020000033E0D32EEA80FB80FF92EF921F930F9371
:102010007F926F920E94F024F70180811F928F932C
:102020009F928F920E94F02489818F9388818F9351
:10203000BF92AF920E94F024DF93CF93DF92CF92B2
:102040000E94F0240F5F1F4FAB96EDB7FEB772965C
:102050000FB6F894FEBF0FBEEDBF0430110591F628
:10206000DF91CF911F910F91FF90EF90DF90CF9074
:10207000BF90AF909F908F907F906F900895CF9377
:10208000DF93E0912B06F0912C06C281D3818881E9
:10209000853539F00E94920F81E00E944C0F85E552
:1020A0008883E0912B06F0912C0680819181811527
:1020B000924438F00E94920F82E1DF91CF910C940C
:1020C0004C0FDF91CF9108952BE28202F001112491
:1020D000E759FA4FA281B3818C91853519F085E5D6
:1020E0008C9308C0808191818115924428F082E10F
:1020F0000E944C0F8FEF089581E008950F931F9376
:10210000009198031091990320919A0330919B03B9
:1021100080E090E0B901A801082E04C0769567958B
:10212000579547950A94D2F740FD19C041E050E019
:1021300060E070E0082E04C0440F551F661F771F33
:102140000A94D2F7402B512B622B732B40939803A8
:102150005093990360939A0370939B0305C0019673
:1021600080329105B9F68FEF1F910F910895E0919C
:102170002B06F0912C0665857685878590890895D4
:10218000CF92DF92EF92FF920F931F93CF93DF9343
:102190001F92CDB7DEB7C12CD12C7601C394082E87
:1021A00004C0CC0CDD1CEE1CFF1C0A94D2F740913D
:1021B00098035091990360919A0370919B034C216D
:1021C0005D216E217F21452B462B472B09F463C0EF
:1021D00089830E94CF0BE2E7F5E097018601009525
:1021E00010952095309593E08981DF0111974C91EE
:1021F0004F3F49F144815581668177814C155D05DA
:102200006E057F0541F41086118612861386DF0164
:1022100012971C9290834481558166817781402377
:1022200051236223732344835583668377834085D8
:102230005185628573854023512362237323408730
:10224000518762877387BB9646E0EE31F40769F6E3
:102250004EEF5FEF6FEF7FEF04C0440F551F661F17
:10226000771F8A95D2F78091980390919903A09156
:102270009A03B0919B0384239523A623B7238093CD
:10228000980390939903A0939A03B0939B030E94A1
:10229000D10B81E001C08FEF0F90DF91CF911F91A3
:1022A0000F91FF90EF90DF90CF9008950F931F93C1
:1022B00041E050E060E070E004C0440F551F661F2D
:1022C000771F8A95D2F7E0912B06F0912C06858531
:1022D0009685A785B0898A019B01082319232A23A3
:1022E0003B23012B022B032BD1F040955095609599
:1022F000709584239523A623B72385879687A78780
:10230000B08B81899289A389B48984239523A623DC
:10231000B723818B928BA38BB48B81E001C08FEFAD
:102320001F910F91089540919803509199036091E6
:102330009A0370919B03082E04C076956795579574
:1023400047950A94D2F740FF1DC0E0912B06F0910B
:102350002C0641E050E060E070E004C0440F551FDF
:10236000661F771F8A95D2F785859685A785B089E0
:10237000842B952BA62BB72B85879687A787B08BA9
:1023800081E008958FEF0895CF92DF92EF92FF9250
:102390001F93CF93DF93C12CD12C7601C39404C03B
:1023A000CC0CDD1CEE1CFF1C8A95D2F780919803A3
:1023B00090919903A0919A03B0919B038C219D2148
:1023C000AE21BF21892B8A2B8B2B11F481E044C0D5
:1023D0000E94CF0BE0E7F5E0C2E7D5E010E023E094
:1023E00080818130B9F482859385A485B5858C215F
:1023F0009D21AE21BF21892B8A2B8B2B59F028835D
:1024000016861786108A118A1082C286D386E486C1
:10241000F58611E080818230A1F482859385A485C0
:10242000B5858C159D05AE05BF0559F42883168624
:102430001786108A118A10821286138614861586D2
:1024400011E0BB96AB9686E0EC31F80749F60E94A6
:10245000D10B111105C082E00E94A10D8FEF01C0C8
:1024600081E0DF91CF911F91FF90EF90DF90CF90AF
:1024700008950F931F93E0912B06F0912C0605858C
:102480001685278530890623172328233923012B16
:10249000022B032B19F1618B728B838B948B21E0C0
:1024A0002783DC01CB0100901B0604C0B695A795DD
:1024B000979587950A94D2F780FF03C00E94FC1578
:1024C00004C080E090E00E94CC15E0912B06F091D2
:1024D0002C06618972898389948903C060E070E069
:1024E000CB011F910F91089580E090E0089521E0C5
:1024F0008751964009F420E0822F819508950E942B
:1025000077128F3F11F481E003C0813029F482E01B
:102510000E94A10D8FEF0895992787FD9095FC01EA
:10252000EE0FFF1FE80FF91FE75EF94F8081089556
:10253000EF92FF920F931F93CF93DF931F92CDB72C
:10254000DEB70E9477128F3F11F481E003C0813023
:1025500029F482E00E94A10D8FEF3FC089830E9481
:10256000CF0B8981E82EFF24E7FCF0948701000F50
:10257000111FF801EE0DFF1DE75EF94F90819111DB
:1025800016C0E0912B06F0912C06978192609783FC
:10259000992787FD9095A92FB92F818B928BA38BBB
:1025A000B48B0E94D10B80E090E00E94CC150E0D00
:1025B0001F1DF801E75EF94F808181508083E09113
:1025C0002B06F0912C06D801A85EB94F8C91838719
:1025D00081E084830E94D10B81E00F90DF91CF9145
:1025E0001F910F91FF90EF900895CF92DF92EF929D
:1025F000FF920F931F93CF93DF931F92CDB7DEB758
:102600000E9477128F3F11F481E003C0813029F4DA
:1026100082E00E94A10D8FEF4DC0482F552747FD46
:1026200050959A01220F331F240F351F8901075E31
:10263000194FF901E95EF94FD8014C919081491782
:10264000C4F589830E94CF0BF80190819F5F90832E
:10265000E0912B06F0912C061482E0E7F5E002E70A
:1026600015E08981C82EDD24C7FCD094ED2CFD2C0B
:1026700023E030813230A1F442855385648575852D
:102680004C155D056E057F0559F4D8012C9316860F
:102690001786108A118A1082128613861486158670
:1026A000BB96055D1F4FB6E0EC31FB0711F70E94AA
:1026B000D10B81E00F90DF91CF911F910F91FF908F
:1026C000EF90DF90CF9008950E9477128F3F11F422
:1026D00081E003C0813029F482E00E94A10D8FEFD8
:1026E0000895992787FD90959C01220F331F280F8D
:1026F000391FF901E95EF94F8FEF8083F901E75E39
:10270000F94F8083F901E85EF94F808380912A06B2
:10271000815080932A0681E00895E0912006F0918F
:10272000210680810895E0912006F09121063097DE
:1027300021F00380F481E02DFACF0895CF92DF924B
:10274000EF92FF920F931F93CF93DF93E091670572
:10275000F0916805309709F48AC0409120065091A5
:1027600021064115510509F446C0DA019BE2692FA3
:10277000782F76039001112427593A4F8901065F7B
:102780001F4F7901C4E0EC0EF11C255F3F4F6C91A7
:1027900070E0969FE001979FD00D1124C759DA4F42
:1027A000DC80DD2029F0DB84E801C880DC1428F11E
:1027B000E701D880DD2061F0969FE001979FD00D62
:1027C0001124C759DA4FDA84E901C880DC14A8F073
:1027D000969FE001979FD00D1124C759DA4F7A8553
:1027E000E8016881761748F013960D90BC91A02DF2
:1027F000109769F602C0A0E0B0E08083C381D48165
:10280000D0936805C0936705A417B507B1F4109776
:1028100049F0B483A383128211821296FC93EE9343
:10282000119706C01482138212821182FA83E983FF
:10283000F0932106E09320061AC011968D919C9189
:102840001297AC17BD0759F092838183B483A38399
:102850001196CD91DC911297FC83EB8304C0148216
:102860001382928381831296FC93EE931197DF91EA
:10287000CF911F910F91FF90EF90DF90CF9008952F
:10288000CF93DF93E0912006F0912106309709F471
:1028900044C0992787FD9095208130E0281739079B
:1028A00081F4A381B481B0932106A09320061296EF
:1028B0001C921E92119718C00380F481E02D30976E
:1028C00061F1208130E028173907B1F7C181D28149
:1028D000838194819C838B83A381B481109721F0A1
:1028E0001296DC93CE931197A0916705B09168057D
:1028F000109739F4F0936805E0936705148213820A
:102900000AC0B483A3831296FC93EE931197F093BD
:102910006805E093670512821182DF91CF910895D7
:10292000EF92FF920F931F93CF93DF93EC014B81B4
:102930005C8169817A818D819E810E9422212F8113
:10294000222371F04B815C81E12CF12C00E010E03E
:1029500020E030E0BC01CE010E94CB0C1F820CC0F5
:10296000E8812BE2E202F0011124E759FA4F2185B8
:102970002330B9F491838083E8818BE2E802F0018F
:102980001124E759FA4F458956896789708D452B7F
:10299000462B472B41F482E0818788810E949E1359
:1029A00002C08FEF01C081E0DF91CF911F910F91A5
:1029B000FF90EF9008951F93CF93DF93CDB7DEB7CD
:1029C00028970FB6F894DEBF0FBECDBF29833A8398
:1029D0004B835C836D837E838F8398870E94CF0BAC
:1029E0000E944B1E182FCE0101960E94431963309E
:1029F000710598F0E0912B06F0912C06212F30E024
:102A0000260F371FC901A0E0B0E0858B968BA78BFE
:102A1000B08F0E94D10B81E001C08FEF28960FB6D6
:102A2000F894DEBF0FBECDBFDF91CF911F91089507
:102A30000E94F420E0912B06F0912C0685818111F3
:102A4000F7CF0895CF930E943F100E94CF0BE091E3
:102A50002B06F0912C0681E090E092A781A781E0FF
:102A600085830E944B1EC82F883F88F40E94E51D75
:102A70002C2F30E02F5F3F4F482F50E024173507B1
:102A800034F482E08C0F8093DC040E94E91D0E94E4
:102A9000D10B0E94181581E0CF910895E0912B068B
:102AA000F0912C0680850E944014E0912B06F09155
:102AB0002C0684E081870E94221581E00895CF933F
:102AC000DF93EC010E943F10209711F4C1E0D0E0A9
:102AD0000E94CF0BE0912B06F0912C0681E08583BC
:102AE000D2A7C1A70E944B1EC82F883F88F40E941E
:102AF000E51D2C2F30E02F5F3F4F482F50E024176B
:102B0000350734F482E08C0F8093DC040E94E91DC9
:102B10000E94D10B0E94181581E0DF91CF9108959A
:102B2000FF920F931F93CF93DF938C010E94CF0BE3
:102B3000E0912B06F0912C0681E085830E944B1ECC
:102B4000F82EE0912B06F0912C06C82FD0E0AE01B4
:102B5000400F511F60E070E0458B568B678B708F84
:102B600087EF8F1570F00E94E51D2196282F30E029
:102B7000C217D30734F482E08F0D8093DC040E94E7
:102B8000E91D0E94D10B0E94181581E0DF91CF91C1
:102B90001F910F91FF900895CF93DF93EC010E9456
:102BA000CF0BE0912B06F0912C0621E02583CE017E
:102BB000A0E0B0E0858B968BA78BB08F0E944B1E58
:102BC000C82F883F88F40E94E51D2C2F30E02F5F2E
:102BD0003F4F482F50E02417350734F482E08C0F24
:102BE0008093DC040E94E91D0E94D10B0E941815FD
:102BF00081E0DF91CF910895CF930E94CF0BE091B8
:102C00002B06F0912C0681E0858386830E944B1E63
:102C1000C82F883F88F40E94E51D2C2F30E02F5FDD
:102C20003F4F482F50E02417350734F482E08C0FD3
:102C30008093DC040E94E91D0E94D10B0E941815AC
:102C400081E0CF9108951F93CF93DF93CDB7DEB787
:102C500028970FB6F894DEBF0FBECDBF29833A8305
:102C60004B835C836D837E838F8398870E943F10A4
:102C70000E94CF0BE0912B06F0912C0681E085831A
:102C800081E090E092A781A70E944B1E182FCE01F1
:102C900001960E944319E0912B06F0912C06610FDA
:102CA000711D811D911D658B768B878B908F183FD1
:102CB00088F40E94E51D212F30E02F5F3F4F482F01
:102CC00050E02417350734F482E0810F8093DC0450
:102CD0000E94E91D0E94D10B0E94181581E02896E0
:102CE0000FB6F894DEBF0FBECDBFDF91CF911F911D
:102CF00008958F929F92AF92BF92CF92DF92EF9200
:102D0000FF920F931F93CF93DF93CDB7DEB76097FA
:102D10000FB6F894DEBF0FBECDBF29873A874B8729
:102D20005C876D877E878F87988BCE0101960E9486
:102D3000D51689809A80AB80BC80CD80DE80EF8004
:102D4000F88409851A852B853C854D855E856F85C0
:102D50007889CE0109960E9431178F3F61F029854D
:102D60003A854B855C856D857E858F8598890E9427
:102D7000231681E001C08FEF60960FB6F894DEBF96
:102D80000FBECDBFDF91CF911F910F91FF90EF90BC
:102D9000DF90CF90BF90AF909F908F900895E0917B
:102DA0002B06F0912C0680850895CF92DF92EF924A
:102DB000FF92CF93DF93EC011C821D821E821F8243
:102DC00040912206509123066091240670912506B9
:102DD000488359836A837B83C0902606D090270658
:102DE000E0902806F0902906CC82DD82EE82FF82F8
:102DF0000E944B1EA82FB0E023EB36EE4EE050E0D1
:102E00000E94A5236C0D7D1D8E1D9F1D6C837D83EF
:102E10008E839F834C815D816E817F8141158AEC19
:102E200058078AE968078BE37807A0F05A5C6A497B
:102E30007B434C835D836E837F83488159816A81A4
:102E40007B814F5F5F4F6F4F7F4F488359836A830A
:102E50007B83E0CFDF91CF91FF90EF90DF90CF9019
:102E600008958F929F92AF92BF92CF92DF92EF928E
:102E7000FF920F931F93CF93DF93CDB7DEB7609789
:102E80000FB6F894DEBF0FBECDBFFC0109831A83D5
:102E90002B833C834D835E836F83788789869A86F4
:102EA000AB86BC86CD86DE86EF86F88A89809A80DE
:102EB000AB80BC800D811E812F813885C984DA8466
:102EC000EB84FC844D855E856F8578898C149D0428
:102ED000AE04BF0408F43FC0C814D904EA04FB04DC
:102EE00091F40417150726073707A8F1041B150BE3
:102EF000260B370B048315832683378310821182B8
:102F00001282138226C0041715072607370788F494
:102F100081E0881A9108A108B1088C189D08AE08B4
:102F2000BF0880829182A282B38216532546344C18
:102F300008C08C189D08AE08BF0880829182A282CA
:102F4000B382041B150B260B370B048315832683D2
:102F5000378381E001C08FEF60960FB6F894DEBF33
:102F60000FBECDBFDF91CF911F910F91FF90EF90DA
:102F7000DF90CF90BF90AF909F908F900895FC010D
:102F8000448155816681778141158AEC58078AE929
:102F900068078BE37807A0F05A5C6A497B43448357
:102FA00055836683778340815181628173814F5F4E
:102FB0005F4F6F4F7F4F4083518362837383E0CFB6
:102FC00008958F929F92AF92BF92CF92DF92EF922D
:102FD000FF920F931F93CF93DF93CDB7DEB7609728
:102FE0000FB6F894DEBF0FBECDBF09831A832B83C3
:102FF0003C834D835E836F83788789869A86AB8610
:10300000BC86CD86DE86EF86F88A49855A856B8533
:103010007C8509811A812B813C81400F511F621FE1
:10302000731FFC0140835183628373834D855E85EA
:103030006F8578890D811E812F813885400F511F42
:10304000621F731F44835583668377830E94BF1773
:1030500081E060960FB6F894DEBF0FBECDBFDF9162
:10306000CF911F910F91FF90EF90DF90CF90BF9085
:10307000AF909F908F9008956093220670932306DF
:1030800080932406909325062093260630932706E6
:10309000409328065093290608952F923F924F920D
:1030A0005F926F927F928F929F92AF92BF92CF92D8
:1030B000DF92EF92FF920F931F93CF93DF93CDB7E1
:1030C000DEB762970FB6F894DEBF0FBECDBFDC014E
:1030D0004D905D906D907C90139714966D917D91BD
:1030E0008D919C911797411451046104710409F466
:1030F0006CC0B2E44B1651046104710408F06DC059
:103100007B018C0120E030E0A9016983FA820B8306
:103110001C832D833E834F835887A0E0B0E0198A3B
:103120001A8A312C812CF0E0E0E0912C9D01498934
:103130005A89632D782D8F2F9E2FA980BA80CB803E
:10314000DC80ED80FE800F8118850E944724222EAE
:1031500039874A875B876C877D878E879F879D012C
:1031600049895A89632D782D8F2F9E2F36534546D6
:10317000544C6F4F7F4F8F4F9F4FD901498B5A8BC4
:10318000362E872EF82FE92F492D50E060E070E0B1
:10319000441555056605770510F49394C7CF83EB66
:1031A000A82E96EEB92E2EE0C22ED12CE12CF12CB9
:1031B00000E010E0222D39854A855B856C857D8590
:1031C0008E859F850E94E42306C023EB36EE4EE0F9
:1031D00050E00E94C023C90102C080E090E06296E6
:1031E0000FB6F894DEBF0FBECDBFDF91CF911F9118
:1031F0000F91FF90EF90DF90CF90BF90AF909F9096
:103200008F907F906F905F904F903F902F90089598
:10321000CF92DF92EF92FF92CF93DF93CDB7DEB7DD
:1032200028970FB6F894DEBF0FBECDBF6B017C01AF
:103230003AE0F694E794D794C7943A95D1F7C982C7
:10324000DA82EB82FC829B01AC0133704427552764
:1032500063EB76EE8EE090E00E94B0236D837E8378
:103260008F8398872C2D3A814B815C8128960FB6ED
:10327000F894DEBF0FBECDBFDF91CF91FF90EF90EE
:10328000DF90CF9008952F923F924F925F926F926E
:103290007F928F929F92AF92BF92CF92DF92EF92E6
:1032A000FF920F931F93CF93DF93CDB7DEB7629753
:1032B0000FB6F894DEBF0FBECDBFDC014D905D9020
:1032C0006D907C90139714966D917D918D919C914A
:1032D0001797411451046104710409F466C07B011D
:1032E0008C0120E030E0A9016983FA820B831C8302
:1032F0002D833E834F835887A0E0B0E0198A1A8A55
:10330000312C812CF0E0E0E0912C9D0149895A8913
:10331000632D782D8F2F9E2FA980BA80CB80DC80E3
:10332000ED80FE800F8118850E944724222E398768
:103330004A875B876C877D878E879F879D01498938
:103340005A89632D782D8F2F9E2F36534546544C26
:103350006F4F7F4F8F4F9F4FD901498B5A8B362E1E
:10336000872EF82FE92F492D50E060E070E04415DA
:1033700055056605770510F49394C7CF43EBA42E4B
:1033800056EEB52E6EE0C62ED12CE12CF12C00E0CD
:1033900010E0222D39854A855B856C857D858E857B
:1033A0009F850E94E423CA0107C023EB36EE4EE05E
:1033B00050E00E94C023CA01B90162960FB6F8948A
:1033C000DEBF0FBECDBFDF91CF911F910F91FF9058
:1033D000EF90DF90CF90BF90AF909F908F907F90B5
:1033E0006F905F904F903F902F900895C1E00E94A2
:1033F0003F100E94E51D843010F4C0931F060E9408
:10340000F4208091DF04853519F088E00E944C0F8C
:1034100080917E41853559F388E00E944C0FE7CFBB
:103420002F923F924F925F926F927F928F929F92D4
:10343000AF92BF92CF92DF92EF92FF920F931F93C2
:10344000CF93DF93CDB7DEB729970FB6F894DEBFE1
:103450000FBECDBF0E94191D0E94CF0B0E94371DC9
:103460000E943F1D9F838E838AEF0E94E91DA091D9
:10347000DC04B0E023EB36EE4EE050E00E94A523E2
:103480006B017C018091260690912706A091280669
:10349000B0912906C80ED91EEA1EFB1EC701B6014F
:1034A0000E94C02300912206109123062091240639
:1034B00030912506C61AD70AE80AF90A63EB462EA8
:1034C00066EE562E6EE0662E712C480159019FEF74
:1034D000891A990AA90AB90AC114AAECDA06AAE952
:1034E000EA06ABE3FA0698F08AECD81A8AE9E80A09
:1034F0008BE3F80AC701B601A30192010E94C02321
:10350000C61AD70AE80AF90A95018401DECF0093AA
:103510002206109323062093240630932506C0929A
:103520002606D0922706E0922806F0922906E0911E
:103530002B06F0912C068581882339F18185843012
:1035400021F18781823029F0882341F08681811121
:1035500002C085E001C083E0818714C083E08187D9
:103560001782168285899689A789B08D892B8A2B27
:103570008B2B41F4818D928DA38DB48D858B968B91
:10358000A78BB08F80850E944014E0912B06F091AC
:103590002C0685A196A1A7A1B0A5892B8A2B8B2BE0
:1035A00009F444C02085222309F440C08185843079
:1035B000E9F1458D568D678D70A18091DC0490E016
:1035C000A0E0B0E0481759076A077B0768F4622F4C
:1035D00082E00E94570FE0912B06F0912C06158E89
:1035E000168E178E10A208C0481B590B6A0B7B0B56
:1035F000458F568F678F70A3E0912B06F0912C06B4
:103600001085458D568D678D70A1452B462B472B18
:1036100069F4612F83E00E94570FE0912B06F0912F
:103620002C0683E08187812F0E944014E1E7F5E0BA
:10363000F987E88732E7232E35E0332E4EE7A42EB4
:1036400045E0B42E80E795E09C838B83AFE6B5E040
:10365000BA83A9835EE6852E55E0952E00E61AEE24
:103660001D82E885F98580818F3F09F433C1D4013B
:103670001C928081882309F46AC0F1018081843022
:1036800009F465C0D501CD90DD90ED90FC9060917E
:10369000DC0470E080E090E0C616D706E806F90684
:1036A00050F0C61AD70AE80AF90AF501C082D18299
:1036B000E282F38206C0D5011D921D921D921C92DA
:1036C0001397E885F985C188D288E388F488C616FF
:1036D000D706E806F90648F0C61AD70AE80AF90A32
:1036E000C18AD28AE38AF48A20C0E885F985218DCF
:1036F000328D438D548D621773078407950758F4F4
:1037000069017A01C61AD70AE80AF90AC18AD28A77
:10371000E38AF48A0AC00E94C023A885B98551961D
:103720006D937D938D939C935497E885F98581895A
:103730009289A389B489892B8A2B8B2B41F4818DA3
:10374000928DA38DB48D818B928BA38BB48BD10181
:103750008C91833009F0BEC0F50180819181A281F6
:10376000B381892B8A2B8B2B09F0A2C0AB81BC8142
:103770008C918823C1F0E981FA818081882399F0B6
:1037800081E090E0A0E0B0E000901B0604C0880F4C
:10379000991FAA1FBB1F0A94D2F7E885F985818774
:1037A0009287A387B487AB81BC811C92E981FA819F
:1037B0001082D4011C92F50184899589A885B98568
:1037C0005D964D915D916D917C919097019761F51A
:1037D000FD01458B568B678B708FE2E0D101EC9336
:1037E000E885F98581899289A389B489F501808367
:1037F0009183A283B383E885F985818D928DA38D12
:10380000B48D892B8A2B8B2B59F42AEFC22ED12C05
:10381000E12CF12CD501CD92DD92ED92FC92139723
:103820008D810E949E1344C0E885F985458B568B97
:10383000678B708FD50154964D905C905597B1E091
:103840004B1A5108612C712C618D728D838D948D72
:10385000A30192010E94B023F501608371838283EA
:103860009383A885B9855996CD90DD90ED90FC9015
:103870005C97C701B6010E94B023E885F985618B8A
:10388000728B838B948BCD28CE28CF2859F49AEF56
:10389000C92ED12CE12CF12CD501CD92DD92ED92E7
:1038A000FC921397CC24C394D12CF501D58AC48AF9
:1038B000F50180819181A281B3810097A105B105B5
:1038C00049F0A80160E070E084179507A607B707E4
:1038D00008F48C01FD81FF5FFD83888599858B96B7
:1038E000998788879BE2290E311CABE2AA0EB11C96
:1038F000EB81FC81BB96FC83EB8389819A818B965B
:103900009A8389839BE2890E911CAD81A43009F0D2
:10391000A8CE0E948D13B82EBBE28B02F0011124B9
:10392000E759FA4F828580932D06F0931D06E093A8
:103930001C06BB20D9F045A156A167A170A5452B57
:10394000462B472B99F0458D568D678D70A14A3FC8
:1039500051056105710550F46801E12CF12C4C15FD
:103960005D056E057F0510F48A0105C00B3F11054A
:1039700010F00AEF10E080931E06F0932C06E093FF
:103980002B060093DC040E944B1E282F30E02F5F93
:103990003F4F2017310740F00E944B1E082F10E0C8
:1039A0000E5F1F4F0093DC04B11010921F06802F92
:1039B0000E94E91D6CED75E08E819F810E94511D72
:1039C0000E94802129960FB6F894DEBF0FBECDBFAE
:1039D000DF91CF911F910F91FF90EF90DF90CF90EB
:1039E000BF90AF909F908F907F906F905F904F901F
:1039F0003F902F900C948B210000000000000000ED
:103A000000000000000000000000000000000000B6
:103A10000197009789F7089510922101089589E090
:103A2000809321018DE89CE39093290180932801E4
:103A3000089510922501109224010895CF93DF93E9
:103A400000D0CDB7DEB780912401909125019A83F3
:103A5000898389819A810F900F90DF91CF9108958A
:103A600010928100089581E080938100089583B5CC
:103A7000816083BD10928500109284000895CF93D9
:103A8000DF9300D0CDB7DEB78091840090918500A0
:103A90009A83898389819A810F900F90DF91CF91CA
:103AA0000895CF92DF92EF92FF92CF93DF93EC01D4
:103AB000CC0FDD1FC9378FEFD80710F0C0E0D0E082
:103AC0006B01E12CF12CCC0EDD1EE11CF11C81E020
:103AD000C816D104E806F10440F081E0E81AF108C4
:103AE0000E943F1DC817D907D8F30E943F1D8C15AF
:103AF0009D05D8F3DF91CF91FF90EF90DF90CF90AD
:103B000008951092B100E0E7F0E080818D7F80831E
:103B100080818E7F808308958093B2000895E0E7CE
:103B2000F0E080818360808383E08093B10008951A
:103B300083B5826083BD1092B2001092A0041092EF
:103B4000DC040895CF93DF938EEF8093DC0480E252
:103B50008093B6008091DC048093B30083E087BB40
:103B600092E09093B0008093B10093B5926093BDC2
:103B700087BB84BD83B5826083BD1092800081E0E5
:103B800080938100109285001092840083B582603A
:103B900083BD83B5816083BD10922001C4E2D1E072
:103BA0001982188283B5826083BD83B5816083BD2D
:103BB0000E94981D198218820E948F1D0E940F1D5D
:103BC0001092A004DF91CF9108958091B3008F5F90
:103BD000089581508093B3000895811102C010921E
:103BE00071008FEF0895811106C010929500109218
:103BF000940081E008958FEF0895811105C08091B0
:103C0000940090919500089580E090E008958111CE
:103C100005C082E08093710081E008958FEF0895E0
:103C2000811135C0CB010197059710F46093D5043D
:103C30001092900088E080939100509399004093F7
:103C400098003093900420938F048091D5048130A4
:103C500021F480919100816011C0823021F4809123
:103C6000910082600BC0833021F4809191008360C9
:103C700005C0843031F4809191008460809391007C
:103C800008C0853031F4809191008560F7CF8FEFC7
:103C9000089581E008958091B20008951F920F92D7
:103CA0000FB60F92112460E08AE00E94570FFFCFF9
:103CB0000F920FB60F921F922F923F924F925F92E8
:103CC0006F927F928F929F92AF92BF92CF92DF922C
:103CD000EF92FF920F931F932F933F934F935F9316
:103CE0006F937F938F939F93AF93BF93CF93DF9304
:103CF000EF93FF93A0912B06B0912C060DB60D9279
:103D00000EB60D921F92A091C304B091C4041E90F0
:103D1000BEBFADBF08951F920F920FB60F92112430
:103D20000BB60F922F933F934F935F936F937F93B5
:103D30008F939F93AF93BF93EF93FF93E0918F0483
:103D4000F0919004309711F0099504C060E08AE08A
:103D50000E94570FFF91EF91BF91AF919F918F916B
:103D60007F916F915F914F913F912F910F900BBE7B
:103D70000F900FBE0F901F9018951F920F920FB6C5
:103D80000F9211240F900FBE0F901F90189504B63C
:103D900003FC02C080E001C080E104B602FE06C060
:103DA00094B79B7F94BF04B600FE846004B601FE06
:103DB00005C094B79D7F94BF8260089581110CC0A7
:103DC00004B600FE04C094B79E7F94BF01C081E09A
:103DD0009091B000911181E00895811102C0E89A9C
:103DE00039C0813011F4E99A0895823011F4EA9AC9
:103DF00031C0833021F480916B00816029C0843010
:103E000021F480916B00826023C0853021F4809181
:103E10006B0084601DC0863021F480916B00886047
:103E200017C0873021F480916B00806111C0883009
:103E300021F480916B0080620BC0893021F4809165
:103E40006B00806405C08A3039F480916B00806813
:103E500080936B0081E008958FEF0895811102C077
:103E6000E89839C0813011F4E9980895823011F44E
:103E7000E99831C0833021F480916B008E7F29C096
:103E8000843021F480916B008D7F23C0853021F434
:103E900080916B008B7F1DC0863021F480916B0078
:103EA000877F17C0873021F480916B008F7E11C00F
:103EB000883021F480916B008F7D0BC0893021F414
:103EC00080916B008F7B05C08A3039F480916B0044
:103ED0008F7780936B0081E008958FEF08958111B3
:103EE00026C050934B0640934A06611104C080914E
:103EF00069008C7F3DC0613049F4809169008D7FFD
:103F00008093690080916900816032C0623049F419
:103F100080916900826080936900809169008E7F42
:103F200027C0633039F580916900836021C08130FA
:103F300049F55093490640934806611104C08091A9
:103F40006900837F15C0613049F480916900877FE3
:103F5000809369008091690084600AC0623061F4D6
:103F600080916900886080936900809169008B7FEF
:103F70008093690081E008956330E1F780916900E2
:103F80008C60F6CF823031F550934D0640934C064D
:103F9000611104C0809169008F7CEACF613049F4DF
:103FA000809169008F7D80936900809169008061B4
:103FB000DFCF623049F480916900806280936900AC
:103FC000809169008F7ED4CF6330A1F68091690023
:103FD0008063CECF8350883050F480916800816038
:103FE0008093680050934F0640934E06C3CF8FEFE7
:103FF00008951F920F920FB60F9211240BB60F92D5
:104000002F933F934F935F936F937F938F939F93E0
:10401000AF93BF93EF93FF93E0914E06F0914F065D
:10402000309711F0099504C060E08AE00E94570FB4
:10403000FF91EF91BF91AF919F918F917F916F9180
:104040005F914F913F912F910F900BBE0F900FBE3C
:104050000F901F9018951F920F920FB60F92112478
:104060000BB60F922F933F934F935F936F937F9372
:104070008F939F93AF93BF93EF93FF93E0914A0683
:10408000F0914B06309711F0099504C060E08AE08A
:104090000E94570FFF91EF91BF91AF919F918F9128
:1040A0007F916F915F914F913F912F910F900BBE38
:1040B0000F900FBE0F901F9018951F920F920FB682
:1040C0000F9211240BB60F922F933F934F935F9350
:1040D0006F937F938F939F93AF93BF93EF93FF93D0
:1040E000E0914806F0914906309711F0099504C017
:1040F00060E08AE00E94570FFF91EF91BF91AF916E
:104100009F918F917F916F915F914F913F912F91EF
:104110000F900BBE0F900FBE0F901F9018951F921F
:104120000F920FB60F9211240BB60F922F933F935D
:104130004F935F936F937F938F939F93AF93BF93AF
:10414000EF93FF93E0914C06F0914D06309711F0FC
:10415000099504C060E08AE00E94570FFF91EF913B
:10416000BF91AF919F918F917F916F915F914F918F
:104170003F912F910F900BBE0F900FBE0F901F908D
:1041800018950E94CF0BA89584B7877F84BFE0E67F
:10419000F0E080818861808310820C94D10B0E94B2
:1041A000CF0BA89584B7877F84BFE0E6F0E08081DD
:1041B000886180838DE080830C94D10B04B603FC6E
:1041C00002C081E008958FEF0895A895089508959D
:1041D00083B7817F866083BF83B7816083BF889503
:1041E00083B78E7F83BF089583B7817F83BF83B7F3
:1041F000816083BF889583B78E7F83BF0895FC015C
:10420000768365830895EF92FF920F931F93CF9368
:10421000DF93EC018B017A014032510518F481E102
:104220000E944C0FA70141505109400F511F5A8362
:1042300049831C830B83DF91CF911F910F91FF90D6
:10424000EF90089525E5FA012083FB0132979083D2
:10425000FB0131978083FB01349711821082FB01AF
:10426000369711821082FB01389711821082FB0170
:104270003A9711821082FB013C9711821082FB0158
:104280003E9711821082FB01709711821082FB0110
:10429000729711821082FB01749711821082FB01C8
:1042A000769711821082FB01789711821082FB01B0
:1042B0007A9711821082FB017C9711821082FB0198
:1042C0007E9711821082FB01B09711821082FB0150
:1042D000B29711821082CB018497FC011182108267
:1042E000089585E580937E41EEEFF1E4F093C404F8
:1042F000E093C3048CE99DE090838093FF4108958F
:104300008CE99DE09093FE418093FF4108950E94C7
:10431000A21D0C94D10BA0911C06B0911D06CD914D
:10432000CDBFDD91DEBFFF91EF91DF91CF91BF91C6
:10433000AF919F918F917F916F915F914F913F913D
:104340002F911F910F91FF90EF90DF90CF90BF9032
:10435000AF909F908F907F906F905F904F903F9025
:104360002F901F900F900FBE0F9018950E94E2079C
:1043700080E190E00E940A0B87E592E00E94082508
:1043800080E090E00E94A10A81E090E00E94A10AF2
:1043900082E090E00E94A10A83E090E00E94A10ADE
:1043A0008CE993E0909392038093910384E7809348
:1043B0009003109293030E94D10B25E132E140E279
:1043C00054E26DE08CE893E00E94B70281E692E04F
:1043D0000E94082582E090E00E94B80AC9E8D2E075
:1043E00081E090E00E94A10A0E9429030E94EE054C
:1043F0008823E1F381E090E00E94B80A14E30E9470
:104400009E04811107C0115059F380E197E20E9488
:104410002D0BF5CF813009F042C080E090E00E9482
:10442000A10A88E792E00E94082520919403822F38
:10443000992787FD90959F932F9380918E038F935B
:1044400080918D038F9380918C031F928F93DF93C4
:10445000CF930E94F0248DB79EB708960FB6F894BC
:104460009EBF0FBE8DBF10E0812F90E020918F0383
:10447000332727FD30958217930764F4E091910369
:10448000F0919203E80FF91F808190E00E940225CD
:104490001F5FEACF8FEA92E00E940825A1CF84EB4C
:1044A00092E00E94082580E090E00E94B80A98CF30
:1044B0006F927F929F92AF92BF92CF92DF92EF92D4
:1044C000FF920F931F93CF93DF93CDB7DEB72C9757
:1044D0000FB6F894DEBF0FBECDBF8C017B013A0151
:1044E000FC0117821682838181FF19C1CE010196DA
:1044F0005C01F801D380F701D3FC2591D3FE219113
:104500007F01222309F407C1253249F4D3FC259108
:10451000D3FE21917F01253211F0912C1BC0B801EF
:10452000822F90E00E94BE2463013601E2CF222355
:1045300009F4F1C0622F70E082E094E02C870E94C1
:104540005F242C85892B49F0F701D3FC2591D3FEFC
:1045500021917F0197FEEBCF0CC0233221F4F92D7E
:10456000F0619F2EF1CF2C3639F4292D2068922E40
:10457000EBCF222309F4CFC0622F70E08BEF93E0E2
:104580002C870E945F242C85892B41F06301F4E085
:10459000CF0ED11CB8018FE390E012C0233641F05A
:1045A000233789F0233521F5F92DF1609F2E0BC0BB
:1045B000630122E0C20ED11CB801F3018081918118
:1045C0000E94BE24B2CF630122E0C20ED11CF301CF
:1045D00060807180F30190FC859190FE81913F0194
:1045E000882309F4A2CFB80190E00E94BE24F2CF44
:1045F000243611F0293639F5630197FE09C0F4E03D
:10460000CF0ED11CF30160817181828193810AC038
:10461000F2E0CF0ED11CF30160817181882777FD14
:104620008095982FF92DFF7E9F2E97FF09C09095BA
:104630008095709561957F4F8F4F9F4FF0649F2EAF
:104640002AE030E038C02037A1F040F42835D1F01E
:104650002F3609F060C028E030E019C0253719F086
:10466000283751F058C0292D2F7E922E2AE030E0B5
:104670000EC0892D8061982E992D9462992E20E18B
:1046800030E005C0E92DE4609E2E20E132E06301B8
:1046900097FE09C0F4E0CF0ED11CF3016081718157
:1046A0008281938108C0F2E0CF0ED11CF3016081BA
:1046B000718180E090E0A5010E946425782E7A182F
:1046C00096FE05C0B8018DE290E00E94BE2494FEE3
:1046D00016C0FE01E70DF11D8081803381F0B80125
:1046E00080E390E00E94BE2492FE09C0292D207232
:1046F000822F90E0B801885A9F4F0E94BE247A947E
:10470000F501E70DF11D8081B80190E00E94BE2403
:104710007110F5CF0ACFF8018681978102C08FEF23
:104720009FEF2C960FB6F894DEBF0FBECDBFDF9182
:10473000CF911F910F91FF90EF90DF90CF90BF909E
:10474000AF909F907F906F9008950E945024A59FF6
:10475000900DB49F900DA49F800D911D112408957C
:10476000DB018F939F930E94A523BF91AF91A29FDE
:10477000800D911DA39F900DB29F900D112408955F
:10478000A1E21A2EAA1BBB1BFD010DC0AA1FBB1F55
:10479000EE1FFF1FA217B307E407F50720F0A21BC7
:1047A000B30BE40BF50B661F771F881F991F1A9434
:1047B00069F760957095809590959B01AC01BD015E
:1047C000CF010895689401C0E8948F929F92CF938F
:1047D000DF930E94F023DF91CF919F908F900895F7
:1047E00088249924F401E401B0E49F93AA279A1540
:1047F0008B049C04ED05FE05CF05D007A10798F4B6
:10480000AD2FDC2FCF2FFE2FE92D982C892E982F3E
:10481000872F762F652F542F432F322F2227B85002
:1048200031F7BF9127C01B2EBF91BB27220F331F2B
:10483000441F551F661F771F881F991F881C991CCE
:10484000EE1FFF1FCC1FDD1FAA1FBB1F8A149B0476
:10485000EC05FD05CE05DF05A007B10748F08A1875
:104860009B08EC09FD09CE09DF09A00BB10B216003
:104870001A94E1F62EF49401AF01BE01CD01000CB3
:104880000895EE0FFF1F0590F491E02D09942A0D75
:104890003B1D4C1D5D1D6E1D7F1D801F911F0895CA
:1048A000A29FB001B39FC001A39F700D811D112471
:1048B000911DB29F700D811D1124911D0895FC0161
:1048C0000590061621F00020D9F7C0010895319710
:1048D000CF010895FB01DC0102C001900D9241500F
:1048E0005040D8F708950F931F93CF93DF93EC01B7
:1048F0008B01009731F46115710519F480E090E0A7
:1049000038C06EE070E081E090E00E94D825FC01A4
:104910000097A1F380E883830115110571F01387D7
:10492000028781E883838091500690915106892BFC
:1049300021F4F0935106E09350062097C9F0D187F7
:10494000C087838182608383809152069091530651
:10495000892B71F4F0935306E0935206809154062C
:1049600090915506892B21F4F0935506E093540657
:10497000CF01DF91CF911F910F9108950F931F9356
:10498000CF93DF93182F092FEB018B8181FD03C09B
:104990008FEF9FEF20C082FF10C04E815F812C817E
:1049A0003D81421753077CF4E881F9819F012F5F15
:1049B0003F4F39832883108306C0E885F985812F0E
:1049C0000995892B29F72E813F812F5F3F4F3F8328
:1049D0002E83812F902FDF91CF911F910F910895FA
:1049E000CF93DF93CDB7DEB7FE013596619171911C
:1049F000AF0180915206909153060E945822DF9198
:104A0000CF91089560915206709153060C94BE2484
:104A10000F931F93CF93DF93E0915206F0915306CB
:104A2000238121FF1BC0EC0100E010E0899160911F
:104A3000520670915306DB011896ED91FC9119977F
:104A4000882331F00995892B89F30FEF1FEFEECF03
:104A50008AE00995892B11F4C80102C08FEF9FEFFE
:104A6000DF91CF911F910F9108950F931F93CF93D3
:104A7000DF93CDB7DEB72E970FB6F894DEBF0FBE2B
:104A8000CDBF0D891E8986E08C831A8309838FEF41
:104A90009FE79E838D83AE01475E5F4F6F89788D60
:104AA000CE0101960E945822EF81F885E00FF11F98
:104AB00010822E960FB6F894DEBF0FBECDBFDF91E9
:104AC000CF911F910F910895FA01AA27283051F133
:104AD000203181F1E8946F936E7F6E5F7F4F8F4F2F
:104AE0009F4FAF4FB1E03ED0B4E03CD0670F781F8E
:104AF000891F9A1FA11D680F791F8A1F911DA11D73
:104B00006A0F711D811D911DA11D20D009F46894AB
:104B10003F912AE0269F11243019305D3193DEF653
:104B2000CF010895462F4770405D4193B3E00FD009
:104B3000C9F7F6CF462F4F70405D4A3318F0495DF4
:104B400031FD4052419302D0A9F7EACFB4E0A695D7
:104B50009795879577956795BA95C9F700976105F9
:104B6000710508959B01AC010A2E0694579547954F
:104B700037952795BA95C9F7620F731F841F951F44
:104B8000A01D0895F999FECF92BD81BDF89A99278D
:104B900080B50895262FF999FECF1FBA92BD81BD29
:104BA00020BD0FB6F894FA9AF99A0FBE01960895AF
:104BB0000F931F93CF93DF93869F8001879F100DE4
:104BC000969F100D1124C8010E94F425EC01009756
:104BD00029F0A80160E070E00E941B27CE01DF9160
:104BE000CF911F910F910895CF93DF93823091055C
:104BF00010F482E090E0E0915806F091590620E030
:104C000030E0A0E0B0E0309739F1408151814817A1
:104C10005907B8F04817590771F4828193811097AA
:104C200029F013969C938E9312972CC0909359065B
:104C30008093580627C02115310531F042175307DC
:104C400018F0A901DB0101C0EF019A01BD01DF01EC
:104C50000280F381E02DD7CF21153105F9F0281B13
:104C6000390B2430310580F48A819B8161157105EF
:104C700021F0FB019383828304C0909359068093B3
:104C80005806FE01329644C0FE01E20FF31F8193E5
:104C9000919322503109398328833AC020915606D6
:104CA00030915706232B41F42091020230910302E8
:104CB000309357062093560620910002309101024E
:104CC0002115310541F42DB73EB7409104025091B2
:104CD0000502241B350BE0915606F0915706E217AA
:104CE000F307A0F42E1B3F0B2817390778F0AC010F
:104CF0004E5F5F4F2417350748F04E0F5F1F5093EC
:104D00005706409356068193919302C0E0E0F0E08D
:104D1000CF01DF91CF910895CF93DF93009709F4EE
:104D200087C0FC01329713821282C0915806D0913D
:104D30005906209781F420813181280F391F8091F5
:104D40005606909157068217930779F5F093570608
:104D5000E09356066DC0DE0120E030E0AE17BF07DD
:104D600050F412964D915C9113979D014115510598
:104D700009F1DA01F3CFB383A28340815181840F1B
:104D8000951F8A179B0771F48D919C911197840F41
:104D9000951F02969183808312968D919C91139713
:104DA000938382832115310529F4F0935906E0930A
:104DB00058063EC0D9011396FC93EE9312974D917D
:104DC0005D91A40FB51FEA17FB0779F480819181EB
:104DD000840F951F0296D90111969C938E93828120
:104DE000938113969C938E931297E0E0F0E08A8172
:104DF0009B81009719F0FE01EC01F9CFCE010296DC
:104E000028813981820F931F2091560630915706D1
:104E10002817390769F4309729F41092590610922F
:104E2000580602C013821282D0935706C0935606CA
:104E3000DF91CF910895DC0101C06D934150504046
:084E4000E0F70895F894FFCF9C
:104E480000005A0620003D352D251D150D053D3560
:104E58002D251D150D052E261E160E06FFFF0C040A
:104E68003C342C241C140C043B332B231B130B3B0A
:104E7800332B231B130B03FFFFFFFFFFFFFFFF393C
:104E88003129211911090119110901FFFFFFFFFF3C
:104E9800FFFFFFFFFFFFFF52656365697665720DCF
:104EA8000057616974696E6720666F72207061636C
:104EB8006B65742E2E2E0D007061636B6574207205
:104EC800656365697665640D005345514E554D3AE5
:104ED8002025642020535243414444523A203078DC
:104EE80025782020534E523A2025640D0A5B005D38
:104EF8000D0A0D00435243206661696C6564210DFB
:104F08000072665F72785F7061636B65745F6E6F65
:104F18006E626C6F636B206661696C65645D0D0021
:104F28005061636B657420697320646F6E652062DD
:104F38006F756E63696E672061726F756E64210D9F
:104F48000A005345513A2534750954544C3A2532D0
:104F58006409525353493A253464095061796C6F96
:104F680061643A205B25735D0D0A00525820656E16
:104F780064206661696C656420636865636B73753A
:104F88006D210D002564006375723A2025642000A8
:104F980063616E617279203D202578200073746BFF
:104FA800203D2025782000746362206164647220AB
:104FB8003D2025780D0A0025643A20626F74746FCD
:084FC8006D203D20257820003A
:00000001FF
