:100000000C943F020C947D220C94AF220C94E122BC
:100010000C945E020C945E020C945E020C945E02E0
:100020000C945E020C944B220C945E020C945E02C3
:100030000C945E020C94AA200C945E020C94AA20EC
:100040000C945E020C945E020C945E020C945E02B0
:100050000C945E020C945E020C945E020C945E02A0
:100060000C945E020C945E020C945E020C945E0290
:100070000C945E020C945E020C945E020C945E0280
:100080000C94DD200C945E020C945E020C945E02D3
:100090000C945E020C945E020C945E020C945E0260
:1000A0000C945E020C945E020C945E020C945E0250
:1000B0000C945E020C945E020C945E020C945E0240
:1000C0000C945E020C945E020C945E020C945E0230
:1000D0000C945E020C945E020C945E020C945E0220
:1000E0000C945E020C942D070C941E070C94EE06E3
:1000F0000C94ED070C94DF060C94D0060C94BE060D
:100100000C94AF060C945E020C945E020C945E029A
:100110000C945E020C945E020C945E020C945E02DF
:1001200061096C09770982098D099809A309C20937
:10013000CE09DA09E609F209FE09FE091C0A1E0ABF
:10014000200A220A240A260A280A460A660A860A79
:10015000A60AC60AE60A060B3C0B480B540B600BBA
:100160006C0B780B840B9C0BA70BB20BBD0BC80B55
:10017000D30BDE0B6B0F6E0F790F7E0F850F8E0F7B
:10018000910F960F9D0FA60FFD0F0310061009107B
:100190000C100F101510121018101B101E10271025
:1001A0002A102D1030102410FA0F001033103610C2
:1001B0002110F70F4661696C656420746F206C6FC5
:1001C0006164206D792041444320647269766572D0
:1001D0000D0A004661696C656420746F2072656168
:1001E00064204144430D0A004661696C65642074D3
:1001F0006F20736574204144432073746174757378
:100200000D0A004661696C656420746F206F70652B
:100210006E20414443206472697665720D0A005570
:100220004E4B4F574E0045787465726E616C20528C
:10023000657365740042726F776E204F7574204449
:100240006574656374004661696C656420746F2031
:100250006372656174652053656D6170686F726566
:10026000004661696C656420746F20637265617417
:1002700065205369676E616C004B65726E656C201A
:1002800066756E6374696F6E206E6F7420696D7031
:100290006C656D656E7465640044657669636520A0
:1002A000447269766572204572726F72005761748C
:1002B0006368646F6720526573746172740053578A
:1002C000205761746368646F67205265737461724C
:1002D000740054696D6572204F766572666C6F7735
:1002E00000556E68616E646C656420496E74657259
:1002F0007275707420566563746F72004C6F77204E
:10030000566F6C7461676500457874726120546142
:10031000736B20737461727465642C206973206E32
:10032000726B5F6366672E68206F6B3F0049646C79
:1003300065206F72204B65726E656C20537461632B
:100340006B204F766572666C6F7700556E657870BE
:1003500065637465642052657374617274004475DA
:10036000706C696361746564205461736B204944E7
:10037000005363686564756C6572204D69737365BD
:10038000642057616B657570005461736B20526512
:1003900073657276652056696F6C6174656400528E
:1003A000657365727665204572726F7220696E2082
:1003B0005363686564756C657200496E76616C693B
:1003C0006420537461636B20506F696E74657200B2
:1003D0005461736B20537461636B204F7665726652
:1003E0006C6F7700537461636B20776173206E6F5D
:1003F0007420646566696E6564206173206C617247
:10040000676520656E6F75676821005461736B20A6
:10041000706572696F6420746F6F206C61726765BC
:100420002E20506572696F64206D7573742062654B
:10043000206C657373207468616E2036312073659B
:10044000636F6E64732E00293A20002A4E524B20AF
:100450004552524F5228000D0A535441434B2044F9
:10046000554D500D0A0045464765666700202B2D07
:100470002E303132333435363738396800001124A4
:100480001FBECFEFD1E4DEBFCDBF13E0A0E0B2E0EE
:10049000EAE0F2E500E00BBF02C007900D92A8353C
:1004A000B107D9F715E0A8E5B3E001C01D92A9375F
:1004B000B107E1F70E9408240C9403290C94A020B2
:1004C000CF93DF93CDB7DEB760970FB6F894DEBF5A
:1004D0000FBECDBF1F921F9287E592E09F938F932F
:1004E0000E94D1260E9408181F928F9381E792E004
:1004F0009F938F930E94D12665E080E00E94731E37
:10050000B82E0FB6F894DEBF0FBECDBF9FEF891394
:1005100004C083E092E00E942E0988E080BB8FE354
:10052000A82E96E6C92EDD24D3942CE6E22E22E0F6
:10053000F22E40E061E08B2D0E94141F8F3F21F4CA
:1005400088EE91E00E942E0942E0BE016F5F7F4F6E
:100550008B2D0E94F71E8F3F21F483ED91E00E94C6
:100560002E0949815A81A49EC001A59E900D112497
:10057000B6010E948D258B011F936F93FF92EF921E
:100580000E94D1260F900F900F900F9081E090E085
:100590000B35110518F00E94230C02C00E940C0CB0
:1005A0000E945B16C6CF80E692E09093660380932C
:1005B000650340E850E067E873E080E693E00E945E
:1005C000552381E0809368038093670380936903D8
:1005D00080936A0310926B0310926C0310926D0368
:1005E00010926E0380E09DE2A1E3B1E080936F037F
:1005F00090937003A0937103B093720310927303EE
:1006000010927403109275031092760380E890EFB5
:10061000AAEFB2E08093770390937803A0937903D5
:10062000B0937A0310927B0310927C0310927D03A7
:1006300010927E0310927F03109280031092810328
:100640001092820380E693E00C94C91560E089E57E
:1006500093E00E945B1E8F3F21F484EB91E00C94A9
:100660002E090895AAE7B0E083E08C93ECE7F0E070
:1006700080E480838C9180688C9310928C048081BC
:10068000807E8083089584EF91E00C944E1F8091CA
:100690007A00806480937A0080917A0084FFFCCF96
:1006A0000E944303809178002091790090E0922B82
:1006B0000895CF93DF93EA01823089F128F48823EB
:1006C00071F0813079F025C08430C1F090F0853030
:1006D00001F50E9447038883998382E023C00E942A
:1006E00032031DC060FD1BC061FD1BC062FD19C04F
:1006F00016C06130B1F480918C0414C0613089F46B
:1007000020938C0480917C00807E822B80937C00DF
:1007100006C060E08CE00E949E1080E003C081E093
:1007200001C08FEFDF91CF910895909141019F71AA
:100730009F31D9F380934201089581E0809393041F
:100740000895109293040895809141018F718F3123
:10075000D9F3809141018F71E1F08F30D1F0809118
:1007600041018F71883031F480913901826080932A
:1007700039010BC088E00E949503809141018F717F
:100780008830D9F7F1CF8F3021F0809141018F71FE
:10079000D1F70895809141018F718F31D9F3809104
:1007A00041018F7111F08F3051F4809139018D7FAB
:1007B00080933901809141018F718830D9F7089574
:1007C000E5E4F1E09081907F908390818F70892B98
:1007D00080830895E7E5F1E080818D7F808308952F
:1007E000E7E5F1E08081826080830895EEE6F1E044
:1007F00080818F7E80830895EEE6F1E080818061C4
:1008000080830895809360019093610190939D048B
:1008100080939C0408959093970480939604E8E451
:10082000F1E08081807E80838081682B60830895E1
:1008300090935B0380935A03089590935903809398
:10084000580308951F93CF93DF9370E27093440190
:1008500070EC7093450160626093480165EC6093B1
:10086000490167EA60934B0160E860934C01209373
:100870006001309361014093620150936301E6E4AB
:10088000F1E0C081A08160811081C295C695C770DA
:1008900070E4C79FE00111241295169513701C2B6C
:1008A000A295A695A37070E1A79FD00111241A2BE1
:1008B000629566956370A4E06A9FB0011124162BBF
:1008C00010936D016081708172957695737070647C
:1008D00062956670672B60936E0110926C016FEFEA
:1008E00060934E019093970480939604109298041D
:1008F0001092990450939B0440939A0430939D0462
:1009000020939C0410929E0481E08093B80410927E
:10091000D7041092A70410929304DF91CF911F91F6
:10092000089586E10C94950386E10C94950388E084
:100930000E9495031092D70408953F924F925F92C0
:100940006F927F928F929F92AF92BF92CF92DF92DF
:10095000EF92FF920F931F93CF93DF93EC013B0134
:100960008091B804811102C08FEF0FC19E818091E8
:1009700098048F5F8093980480918101807E8160CC
:1009800090FB85F98F7380648093810188E8809360
:10099000820180919304882361F08FEF809383011B
:1009A0008AEA9AEA90938901809388018FEF9FEFFA
:1009B00010C08091980480938301209161018091FF
:1009C000600190E0922B9093890180938801888147
:1009D0009981909387018093860120916301809192
:1009E000620190E0922B90938501809384014A816B
:1009F000552747FD50956B817C818AE891E00E94E4
:100A00004B268A81855F8093800180914101982FD8
:100A10009F71392E8F709FEF980F9230B0F39FE146
:100A2000391699F398EF930D923018F0863009F04B
:100A30009BCF86E10E9495038D8181110AC089E0D8
:100A40000E9495038E81882391F089E10E9495038D
:100A50000EC08091480180688093480180914101D7
:100A600087FFFCCF8091410186FF7ECFE8CF6114E4
:100A7000710499F18FE994E00E940E1880919F040F
:100A80009091A004A091A104B091A2048093B90414
:100A90009093BA04A093BB04B093BC04D30120E4A8
:100AA00032E44FE050E00E9472250091A3041091BF
:100AB000A4042091A5043091A604600F711F821F29
:100AC000931F6093BD047093BE048093BF04909302
:100AD000C00489EB94E00E94F8181092A70482E009
:100AE0000E949503412C512C8091A704811108C0CC
:100AF0008FEF481A580A98EE49169DEF5906A1F74C
:100B00006114710421F48E8181112DC034C08FE9EC
:100B100094E00E940E1880909F049090A004A090F2
:100B2000A104B090A204C090A304D090A404E090CB
:100B3000A504F090A6040091B9041091BA04209184
:100B4000BB043091BC044091BD045091BE0460913F
:100B5000BF047091C00488ED94E00E946A188F3F32
:100B600009F0BBCFD0CF80914201829586958770E6
:100B700011F0CFEF06C088EE48168DEF5806C9F386
:100B8000C1E0832D0E9495038C2FDF91CF911F919F
:100B90000F91FF90EF90DF90CF90BF90AF909F901C
:100BA0008F907F906F905F904F903F90089560E09E
:100BB00070E00C949D04CF93DF938091B804882358
:100BC00021F180914101C82FCF718F709FEF980F55
:100BD0009230B8F3CF31A9F3C83011F08630A9F4C0
:100BE00086E10E94950380914801806880934801C6
:100BF0008091410187FFFCCFD09141018C2F0E9451
:100C00009503D6FB882780F901C08FEFDF91CF9144
:100C100008958091B804882309F49FC08091D70477
:100C2000882309F498C080917B01E0919604F091AB
:100C3000970490E002972481332727FD30952817E9
:100C400039070CF48AC0E0919604F09197048091E2
:100C500082018083E0919604F0919704809187014E
:100C60009091880192838183E0919604F09197049A
:100C700080917B018B508383A0919604B09197045F
:100C8000E0919604F091970413969C9184818917C2
:100C90003CF0E0919604F0919704838187FF0DC0AA
:100CA0001092D70480914C018F7780934C018091F2
:100CB0004C01806880934C0150C0A0919604B09183
:100CC0009704E0919604F091970413964C91552760
:100CD00047FD509569E871E0858196810E944B2619
:100CE000E0919604F09197048091800185FB88271C
:100CF00080F98783E0919604F091970480914701F1
:100D00008087E0919604F091970480914601869542
:100D1000869586958187E0919604F091970480915D
:100D200047018287E0919604F0919704A0917B019E
:100D3000B0E0A058BE4F8C9183871092D704809169
:100D40004C018F7780934C0180914C018068809397
:100D50004C0181E0089580E008958FEF08951F927F
:100D60000F920FB60F9211248F9380E880934F015A
:100D70008F910F900FBE0F901F9018951F920F929A
:100D80000FB60F9211248F9381E08093A70480E423
:100D900080934F018F910F900FBE0F901F90189569
:100DA0001F920F920FB60F9211248F9380E28093BF
:100DB0004F018F910F900FBE0F901F9018951F92AB
:100DC0000F920FB60F9211248F9380E180934F0101
:100DD0008F910F900FBE0F901F9018951F920F923A
:100DE0000FB60F9211240BB60F922F933F934F9390
:100DF0005F936F937F938F939F93AF93BF93EF9383
:100E0000FF9384E080934F01E0915A03F0915B03DC
:100E1000309709F00995FF91EF91BF91AF919F91A4
:100E20008F917F916F915F914F913F912F910F9093
:100E30000BBE0F900FBE0F901F9018951F920F9230
:100E40000FB60F9211248F9382E080934F018F9100
:100E50000F900FBE0F901F9018951F920F920FB614
:100E60000F9211248F9381E080934F018F910F9007
:100E70000FBE0F901F901895E9E4F1E09081907FEC
:100E8000908390818F70892B808308958FEF0895D0
:100E90000895089508958FEF089580919104909199
:100EA0009204089580E00895089581E0089581E016
:100EB000089581E008950895089508950895089586
:100EC000089508950895E7E3F1E0808183608083C9
:100ED000989AA09A8DB1806E8DB98EB1806E8EB9C0
:100EE0000895E7E3F1E0808183608083989AA09879
:100EF0008DB1806E8DB98EB1806E8EB90895CF920E
:100F0000DF92EF92FF920F931F93CF93DF93CDB7B2
:100F1000DEB727970FB6F894DEBF0FBECDBF0E9495
:100F20003A0DE0919604F0919704C080D38005813A
:100F30001681E0840E94090618161CF080E992E0F0
:100F400006C0F801F080F11007C08FEA92E00E941D
:100F5000E9260E943C0D32C0F5E0FF1204C08AE091
:100F600090E00E94E326C80101969F938F938E2DF7
:100F7000992787FD90959F93EF921F92FF921F9262
:100F8000CF9281ED92E09F938F930E94D1261D8393
:100F90000C83FA94F801F082DB821E821F828FEFAD
:100FA0009FEF9A8389830E943C0DCE0101960E9497
:100FB000D7050FB6F894DEBF0FBECDBF27960FB68C
:100FC000F894DEBF0FBECDBFDF91CF911F910F917F
:100FD000FF90EF90DF90CF9008951F920F920FB681
:100FE0000F9211240BB60F922F933F934F935F9361
:100FF0006F937F938F939F93AF93BF93EF93FF93E1
:1010000080E090917B01891710F48F5FFACF809177
:10101000460187FF04C081E08093D70404C08AEFB3
:1010200092E00E94E92688E080934F01809146017A
:1010300087FF05C08091930481110E947F07E09192
:101040005803F0915903309709F00995FF91EF91FA
:10105000BF91AF919F918F917F916F915F914F91D0
:101060003F912F910F900BBE0F900FBE0F901F90CE
:101070001895E8EAF4E0DC018C9181938D918093DE
:101080003F0184E0E83BF807B9F780E110923E01A8
:101090008150E1F780E880933C0180913D0180FF21
:1010A000FCCFE1ECF4E080913F01819384E0E13DED
:1010B000F807C9F70895CF93662309F447C0262F90
:1010C0002F7009F043C0E8EAF4E0219120933F013A
:1010D00024E0E83BF207C9F7A0E070E0B0E220E1CD
:1010E000A29FA00111244617570774F5A11103C050
:1010F00010923C0102C0B0933C0120E030E0480F68
:10110000591FFA01E20FF31FE081E0933E012F5FC8
:101110003F4F20313105A9F720913C0120682093F1
:101120003C0120913D0120FFFCCF20E030E0C09148
:101130003E01FA01E20FF31FC0832F5F3F4F2031C2
:101140003105A9F7AF5FCBCF80E001C081E0CF913F
:1011500008950F931F93CF93DF93613009F44FC02D
:10116000262F2F7009F04BC0E1ECF4E02191209381
:101170003F0124E0E13DF207C9F762956F706150CD
:1011800008E06F3FD1F100933C0120E16202A00131
:10119000112420E030E0FC01E40FF51FDF01A20F75
:1011A000B31F7C9170933E012F5F3F4F203131057B
:1011B000A9F720913C01206820933C0120913D013A
:1011C00020FFFCCF4051510920E030E0480F591F6B
:1011D00010913E01DF01A20FB31F1C93662331F073
:1011E000EA01C20FD31F788171277C932F5F3F4F95
:1011F0002031310569F76150C4CF80E001C081E042
:10120000DF91CF911F910F9108958091C00087FFCA
:10121000FCCF8091C0008F778093C0008091C60082
:1012200008959091C00095FFFCCF9091C0009F7DE4
:101230009093C0008093C60008958FEF0895813089
:1012400031F48091C80087FD07C080E008958111C6
:10125000FCCF8091C000F7CF81E00895CF93DF935A
:10126000FC012491EC012196222351F0609171053B
:1012700070917205822F90E00E949F26CE01F0CFE0
:10128000DF91CF91089586E084B985B988EF8AB956
:1012900080EF8BB982E08DB908950C9443098F3F9C
:1012A00009F45CC0482F477050E04730510508F002
:1012B00055C0FA01E057FF4F8695869586950C94A8
:1012C000222692B121E030E0082E01C0220F0A94BC
:1012D000EAF7922B92B940C095B121E030E0082E98
:1012E00001C0220F0A94EAF7922B95B935C098B144
:1012F00021E030E0082E01C0220F0A94EAF7922B79
:1013000098B92AC09BB121E030E0082E01C0220F1D
:101310000A94EAF7922B9BB91FC09EB121E030E0FE
:10132000082E01C0220F0A94EAF7922B9EB914C02E
:1013300091B321E030E0082E01C0220F0A94EAF7B1
:10134000922B91BB09C094B321E030E001C0220F81
:101350008A95EAF7922B94BB81E008958FEF089568
:101360008F3F09F457C0482F477050E04730510570
:1013700008F050C0FA01E956FF4F8695869586958C
:101380000C94222692B121E030E0082E01C0220FF9
:101390000A94EAF72095292322B93AC095B121E0B1
:1013A00030E0082E01C0220F0A94EAF72095292385
:1013B00025B92EC098B121E030E0082E01C0220FDF
:1013C0000A94EAF72095292328B922C09BB121E08D
:1013D00030E0082E01C0220F0A94EAF72095292355
:1013E0002BB916C09EB121E030E0082E01C0220FBB
:1013F0000A94EAF7209529232EB90AC091B321E077
:1014000030E001C0220F8A95EAF72095292321BBFD
:1014100081E008958FEF08958F3F21F1482F4770A5
:1014200050E047305105F0F4FA01E256FF4F86953F
:10143000869586950C94222620B10BC023B109C055
:1014400026B107C029B105C02CB103C02FB101C01E
:1014500022B330E002C0359527958A95E2F7822FB6
:10146000817008958FEF08958F3F09F4EFC0482FE2
:10147000477050E04730510508F0E8C0FA01EB55DD
:10148000FF4F8695869586950C94222620B130E0F4
:10149000082E02C0359527950A94E2F792B120FDF7
:1014A0000AC021E030E0082E01C0220F0A94EAF7BA
:1014B000922B92B91EC021E030E0082E01C0220F0D
:1014C0000A94EAF72095292322B913C023B130E00A
:1014D000082E02C0359527950A94E2F795B120FDB4
:1014E0000AC021E030E001C0220F8A95EAF7922B72
:1014F00095B981E0089521E030E0082E01C0220F67
:101500000A94EAF72095292325B9F3CF26B130E0D4
:10151000082E02C0359527950A94E2F798B120FD70
:101520000AC021E030E0082E01C0220F0A94EAF739
:10153000922B98B9DECF21E030E0082E01C0220FB7
:101540000A94EAF72095292328B9D3CF29B130E0AE
:10155000082E02C0359527950A94E2F79BB120FD2D
:101560000AC021E030E0082E01C0220F0A94EAF7F9
:10157000922B9BB9BECF21E030E0082E01C0220F94
:101580000A94EAF7209529232BB9B3CF2CB130E088
:10159000082E02C0359527950A94E2F79EB120FDEA
:1015A0000AC021E030E0082E01C0220F0A94EAF7B9
:1015B000922B9EB99ECF21E030E0082E01C0220F71
:1015C0000A94EAF7209529232EB993CF2FB130E062
:1015D000082E02C0359527950A94E2F791B320FDB5
:1015E0000AC021E030E0082E01C0220F0A94EAF779
:1015F000922B91BB7ECF21E030E0082E01C0220F5C
:101600000A94EAF72095292321BB73CF22B330E057
:10161000082E02C0359527950A94E2F794B320FD71
:101620000AC021E030E0082E01C0220F0A94EAF738
:10163000922B94BB5ECF21E030E0082E01C0220F38
:101640000A94EAF72095292324BB53CF8FEF0895FE
:101650008F3F09F4BEC0482F477050E0611160C051
:101660004730510508F0B5C0FA01E455FF4F8695A3
:10167000869586950C94222691B121E030E0082EC3
:1016800001C0220F0A94EAF72095292321B99FC0AF
:1016900094B121E030E0082E01C0220F0A94EAF74D
:1016A0002095292324B993C097B121E030E0082E7A
:1016B00001C0220F0A94EAF72095292327B987C091
:1016C0009AB121E030E0082E01C0220F0A94EAF717
:1016D000209529232AB97BC09DB121E030E0082E56
:1016E00001C0220F0A94EAF7209529232DB96FC073
:1016F00090B321E030E0082E01C0220F0A94EAF7EF
:101700002095292320BB63C093B321E030E0082E4D
:1017100001C0220F0A94EAF72095292323BB57C062
:101720004730510508F055C0FA01ED54FF4F86953A
:10173000869586950C94222691B121E030E0082E02
:1017400001C0220F0A94EAF7922B91B940C094B1DC
:1017500021E030E0082E01C0220F0A94EAF7922B14
:1017600094B935C097B121E030E0082E01C0220FB6
:101770000A94EAF7922B97B92AC09AB121E030E097
:10178000082E01C0220F0A94EAF7922B9AB91FC0C3
:101790009DB121E030E0082E01C0220F0A94EAF743
:1017A000922B9DB914C090B321E030E0082E01C007
:1017B000220F0A94EAF7922B90BB09C093B321E061
:1017C00030E001C0220F8A95EAF7922B93BB81E0AB
:1017D00008958FEF0895811106C080B186958170BC
:1017E00091E0892708958FEF0895009711F483E21F
:1017F0000DC08130910511F48BE208C08230910553
:1018000011F483E303C0039729F48BE30E94340AA5
:1018100081E008958FEF0895009711F483E20DC0E1
:101820008130910511F48BE208C08230910511F4EA
:1018300083E303C0039729F48BE30E944F0981E0FF
:1018400008958FEF0895009711F483E20DC0813061
:10185000910511F48BE208C08230910511F483E305
:1018600003C0039729F48BE30E94B00981E0089537
:101870008FEF0895882319F085B78F7E02C085B752
:10188000806185BF81E008959091C80095FFFCCFED
:101890008093CE0008959093C5008093C40086E0A5
:1018A0008093C200E1ECF0E080818B7F8083A0EC2C
:1018B000B0E08C9182608C938081886180830895F0
:1018C0009093CD008093CC0086E08093CA00E9EC31
:1018D000F0E080818B7F8083A8ECB0E08C91826007
:1018E0008C9380818861808308950E944B0C65E011
:1018F00079E081E199E00E945426909372058093EB
:10190000710565E079E081E199E00E9454269093A9
:10191000700580936F0508958091C80087FFFCCF04
:101920008091C8008F778093C8008091CE00089581
:10193000000000000000000001970097C9F708951B
:101940000C94A3270E94AB270895EF92FF920F9368
:101950001F93CF93DF93EC0180E090E00E94A327D8
:10196000F82E8B8381E090E00E94A327E82E8A83E3
:1019700082E090E00E94A327082F898383E090E013
:101980000E94A327182F888384E090E00E94A32759
:101990009E2D9F0D900F910F891302C081E001C011
:1019A0008FEFDF91CF911F910F91FF90EF900895EE
:1019B000CF93DF93EC0185E090E00E94A32788831A
:1019C00081E0DF91CF910895FC01608186E090E095
:1019D0000E94AB2781E00895CF93DF93EC0186E06E
:1019E00090E00E94A327888381E0DF91CF91089542
:1019F0000F931F93CF93DF938C01C8E0D0E0CE010B
:101A00000E94A327F80181938F012196C831D10547
:101A1000B1F781E0DF91CF911F910F9108950F935E
:101A20001F93CF93DF938C01C8E0D0E0F801619160
:101A30008F01CE010E94AB272196C831D105B1F7A5
:101A400081E0DF91CF911F910F910895CF93DF93A4
:101A5000EC0187E090E00E94A327888381E0DF917A
:101A6000CF910895FC01608187E090E00E94AB2750
:101A700081E00895F8940895789408950E943A0DAD
:101A8000FFCFCF93DF93CDB7DEB7A3970FB6F89410
:101A9000DEBF0FBECDBF0E94901180933E058F3FE9
:101AA00021F460E08EE00E949E100E94192180FFC8
:101AB00004C060E086E00E949E10109241051092E2
:101AC0004F0510924E051092400510923F0510925E
:101AD000500510924D058FEF80933A0580933C0599
:101AE00080933B0593E69093EC048093EA049093F3
:101AF00017058093150526E535E0309355052093AD
:101B0000540581E595E090935805809357054BE582
:101B100055E050935A054093590530935D05209345
:101B20005C05109253051092520510925F051092B9
:101B30005E0510924405109243059093E104809352
:101B4000E0046FE27BE1CE0101960E94512340E860
:101B500050E06CE074E0CE0101960E94552385E5CB
:101B600080930C0419861C861D861E861F86188A83
:101B7000198A1A8A1B8A1C8A1D8A1E8A1F8A188E35
:101B8000198E1A8E1B8E1C8E1D8E1E8E1F8E18A2F5
:101B900019A21AA21BA281E0888792E09A878B87FC
:101BA000CE0101960E94C915A3960FB6F894DEBF28
:101BB0000FBECDBFDF91CF9108956091EA046F3FD2
:101BC00039F080911505681303C085E00E949E10CE
:101BD000609115056F3FE1F40E94C6149BE28902F3
:101BE000F0011124EE51FB4F828580935005F09354
:101BF0004F05E0934E05F0934005E0933F05809339
:101C000041050E94D9230E94C3230E94DD2308C0FE
:101C10008091EA046813E0CF85E00E949E10DCCF3B
:101C2000FFCFAF92BF92CF92DF92EF92FF920F93CE
:101C30001F93CF93DF931F92CDB7DEB75C016B018B
:101C40007A01DC0119968C911997823021F08091EC
:101C50003D058C9302C0F501108280913D058230D4
:101C600020F060E087E00E949E10D50119968C91CB
:101C7000823029F080913D058F5F80933D058091F2
:101C80003D05811103C081E080933D05F501308160
:101C90002BE23203F0011124EE51FB4FD182C082BE
:101CA000D50118968C91189782873C913203F001E8
:101CB0001124EE51FB4F83E081873C913203F00108
:101CC0001124EE51FB4F30870C9102038001112447
:101CD0000E511B4FF8011582C5010B960E947C1A0C
:101CE000D80191966D937D938D939C939497F50174
:101CF00083859485A585B68588339948A144B10527
:101D000028F0D5016C9186E10E949E10F5010081BA
:101D1000112707FD1095C5014B960E947C1A4BE2D6
:101D2000409FF001419FF00D1124EE51FB4F658B58
:101D3000768B878B908FD5012C9124036001112421
:101D4000F601EE51FB4F6F01058916892789308D09
:101D500081A192A1A3A1B4A1080F191F2A1F3B1FA3
:101D6000018F128F238F348FC501439649830E94C0
:101D70007C1AF60165A376A387A390A7D5012C91C1
:101D800049812403F0011124EE51FB4F85A196A156
:101D9000A7A1B0A5858F968FA78FB0A381E090E013
:101DA00092A781A7F382E28281E084870F90DF917E
:101DB000CF911F910F91FF90EF90DF90CF90BF9048
:101DC000AF9008950C94531B85E690E00895E09140
:101DD0004E05F0914F0584870895E0914E05F091EE
:101DE0004F058485089520910B04222341F0FB01C7
:101DF000208320915E03FC01208381E0089580E030
:101E00000895CF93DF931F92CDB7DEB719828981F2
:101E1000843640F480ED97E00E944E1F89818F5FE9
:101E20008983F5CF0F90DF91CF91089581E090E005
:101E30000E94230C0E94010F0E94010F0E94010FBB
:101E400081E090E00E940C0C0C94010F81E090E086
:101E50000E94230C0E94010F81E090E00E940C0C74
:101E60000C94010FFF920F931F93CF93DF9300D039
:101E70001F92CDB7DEB71F928F9383E193E09F93BC
:101E80008F938E010F5F1F4F1F930F930E94162792
:101E90000F900F900F900F900F900F90F12CF80172
:101EA00001900020E9F73197E01BF10B8F2D90E0B6
:101EB0008E179F0708F05CC0F801E80FF91F8081BA
:101EC00090E0FC01F097EA30F10508F049C0E654D3
:101ED000FF4F0C9422260E94160F02C00E94260F6C
:101EE0000E94160F0E94160F0E94160F0E94160FD6
:101EF00037C00E94260F0E94260FF4CF0E94260FA3
:101F00000E94260F0E94260FEFCF0E94260F0E94EC
:101F1000260F0E94260F0E94260FE8CF0E94260F50
:101F200002C00E94160F0E94260F04C00E94160FC6
:101F30000E94160F0E94260F06C00E94160F0E94D4
:101F4000160F0E94160F0E94260F08C00E94160F3F
:101F50000E94160F0E94160F0E94160F0E94260F55
:101F60000E94010F0E94010F0E94010FF39497CF6E
:101F70000F900F900F90DF91CF911F910F91FF90D5
:101F800008950F931F93CF93DF9380910B048823C1
:101F900009F4C3C00E943A0D0E943A0DC3E1D3E098
:101FA0008BE494E00E942E0980915E031F928F9330
:101FB000DF93CF930E94D12687E494E00E942E09FC
:101FC0000F900F900F900F9080910B04883110F0BC
:101FD00010920B0480910B0490E0FC013197E631E4
:101FE000F10508F046C0EC53FF4F0C9422268BE01D
:101FF00094E041C084EE93E03EC080ED93E03BC0AE
:102000008AEB93E038C08FE993E035C089E893E02C
:1020100032C081E793E02FC08EE593E02CC08BE4C3
:1020200093E029C08DE293E026C088E093E023C0CE
:102030008CEF92E020C081EE92E01DC082ED92E034
:102040001AC08EEB92E017C08DEA92E014C089E9C5
:1020500092E011C089E792E00EC081E692E00BC0E9
:1020600086E492E008C085E392E005C086E292E053
:1020700002C08FE192E00E942E096091710570917B
:1020800072058DE090E00E949F266091710570912D
:1020900072058AE090E00E949F2614E182E090E0C1
:1020A0000E94230C83E090E00E940C0C04E688EE72
:1020B00093E00E944E1F0150D1F783E090E00E9410
:1020C000230C82E090E00E940C0C04E688EE93E082
:1020D0000E944E1F0150D1F7115001F782E090E0AD
:1020E0000E940C0C83E090E00E940C0C80915E0337
:1020F0000E94320F0E94010F82E090E00E94230CA8
:102100000E94010F82E090E00E940C0C0E94010FDF
:1021100080910B040E94320F43CF80E0DF91CF917A
:102120001F910F91089580930B04E0914E05F0915B
:102130004F05808580935E030C94C10F80930B0440
:1021400060935E030C94C10F6F927F928F929F9267
:10215000AF92BF92CF92DF92EF92FF920F931F93B5
:10216000CF93DF9387E594E00E942E09E0914E051E
:10217000F0914F052085822F992787FD90959F9399
:102180002F9386E193E09F938F930E94D126E09155
:102190004E05F0914F05C281D381DF93CF938AE43E
:1021A00093E09F938F930E94D12688811F928F93F3
:1021B0008FE193E09F938F930E94D126E0914E058B
:1021C000F0914F0581818F9380818F938CE293E012
:1021D0009F938F930E94D12680914F058F9380917A
:1021E0004E058F9386E393E09F938F930E94D126B1
:1021F000C2EED4E0EDB7FEB774960FB6F894FEBF0A
:102200000FBEEDBF00E010E086E4682E83E0782E7C
:102210009FE1892E93E0992E2CE2A22E23E0B22E8C
:1022200036E3C32E33E0D32EEA80FB80FF92EF9299
:102230001F930F937F926F920E94D126F7018081A6
:102240001F928F939F928F920E94D12689818F93A4
:1022500088818F93BF92AF920E94D126DF93CF9354
:10226000DF92CF920E94D1260F5F1F4FAB96EDB742
:10227000FEB772960FB6F894FEBF0FBEEDBF0230E8
:10228000110591F6DF91CF911F910F91FF90EF9083
:10229000DF90CF90BF90AF909F908F907F906F9086
:1022A0000895CF93DF93E0914E05F0914F05C281E1
:1022B000D3818881853539F00E94A41081E00E9485
:1022C000931085E58883E0914E05F0914F0580815C
:1022D00091818115924438F00E94A41082E1DF912F
:1022E000CF910C949310DF91CF9108952BE282024D
:1022F000F0011124EE51FB4FA281B3818C91853501
:1023000019F085E58C9308C08081918181159244F4
:1023100028F082E10E9493108FEF089581E00895E4
:102320000F931F93009183031091840320918503E1
:102330003091860380E090E0B901A801082E04C026
:1023400076956795579547950A94D2F740FD19C041
:1023500041E050E060E070E0082E04C0440F551FDB
:10236000661F771F0A94D2F7402B512B622B732BD9
:102370004093830350938403609385037093860393
:1023800005C0019680329105B9F68FEF1F910F912C
:102390000895E0914E05F0914F0565857685878516
:1023A00090890895CF92DF92EF92FF920F931F933F
:1023B000CF93DF931F92CDB7DEB7C12CD12C76011E
:1023C000C394082E04C0CC0CDD1CEE1CFF1C0A9428
:1023D000D2F74091830350918403609185037091FB
:1023E00086034C215D216E217F21452B462B472BF7
:1023F00009F463C089830E943A0DEBEEF4E0970183
:102400008601009510952095309593E08981DF0134
:1024100011974C914F3F49F14481558166817781F5
:102420004C155D056E057F0541F4108611861286F8
:102430001386DF0112971C92908344815581668137
:10244000778140235123622373234483558366831A
:1024500077834085518562857385402351236223AC
:1024600073234087518762877387BB9645E0E134C9
:10247000F40769F64EEF5FEF6FEF7FEF04C0440F94
:10248000551F661F771F8A95D2F78091830390911D
:102490008403A0918503B091860384239523A6230A
:1024A000B7238093830390938403A0938503B09311
:1024B00086030E943C0D81E001C08FEF0F90DF91F9
:1024C000CF911F910F91FF90EF90DF90CF900895E3
:1024D0000F931F9341E050E060E070E004C0440FB0
:1024E000551F661F771F8A95D2F7E0914E05F09130
:1024F0004F0585859685A785B0898A019B010823AC
:1025000019232A233B23012B022B032BD1F04095C7
:1025100050956095709584239523A623B7238587CE
:102520009687A787B08B81899289A389B4898423F0
:102530009523A623B723818B928BA38BB48B81E049
:1025400001C08FEF1F910F91089540918303509127
:1025500084036091850370918603082E04C07695EC
:102560006795579547950A94D2F740FF1DC0E091B3
:102570004E05F0914F0541E050E060E070E004C08E
:10258000440F551F661F771F8A95D2F7858596855C
:10259000A785B089842B952BA62BB72B858796878B
:1025A000A787B08B81E008958FEF0895CF92DF92D7
:1025B000EF92FF921F93CF93DF93C12CD12C760122
:1025C000C39404C0CC0CDD1CEE1CFF1C8A95D2F712
:1025D0008091830390918403A0918503B091860339
:1025E0008C219D21AE21BF21892B8A2B8B2B11F4AD
:1025F00081E044C00E943A0DE9EEF4E0CBEED4E075
:1026000010E023E080818130B9F482859385A48530
:10261000B5858C219D21AE21BF21892B8A2B8B2B47
:1026200059F0288316861786108A118A1082C2866E
:10263000D386E486F58611E080818230A1F482851C
:102640009385A485B5858C159D05AE05BF0559F408
:10265000288316861786108A118A1082128613869E
:102660001486158611E0BB96AB9685E0EF33F8072C
:1026700049F60E943C0D111105C082E00E94E70E50
:102680008FEF01C081E0DF91CF911F91FF90EF901C
:10269000DF90CF9008950F931F93E0914E05F09136
:1026A0004F0505851685278530890623172328239E
:1026B0003923012B022B032B19F1618B728B838B36
:1026C000948B21E02783DC01CB0100903E0504C000
:1026D000B695A795979587950A94D2F780FF03C082
:1026E0000E94351704C080E090E00E940517E09139
:1026F0004E05F0914F05618972898389948903C0E1
:1027000060E070E0CB011F910F91089580E090E0B0
:10271000089521E08A53954009F420E0822F8195A5
:1027200008950E9489138F3F11F481E003C0813026
:1027300029F482E00E94E70E8FEF0895992787FD24
:102740009095FC01EE0FFF1FE80FF91FE45CFA4FB4
:1027500080810895EF92FF920F931F93CF93DF93A1
:102760001F92CDB7DEB70E9489138F3F11F481E02D
:1027700003C0813029F482E00E94E70E8FEF3FC052
:1027800089830E943A0D8981E82EFF24E7FCF094AA
:102790008701000F111FF801EE0DFF1DE45CFA4FD9
:1027A0009081911116C0E0914E05F0914F059781EF
:1027B00092609783992787FD9095A92FB92F818BD8
:1027C000928BA38BB48B0E943C0D80E090E00E9422
:1027D00005170E0D1F1DF801E45CFA4F8081815032
:1027E0008083E0914E05F0914F05D801A55CBA4F6A
:1027F0008C91838781E084830E943C0D81E00F905F
:10280000DF91CF911F910F91FF90EF9008950F935B
:102810001F93CF93DF931F92CDB7DEB70E9489132A
:102820008F3F11F481E003C0813029F482E00E94DF
:10283000E70E8FEF7CC0482F552747FD50959A0132
:10284000220F331F240F351F8901045C1A4FF90131
:10285000E65CFA4FD8014C91908149170CF066C0A4
:1028600089830E943A0DF80190819F5F9083E091E7
:102870004E05F0914F0514829091E90489819230C0
:1028800041F50091F3041091F4042091F504309186
:10289000F604482F552747FD5095652F752F0417CF
:1028A000150726073707A9F493E09093EB041092DD
:1028B000F7041092F8041092F9041092FA0410929E
:1028C000E9041092F3041092F4041092F5041092AB
:1028D000F60490911405923039F5992787FD90956B
:1028E000A92FB92F40911E0550911F056091200519
:1028F00070912105481759076A077B07A9F483E0FF
:10290000809316051092220510922305109224053B
:10291000109225051092140510921E0510921F05A5
:1029200010922005109221050E943C0D81E00F902D
:10293000DF91CF911F910F9108950E9489138F3FCE
:1029400011F481E003C0813029F482E00E94E70E97
:102950008FEF0895992787FD90959C01220F331FD3
:10296000280F391FF901E65CFA4F8FEF8083F901D8
:10297000E45CFA4F8083F901E55CFA4F8083809133
:102980004D05815080934D0581E00895E091430508
:10299000F091440580810895E0914305F09144054C
:1029A000309721F00380F481E02DFACF0895CF9283
:1029B000DF92EF92FF920F931F93CF93DF93E091FB
:1029C000E004F091E104309709F48AC04091430596
:1029D000509144054115510509F446C0DA019BE2C6
:1029E000692F782F7603900111242E513B4F8901D6
:1029F000065F1F4F7901C4E0EC0EF11C255F3F4FCD
:102A00006C9170E0969FE001979FD00D1124CE51FC
:102A1000DB4FDC80DD2029F0DB84E801C880DC149A
:102A200028F1E701D880DD2061F0969FE001979FB3
:102A3000D00D1124CE51DB4FDA84E901C880DC14BB
:102A4000A8F0969FE001979FD00D1124CE51DB4F47
:102A50007A85E8016881761748F013960D90BC914D
:102A6000A02D109769F602C0A0E0B0E08083C3817A
:102A7000D481D093E104C093E004A417B507B1F466
:102A8000109749F0B483A383128211821296FC93AB
:102A9000EE93119706C01482138212821182FA8378
:102AA000E983F0934405E09343051AC011968D9194
:102AB0009C911297AC17BD0759F092838183B48320
:102AC000A3831196CD91DC911297FC83EB8304C014
:102AD00014821382928381831296FC93EE93119752
:102AE000DF91CF911F910F91FF90EF90DF90CF90EA
:102AF0000895CF93DF93E0914305F091440530971B
:102B000009F444C0992787FD9095208130E028176B
:102B1000390781F4A381B481B0934405A0934305A0
:102B200012961C921E92119718C00380F481E02D1A
:102B3000309761F1208130E028173907B1F7C18162
:102B4000D281838194819C838B83A381B4811097EC
:102B500021F01296DC93CE931197A091E004B091EE
:102B6000E104109739F4F093E104E093E004148257
:102B700013820AC0B483A3831296FC93EE93119739
:102B8000F093E104E093E00412821182DF91CF918F
:102B90000895EF92FF920F931F93CF93DF93EC0171
:102BA0004B815C8169817A818D819E810E94742331
:102BB0002F81222371F04B815C81E12CF12C00E00C
:102BC00010E020E030E0BC01CE010E94110E1F8217
:102BD0000CC0E8812BE2E202F0011124EE51FB4F20
:102BE00021852330B9F491838083E8818BE2E80268
:102BF000F0011124EE51FB4F458956896789708D8C
:102C0000452B462B472B41F482E0818788810E9427
:102C1000D71402C08FEF01C081E0DF91CF911F91E7
:102C20000F91FF90EF9008951F93CF93DF93CDB74F
:102C3000DEB728970FB6F894DEBF0FBECDBF29834D
:102C40003A834B835C836D837E838F8398870E9456
:102C50003A0D0E949D20182FCE0101960E947C1AE9
:102C60006330710598F0E0914E05F0914F05212FEA
:102C700030E0260F371FC901A0E0B0E0858B968BAE
:102C8000A78BB08F0E943C0D81E001C08FEF28968A
:102C90000FB6F894DEBF0FBECDBFDF91CF911F916D
:102CA00008950E944623E0914E05F0914F058581DD
:102CB0008111F7CF0895CF930E9451110E943A0DD0
:102CC000E0914E05F0914F0581E090E092A781A739
:102CD00081E085830E949D20C82F883F88F40E9450
:102CE00037202C2F30E02F5F3F4F482F50E0241724
:102CF000350734F482E08C0F80930A040E943B2055
:102D00000E943C0D0E94511681E0CF910895E09100
:102D10004E05F0914F0580850E947915E0914E0592
:102D2000F0914F0584E081870E945B1681E0089551
:102D3000CF93DF93EC010E945111209711F4C1E071
:102D4000D0E00E943A0DE0914E05F0914F0581E0F0
:102D50008583D2A7C1A70E949D20C82F883F88F4F1
:102D60000E9437202C2F30E02F5F3F4F482F50E03C
:102D70002417350734F482E08C0F80930A040E94F4
:102D80003B200E943C0D0E94511681E0DF91CF91C3
:102D90000895FF920F931F93CF93DF938C010E94AE
:102DA0003A0DE0914E05F0914F0581E085830E9438
:102DB0009D20F82EE0914E05F0914F05C82FD0E0F0
:102DC000AE01400F511F60E070E0458B568B678B62
:102DD000708F87EF8F1570F00E9437202196282F73
:102DE00030E0C217D30734F482E08F0D80930A04D9
:102DF0000E943B200E943C0D0E94511681E0DF9111
:102E0000CF911F910F91FF900895CF93DF93EC0125
:102E10000E943A0DE0914E05F0914F0521E0258387
:102E2000CE01A0E0B0E0858B968BA78BB08F0E947F
:102E30009D20C82F883F88F40E9437202C2F30E037
:102E40002F5F3F4F482F50E02417350734F482E0BE
:102E50008C0F80930A040E943B200E943C0D0E942C
:102E6000511681E0DF91CF910895CF930E943A0DE2
:102E7000E0914E05F0914F0581E0858386830E94A5
:102E80009D20C82F883F88F40E9437202C2F30E0E7
:102E90002F5F3F4F482F50E02417350734F482E06E
:102EA0008C0F80930A040E943B200E943C0D0E94DC
:102EB000511681E0CF9108951F93CF93DF93CDB743
:102EC000DEB728970FB6F894DEBF0FBECDBF2983BB
:102ED0003A834B835C836D837E838F8398870E94C4
:102EE00051110E943A0DE0914E05F0914F0581E09D
:102EF000858381E090E092A781A70E949D20182FF2
:102F0000CE0101960E947C1AE0914E05F0914F058A
:102F1000610F711D811D911D658B768B878B908F45
:102F2000183F88F40E943720212F30E02F5F3F4F59
:102F3000482F50E02417350734F482E0810F809346
:102F40000A040E943B200E943C0D0E94511681E021
:102F500028960FB6F894DEBF0FBECDBFDF91CF919C
:102F60001F9108958F929F92AF92BF92CF92DF925E
:102F7000EF92FF920F931F93CF93DF93CDB7DEB7FE
:102F800060970FB6F894DEBF0FBECDBF29873A8792
:102F90004B875C876D877E878F87988BCE010196E4
:102FA0000E940E1889809A80AB80BC80CD80DE8024
:102FB000EF80F88409851A852B853C854D855E85D3
:102FC0006F857889CE0109960E946A188F3F61F05B
:102FD00029853A854B855C856D857E858F859889A9
:102FE0000E945C1781E001C08FEF60960FB6F894E5
:102FF000DEBF0FBECDBFDF91CF911F910F91FF902C
:10300000EF90DF90CF90BF90AF909F908F900895FA
:10301000E0914E05F0914F0580850895CF92DF92A3
:10302000EF92FF92CF93DF93EC011C821D821E82F0
:103030001F8240914505509146056091470570916A
:103040004805488359836A837B83C0904905D090A3
:103050004A05E0904B05F0904C05CC82DD82EE8273
:10306000FF820E949D20A82FB0E023EB36EE4EE0B9
:1030700050E00E9472256C0D7D1D8E1D9F1D6C837E
:103080007D838E839F834C815D816E817F8141151D
:103090008AEC58078AE968078BE37807A0F05A5C46
:1030A0006A497B434C835D836E837F83488159816A
:1030B0006A817B814F5F5F4F6F4F7F4F488359839A
:1030C0006A837B83E0CFDF91CF91FF90EF90DF9019
:1030D000CF9008958F929F92AF92BF92CF92DF923E
:1030E000EF92FF920F931F93CF93DF93CDB7DEB78D
:1030F00060970FB6F894DEBF0FBECDBFFC01098309
:103100001A832B833C834D835E836F837887898604
:103110009A86AB86BC86CD86DE86EF86F88A898065
:103120009A80AB80BC800D811E812F813885C98437
:10313000DA84EB84FC844D855E856F8578898C14F8
:103140009D04AE04BF0408F43FC0C814D904EA04C7
:10315000FB0491F40417150726073707A8F1041B91
:10316000150B260B370B04831583268337831082B8
:1031700011821282138226C004171507260737070B
:1031800088F481E0881A9108A108B1088C189D087C
:10319000AE08BF0880829182A282B3821653254670
:1031A000344C08C08C189D08AE08BF0880829182FC
:1031B000A282B382041B150B260B370B04831583E5
:1031C0002683378381E001C08FEF60960FB6F894B5
:1031D000DEBF0FBECDBFDF91CF911F910F91FF904A
:1031E000EF90DF90CF90BF90AF909F908F90089519
:1031F000FC01448155816681778141158AEC58072D
:103200008AE968078BE37807A0F05A5C6A497B4338
:1032100044835583668377834081518162817381C2
:103220004F5F5F4F6F4F7F4F408351836283738344
:10323000E0CF08958F929F92AF92BF92CF92DF928C
:10324000EF92FF920F931F93CF93DF93CDB7DEB72B
:1032500060970FB6F894DEBF0FBECDBF09831A8307
:103260002B833C834D835E836F83788789869A8620
:10327000AB86BC86CD86DE86EF86F88A49855A8580
:103280006B857C8509811A812B813C81400F511F00
:10329000621F731FFC0140835183628373834D85DA
:1032A0005E856F8578890D811E812F813885400F5D
:1032B000511F621F731F44835583668377830E9467
:1032C000F81881E060960FB6F894DEBF0FBECDBF50
:1032D000DF91CF911F910F91FF90EF90DF90CF90F2
:1032E000BF90AF909F908F90089560934505709325
:1032F00046058093470590934805209349053093F0
:103300004A0540934B0550934C0508952F923F92E8
:103310004F925F926F927F928F929F92AF92BF92E5
:10332000CF92DF92EF92FF920F931F93CF93DF9391
:10333000CDB7DEB762970FB6F894DEBF0FBECDBF34
:10334000DC014D905D906D907C90139714966D917B
:103350007D918D919C9117974114510461047104E2
:1033600009F46CC0B2E44B1651046104710408F016
:103370006DC07B018C0120E030E0A9016983FA82F5
:103380000B831C832D833E834F835887A0E0B0E0DE
:10339000198A1A8A312C812CF0E0E0E0912C9D01F1
:1033A00049895A89632D782D8F2F9E2FA980BA8045
:1033B000CB80DC80ED80FE800F8118850E9428265E
:1033C000222E39874A875B876C877D878E879F8708
:1033D0009D0149895A89632D782D8F2F9E2F365351
:1033E0004546544C6F4F7F4F8F4F9F4FD901498BAC
:1033F0005A8B362E872EF82FE92F492D50E060E0AA
:1034000070E0441555056605770510F49394C7CF11
:1034100083EBA82E96EEB92E2EE0C22ED12CE12CF5
:10342000F12C00E010E0222D39854A855B856C8502
:103430007D858E859F850E94C52506C023EB36EECF
:103440004EE050E00E94A125C90102C080E090E05A
:1034500062960FB6F894DEBF0FBECDBFDF91CF915D
:103460001F910F91FF90EF90DF90CF90BF90AF90A2
:103470009F908F907F906F905F904F903F902F9094
:103480000895CF92DF92EF92FF92CF93DF93CDB763
:10349000DEB728970FB6F894DEBF0FBECDBF6B0125
:1034A0007C013AE0F694E794D794C7943A95D1F723
:1034B000C982DA82EB82FC829B01AC013370442723
:1034C000552763EB76EE8EE090E00E947D256D83BC
:1034D0007E838F8398872C2D3A814B815C8128963F
:1034E0000FB6F894DEBF0FBECDBFDF91CF91FF9036
:1034F000EF90DF90CF9008952F923F924F925F927E
:103500006F927F928F929F92AF92BF92CF92DF92F3
:10351000EF92FF920F931F93CF93DF93CDB7DEB758
:1035200062970FB6F894DEBF0FBECDBFDC014D90A1
:103530005D906D907C90139714966D917D918D9117
:103540009C911797411451046104710409F466C0F9
:103550007B018C0120E030E0A9016983FA820B83B2
:103560001C832D833E834F835887A0E0B0E0198AE7
:103570001A8A312C812CF0E0E0E0912C9D014989E0
:103580005A89632D782D8F2F9E2FA980BA80CB80EA
:10359000DC80ED80FE800F8118850E942826222E77
:1035A00039874A875B876C877D878E879F879D01D8
:1035B00049895A89632D782D8F2F9E2F3653454682
:1035C000544C6F4F7F4F8F4F9F4FD901498B5A8B70
:1035D000362E872EF82FE92F492D50E060E070E05D
:1035E000441555056605770510F49394C7CF43EB52
:1035F000A42E56EEB52E6EE0C62ED12CE12CF12C69
:1036000000E010E0222D39854A855B856C857D853B
:103610008E859F850E94C525CA0107C023EB36EE23
:103620004EE050E00E94A125CA01B90162960FB692
:10363000F894DEBF0FBECDBFDF91CF911F910F91E8
:10364000FF90EF90DF90CF90BF90AF909F908F90C2
:103650007F906F905F904F903F902F900895C2E0C1
:10366000D1E00E9451110E943720843028F4D09379
:1036700042050E94462308C08AE090E00E944E1F47
:10368000C09342050E943A2380910C04853519F0BD
:1036900088E00E94931080917E41853511F388E087
:1036A0000E949310DECF2F923F924F925F926F92C3
:1036B0007F928F929F92AF92BF92CF92DF92EF92C2
:1036C000FF920F931F93CF93DF93CDB7DEB7299768
:1036D0000FB6F894DEBF0FBECDBF0E946B1F0E94D5
:1036E0003A0D0E94891F0E94911F9F838E838AEF4B
:1036F0000E943B20A0910A04B0E023EB36EE4EE09E
:1037000050E00E9472256B017C01809149059091E7
:103710004A05A0914B05B0914C05C80ED91EEA1E72
:10372000FB1EC701B6010E94A1250091450510911D
:1037300046052091470530914805C61AD70AE80A80
:10374000F90A63EB462E66EE562E6EE0662E712C5D
:10375000480159018FEF881A980AA80AB80AC114BB
:103760009AECD9069AE9E9069BE3F90698F02AEC67
:10377000D21A2AE9E20A2BE3F20AC701B601A30131
:1037800092010E94A125C61AD70AE80AF90A9501F2
:103790008401DECF0093450510934605209347052D
:1037A00030934805C0924905D0924A05E0924B05F6
:1037B000F0924C05E0914E05F0914F0585818823EC
:1037C00039F18185843021F18781823029F0882385
:1037D00041F08681811102C085E001C083E08187CC
:1037E00014C083E081871782168285899689A7890C
:1037F000B08D892B8A2B8B2B41F4818D928DA38DDB
:10380000B48D858B968BA78BB08F80850E947915A0
:10381000E0914E05F0914F0585A196A1A7A1B0A515
:10382000892B8A2B8B2B09F444C02085222309F491
:1038300040C081858430E9F1458D568D678D70A13A
:1038400080910A0490E0A0E0B0E0481759076A07A9
:103850007B0768F4622F82E00E949E10E0914E0583
:10386000F0914F05158E168E178E10A208C0481BBA
:10387000590B6A0B7B0B458F568F678F70A3E091B6
:103880004E05F0914F051085458D568D678D70A1C1
:10389000452B462B472B69F4612F83E00E949E1035
:1038A000E0914E05F0914F0583E08187812F0E94C2
:1038B00079150AEE14E03BEE232E34E0332E47EF69
:1038C000A42E44E0B42EA9EEB4E0BA83A983E8EEB6
:1038D000F4E0FC83EB8357EE852E54E0952E20E632
:1038E0003AEE398728871D82D8018C918F3F09F4E1
:1038F0002AC1F40110828C91882309F46AC0D10195
:103900008C91843009F465C0F501C080D180E280DB
:10391000F38060910A0470E080E090E0C616D7065C
:10392000E806F90648F0C61AD70AE80AF90AC0827A
:10393000D182E282F38205C0F501108211821282E7
:103940001382D8015196CD90DD90ED90FC90549764
:10395000C616D706E806F90650F0C61AD70AE80ACE
:10396000F90AF801C18AD28AE38AF48A21C0D8010F
:1039700059962D913D914D915C915C97621773071B
:103980008407950760F469017A01C61AD70AE80A24
:10399000F90AF801C18AD28AE38AF48A09C00E942E
:1039A000A125D80151966D937D938D939C93549747
:1039B000F80181899289A389B489892B8A2B8B2B61
:1039C00041F4818D928DA38DB48D818B928BA38BCD
:1039D000B48BD1018C91833009F0B5C0F5018081A1
:1039E0009181A281B381892B8A2B8B2B09F096C000
:1039F000A981BA818C918823B9F0EB81FC81808107
:103A0000882391F081E090E0A0E0B0E000903E05D6
:103A100004C0880F991FAA1FBB1F0A94D2F7F80190
:103A200081879287A387B487A981BA811C92EB8191
:103A3000FC811082D4011C92F50184899589D801FA
:103A40005D964D915D916D917C919097F801458BBC
:103A5000568B678B708F019729F5E2E0D101EC93CB
:103A6000F80181899289A389B489F50180839183C2
:103A7000A283B383F801818D928DA38DB48D892BA0
:103A80008A2B8B2B59F42AEFC22ED12CE12CF12C4E
:103A9000D501CD92DD92ED92FC9213978D810E941B
:103AA000D7143CC0D50154964D905C905597B1E029
:103AB0004B1A5108612C712C618D728D838D948D00
:103AC000A30192010E947D25F501608371838283A9
:103AD0009383D8015996CD90DD90ED90FC905C9742
:103AE000C701B6010E947D25F801618B728B838B23
:103AF000948BCD28CE28CF2859F49AEFC92ED12CFB
:103B0000E12CF12CD501CD92DD92ED92FC92139730
:103B1000CC24C394D12CF501D58AC48AF5018081C7
:103B20009181A281B3810097A105B10561F0C8849C
:103B3000D984A60160E070E084179507A607B7074F
:103B400010F4998788872D812F5F2D83055D1F4F86
:103B50003BE2230E311C8BE2A80EB11CA981BA8175
:103B60009B96BA83A983EB81FC81BB96FC83EB8394
:103B7000FBE28F0E911C223009F0B6CE0E94C614D3
:103B8000F82E2BE28202F0011124EE51FB4F8285C8
:103B900080935005F0934005E0933F05FF2021F10D
:103BA00045A156A167A170A5452B462B472BB1F027
:103BB000458D568D678D70A14A3F51056105710590
:103BC00068F4C884D984860120E030E040175107AA
:103BD0006207730748F55987488726C028853985C5
:103BE0002B3F310508F119C028853985243031056E
:103BF000D8F0235031092A3F310550F439872887FE
:103C00002230310588F4A2E0B0E0B987A8870CC063
:103C1000288539852D3F310519F0AAEFB0E0F5CFA1
:103C200027EF30E03987288780934105F0934F05CF
:103C3000E0934E05388530930A040E949D20282F7A
:103C400030E02F5F3F4FC884D9842C153D0558F0D4
:103C50000E949D20C82ED12C96012E5F3F4F3987A0
:103C6000288720930A04F1101092420588850E944B
:103C70003B206CED75E08E819F810E94A31F0E9406
:103C8000D22329960FB6F894DEBF0FBECDBFDF91C9
:103C9000CF911F910F91FF90EF90DF90CF90BF9049
:103CA000AF909F908F907F906F905F904F903F90DC
:103CB0002F900C94DD2340916105141694F054E08C
:103CC000450290011124F901EE59FA4F6083F90180
:103CD000EC59FA4F918380834F5F4093610581E0F7
:103CE00008958FEF08950F931F93CF93DF93062FBF
:103CF00040916105552747FD509510E0E82FF0E011
:103D0000212F30E0241735078CF5E901CC0FDD1F9A
:103D1000CC0FDD1FDE01AE59BA4F8C91992787FD7C
:103D200090958E179F0701F5F901EA59FA4F8081A6
:103D300081110EC081E08083FE01EC59FA4F0190A1
:103D4000F081E02D20E040E050E0602F80E0099518
:103D5000CC59DA4FE881F98120E040E050E0602F53
:103D600081E00995812F03C01F5FCACF8FEFDF91DC
:103D7000CF911F910F910895E82FF0E08091610598
:103D8000992787FD90958E179F077CF0EE0FFF1FF8
:103D9000EE0FFF1FEC59FA4F0190F081E02D20E06B
:103DA00040E050E060E082E0099481E00E94E70E8C
:103DB0008FEF0895242FE82FF0E080916105992777
:103DC00087FD90958E179F076CF0EE0FFF1FEE0F8B
:103DD000FF1FEC59FA4F0190F081E02DAB0160E03C
:103DE00086E0099481E00E94E70E8FEF0895242F6A
:103DF000E82FF0E080916105992787FD90958E1757
:103E00009F076CF0EE0FFF1FEE0FFF1FEC59FA4FEC
:103E10000190F081E02DAB0160E085E0099481E044
:103E20000E94E70E8FEF0895242FE82FF0E0809195
:103E30006105992787FD90958E179F076CF0EE0F0F
:103E4000FF1FEE0FFF1FEC59FA4F0190F081E02D9C
:103E500040E050E084E0099481E00E94E70E8FEF9B
:103E60000895E82FF0E080916105992787FD9095EE
:103E70008E179F0774F0EE0FFF1FEE0FFF1FEC5918
:103E8000FA4F0190F081E02D20E040E050E083E027
:103E9000099481E00E94E70E8FEF08950000000072
:103EA0000000000000000000000000000000000012
:103EB000000000000197009789F7089510922101F2
:103EC000089589E0809321018DE89CE39093290176
:103ED00080932801089510922501109224010895DD
:103EE000CF93DF9300D0CDB7DEB7809124019091BE
:103EF00025019A83898389819A810F900F90DF91A0
:103F0000CF91089510928100089581E080938100FF
:103F1000089583B5816083BD10928500109284005E
:103F20000895CF93DF9300D0CDB7DEB780918400A2
:103F3000909185009A83898389819A810F900F904F
:103F4000DF91CF910895CF92DF92EF92FF92CF93BE
:103F5000DF93EC01CC0FDD1FC9378FEFD80710F0CE
:103F6000C0E0D0E06B01E12CF12CCC0EDD1EE11C99
:103F7000F11C81E0C816D104E806F10440F081E0AC
:103F8000E81AF1080E94911FC817D907D8F30E94B8
:103F9000911F8C159D05D8F3DF91CF91FF90EF9085
:103FA000DF90CF9008951092B100E0E7F0E08081BB
:103FB0008D7F808380818E7F808308958093B2007F
:103FC0000895E0E7F0E080818360808383E0809360
:103FD000B100089583B5826083BD1092B200109243
:103FE0005F0310920A040895CF93DF938EEF8093BE
:103FF0000A0480E28093B60080910A048093B300A3
:1040000083E087BB92E09093B0008093B10093B5BA
:10401000926093BD87BB84BD83B5826083BD1092DF
:10402000800081E0809381001092850010928400CE
:1040300083B5826083BD83B5816083BD109220010A
:10404000C4E2D1E01982188283B5826083BD83B552
:10405000816083BD0E94EA1F198218820E94E11FBD
:104060000E94611F10925F03DF91CF9108958091AC
:10407000B3008F5F089581508093B300089581113C
:1040800002C0109271008FEF0895811106C0109246
:1040900095001092940081E008958FEF08958111AA
:1040A00005C08091940090919500089580E090E083
:1040B0000895811105C082E08093710081E0089528
:1040C0008FEF0895811135C0CB010197059710F44A
:1040D000609309041092900088E0809391005093BF
:1040E00099004093980030935D0320935C03809186
:1040F0000904813021F480919100816011C08230E7
:1041000021F48091910082600BC0833021F4809172
:104110009100836005C0843031F480919100846007
:104120008093910008C0853031F4809191008560C2
:10413000F7CF8FEF089581E008958091B200089540
:104140001F920F920FB60F92112460E08AE00E9436
:104150009E10FFCF0F920FB60F921F922F923F9299
:104160004F925F926F927F928F929F92AF92BF9287
:10417000CF92DF92EF92FF920F931F932F933F9373
:104180004F935F936F937F938F939F93AF93BF935F
:10419000CF93DF93EF93FF93A0914E05B0914F051E
:1041A0000DB60D920EB60D921F92A0910704B0911C
:1041B00008041E90BEBFADBF08951F920F920FB6A8
:1041C0000F9211240BB60F922F933F934F935F934F
:1041D0006F937F938F939F93AF93BF93EF93FF93CF
:1041E000E0915C03F0915D03309711F0099504C0F4
:1041F00060E08AE00E949E10FF91EF91BF91AF9125
:104200009F918F917F916F915F914F913F912F91EE
:104210000F900BBE0F900FBE0F901F9018951F921E
:104220000F920FB60F9211240F900FBE0F901F9098
:10423000189504B603FC02C080E001C080E104B61A
:1042400002FE06C094B79B7F94BF04B600FE846054
:1042500004B601FE05C094B79D7F94BF82600895A7
:1042600081110CC004B600FE04C094B79E7F94BFB9
:1042700001C081E09091B000911181E00895811119
:1042800002C0E89A39C0813011F4E99A0895823069
:1042900011F4EA9A31C0833021F480916B0081607F
:1042A00029C0843021F480916B00826023C0853066
:1042B00021F480916B0084601DC0863021F48091D0
:1042C0006B00886017C0873021F480916B0080619B
:1042D00011C0883021F480916B0080620BC089305E
:1042E00021F480916B00806405C08A3039F480919C
:1042F0006B00806880936B0081E008958FEF0895D4
:10430000811102C0E89839C0813011F4E99808950C
:10431000823011F4E99831C0833021F480916B0030
:104320008E7F29C0843021F480916B008D7F23C063
:10433000853021F480916B008B7F1DC0863021F485
:1043400080916B00877F17C0873021F480916B00CC
:104350008F7E11C0883021F480916B008F7D0BC05F
:10436000893021F480916B008F7B05C08A3039F44D
:1043700080916B008F7780936B0081E008958FEFC1
:104380000895811126C050936A0540936905611113
:1043900004C0809169008C7F3DC0613049F48091F8
:1043A00069008D7F8093690080916900816032C0CF
:1043B000623049F480916900826080936900809145
:1043C00069008E7F27C0633039F580916900836072
:1043D00021C0813049F5509368054093670561110C
:1043E00004C080916900837F15C0613049F48091D9
:1043F0006900877F809369008091690084600AC0AA
:10440000623061F4809169008860809369008091D6
:1044100069008B7F8093690081E008956330E1F744
:10442000809169008C60F6CF823031F550936C0535
:1044300040936B05611104C0809169008F7CEACFC5
:10444000613049F4809169008F7D8093690080918B
:1044500069008061DFCF623049F480916900806239
:1044600080936900809169008F7ED4CF6330A1F67C
:10447000809169008063CECF8350883050F4809162
:10448000680081608093680050936E0540936D05CD
:10449000C3CF8FEF08951F920F920FB60F92112482
:1044A0000BB60F922F933F934F935F936F937F932E
:1044B0008F939F93AF93BF93EF93FF93E0916D051D
:1044C000F0916E05309711F0099504C060E08AE024
:1044D0000E949E10FF91EF91BF91AF919F918F919C
:1044E0007F916F915F914F913F912F910F900BBEF4
:1044F0000F900FBE0F901F9018951F920F920FB63E
:104500000F9211240BB60F922F933F934F935F930B
:104510006F937F938F939F93AF93BF93EF93FF938B
:10452000E0916905F0916A05309711F0099504C092
:1045300060E08AE00E949E10FF91EF91BF91AF91E1
:104540009F918F917F916F915F914F913F912F91AB
:104550000F900BBE0F900FBE0F901F9018951F92DB
:104560000F920FB60F9211240BB60F922F933F9319
:104570004F935F936F937F938F939F93AF93BF936B
:10458000EF93FF93E0916705F0916805309711F084
:10459000099504C060E08AE00E949E10FF91EF91AF
:1045A000BF91AF919F918F917F916F915F914F914B
:1045B0003F912F910F900BBE0F900FBE0F901F9049
:1045C00018951F920F920FB60F9211240BB60F92EF
:1045D0002F933F934F935F936F937F938F939F930B
:1045E000AF93BF93EF93FF93E0916B05F0916C0550
:1045F000309711F0099504C060E08AE00E949E1097
:10460000FF91EF91BF91AF919F918F917F916F91AA
:104610005F914F913F912F910F900BBE0F900FBE66
:104620000F901F9018950E943A0DA89584B7877F28
:1046300084BFE0E6F0E080818861808310820C9482
:104640003C0D0E943A0DA89584B7877F84BFE0E6B1
:10465000F0E08081886180838DE080830C943C0D44
:1046600004B603FC02C081E008958FEF0895A89579
:104670000895089583B7817F866083BF83B7816083
:1046800083BF889583B78E7F83BF089583B7817F6B
:1046900083BF83B7816083BF889583B78E7F83BFD5
:1046A0000895FC01768365830895EF92FF920F933E
:1046B0001F93CF93DF93EC018B017A0140325105B8
:1046C00018F481E10E949310A70141505109400F55
:1046D000511F5A8349831C830B83DF91CF911F9114
:1046E0000F91FF90EF90089525E5FA012083FB01DB
:1046F00032979083FB0131978083FB0134971182BD
:104700001082FB01369711821082FB0138971182CB
:104710001082FB013A9711821082FB013C971182B3
:104720001082FB013E9711821082FB01709711826B
:104730001082FB01729711821082FB017497118223
:104740001082FB01769711821082FB01789711820B
:104750001082FB017A9711821082FB017C971182F3
:104760001082FB017E9711821082FB01B0971182AB
:104770001082FB01B29711821082CB018497FC0159
:1047800011821082089585E580937E41EEEFF1E479
:10479000F0930804E093070482EE9EE090838093F8
:1047A000FF41089582EE9EE09093FE418093FF4189
:1047B00008950E94F41F0C943C0DA0913F05B09108
:1047C0004005CD91CDBFDD91DEBFFF91EF91DF912F
:1047D000CF91BF91AF919F918F917F916F915F9199
:1047E0004F913F912F911F910F91FF90EF90DF908C
:1047F000CF90BF90AF909F908F907F906F905F9081
:104800004F903F902F901F900F900FBE0F901895D4
:104810000E944D0980E190E00E94750C80E892E0D2
:104820000E94E9260E94410D20E030E0A90160E0ED
:1048300070E0CB010E9475190E9426030E94D302EA
:104840000E94DD0D80E090E008956F927F929F922C
:10485000AF92BF92CF92DF92EF92FF920F931F938E
:10486000CF93DF93CDB7DEB72C970FB6F894DEBFAA
:104870000FBECDBF8C017B013A01FC01178216826D
:10488000838181FF19C1CE0101965C01F801D380BB
:10489000F701D3FC2591D3FE21917F01222309F456
:1048A00007C1253249F4D3FC2591D3FE21917F0124
:1048B000253211F0912C1BC0B801822F90E00E948C
:1048C0009F2663013601E2CF222309F4F1C0622F53
:1048D00070E08DE694E02C870E9440262C85892B81
:1048E00049F0F701D3FC2591D3FE21917F0197FE7A
:1048F000EBCF0CC0233221F4F92DF0619F2EF1CFC4
:104900002C3639F4292D2068922EEBCF222309F47E
:10491000CFC0622F70E086E694E02C870E9440268C
:104920002C85892B41F06301F4E0CF0ED11CB80136
:104930008FE390E012C0233641F0233789F023350E
:1049400021F5F92DF1609F2E0BC0630122E0C20E0C
:10495000D11CB801F301808191810E949F26B2CFC2
:10496000630122E0C20ED11CF30160807180F3016B
:1049700090FC859190FE81913F01882309F4A2CF9C
:10498000B80190E00E949F26F2CF243611F029361C
:1049900039F5630197FE09C0F4E0CF0ED11CF30195
:1049A00060817181828193810AC0F2E0CF0ED11CB7
:1049B000F30160817181882777FD8095982FF92D0B
:1049C000FF7E9F2E97FF09C0909580957095619509
:1049D0007F4F8F4F9F4FF0649F2E2AE030E038C00A
:1049E0002037A1F040F42835D1F02F3609F060C00F
:1049F00028E030E019C0253719F0283751F058C0A9
:104A0000292D2F7E922E2AE030E00EC0892D806164
:104A1000982E992D9462992E20E130E005C0E92D61
:104A2000E4609E2E20E132E0630197FE09C0F4E0CD
:104A3000CF0ED11CF301608171818281938108C006
:104A4000F2E0CF0ED11CF3016081718180E090E033
:104A5000A5010E944527782E7A1896FE05C0B80158
:104A60008DE290E00E949F2694FE16C0FE01E70DA5
:104A7000F11D8081803381F0B80180E390E00E94D5
:104A80009F2692FE09C0292D2072822F90E0B80146
:104A9000885A9F4F0E949F267A94F501E70DF11DD9
:104AA0008081B80190E00E949F267110F5CF0ACF57
:104AB000F8018681978102C08FEF9FEF2C960FB689
:104AC000F894DEBF0FBECDBFDF91CF911F910F9144
:104AD000FF90EF90DF90CF90BF90AF909F907F902E
:104AE0006F9008950E943126A59F900DB49F900D60
:104AF000A49F800D911D11240895DB018F939F9336
:104B00000E947225BF91AF91A29F800D911DA39F1E
:104B1000900DB29F900D11240895AA1BBB1B51E16B
:104B200007C0AA1FBB1FA617B70710F0A61BB70B1D
:104B3000881F991F5A95A9F780959095BC01CD01C2
:104B40000895A1E21A2EAA1BBB1BFD010DC0AA1FCE
:104B5000BB1FEE1FFF1FA217B307E407F50720F0E6
:104B6000A21BB30BE40BF50B661F771F881F991F61
:104B70001A9469F760957095809590959B01AC01AA
:104B8000BD01CF010895689401C0E8948F929F926F
:104B9000CF93DF930E94D125DF91CF919F908F908B
:104BA000089588249924F401E401B0E49F93AA278E
:104BB0009A158B049C04ED05FE05CF05D007A107CF
:104BC00098F4AD2FDC2FCF2FFE2FE92D982C892EB6
:104BD000982F872F762F652F542F432F322F222780
:104BE000B85031F7BF9127C01B2EBF91BB27220FB2
:104BF000331F441F551F661F771F881F991F881C6E
:104C0000991CEE1FFF1FCC1FDD1FAA1FBB1F8A149C
:104C10009B04EC05FD05CE05DF05A007B10748F0B4
:104C20008A189B08EC09FD09CE09DF09A00BB10B1E
:104C300021601A94E1F62EF49401AF01BE01CD017A
:104C4000000C0895EE0FFF1F0590F491E02D0994DC
:104C50002A0D3B1D4C1D5D1D6E1D7F1D801F911F6C
:104C60000895A29FB001B39FC001A39F700D811D45
:104C70001124911DB29F700D811D1124911D089565
:104C8000FC010590061621F00020D9F7C001089517
:104C90003197CF010895FB01DC0102C001900D9214
:104CA00041505040D8F708950F931F93CF93DF934F
:104CB000EC018B01009731F46115710519F480E066
:104CC00090E038C06EE070E081E090E00E94B9278B
:104CD000FC010097A1F380E883830115110571F0B1
:104CE0001387028781E8838380916F059091700517
:104CF000892B21F4F0937005E0936F052097C9F09C
:104D0000D187C08783818260838380917105909170
:104D10007205892B71F4F0937205E093710580910F
:104D2000730590917405892B21F4F0937405E09339
:104D30007305CF01DF91CF911F910F9108950F93CC
:104D40001F93CF93DF93182F092FEB018B8181FDE8
:104D500003C08FEF9FEF20C082FF10C04E815F81A4
:104D60002C813D81421753077CF4E881F9819F0132
:104D70002F5F3F4F39832883108306C0E885F9856C
:104D8000812F0995892B29F72E813F812F5F3F4F76
:104D90003F832E83812F902FDF91CF911F910F9111
:104DA0000895CF93DF93CDB7DEB7FE0135966191BD
:104DB0007191AF0180917105909172050E94252437
:104DC000DF91CF91089560917105709172050C94F7
:104DD0009F260F931F93CF93DF93E0917105F0917E
:104DE0007205238121FF1BC0EC0100E010E08991D6
:104DF0006091710570917205DB011896ED91FC913F
:104E00001997882331F00995892B89F30FEF1FEF4C
:104E1000EECF8AE00995892B11F4C80102C08FEF0B
:104E20009FEFDF91CF911F910F9108950F931F93E3
:104E3000CF93DF93CDB7DEB72E970FB6F894DEBFD2
:104E40000FBECDBF0D891E8986E08C831A8309832E
:104E50008FEF9FE79E838D83AE01475E5F4F6F8923
:104E6000788DCE0101960E942524EF81F885E00F10
:104E7000F11F10822E960FB6F894DEBF0FBECDBF85
:104E8000DF91CF911F910F910895FA01AA27283041
:104E900051F1203181F1E8946F936E7F6E5F7F4F07
:104EA0008F4F9F4FAF4FB1E03ED0B4E03CD0670F83
:104EB000781F891F9A1FA11D680F791F8A1F911DD6
:104EC000A11D6A0F711D811D911DA11D20D009F426
:104ED00068943F912AE0269F11243019305D319368
:104EE000DEF6CF010895462F4770405D4193B3E051
:104EF0000FD0C9F7F6CF462F4F70405D4A3318F0F8
:104F0000495D31FD4052419302D0A9F7EACFB4E0A8
:104F1000A6959795879577956795BA95C9F7009760
:104F20006105710508959B01AC010A2E0694579501
:104F3000479537952795BA95C9F7620F731F841F58
:104F4000951FA01D0895F999FECF92BD81BDF89AD5
:104F5000992780B50895262FF999FECF1FBA92BDE3
:104F600081BD20BD0FB6F894FA9AF99A0FBE01964A
:104F700008950F931F93CF93DF93869F8001879FA0
:104F8000100D969F100D1124C8010E94D527EC0129
:104F9000009729F0A80160E070E00E94FC28CE0193
:104FA000DF91CF911F910F910895CF93DF938230BE
:104FB000910510F482E090E0E0917705F09178059A
:104FC00020E030E0A0E0B0E0309739F1408151813D
:104FD00048175907B8F04817590771F4828193812F
:104FE000109729F013969C938E9312972CC0909350
:104FF00078058093770527C02115310531F04217D8
:10500000530718F0A901DB0101C0EF019A01BD01AE
:10501000DF010280F381E02DD7CF21153105F9F0B2
:10502000281B390B2430310580F48A819B8161155E
:10503000710521F0FB019383828304C0909378056E
:1050400080937705FE01329644C0FE01E20FF31F04
:105050008193919322503109398328833AC020915A
:10506000750530917605232B41F420910202309191
:10507000030230937605209375052091000230914C
:1050800001022115310541F42DB73EB740910402CC
:1050900050910502241B350BE0917505F0917605C2
:1050A000E217F307A0F42E1B3F0B2817390778F0FF
:1050B000AC014E5F5F4F2417350748F04E0F5F1F5E
:1050C00050937605409375058193919302C0E0E07B
:1050D000F0E0CF01DF91CF910895CF93DF93009758
:1050E00009F487C0FC01329713821282C0917705C0
:1050F000D0917805209781F420813181280F391FC4
:1051000080917505909176058217930779F5F09354
:105110007605E09375056DC0DE0120E030E0AE1746
:10512000BF0750F412964D915C9113979D01411564
:10513000510509F1DA01F3CFB383A2834081518194
:10514000840F951F8A179B0771F48D919C9111977D
:10515000840F951F02969183808312968D919C9166
:105160001397938382832115310529F4F0937805F1
:10517000E09377053EC0D9011396FC93EE93129706
:105180004D915D91A40FB51FEA17FB0779F480815B
:105190009181840F951F0296D90111969C938E934D
:1051A0008281938113969C938E931297E0E0F0E0B6
:1051B0008A819B81009719F0FE01EC01F9CFCE01A5
:1051C000029628813981820F931F209175053091B5
:1051D00076052817390769F4309729F41092780575
:1051E0001092770502C013821282D0937605C09385
:1051F0007505DF91CF910895DC0101C06D93415099
:0A5200005040E0F70895F894FFCF46
:10520A000000790520003D352D251D150D053D357C
:10521A002D251D150D052E261E160E06FFFF0C0444
:10522A003C342C241C140C043B332B231B130B3B44
:10523A00332B231B130B03FFFFFFFFFFFFFFFF3976
:10524A003129211911090119110901FFFFFFFFFF76
:10525A00FFFFFFFFFFFFFF4D79206E6F6465277325
:10526A0020616464726573732069732025640D0A72
:10527A00005461736B31205049443D25640D0A0086
:10528A005374617274696E672075702E2E2E0D002C
:10529A0072665F72785F7061636B65745F6E6F6E62
:1052AA00626C6F636B206661696C65645D0D0050AA
:1052BA0061636B657420697320646F6E6520626F29
:1052CA00756E63696E672061726F756E64210D0A6F
:1052DA00005345513A2534750954544C3A253264E1
:1052EA0009525353493A253464095061796C6F6104
:1052FA00643A205B25735D0D0A00525820656E647E
:10530A00206661696C656420636865636B73756D9B
:10531A00210D002564006375723A2025642000631C
:10532A00616E617279203D202578200073746B20AC
:10533A003D20257820007463622061646472203DF8
:10534A002025780D0A0025643A20626F74746F6D07
:08535A00203D20257820000011
:00000001FF
