:100000000C94D1020C9401270C9433270C9465278F
:100010000C94F0020C94F0020C94F0020C94F00298
:100020000C94F0020C94CF260C94F0020C94F00285
:100030000C94F0020C942E250C94F0020C942E25B6
:100040000C94F0020C94F0020C94F0020C94F00268
:100050000C94F0020C94F0020C94F0020C94F00258
:100060000C94F0020C940E0E0C94F0020C94F0021E
:100070000C94F0020C94F0020C94F0020C94F00238
:100080000C9461250C94F0020C94F0020C94F00294
:100090000C94F0020C94F0020C94F0020C94F00218
:1000A0000C94F0020C94F0020C94F0020C94F00208
:1000B0000C94F0020C94F0020C94F0020C94F002F8
:1000C0000C94F0020C94F0020C94F0020C94F002E8
:1000D0000C94F0020C94F0020C94F0020C94F002D8
:1000E0000C94F0020C942A0C0C941B0C0C94EB0B4B
:1000F0000C94EA0C0C94DC0B0C94CD0B0C94BB0B05
:100100000C94AC0B0C94F0020C94F0020C94F002E2
:100110000C94F0020C94F0020C94F0020C94F00297
:10012000EC0EF70E020F0D0F180F230F2E0F4D0FB1
:10013000590F650F710F7D0F890F890FA70FA90F39
:10014000AB0FAD0FAF0FB10FB30FD10FF10F1110F8
:100150003110511071109110C710D310DF10EB1037
:10016000F71003110F11271132113D1148115311CE
:100170005E116911031509150C150F1512151515CA
:100180001B1518151E15211524152D1530153315A1
:1001900036152A150015061539153C152715FD14B9
:1001A000D215D515E015E515EC15F515F815FD1565
:1001B00004160D164F53207469636B2074696D65C6
:1001C0003A20004D61782077616B65757020746905
:1001D0006D653A20004E4F20504B540D0A004F4B96
:1001E0002020525353493A00525820737461747559
:1001F000733A20004E4F4E450D0A004F4B0D0A003A
:100200005458207374617475733A200053656C669A
:100210002054657374204379636C653A2000545808
:1002200020646F6E65207369676E616C2065727201
:100230006F720D0A004552524F52207365747469F3
:100240006E6720626D616320726174650D0A0046FD
:1002500061696C656420746F207265676973746589
:1002600072207369676E616C0D0A00424D41432034
:1002700054583A20576F6B65207570206F6E207749
:10028000726F6E67207369676E616C0D0A00424D74
:1002900041432054583A204572726F722063616C5A
:1002A0006C696E67206576656E7420776169740D80
:1002B0000A00424D4143204552524F523A20637248
:1002C000656174696E6720656E61626C6520736933
:1002D000676E616C206661696C65640D0A00424D51
:1002E0004143204552524F523A206372656174690E
:1002F0006E67207478207369676E616C206661692F
:100300006C65640D0A00424D4143204552524F52E4
:100310003A206372656174696E6720727820736930
:10032000676E616C206661696C65640D0A007561B9
:10033000727420727820736967206661696C6564E5
:100340000D0A00554E4B4F574E0045787465726E3E
:10035000616C2052657365740042726F776E204F36
:10036000757420446574656374004661696C6564E6
:1003700020746F206372656174652053656D6170D0
:10038000686F7265004661696C656420746F2063F4
:100390007265617465205369676E616C004B6572AC
:1003A0006E656C2066756E6374696F6E206E6F7417
:1003B00020696D706C656D656E746564004465766A
:1003C00069636520447269766572204572726F7246
:1003D000005761746368646F67205265737461725B
:1003E00074005357205761746368646F67205265C7
:1003F00073746172740054696D6572204F76657212
:10040000666C6F7700556E68616E646C6564204938
:100410006E7465727275707420566563746F7200C5
:100420004C6F7720566F6C74616765004578747205
:1004300061205461736B20737461727465642C2045
:100440006973206E726B5F6366672E68206F6B3F07
:100450000049646C65206F72204B65726E656C207C
:10046000537461636B204F766572666C6F770055CD
:100470006E6578706563746564205265737461722B
:1004800074004475706C69636174656420546173B1
:100490006B204944005363686564756C6572204D38
:1004A00069737365642057616B657570005461737F
:1004B0006B20526573657276652056696F6C617446
:1004C00065640052657365727665204572726F725D
:1004D00020696E205363686564756C657200496EAF
:1004E00076616C696420537461636B20506F696E30
:1004F000746572005461736B20537461636B204F99
:10050000766572666C6F7700537461636B207761F8
:1005100073206E6F7420646566696E656420617314
:10052000206C6172676520656E6F75676821005485
:1005300061736B20706572696F6420746F6F206CDB
:10054000617267652E20506572696F64206D7573E6
:1005500074206265206C657373207468616E203648
:1005600031207365636F6E64732E00293A20002A70
:100570004E524B204552524F5228000D0A535441BF
:10058000434B2044554D500D0A004546476566676C
:1005900000202B2D2E303132333435363738396840
:1005A000000011241FBECFEFD1E4DEBFCDBF13E0AA
:1005B000A0E0B2E0E8E5FCE500E00BBF02C0079078
:1005C0000D92A036B107D9F718E0A0E6B3E001C05C
:1005D0001D92A535B107E1F70E948C280C942A2EB4
:1005E0000C942425CF93DF9300D0CDB7DEB70E94C3
:1005F0007F1D1F928F938BE592E09F938F930E94B4
:10060000D12B89E10E947D0510923A040F900F9042
:100610000F900F9064E78CE096E00E946F0511E068
:100620000E94490582E090E00E94AE11BE016F5F1A
:100630007F4FCE0102960E94610610933A04898191
:100640008093670582E090E00E9497110E947F06E8
:10065000E7CF109268050E947F1D1F928F938CE652
:1006600092E09F938F930E94D12B0F900F900F9049
:100670000F900E94D306811103C00E94D21BF9CFB4
:100680000E940506C82F0E942918C12CD12C760182
:10069000C39404C0CC0CDD1CEE1CFF1CCA95D2F721
:1006A000412C512C32014394C114D104E104F104D2
:1006B00019F0412C512C320100E010E0A12CB12C9A
:1006C00022242A94322CC7E6D2E0C80199279F93AE
:1006D0008F93ADE7B2E0BF93AF93A4E8B6E0BF93CA
:1006E000AF930E94162C81E090E00E94AE11A4E826
:1006F000B6E00D900020E9F7BD0161507109645822
:10070000764084E896E00E94ED05C701B6010E949C
:10071000CF1864217521862197210F900F900F909B
:100720000F900F900F90672B682B692B29F08EE1AB
:1007300092E00E94880E03C0B1E0B093680581E0AA
:1007400090E00E9497110E94D21B8CE092E00E94E0
:10075000880E1F930F93DF93CF930E94D12B0F5FCF
:100760001F4F80E092E00E94880E0F900F900F9034
:100770000F9080916805813019F48BEF91E002C0F1
:1007800084EF91E00E94880E88EE91E00E94880E2E
:1007900080913A048130C9F480E090E00E94971182
:1007A0008EED91E00E94880E20916705822F992797
:1007B00087FD90959F932F93DF93CF930E94D12B2A
:1007C0000F900F900F900F9008C080E090E00E9473
:1007D000AE1185ED91E00E94880E10923A0483ECF0
:1007E00091E00E94880E1F921F92DF93CF930E9488
:1007F000D12B0E94D21B89E190E00E94BF240E946D
:10080000DB120E946E240E940D240F900F900F9017
:100810000F900E9421254097E4F30E9415244C017B
:1008200084E0969487948A95E1F78214930408F4FF
:100830001401A814B90408F4540184EB91E00E9457
:10084000880EBF92AF929F928F923F922F92AFE805
:10085000B2E0BF93AF930E94D12B0E94DD120E94A1
:10086000D21B8DB79EB708960FB6F8949EBF0FBEE9
:100870008DBF2BCFCF92DF92EF92FF92CF9382EF7B
:1008800092E09093FE068093FD0640E850E065E715
:1008900075E088EF96E00E94D92782E080930007F8
:1008A000C1E0C093FF06C0930107C0930207C12CAB
:1008B000D12C7601C394C0920307D0920407E09232
:1008C0000507F0920607109207071092080710928A
:1008D000090710920A07C0920B07D0920C07E0920A
:1008E0000D07F0920E0780E095E6ADECBDE1809338
:1008F0000F0790931007A0931107B093120710925F
:1009000013071092140710921507109216071092F1
:100910001707109218071092190710921A0788EFFC
:1009200096E00E94401B89E293E090932107809318
:10093000200740E850E067EE74E08BE197E00E940A
:10094000D92789E180932307C0932207C093240706
:10095000C0932507C0922607D0922707E092280768
:10096000F092290710922A0710922B0710922C0759
:1009700010922D0710922E0710922F071092300719
:1009800010923107109232071092330710923407F9
:1009900010923507109236071092370710923807D9
:1009A0001092390710923A0710923B0710923C07B9
:1009B00010923D078BE197E0CF91FF90EF90DF9091
:1009C000CF900C94401B0895643021F40E94450C94
:1009D00081E008958FEF08958FEF089580E090E013
:1009E00008950E94F90881E008950E94F30881E0CB
:1009F00008950E94ED0881E008950E94E70881E0D3
:100A000008950E94FF0881E008959093F605809371
:100A1000F50581E008950E94430C0895603121F4AA
:100A20000E94460C81E008958FEF089581E00895BB
:100A300081E00895803220F40E94DD0881E008956D
:100A40008FEF0895809369030895992787FD909506
:100A50000E94390C81E00895CF93DF931F92CDB7A8
:100A6000DEB78B3188F48093730389830E94C708B3
:100A700020E030E04FEF5FEF8981682F8FE397E050
:100A80000E941F0981E001C08FEF0F90DF91CF918D
:100A9000089580917603882301F180910B060E94CE
:100AA000291861E070E080E090E000900B0604C03F
:100AB000660F771F881F991F0A94D2F70E94CF18DC
:100AC00000900B0604C096958795779567950A94D4
:100AD000D2F760FD02C08FEF089581E0089500977E
:100AE00051F090934507809344076093430781E05A
:100AF0008093760308958FEF0895CF93DF93D82FD7
:100B0000109275038FEF80936803C1E0C09369036F
:100B1000109278031092790310927A0310927B035B
:100B200010926A0310926B0310926C0310926D0383
:100B300040E051EE65EF75E040936E0350936F0314
:100B400060937003709371030E94141780930B06D7
:100B50008F3F19F486E093E008C00E941417809339
:100B6000E5078F3F71F48EED92E00E94880EE091D0
:100B70008006F091810660858EE00E9462158FEFFD
:100B800029C00E941417809374058F3F19F482EBDB
:100B900092E0EBCF10927703109276031092450704
:100BA00010924407109243070E94C70820E030E0EB
:100BB0004FEF5FEF6D2F8FE397E00E941F09D093F7
:100BC000730380E090E00E94390CC0937503C093DA
:100BD000720381E0DF91CF91089520917703213056
:100BE00059F021E0209377039093F9058093F8055D
:100BF0006093F70581E008958FEF089580910B06CB
:100C00000E94291880910B0608958091E5070E94A3
:100C100029188091E5070895CF92DF92EF92FF9215
:100C2000CF93DF931F92CDB7DEB77C01809177031E
:100C30008130F1F18091E50769830E94291881E0F4
:100C400080937703F092F905E092F805698160934B
:100C5000F70561E070E080E090E00090E50704C0F7
:100C6000660F771F881F991F0A94D2F70E94CF182A
:100C70006B017C01611571058105910521F48EE8F8
:100C800092E00E94880E0090E50704C0F694E79475
:100C9000D794C7940A94D2F7C0FC04C08BE692E0C4
:100CA0000E94880E80917403882311F081E001C0B6
:100CB0008FEF0F90DF91CF91FF90EF90DF90CF906B
:100CC000089520917603222339F0FC011082FB0164
:100CD000108280E090E0089520914207FC0120837B
:100CE00080914707FB0180838091440790914507DD
:100CF000089581E090917603911180E0089581E05C
:100D0000809376030895109272030C94A10881E0F9
:100D1000809372030E94C708809174050C945A183E
:100D2000CF93DF93CDB7DEB728970FB6F894DEBF29
:100D30000FBECDBF29833A834B835C836D837E8353
:100D40008F83988749815A816B817C818D819E81B7
:100D5000AF81B885411551056105710541F48115D3
:100D60002DE2920721E3A20721E0B20790F0409321
:100D70006A0350936B0360936C0370936D038093CD
:100D80006E0390936F03A0937003B093710381E09F
:100D900001C08FEF28960FB6F894DEBF0FBECDBF0F
:100DA000DF91CF910895809175030895CF930E94AC
:100DB0008E090E94D80AC82F0E94D80AC80F0E9424
:100DC000D80AC80F0E9494098C2F1C160CF481E0DD
:100DD000CF9108950E948E091092600310926103D2
:100DE000109262031092630380E4682F809364037F
:100DF0008BE4809365038CE4809366031092670311
:100E000020E03091610340916203509163037BE4E1
:100E100090E00E94D31C0E94060B8130E9F0809183
:100E2000780390917903A0917A03B0917B038F3F6F
:100E30002FEF9207A105B10558F40196A11DB11D30
:100E40008093780390937903A0937A03B0937B0304
:100E50000E94940980E00895109276030E949409FC
:100E600081E008958091780390917903089510921C
:100E700078031092790310927A0310927B0381E039
:100E80000895823050F0883008F086E091E020E04C
:100E9000990F2F5F2817E0F302C081E00895892F92
:100EA0000895EF92FF920F931F93CF93DF9380915A
:100EB0006903882309F447C08AE693E00E94FD1E77
:100EC000EC010E94312B6AE070E00E94312ABC01E3
:100ED0006F5F7F4FCE010E941D2ACB010E947C1CB8
:100EE000FF24F394CAE0D0E00E94D606E82E81E009
:100EF000E81649F10E94312B8C018F2D0E94410789
:100F0000682F70E0C8010E94312A99270E940F1CA7
:100F1000F39486E08F1510F486E0F82E8AE693E0CD
:100F20000E94FD1E8C010E94312BBE010E94312ABD
:100F3000BC016F5F7F4FC8010E941D2ACB010E9438
:100F40007C1CEE2089F21092FA051092FB0520918C
:100F50006A0330916B0388EE93E0289FE001299F9C
:100F6000D00D389FD00D112460916E0370916F03E6
:100F7000809170039091710320E432E44FE050E0DF
:100F80000E94452AC20FD31F0E948E09BE0185EF21
:100F900095E00E949A09809374030E94940910922C
:100FA00077038091E5070E945A1881E0DF91CF9185
:100FB0001F910F91FF90EF9008958091750381111B
:100FC00003C00E94D21BF9CF809174050E9429189A
:100FD0008F3F21F48FE492E00E94880EC12CD12C27
:100FE0007601C3940E94C70880917203882369F137
:100FF00080917603813041F40E94D606811108C0A9
:101000000E94EA06813021F480910B060E945A1852
:1010100080917703813011F40E9451070E94940956
:101020000E94A10820916A0330916B0340916C03E8
:1010300050916D0360916E0370916F038091700306
:10104000909171030E94D31CCDCF809174050E94B2
:101050002918C701B6010090740504C0660F771FF8
:10106000881F991F0A94D2F70E94CF180090740528
:1010700004C096958795779567950A94D2F760FF97
:10108000E4CFB0CF6DED77E08CEF93E00E94D527F1
:1010900040E850E06CE773E08CEF93E00E94D927C2
:1010A00084E18093040481E0809303048093050429
:1010B0008093060410920704109208041092090409
:1010C00010920A0480E09DE2A1E3B1E080930B045A
:1010D00090930C04A0930D04B0930E0410920F048F
:1010E0001092100410921104109212041092130422
:1010F0001092140410921504109216041092170402
:10110000109218041092190410921A0410921B04E1
:1011100010921C0410921D0410921E048CEF93E098
:101120000C94401B909141019F719F31D9F38093A2
:101130004201089581E08093F10708951092F1072C
:101140000895809141018F718F31D9F380914101D0
:101150008F71E1F08F30D1F0809141018F71883033
:1011600031F4809139018260809339010BC088E0AD
:101170000E949208809141018F718830D9F7F1CF98
:101180008F3021F0809141018F71D1F708958091C6
:1011900041018F718F31D9F3809141018F7111F02D
:1011A0008F3051F4809139018D7F80933901809186
:1011B00041018F718830D9F70895E5E4F1E090811D
:1011C000907F908390818F70892B80830895E7E5CD
:1011D000F1E080818D7F80830895E7E5F1E08081F3
:1011E000826080830895EEE6F1E080818F7E8083C7
:1011F0000895EEE6F1E08081806180830895809318
:101200006001909361019093FB078093FA07089522
:101210009093F5078093F407E8E4F1E08081807E05
:1012200080838081682B608308959093220480934B
:10123000210408959093200480931F0408951F9320
:10124000CF93DF9370E27093440170EC709345018B
:1012500060626093480165EC6093490167EA6093BE
:101260004B0160E860934C01209360013093610171
:101270004093620150936301E6E4F1E0C081A081F4
:1012800060811081C295C695C77070E4C79FE00168
:1012900011241295169513701C2BA295A695A37078
:1012A00070E1A79FD00111241A2B62956695637097
:1012B000A4E06A9FB0011124162B10936D01608188
:1012C0007081729576957370706462956670672B05
:1012D00060936E0110926C016FEF60934E019093DA
:1012E000F5078093F4071092F6071092F7075093D2
:1012F000F9074093F8073093FB072093FA07109201
:10130000FC0781E0809316081092350810920508BA
:101310001092F107DF91CF911F91089586E10C940F
:10132000920886E10C94920888E00E94920810923C
:10133000350808953F924F925F926F927F928F92FD
:101340009F92AF92BF92CF92DF92EF92FF920F9354
:101350001F93CF93DF93EC013B018091160881111D
:1013600002C08FEF0FC19E818091F6078F5F80933F
:10137000F60780918101807E816090FB85F98F73F3
:1013800080648093810188E8809382018091F107D5
:10139000882361F08FEF809383018AEA9AEA909321
:1013A0008901809388018FEF9FEF10C08091F6072D
:1013B00080938301209161018091600190E0922BE4
:1013C0009093890180938801888199819093870106
:1013D00080938601209163018091620190E0922BBD
:1013E00090938501809384014A81552747FD50954C
:1013F0006B817C818AE891E00E944B2B8A81855F1A
:101400008093800180914101982F9F71392E8F70B8
:101410009FEF980F9230B0F39FE1391699F398EF50
:10142000930D923018F0863009F09BCF86E10E9430
:1014300092088D8181110AC089E00E9492088E81F4
:10144000882391F089E10E9492080EC080914801A2
:101450008068809348018091410187FFFCCF809193
:10146000410186FF7ECFE8CF6114710499F18DEFC1
:1014700097E00E94851D8091FD079091FE07A09145
:10148000FF07B09100088093170890931808A09365
:101490001908B0931A08D30120E432E44FE050E079
:1014A0000E94022A0091010810910208209103086D
:1014B00030910408600F711F821F931F60931B08F7
:1014C00070931C0880931D0890931E0887E198E094
:1014D0000E946F1E1092050882E00E949208412C23
:1014E000512C80910508811108C08FEF481A580AC5
:1014F00098EE49169DEF5906A1F76114710421F485
:101500008E8181112DC034C08DEF97E00E94851D22
:101510008090FD079090FE07A090FF07B090000814
:10152000C0900108D0900208E0900308F0900408F1
:1015300000911708109118082091190830911A0885
:1015400040911B0850911C0860911D0870911E0865
:1015500086E398E00E94E11D8F3F09F0BBCFD0CF1A
:101560008091420182958695877011F0CFEF06C079
:1015700088EE48168DEF5806C9F3C1E0832D0E940E
:1015800092088C2FDF91CF911F910F91FF90EF90D8
:10159000DF90CF90BF90AF909F908F907F906F9093
:1015A0005F904F903F90089560E070E00C949A092E
:1015B000CF93DF9380911608882321F18091410118
:1015C000C82FCF718F709FEF980F9230B8F3CF3143
:1015D000A9F3C83011F08630A9F486E10E94920880
:1015E000809148018068809348018091410187FF84
:1015F000FCCFD09141018C2F0E949208D6FB882706
:1016000080F901C08FEFDF91CF9108958091160886
:10161000882309F49FC080913508882309F498C075
:1016200080917B01E091F407F091F50790E002973B
:101630002481332727FD3095281739070CF48AC0F9
:10164000E091F407F091F507809182018083E091A9
:10165000F407F091F50780918701909188019283BA
:101660008183E091F407F091F50780917B018B5025
:101670008383A091F407B091F507E091F407F0910E
:10168000F50713969C91848189173CF0E091F4074B
:10169000F091F507838187FF0DC010923508809186
:1016A0004C018F7780934C0180914C01806880932E
:1016B0004C0150C0A091F407B091F507E091F407F8
:1016C000F091F50713964C91552747FD509569E821
:1016D00071E0858196810E944B2BE091F407F09197
:1016E000F5078091800185FB882780F98783E09149
:1016F000F407F091F507809147018087E091F407A6
:10170000F091F507809146018695869586958187AB
:10171000E091F407F091F507809147018287E0910D
:10172000F407F091F507A0917B01B0E0A058BE4FFF
:101730008C9183871092350880914C018F7780932C
:101740004C0180914C01806880934C0181E00895A8
:1017500080E008958FEF08951F920F920FB60F92B9
:1017600011248F9380E880934F018F910F900FBECB
:101770000F901F9018951F920F920FB60F92112481
:101780008F9381E08093050880E480934F018F91CF
:101790000F900FBE0F901F9018951F920F920FB6CB
:1017A0000F9211248F9380E280934F018F910F90BD
:1017B0000FBE0F901F9018951F920F920FB60F92A9
:1017C00011248F9380E180934F018F910F900FBE72
:1017D0000F901F9018951F920F920FB60F92112421
:1017E0000BB60F922F933F934F935F936F937F931B
:1017F0008F939F93AF93BF93EF93FF9384E0809376
:101800004F01E0912104F0912204309709F00995ED
:10181000FF91EF91BF91AF919F918F917F916F91C8
:101820005F914F913F912F910F900BBE0F900FBE84
:101830000F901F9018951F920F920FB60F921124C0
:101840008F9382E080934F018F910F900FBE0F9086
:101850001F9018951F920F920FB60F9211248F931D
:1018600081E080934F018F910F900FBE0F901F90DA
:101870001895E9E4F1E09081907F908390818F70DA
:10188000892B808308958FEF089508950895089512
:101890008FEF08958091EF079091F007089580E011
:1018A0000895089581E0089581E0089581E0089504
:1018B0000895089508950895089508950895089540
:1018C000E7E3F1E0808183608083989AA09A8DB1EC
:1018D000806E8DB98EB1806E8EB90895E7E3F1E028
:1018E000808183608083989AA0988DB1806E8DB935
:1018F0008EB1806E8EB90895CF92DF92EF92FF92F3
:101900000F931F93CF93DF93CDB7DEB727970FB613
:10191000F894DEBF0FBECDBF0E94DB12E091F4074A
:10192000F091F507C080D38005811681E0840E9484
:10193000060B18161CF08CE992E006C0F801F08046
:10194000F11007C08BEB92E00E94E92B0E94DD12A0
:1019500032C0F5E0FF1204C08AE090E00E94E32B61
:10196000C80101969F938F938E2D992787FD90959F
:101970009F93EF921F92FF921F92CF928DED92E074
:101980009F938F930E94D12B1D830C83FA94F801AF
:10199000F082DB821E821F828FEF9FEF9A83898302
:1019A0000E94DD12CE0101960E94D40A0FB6F8946F
:1019B000DEBF0FBECDBF27960FB6F894DEBF0FBEB9
:1019C000CDBFDF91CF911F910F91FF90EF90DF90EE
:1019D000CF9008951F920F920FB60F9211240BB65D
:1019E0000F922F933F934F935F936F937F938F93B8
:1019F0009F93AF93BF93EF93FF9380E090917B0110
:101A0000891710F48F5FFACF8091460187FF04C0D9
:101A100081E08093350804C086E093E00E94E92BC2
:101A200088E080934F018091460187FF05C0809137
:101A3000F10781110E947C0CE0911F04F0912004B9
:101A4000309709F00995FF91EF91BF91AF919F9168
:101A50008F917F916F915F914F913F912F910F9057
:101A60000BBE0F900FBE0F901F901895E6E0F8E0A8
:101A7000DC018C9181938D9180933F0188E0E63168
:101A8000F807B9F780E110923E018150E1F780E854
:101A900080933C0180913D0180FFFCCFEFE1F8E0B5
:101AA00080913F01819388E0EF32F807C9F70895EC
:101AB000CF93662309F447C0262F2F7009F043C047
:101AC000E6E0F8E0219120933F0128E0E631F207BB
:101AD000C9F7A0E070E0B0E220E1A29FA0011124CC
:101AE0004617570774F5A11103C010923C0102C0BC
:101AF000B0933C0120E030E0480F591FFA01E20F9B
:101B0000F31FE081E0933E012F5F3F4F203131050D
:101B1000A9F720913C01206820933C0120913D01D0
:101B200020FFFCCF20E030E0C0913E01FA01E20F3F
:101B3000F31FC0832F5F3F4F20313105A9F7AF5FFF
:101B4000CBCF80E001C081E0CF9108950F931F9328
:101B5000CF93DF93613009F44FC0262F2F7009F027
:101B60004BC0EFE1F8E0219120933F0128E0EF32F4
:101B7000F207C9F762956F70615008E06F3FD1F1CD
:101B800000933C0120E16202A001112420E030E03A
:101B9000FC01E40FF51FDF01A20FB31F7C917093CE
:101BA0003E012F5F3F4F20313105A9F720913C01C5
:101BB000206820933C0120913D0120FFFCCF405143
:101BC000510920E030E0480F591F10913E01DF011C
:101BD000A20FB31F1C93662331F0EA01C20FD31F7B
:101BE000788171277C932F5F3F4F2031310569F752
:101BF0006150C4CF80E001C081E0DF91CF911F919F
:101C00000F9108959091C00095FFFCCF9091C00076
:101C10009F7D9093C0008093C60008951F920F92FD
:101C20000FB60F9211240BB60F922F933F934F9341
:101C30005F936F937F938F939F93AF93BF93EF9334
:101C4000FF938091C1008F778093C1008091C00085
:101C500087FFFCCF8091C0008F778093C0002091D8
:101C6000C6008091340490913504FC01EC5DFB4F7B
:101C7000208301968031910529F09093350480935B
:101C8000340404C01092350410923404809123046B
:101C90000E945A188091C0008F778093C000809175
:101CA000C10080688093C100FF91EF91BF91AF9117
:101CB0009F918F917F916F915F914F913F912F9164
:101CC0000F900BBE0F900FBE0F901F9018958111B3
:101CD0000DC02091360430913704809134049091E6
:101CE00035042817390741F480E008958130E1F781
:101CF0008091C80087FFF8CF81E008958091230488
:101D00008F3F19F48EE00E945715809123040895A7
:101D1000CF93DF93FC012491EC012196222351F013
:101D200060914D0870914E08822F90E00E949F2B89
:101D3000CE01F0CFDF91CF910895209136043091FC
:101D4000370480913404909135042817390749F4F9
:101D500060912304772767FD7095872F972F0E9446
:101D6000CF186F3F21F48EE293E00E94880E2091FD
:101D7000360430913704F901EC5DFB4F80812F5F11
:101D80003F4F2031310528F4309337042093360437
:101D900008951092370410923604089586E084B9AD
:101DA00085B988EF8AB980EF8BB982E08DB9089543
:101DB0000C94CE0E8F3F09F45CC0482F477050E062
:101DC0004730510508F055C0FA01E057FF4F86959E
:101DD000869586950C94C62A92B121E030E0082EB3
:101DE00001C0220F0A94EAF7922B92B940C095B134
:101DF00021E030E0082E01C0220F0A94EAF7922B6E
:101E000095B935C098B121E030E0082E01C0220F0D
:101E10000A94EAF7922B98B92AC09BB121E030E0EE
:101E2000082E01C0220F0A94EAF7922B9BB91FC01B
:101E30009EB121E030E0082E01C0220F0A94EAF79B
:101E4000922B9EB914C091B321E030E0082E01C05E
:101E5000220F0A94EAF7922B91BB09C094B321E0B8
:101E600030E001C0220F8A95EAF7922B94BB81E003
:101E700008958FEF08958F3F09F457C0482F47709A
:101E800050E04730510508F050C0FA01E956FF4FC5
:101E90008695869586950C94C62A92B121E030E00D
:101EA000082E01C0220F0A94EAF72095292322B9AF
:101EB0003AC095B121E030E0082E01C0220F0A940B
:101EC000EAF72095292325B92EC098B121E030E00A
:101ED000082E01C0220F0A94EAF72095292328B979
:101EE00022C09BB121E030E0082E01C0220F0A94ED
:101EF000EAF7209529232BB916C09EB121E030E0E6
:101F0000082E01C0220F0A94EAF7209529232EB942
:101F10000AC091B321E030E001C0220F8A95EAF7B0
:101F20002095292321BB81E008958FEF08958F3FED
:101F300021F1482F477050E047305105F0F4FA0185
:101F4000E256FF4F8695869586950C94C62A20B159
:101F50000BC023B109C026B107C029B105C02CB1FF
:101F600003C02FB101C022B330E002C035952795E0
:101F70008A95E2F7822F817008958FEF08958F3F41
:101F800009F4EFC0482F477050E04730510508F082
:101F9000E8C0FA01EB55FF4F8695869586950C941F
:101FA000C62A20B130E0082E02C0359527950A9444
:101FB000E2F792B120FD0AC021E030E0082E01C016
:101FC000220F0A94EAF7922B92B91EC021E030E06A
:101FD000082E01C0220F0A94EAF72095292322B97E
:101FE00013C023B130E0082E02C0359527950A941E
:101FF000E2F795B120FD0AC021E030E001C0220FD8
:102000008A95EAF7922B95B981E0089521E030E0B6
:10201000082E01C0220F0A94EAF72095292325B93A
:10202000F3CF26B130E0082E02C0359527950A94EB
:10203000E2F798B120FD0AC021E030E0082E01C08F
:10204000220F0A94EAF7922B98B9DECF21E030E014
:10205000082E01C0220F0A94EAF72095292328B9F7
:10206000D3CF29B130E0082E02C0359527950A94C8
:10207000E2F79BB120FD0AC021E030E0082E01C04C
:10208000220F0A94EAF7922B9BB9BECF21E030E0F1
:10209000082E01C0220F0A94EAF7209529232BB9B4
:1020A000B3CF2CB130E0082E02C0359527950A94A5
:1020B000E2F79EB120FD0AC021E030E0082E01C009
:1020C000220F0A94EAF7922B9EB99ECF21E030E0CE
:1020D000082E01C0220F0A94EAF7209529232EB971
:1020E00093CF2FB130E0082E02C0359527950A9482
:1020F000E2F791B320FD0AC021E030E0082E01C0D4
:10210000220F0A94EAF7922B91BB7ECF21E030E0B8
:10211000082E01C0220F0A94EAF72095292321BB3B
:1021200073CF22B330E0082E02C0359527950A946C
:10213000E2F794B320FD0AC021E030E0082E01C090
:10214000220F0A94EAF7922B94BB5ECF21E030E095
:10215000082E01C0220F0A94EAF72095292324BBF8
:1021600053CF8FEF08958F3F09F4BEC0482F4770BB
:1021700050E0611160C04730510508F0B5C0FA0168
:10218000E455FF4F8695869586950C94C62A91B1A5
:1021900021E030E0082E01C0220F0A94EAF72095D2
:1021A000292321B99FC094B121E030E0082E01C05D
:1021B000220F0A94EAF72095292324B993C097B1F6
:1021C00021E030E0082E01C0220F0A94EAF72095A2
:1021D000292327B987C09AB121E030E0082E01C039
:1021E000220F0A94EAF7209529232AB97BC09DB1D2
:1021F00021E030E0082E01C0220F0A94EAF7209572
:1022000029232DB96FC090B321E030E0082E01C022
:10221000220F0A94EAF72095292320BB63C093B3C9
:1022200021E030E0082E01C0220F0A94EAF7209541
:10223000292323BB57C04730510508F055C0FA0188
:10224000ED54FF4F8695869586950C94C62A91B1DC
:1022500021E030E0082E01C0220F0A94EAF7922B09
:1022600091B940C094B121E030E0082E01C0220FA6
:102270000A94EAF7922B94B935C097B121E030E087
:10228000082E01C0220F0A94EAF7922B97B92AC0B0
:102290009AB121E030E0082E01C0220F0A94EAF73B
:1022A000922B9AB91FC09DB121E030E0082E01C0E9
:1022B000220F0A94EAF7922B9DB914C090B321E043
:1022C00030E0082E01C0220F0A94EAF7922B90BB4F
:1022D00009C093B321E030E001C0220F8A95EAF7EC
:1022E000922B93BB81E008958FEF0895811106C072
:1022F00080B18695817091E0892708958FEF0895C8
:10230000009711F483E20DC08130910511F48BE246
:1023100008C08230910511F483E303C0039729F4C8
:102320008BE30E94BF0F81E008958FEF089500971F
:1023300011F483E20DC08130910511F48BE208C0E5
:102340008230910511F483E303C0039729F48BE3F2
:102350000E94DA0E81E008958FEF0895009711F43E
:1023600083E20DC08130910511F48BE208C0823008
:10237000910511F483E303C0039729F48BE30E94D2
:102380003B0F81E008958FEF0895882319F085B7FA
:102390008F7E02C085B7806185BF81E008959091EE
:1023A000C80095FFFCCF8093CE0008959093C500A0
:1023B0008093C40086E08093C200E1ECF0E080816D
:1023C0008B7F8083A0ECB0E08C9182608C938081C5
:1023D0008861808308959093CD008093CC0086E03F
:1023E0008093CA00E9ECF0E080818B7F8083A8ECC9
:1023F000B0E08C9182608C938081886180830895A5
:102400000E94D6116DE97EE082E09EE00E94542B8E
:1024100090934E0880934D086DE97EE082E09EE047
:102420000E94542B90934C0880934B080E941417E1
:10243000809323048F3F19F48EE00E945715109269
:1024400037041092360410923504109234048091AF
:10245000C10080688093C10008958091C80087FF03
:10246000FCCF8091C8008F778093C8008091CE0008
:102470000895000000000000000001970097C9F7D0
:1024800008950C94A32C0E94AB2C0895EF92FF9218
:102490000F931F93CF93DF93EC0180E090E00E94B5
:1024A000A32CF82E8B8381E090E00E94A32CE82ED1
:1024B0008A8382E090E00E94A32C082F898383E026
:1024C00090E00E94A32C182F888384E090E00E9463
:1024D000A32C9E2D9F0D900F910F891302C081E0B8
:1024E00001C08FEFDF91CF911F910F91FF90EF907F
:1024F0000895CF93DF93EC0185E090E00E94A32C38
:10250000888381E0DF91CF910895FC01608186E0AE
:1025100090E00E94AB2C81E00895CF93DF93EC0113
:1025200086E090E00E94A32C888381E0DF91CF9128
:1025300008950F931F93CF93DF938C01C8E0D0E0F1
:10254000CE010E94A32CF80181938F012196C831FE
:10255000D105B1F781E0DF91CF911F910F910895DF
:102560000F931F93CF93DF938C01C8E0D0E0F80165
:1025700061918F01CE010E94AB2C2196C831D1050B
:10258000B1F781E0DF91CF911F910F910895CF9323
:10259000DF93EC0187E090E00E94A32C888381E028
:1025A000DF91CF910895FC01608187E090E00E9467
:1025B000AB2C81E00895F8940895789408950E94D2
:1025C000DB12FFCFCF93DF93CDB7DEB7A3970FB664
:1025D000F894DEBF0FBECDBF0E9414178093700524
:1025E0008F3F21F460E08EE00E9462150E949D25DD
:1025F00080FF04C060E086E00E94621510927305BF
:102600001092810610928006109272051092710548
:1026100010923E0710920A068FEF8093690580930F
:102620006B0580936A0580936C0580936E0580939B
:102630006D0593E690934504809343049093700452
:1026400080936E0490939B04809399049093C604A6
:102650008093C40421E537E03093500720934F075F
:102660008CE497E0909353078093520746E557E038
:1026700050935507409354073093580720935707BA
:102680002BE537E030935A072093590750935D07A5
:1026900040935C0740E657E050935F0740935E0726
:1026A000309362072093610710924E0710924D07F6
:1026B00010926407109263071092FD051092FC05BA
:1026C000909339048093380466EA70E2CE01019653
:1026D0000E94D52740E850E065E677E0CE010196FC
:1026E0000E94D92785E58093650719861C861D867B
:1026F0001E861F86188A198A1A8A1B8A1C8A1D8AB6
:102700001E8A1F8A188E198E1A8E1B8E1C8E1D8E85
:102710001E8E1F8E18A219A21AA21BA281E0888702
:1027200092E09A878B87CE0101960E94401BA39668
:102730000FB6F894DEBF0FBECDBFDF91CF910895E5
:10274000C3E4D4E0F12CD8808FEFD81221C0F394E9
:10275000AB9694E0F912F7CF0E943D1A9BE28902F2
:10276000F0011124E55CFB4F828580933E07F093D6
:102770008106E0938006F0937205E09371058093E3
:1027800073050E945D280E9447280E94612814C09A
:1027900003E414E0E12CFE1441F0F8018081D8122A
:1027A00004C06D2D85E00E946215E394055D1F4F06
:1027B000F4E0EF12F0CFCBCFFFCFAF92BF92CF922A
:1027C000DF92EF92FF920F931F93CF93DF931F92AD
:1027D000CDB7DEB75C016B017A01DC0119968C91F3
:1027E0001997823021F0809140088C9302C0F50146
:1027F000108280914008843020F060E087E00E94E1
:102800006215D50119968C91823029F0809140088B
:102810008F5F8093400880914008811103C081E060
:1028200080934008F50130812BE23203F00111243E
:10283000E55CFB4FD182C082D50118968C91189728
:1028400082873C913203F0011124E55CFB4F83E069
:1028500081873C913203F0011124E55CFB4F308706
:102860000C91020380011124055C1B4FF8011582B5
:10287000C5010B960E94F31FD80191966D937D932D
:102880008D939C939497F50183859485A585B68552
:1028900088339948A144B10528F0D5016C9186E1AF
:1028A0000E946215F5010081112707FD1095C501F1
:1028B0004B960E94F31F4BE2409FF001419FF00DA9
:1028C0001124E55CFB4F658B768B878B908FD50150
:1028D0002C91240360011124F601E55CFB4F6F018C
:1028E000058916892789308D81A192A1A3A1B4A160
:1028F000080F191F2A1F3B1F018F128F238F348F40
:10290000C501439649830E94F31FF60165A376A390
:1029100087A390A7D5012C9149812403F0011124AC
:10292000E55CFB4F85A196A1A7A1B0A5858F968FE9
:10293000A78FB0A381E090E092A781A7F382E28203
:1029400081E084870F90DF91CF911F910F91FF90CD
:10295000EF90DF90CF90BF90AF9008950C94CA2075
:1029600085E690E00895E0918006F09181068487E5
:102970000895E0918006F091810684850895209164
:102980004B07222341F0FB01208320916F05FC01BE
:10299000208381E0089580E0089580914B0788238B
:1029A00009F483C00E94DB128FE695E00E94880E36
:1029B00080916F051F928F938CE892E09F938F9385
:1029C0000E94D12B8BE695E00E94880E0F900F900D
:1029D0000F900F9080914B07883110F010924B07A9
:1029E00080914B0790E0FC013197E631F10508F04A
:1029F00046C0E654FF4F0C94C62A8FE295E041C0D2
:102A000088E095E03EC084EF94E03BC08EED94E01A
:102A100038C083EC94E035C08DEA94E032C085E99B
:102A200094E02FC082E894E02CC08FE694E029C0A7
:102A300081E594E026C08CE294E023C080E294E03B
:102A400020C085E094E01DC086EF93E01AC082EEBE
:102A500093E017C081ED93E014C08DEB93E011C0BB
:102A60008DE993E00EC085E893E00BC08AE693E021
:102A700008C089E593E005C08AE493E002C083E4DE
:102A800093E00E94880E60914D0870914E088DE091
:102A900090E00E949F2B60914D0870914E088AE053
:102AA00090E00E949F2B10924B0780E00895809346
:102AB0004B07E0918006F0918106808580936F0539
:102AC0000C94CD1480934B0760936F050C94CD1438
:102AD000CF93DF931F92CDB7DEB7198289818436F9
:102AE00040F480ED97E00E94D22389818F5F898333
:102AF000F5CF0F90DF91CF91089581E090E00E9493
:102B0000AE110E9468150E9468150E94681581E048
:102B100090E00E9497110C94681581E090E00E946B
:102B2000AE110E94681581E090E00E9497110C940C
:102B30006815FF920F931F93CF93DF9300D01F92DE
:102B4000CDB7DEB71F928F938CE892E09F938F935F
:102B50008E010F5F1F4F1F930F930E94162C0F9033
:102B60000F900F900F900F900F90F12CF8010190A3
:102B70000020E9F73197E01BF10B8F2D90E08E17C5
:102B80009F0708F05CC0F801E80FF91F808190E012
:102B9000FC01F097EA30F10508F049C0E053FF4F1F
:102BA0000C94C62A0E947D1502C00E948D150E94B9
:102BB0007D150E947D150E947D150E947D1537C0F0
:102BC0000E948D150E948D15F4CF0E948D150E94D4
:102BD0008D150E948D15EFCF0E948D150E948D15C9
:102BE0000E948D150E948D15E8CF0E948D1502C0A0
:102BF0000E947D150E948D1504C00E947D150E94C3
:102C00007D150E948D1506C00E947D150E947D15C0
:102C10000E947D150E948D1508C00E947D150E949E
:102C20007D150E947D150E947D150E948D150E94C4
:102C300068150E9468150E946815F39497CF0F904D
:102C40000F900F90DF91CF911F910F91FF900895FA
:102C50006F927F928F929F92AF92BF92CF92DF92AC
:102C6000EF92FF920F931F93CF93DF938BE795E043
:102C70000E94880EE0918006F09181062085822FC7
:102C8000992787FD90959F932F938FE193E09F93D2
:102C90008F930E94D12BE0918006F0918106C28132
:102CA000D381DF93CF9383E593E09F938F930E942B
:102CB000D12B88811F928F9388E293E09F938F930B
:102CC0000E94D12BE0918006F091810681818F9343
:102CD00080818F9385E393E09F938F930E94D12B04
:102CE000809181068F93809180068F938FE393E08C
:102CF0009F938F930E94D12BCBE3D4E0EDB7FEB727
:102D000074960FB6F894FEBF0FBEEDBF00E010E062
:102D10008FE4682E83E0782E98E2892E93E0992E36
:102D200025E3A22E23E0B22E3FE3C32E33E0D32EC1
:102D3000EA80FB80FF92EF921F930F937F926F9236
:102D40000E94D12BF70180811F928F939F928F92C7
:102D50000E94D12B89818F9388818F93BF92AF92EC
:102D60000E94D12BDF93CF93DF92CF920E94D12B81
:102D70000F5F1F4FAB96EDB7FEB772960FB6F89484
:102D8000FEBF0FBEEDBF0430110591F6DF91CF916C
:102D90001F910F91FF90EF90DF90CF90BF90AF9079
:102DA0009F908F907F906F900895CF93DF93E091E5
:102DB0008006F0918106C281D3818881853539F002
:102DC0000E94281681E00E94571585E58883E091CE
:102DD0008006F0918106808191818115924438F0BE
:102DE0000E94281682E1DF91CF910C945715DF9154
:102DF000CF9108952BE28202F0011124E55CFB4F94
:102E0000A281B3818C91853519F085E58C9308C03A
:102E1000808191818115924428F082E10E945715AA
:102E20008FEF089581E008950F931F930091060698
:102E300010910706209108063091090680E090E085
:102E4000B901A801082E04C0769567955795479556
:102E50000A94D2F740FD19C041E050E060E070E014
:102E6000082E04C0440F551F661F771F0A94D2F71F
:102E7000402B512B622B732B409306065093070671
:102E8000609308067093090605C00196803291058B
:102E9000B9F68FEF1F910F910895E0918006F091A0
:102EA000810665857685878590890895CF92DF9222
:102EB000EF92FF920F931F93CF93DF931F92CDB7A3
:102EC000DEB7C12CD12C7601C394082E04C0CC0CE3
:102ED000DD1CEE1CFF1C0A94D2F7409106065091AF
:102EE000070660910806709109064C215D216E214C
:102EF0007F21452B462B472B09F463C089830E9411
:102F0000DB12E4E4F4E0970186010095109520952A
:102F1000309593E08981DF0111974C914F3F49F142
:102F200044815581668177814C155D056E057F056D
:102F300041F41086118612861386DF0112971C92C7
:102F40009083448155816681778140235123622398
:102F500073234483558366837783408551856285D7
:102F600073854023512362237323408751876287EF
:102F70007387BB9644E0E03FF40769F64EEF5FEFDE
:102F80006FEF7FEF04C0440F551F661F771F8A95B0
:102F9000D2F78091060690910706A0910806B0919D
:102FA000090684239523A623B723809306069093CE
:102FB0000706A0930806B09309060E94DD1281E07F
:102FC00001C08FEF0F90DF91CF911F910F91FF9074
:102FD000EF90DF90CF9008950F931F9341E050E062
:102FE00060E070E004C0440F551F661F771F8A958C
:102FF000D2F7E0918006F091810685859685A785B8
:10300000B0898A019B01082319232A233B23012B22
:10301000022B032BD1F04095509560957095842339
:103020009523A623B72385879687A787B08B8189A9
:103030009289A389B48984239523A623B723818BFE
:10304000928BA38BB48B81E001C08FEF1F910F9106
:103050000895409106065091070660910806709108
:103060000906082E04C076956795579547950A94EA
:10307000D2F740FF1DC0E0918006F091810641E04B
:1030800050E060E070E004C0440F551F661F771FDA
:103090008A95D2F785859685A785B089842B952B4F
:1030A000A62BB72B85879687A787B08B81E00895DD
:1030B0008FEF0895CF92DF92EF92FF921F93CF93FD
:1030C000DF93C12CD12C7601C39404C0CC0CDD1C41
:1030D000EE1CFF1C8A95D2F7809106069091070698
:1030E000A0910806B09109068C219D21AE21BF2137
:1030F000892B8A2B8B2B11F481E044C00E94DB12B8
:10310000E2E4F4E0C4E4D4E010E023E08081813024
:10311000B9F482859385A485B5858C219D21AE2146
:10312000BF21892B8A2B8B2B59F028831686178673
:10313000108A118A1082C286D386E486F58611E051
:1031400080818230A1F482859385A485B5858C1514
:103150009D05AE05BF0559F4288316861786108A8B
:10316000118A1082128613861486158611E0BB968A
:10317000AB9684E0EE3EF80749F60E94DD1211118D
:1031800005C082E00E94B3148FEF01C081E0DF919F
:10319000CF911F91FF90EF90DF90CF9008950F9304
:1031A0001F93E0918006F09181060585168527859D
:1031B00030890623172328233923012B022B032BC5
:1031C00019F1618B728B838B948B21E02783DC0157
:1031D000CB010090700504C0B695A795979587958B
:1031E0000A94D2F780FF03C00E94AC1C04C080E0A8
:1031F00090E00E947C1CE0918006F091810661893C
:1032000072898389948903C060E070E0CB011F91CB
:103210000F91089590910A0691111DC09091690532
:103220009F3F31F090916C059F3F21F421E003C056
:1032300020E001C022E030E0F901EE0FFF1FE20FB5
:10324000F31FE759FA4F82838083618381E0809383
:103250000A06CF01089580E090E0089525E08936C0
:10326000920729F08C56954021F481E0089580E082
:1032700008958FEF08950E942E198F3F11F481E079
:1032800002C0823021F40E94B3148FEF0895992771
:1032900087FD9095FC01EE0FFF1FE80FF91FE7591E
:1032A000FA4F82810895EF92FF920F931F93CF936D
:1032B000DF931F92CDB7DEB70E942E198F3F11F416
:1032C00081E002C0823021F40E94B3148FEF40C02D
:1032D00089830E94DB128981E82EFF24E7FCF094A9
:1032E0008701000F111FD801AE0DBF1DA759BA4F9E
:1032F00012969C91911116C0E0918006F091810682
:10330000978192609783992787FD9095A92FB92F70
:10331000818B928BA38BB48B0E94DD1280E090E0B6
:103320000E947C1CF801EE0DFF1DE759FA4F8281C7
:1033300081508283A0918006B091810681811B9685
:103340008C931B9781E014968C930E94DD1281E090
:103350000F90DF91CF911F910F91FF90EF90089503
:10336000CF92DF92EF92FF920F931F93CF93DF9351
:103370001F92CDB7DEB70E942E198F3F11F481E066
:1033800002C0823021F40E94B3148FEF4BC0282F6B
:10339000332727FD30958901000F111F020F131FDE
:1033A00007591A4FD80112962C9112979C91291700
:1033B000C4F589830E94DB12F80192819F5F92839A
:1033C000E0918006F09181061482E2E4F4E004E4E6
:1033D00014E08981C82EDD24C7FCD094ED2CFD2C8F
:1033E00023E030813230A1F44285538564857585B0
:1033F0004C155D056E057F0559F4D8012C93168692
:103400001786108A118A10821286138614861586F2
:10341000BB96055D1F4FB4E0EE3EFB0711F70E941F
:10342000DD1281E00F90DF91CF911F910F91FF90FE
:10343000EF90DF90CF9008950E942E198F3F11F4E6
:1034400081E002C0823021F40E94B3148FEF08950E
:10345000992787FD9095FC01EE0FFF1FE80FF91FDC
:10346000E759FA4F8FEF80838283818380910A0628
:10347000815080930A0681E00895E091FC05F09167
:10348000FD0580810895E091FC05F091FD053097E0
:1034900021F00380F481E02DFACF0895CF92DF92DE
:1034A000EF92FF920F931F93CF93DF93E091380435
:1034B000F0913904309709F48AC04091FC0550918D
:1034C000FD054115510509F446C0DA019BE2692F5B
:1034D000782F760390011124255C3B4F8901065F0C
:1034E0001F4F7901C4E0EC0EF11C255F3F4F6C913A
:1034F00070E0969FE001979FD00D1124C55CDB4FD3
:10350000DC80DD2029F0DB84E801C880DC1428F1B0
:10351000E701D880DD2061F0969FE001979FD00DF4
:103520001124C55CDB4FDA84E901C880DC14A8F003
:10353000969FE001979FD00D1124C55CDB4F7A85E3
:10354000E8016881761748F013960D90BC91A02D84
:10355000109769F602C0A0E0B0E08083C381D481F7
:10356000D0933904C0933804A417B507B1F4109769
:1035700049F0B483A383128211821296FC93EE93D6
:10358000119706C01482138212821182FA83E98392
:10359000F093FD05E093FC051AC011968D919C9166
:1035A0001297AC17BD0759F092838183B483A3832C
:1035B0001196CD91DC911297FC83EB8304C01482A9
:1035C0001382928381831296FC93EE931197DF917D
:1035D000CF911F910F91FF90EF90DF90CF900895C2
:1035E000CF93DF93E091FC05F091FD05309709F44E
:1035F00044C0992787FD9095208130E0281739072E
:1036000081F4A381B481B093FD05A093FC051296CB
:103610001C921E92119718C00380F481E02D309700
:1036200061F1208130E028173907B1F7C181D281DB
:10363000838194819C838B83A381B481109721F033
:103640001296DC93CE931197A0913804B09139046F
:10365000109739F4F0933904E093380414821382FC
:103660000AC0B483A3831296FC93EE931197F09350
:103670003904E093380412821182DF91CF910895CA
:10368000EF92FF920F931F93CF93DF93EC014B8147
:103690005C8169817A818D819E810E94F8272F81CA
:1036A000222371F04B815C81E12CF12C00E010E0D1
:1036B00020E030E0BC01CE010E94DD131F820CC06F
:1036C000E8812BE2E202F0011124E55CFB4F218549
:1036D0002330B9F491838083E8818BE2E802F00122
:1036E0001124E55CFB4F458956896789708D452B10
:1036F000462B472B41F482E0818788810E944E1A35
:1037000002C08FEF01C081E0DF91CF911F910F9137
:10371000FF90EF9008951F93CF93DF93CDB7DEB75F
:1037200028970FB6F894DEBF0FBECDBF29833A832A
:103730004B835C836D837E838F8398870E94DB122B
:103740000E942125182FCE0101960E94F31F63309D
:10375000710598F0E0918006F0918106212F30E00C
:10376000260F371FC901A0E0B0E0858B968BA78B91
:10377000B08F0E94DD1281E001C08FEF28960FB656
:10378000F894DEBF0FBECDBFDF91CF911F9108959A
:103790000E94CA27E0918006F091810685818111FF
:1037A000F7CF0895CF930E94D5160E94DB12E091C7
:1037B0008006F091810681E090E092A781A781E0E8
:1037C00085830E942125C82F883F88F40E94BB244E
:1037D0002C2F30E02F5F3F4F482F50E02417350744
:1037E00034F482E08C0F8093EA070E94BF240E9489
:1037F000DD120E94C81B81E0CF910895E091800600
:10380000F091810680850E94F01AE0918006F09187
:10381000810684E081870E94D21B81E00895CF93C6
:10382000DF93EC010E94D516209711F4C1E0D0E09F
:103830000E94DB12E0918006F091810681E0858391
:10384000D2A7C1A70E942125C82F883F88F40E94D3
:10385000BB242C2F30E02F5F3F4F482F50E0241720
:10386000350734F482E08C0F8093EA070E94BF246E
:103870000E94DD120E94C81B81E0DF91CF91089564
:10388000FF920F931F93CF93DF938C010E94DB1263
:10389000E0918006F091810681E085830E942125D8
:1038A000F82EE0918006F0918106C82FD0E0AE019D
:1038B000400F511F60E070E0458B568B678B708F17
:1038C00087EF8F1570F00E94BB242196282F30E0DF
:1038D000C217D30734F482E08F0D8093EA070E9469
:1038E000BF240E94DD120E94C81B81E0DF91CF91AE
:1038F0001F910F91FF900895CF93DF93EC010E94E9
:10390000DB12E0918006F091810621E02583CE0153
:10391000A0E0B0E0858B968BA78BB08F0E9421250D
:10392000C82F883F88F40E94BB242C2F30E02F5FE3
:103930003F4F482F50E02417350734F482E08C0FB6
:103940008093EA070E94BF240E94DD120E94C81BD8
:1039500081E0DF91CF910895CF930E94DB12E09137
:103960008006F091810681E0858386830E9421256F
:10397000C82F883F88F40E94BB242C2F30E02F5F93
:103980003F4F482F50E02417350734F482E08C0F66
:103990008093EA070E94BF240E94DD120E94C81B88
:1039A00081E0CF9108951F93CF93DF93CDB7DEB71A
:1039B00028970FB6F894DEBF0FBECDBF29833A8398
:1039C0004B835C836D837E838F8398870E94D5169B
:1039D0000E94DB12E0918006F091810681E08583F0
:1039E00081E090E092A781A70E942125182FCE01A7
:1039F00001960E94F31FE0918006F0918106610F0D
:103A0000711D811D911D658B768B878B908F183F63
:103A100088F40E94BB24212F30E02F5F3F4F482FB6
:103A200050E02417350734F482E0810F8093EA07D1
:103A30000E94BF240E94DD120E94C81B81E02896CC
:103A40000FB6F894DEBF0FBECDBFDF91CF911F91AF
:103A500008958F929F92AF92BF92CF92DF92EF9292
:103A6000FF920F931F93CF93DF93CDB7DEB760978D
:103A70000FB6F894DEBF0FBECDBF29873A874B87BC
:103A80005C876D877E878F87988BCE0101960E9419
:103A9000851D89809A80AB80BC80CD80DE80EF80E0
:103AA000F88409851A852B853C854D855E856F8553
:103AB0007889CE0109960E94E11D8F3F61F029852A
:103AC0003A854B855C856D857E858F8598890E94BA
:103AD000D31C81E001C08FEF60960FB6F894DEBF73
:103AE0000FBECDBFDF91CF911F910F91FF90EF904F
:103AF000DF90CF90BF90AF909F908F900895E0910E
:103B00008006F091810680850895CF92DF92EF9232
:103B1000FF92CF93DF93EC011C821D821E821F82D5
:103B20004091FE055091FF056091000670910106DD
:103B3000488359836A837B83C0900206D090030632
:103B4000E0900406F0900506CC82DD82EE82FF82D2
:103B50000E942125A82FB0E023EB36EE4EE050E086
:103B60000E94022A6C0D7D1D8E1D9F1D6C837D831E
:103B70008E839F834C815D816E817F8141158AECAC
:103B800058078AE968078BE37807A0F05A5C6A490E
:103B90007B434C835D836E837F83488159816A8137
:103BA0007B814F5F5F4F6F4F7F4F488359836A839D
:103BB0007B83E0CFDF91CF91FF90EF90DF90CF90AC
:103BC00008958F929F92AF92BF92CF92DF92EF9221
:103BD000FF920F931F93CF93DF93CDB7DEB760971C
:103BE0000FB6F894DEBF0FBECDBFFC0109831A8368
:103BF0002B833C834D835E836F83788789869A8687
:103C0000AB86BC86CD86DE86EF86F88A89809A8070
:103C1000AB80BC800D811E812F813885C984DA84F8
:103C2000EB84FC844D855E856F8578898C149D04BA
:103C3000AE04BF0408F43FC0C814D904EA04FB046E
:103C400091F40417150726073707A8F1041B150B75
:103C5000260B370B0483158326833783108211824A
:103C60001282138226C0041715072607370788F427
:103C700081E0881A9108A108B1088C189D08AE0847
:103C8000BF0880829182A282B38216532546344CAB
:103C900008C08C189D08AE08BF0880829182A2825D
:103CA000B382041B150B260B370B04831583268365
:103CB000378381E001C08FEF60960FB6F894DEBFC6
:103CC0000FBECDBFDF91CF911F910F91FF90EF906D
:103CD000DF90CF90BF90AF909F908F900895FC01A0
:103CE000448155816681778141158AEC58078AE9BC
:103CF00068078BE37807A0F05A5C6A497B434483EA
:103D000055836683778340815181628173814F5FE0
:103D10005F4F6F4F7F4F4083518362837383E0CF48
:103D200008958F929F92AF92BF92CF92DF92EF92BF
:103D3000FF920F931F93CF93DF93CDB7DEB76097BA
:103D40000FB6F894DEBF0FBECDBF09831A832B8355
:103D50003C834D835E836F83788789869A86AB86A2
:103D6000BC86CD86DE86EF86F88A49855A856B85C6
:103D70007C8509811A812B813C81400F511F621F74
:103D8000731FFC0140835183628373834D855E857D
:103D90006F8578890D811E812F813885400F511FD5
:103DA000621F731F44835583668377830E946F1E4F
:103DB00081E060960FB6F894DEBF0FBECDBFDF91F5
:103DC000CF911F910F91FF90EF90DF90CF90BF9018
:103DD000AF909F908F9008956093FE057093FF05BC
:103DE0008093000690930106209302063093030609
:103DF000409304065093050608952F923F924F92E8
:103E00005F926F927F928F929F92AF92BF92CF926A
:103E1000DF92EF92FF920F931F93CF93DF93CDB773
:103E2000DEB762970FB6F894DEBF0FBECDBFDC01E0
:103E30004D905D906D907C90139714966D917D914F
:103E40008D919C911797411451046104710409F4F8
:103E50006CC0B2E44B1651046104710408F06DC0EB
:103E60007B018C0120E030E0A9016983FA820B8399
:103E70001C832D833E834F835887A0E0B0E0198ACE
:103E80001A8A312C812CF0E0E0E0912C9D014989C7
:103E90005A89632D782D8F2F9E2FA980BA80CB80D1
:103EA000DC80ED80FE800F8118850E94CC2A222EB6
:103EB00039874A875B876C877D878E879F879D01BF
:103EC00049895A89632D782D8F2F9E2F3653454669
:103ED000544C6F4F7F4F8F4F9F4FD901498B5A8B57
:103EE000362E872EF82FE92F492D50E060E070E044
:103EF000441555056605770510F49394C7CF83EBF9
:103F0000A82E96EEB92E2EE0C22ED12CE12CF12C4B
:103F100000E010E0222D39854A855B856C857D8522
:103F20008E859F850E94692A06C023EB36EE4EE0FF
:103F300050E00E94452AC90102C080E090E06296EC
:103F40000FB6F894DEBF0FBECDBFDF91CF911F91AA
:103F50000F91FF90EF90DF90CF90BF90AF909F9028
:103F60008F907F906F905F904F903F902F9008952B
:103F7000CF92DF92EF92FF92CF93DF93CDB7DEB770
:103F800028970FB6F894DEBF0FBECDBF6B017C0142
:103F90003AE0F694E794D794C7943A95D1F7C9825A
:103FA000DA82EB82FC829B01AC01337044275527F7
:103FB00063EB76EE8EE090E00E940D2A6D837E83A7
:103FC0008F8398872C2D3A814B815C8128960FB680
:103FD000F894DEBF0FBECDBFDF91CF91FF90EF9081
:103FE000DF90CF9008952F923F924F925F926F9201
:103FF0007F928F929F92AF92BF92CF92DF92EF9279
:10400000FF920F931F93CF93DF93CDB7DEB76297E5
:104010000FB6F894DEBF0FBECDBFDC014D905D90B2
:104020006D907C90139714966D917D918D919C91DC
:104030001797411451046104710409F466C07B01AF
:104040008C0120E030E0A9016983FA820B831C8394
:104050002D833E834F835887A0E0B0E0198A1A8AE7
:10406000312C812CF0E0E0E0912C9D0149895A89A6
:10407000632D782D8F2F9E2FA980BA80CB80DC8076
:10408000ED80FE800F8118850E94CC2A222E398770
:104090004A875B876C877D878E879F879D014989CB
:1040A0005A89632D782D8F2F9E2F36534546544CB9
:1040B0006F4F7F4F8F4F9F4FD901498B5A8B362EB1
:1040C000872EF82FE92F492D50E060E070E044156D
:1040D00055056605770510F49394C7CF43EBA42EDE
:1040E00056EEB52E6EE0C62ED12CE12CF12C00E060
:1040F00010E0222D39854A855B856C857D858E850E
:104100009F850E94692ACA0107C023EB36EE4EE064
:1041100050E00E94452ACA01B90162960FB6F89490
:10412000DEBF0FBECDBFDF91CF911F910F91FF90EA
:10413000EF90DF90CF90BF90AF909F908F907F9047
:104140006F905F904F903F902F900895C2E0D1E024
:104150000E94D5160E94BB24843028F4D0934108D5
:104160000E94CA2708C08AE090E00E94D223C09330
:1041700041080E94BE2780916507853519F088E0C7
:104180000E94571580917E41853511F388E00E9489
:104190005715DECF2F923F924F925F926F927F9290
:1041A0008F929F92AF92BF92CF92DF92EF92FF9247
:1041B0000F931F93CF93DF93CDB7DEB729970FB639
:1041C000F894DEBF0FBECDBF0E94EF230E94DB122A
:1041D0000E940D240E9415249F838E838AEF0E94E3
:1041E000BF24A091EA07B0E023EB36EE4EE050E0AA
:1041F0000E94022A6B017C018091020690910306C5
:10420000A0910406B0910506C80ED91EEA1EFB1E39
:10421000C701B6010E94452A0091FE051091FF05D5
:104220002091000630910106C61AD70AE80AF90A59
:1042300063EB462E66EE562E6EE0662E712C48011C
:1042400059018FEF881A980AA80AB80AC1149AEC83
:10425000D9069AE9E9069BE3F90698F02AECD21A06
:104260002AE9E20A2BE3F20AC701B601A30192018F
:104270000E94452AC61AD70AE80AF90A950184015C
:10428000DECF0093FE051093FF05209300063093C8
:104290000106C0920206D0920306E0920406F09254
:1042A0000506E0918006F09181068581882339F129
:1042B0008185843021F18781823029F0882341F083
:1042C0008681811102C085E001C083E0818714C02E
:1042D00083E081871782168285899689A789B08DA8
:1042E000892B8A2B8B2B41F4818D928DA38DB48DDC
:1042F000858B968BA78BB08F80850E94F01AE091FA
:104300008006F091810685A196A1A7A1B0A5892B71
:104310008A2B8B2B09F444C02085222309F440C04A
:1043200081858430E9F1458D568D678D70A180912E
:10433000EA0790E0A0E0B0E0481759076A077B075A
:1043400068F4622F82E00E946215E0918006F0918D
:104350008106158E168E178E10A208C0481B590BA9
:104360006A0B7B0B458F568F678F70A3E091800699
:10437000F09181061085458D568D678D70A1452B76
:10438000462B472B69F4612F83E00E946215E09170
:104390008006F091810683E08187812F0E94F01AC8
:1043A00003E414E034E4232E34E0332E40E5A42E5D
:1043B00044E0B42EA2E4B4E0BA83A983E1E4F4E0DB
:1043C000FC83EB8350E4852E54E0952E20E63AEEF4
:1043D000398728871D82D8018C918F3F09F42AC123
:1043E000F40110828C91882309F46AC0D1018C9168
:1043F000843009F465C0F501C080D180E280F3808B
:104400006091EA0770E080E090E0C616D706E80603
:10441000F90648F0C61AD70AE80AF90AC082D1821A
:10442000E282F38205C0F5011082118212821382AA
:10443000D8015196CD90DD90ED90FC905497C61622
:10444000D706E806F90650F0C61AD70AE80AF90AAC
:10445000F801C18AD28AE38AF48A21C0D801599628
:104460002D913D914D915C915C9762177307840784
:10447000950760F469017A01C61AD70AE80AF90AB1
:10448000F801C18AD28AE38AF48A09C00E94452AC7
:10449000D80151966D937D938D939C935497F80119
:1044A00081899289A389B489892B8A2B8B2B41F42A
:1044B000818D928DA38DB48D818B928BA38BB48BC8
:1044C000D1018C91833009F0B5C0F50180819181D3
:1044D000A281B381892B8A2B8B2B09F096C0A981ED
:1044E000BA818C918823B9F0EB81FC81808188238B
:1044F00091F081E090E0A0E0B0E00090700504C091
:10450000880F991FAA1FBB1F0A94D2F7F801818751
:104510009287A387B487A981BA811C92EB81FC8121
:104520001082D4011C92F50184899589D8015D9689
:104530004D915D916D917C919097F801458B568BD3
:10454000678B708F019729F5E2E0D101EC93F801B8
:1045500081899289A389B489F50180839183A2839B
:10456000B383F801818D928DA38DB48D892B8A2B15
:104570008B2B59F42AEFC22ED12CE12CF12CD50132
:10458000CD92DD92ED92FC9213978D810E944E1A8E
:104590003CC0D50154964D905C905597B1E04B1AB4
:1045A0005108612C712C618D728D838D948DA301C6
:1045B00092010E940D2AF5016083718382839383A7
:1045C000D8015996CD90DD90ED90FC905C97C70195
:1045D000B6010E940D2AF801618B728B838B948B3C
:1045E000CD28CE28CF2859F49AEFC92ED12CE12C12
:1045F000F12CD501CD92DD92ED92FC921397CC2453
:10460000C394D12CF501D58AC48AF50180819181AA
:10461000A281B3810097A105B10561F0C884D98456
:10462000A60160E070E084179507A607B70710F4AD
:10463000998788872D812F5F2D83055D1F4F3BE272
:10464000230E311C8BE2A80EB11CA981BA819B9666
:10465000BA83A983EB81FC81BB96FC83EB83FBE2ED
:104660008F0E911C243009F0B6CE0E943D1AF82E10
:104670002BE28202F0011124E55CFB4F82858093DE
:104680003E07F0937205E0937105FF2021F145A1EB
:1046900056A167A170A5452B462B472BB1F0458D40
:1046A000568D678D70A14A3F51056105710568F40B
:1046B000C884D984860120E030E0401751076207A2
:1046C000730748F55987488726C0288539852B3FC9
:1046D000310508F119C02885398524303105D8F015
:1046E000235031092A3F310550F439872887223079
:1046F000310588F4A2E0B0E0B987A8870CC028850E
:1047000039852D3F310519F0AAEFB0E0F5CF27EF3D
:1047100030E03987288780937305F0938106E09312
:10472000800638853093EA070E942125282F30E043
:104730002F5F3F4FC884D9842C153D0558F00E9447
:104740002125C82ED12C96012E5F3F4F398728870F
:104750002093EA07F1101092410888850E94BF2437
:104760006CED75E08E819F810E9427240E9456285F
:1047700029960FB6F894DEBF0FBECDBFDF91CF9163
:104780001F910F91FF90EF90DF90CF90BF90AF906F
:104790009F908F907F906F905F904F903F902F9061
:1047A0000C946128000000000000000000000000E0
:1047B00000000000000000000000000001970097CA
:1047C00089F7089510922101089589E080932101CD
:1047D0008DE89CE39093290180932801089510921D
:1047E0002501109224010895CF93DF9300D0CDB717
:1047F000DEB780912401909125019A838983898174
:104800009A810F900F90DF91CF91089510928100BF
:10481000089581E080938100089583B5816083BD10
:1048200010928500109284000895CF93DF9300D0FA
:10483000CDB7DEB780918400909185009A838983FB
:1048400089819A810F900F90DF91CF910895CF9237
:10485000DF92EF92FF92CF93DF93EC01CC0FDD1F3D
:10486000C9378FEFD80710F0C0E0D0E06B01E12C22
:10487000F12CCC0EDD1EE11CF11C81E0C816D10428
:10488000E806F10440F081E0E81AF1080E941524DE
:10489000C817D907D8F30E9415248C159D05D8F3A5
:1048A000DF91CF91FF90EF90DF90CF90089510921D
:1048B000B100E0E7F0E080818D7F808380818E7F92
:1048C000808308958093B2000895E0E7F0E080814E
:1048D0008360808383E08093B100089583B5826014
:1048E00083BD1092B2001092E8071092EA07089573
:1048F000CF93DF938EEF8093EA0780E28093B60038
:104900008091EA078093B30083E087BB92E09093A5
:10491000B0008093B10093B5926093BD87BB84BD16
:1049200083B5826083BD1092800081E08093810016
:10493000109285001092840083B5826083BD83B598
:10494000816083BD10922001C4E2D1E019821882F7
:1049500083B5826083BD83B5816083BD0E946E2470
:10496000198218820E9465240E94E5231092E807AC
:10497000DF91CF9108958091B3008F5F08958150AA
:104980008093B3000895811102C0109271008FEFDF
:104990000895811106C0109295001092940081E054
:1049A00008958FEF0895811105C080919400909132
:1049B0009500089580E090E00895811105C082E09F
:1049C0008093710081E008958FEF0895811135C0C3
:1049D000CB010197059710F46093E90710929000BE
:1049E00088E0809391005093990040939800309311
:1049F000E7072093E6078091E907813021F4809151
:104A00009100816011C0823021F480919100826018
:104A10000BC0833021F480919100836005C0843005
:104A200031F48091910084608093910008C08530BA
:104A300031F4809191008560F7CF8FEF089581E088
:104A400008958091B20008951F920F920FB60F92B1
:104A5000112460E08AE00E946215FFCF0F920FB62A
:104A60000F921F922F923F924F925F926F927F927E
:104A70008F929F92AF92BF92CF92DF92EF92FF926E
:104A80000F931F932F933F934F935F936F937F9356
:104A90008F939F93AF93BF93CF93DF93EF93FF9346
:104AA000A0918006B09181060DB60D920EB60D92C2
:104AB0001F92A0918206B09183061E90BEBFADBF2B
:104AC00008951F920F920FB60F9211240BB60F92FA
:104AD0002F933F934F935F936F937F938F939F9306
:104AE000AF93BF93EF93FF93E091E607F091E70751
:104AF000309711F0099504C060E08AE00E946215C9
:104B0000FF91EF91BF91AF919F918F917F916F91A5
:104B10005F914F913F912F910F900BBE0F900FBE61
:104B20000F901F9018951F920F920FB60F9211249D
:104B30000F900FBE0F901F90189504B603FC02C093
:104B400080E001C080E104B602FE06C094B79B7FFE
:104B500094BF04B600FE846004B601FE05C094B79D
:104B60009D7F94BF8260089581110CC004B600FE41
:104B700004C094B79E7F94BF01C081E09091B000C3
:104B8000911181E00895811102C0E89A39C0813005
:104B900011F4E99A0895823011F4EA9A31C0833011
:104BA00021F480916B00816029C0843021F48091D0
:104BB0006B00826023C0853021F480916B0084609B
:104BC0001DC0863021F480916B00886017C087304B
:104BD00021F480916B00806111C0883021F48091B4
:104BE0006B0080620BC0893021F480916B0080647F
:104BF00005C08A3039F480916B00806880936B0027
:104C000081E008958FEF0895811102C0E89839C0BE
:104C1000813011F4E9980895823011F4E99831C097
:104C2000833021F480916B008E7F29C0843021F481
:104C300080916B008D7F23C0853021F480916B00C3
:104C40008B7F1DC0863021F480916B00877F17C059
:104C5000873021F480916B008F7E11C0883021F461
:104C600080916B008F7D0BC0893021F480916B00A7
:104C70008F7B05C08A3039F480916B008F778093E9
:104C80006B0081E008958FEF0895811126C0509345
:104C9000460840934508611104C0809169008C7FEB
:104CA0003DC0613049F4809169008D7F8093690037
:104CB00080916900816032C0623049F4809169005E
:104CC000826080936900809169008E7F27C0633085
:104CD00039F580916900836021C0813049F5509396
:104CE000440840934308611104C080916900837FA8
:104CF00015C0613049F480916900877F8093690015
:104D00008091690084600AC0623061F4809169001A
:104D1000886080936900809169008B7F809369002F
:104D200081E008956330E1F7809169008C60F6CFEF
:104D3000823031F55093480840934708611104C010
:104D4000809169008F7CEACF613049F480916900DD
:104D50008F7D80936900809169008061DFCF623030
:104D600049F48091690080628093690080916900B4
:104D70008F7ED4CF6330A1F6809169008063CECF5F
:104D80008350883050F4809168008160809368007F
:104D900050934A0840934908C3CF8FEF08951F925C
:104DA0000F920FB60F9211240BB60F922F933F93D1
:104DB0004F935F936F937F938F939F93AF93BF9323
:104DC000EF93FF93E0914908F0914A08309711F072
:104DD000099504C060E08AE00E946215FF91EF919E
:104DE000BF91AF919F918F917F916F915F914F9103
:104DF0003F912F910F900BBE0F900FBE0F901F9001
:104E000018951F920F920FB60F9211240BB60F92A6
:104E10002F933F934F935F936F937F938F939F93C2
:104E2000AF93BF93EF93FF93E0914508F09146084D
:104E3000309711F0099504C060E08AE00E94621585
:104E4000FF91EF91BF91AF919F918F917F916F9162
:104E50005F914F913F912F910F900BBE0F900FBE1E
:104E60000F901F9018951F920F920FB60F9211245A
:104E70000BB60F922F933F934F935F936F937F9354
:104E80008F939F93AF93BF93EF93FF93E09143086A
:104E9000F0914408309711F0099504C060E08AE071
:104EA0000E946215FF91EF91BF91AF919F918F91F9
:104EB0007F916F915F914F913F912F910F900BBE1A
:104EC0000F900FBE0F901F9018951F920F920FB664
:104ED0000F9211240BB60F922F933F934F935F9332
:104EE0006F937F938F939F93AF93BF93EF93FF93B2
:104EF000E0914708F0914808309711F0099504C0F7
:104F000060E08AE00E946215FF91EF91BF91AF913E
:104F10009F918F917F916F915F914F913F912F91D1
:104F20000F900BBE0F900FBE0F901F9018950E9410
:104F3000DB12A89584B7877F84BFE0E6F0E080812C
:104F40008861808310820C94DD120E94DB12A89588
:104F500084B7877F84BFE0E6F0E08081886180834A
:104F60008DE080830C94DD1204B603FC02C081E066
:104F700008958FEF0895A8950895089583B7817FC8
:104F8000866083BF83B7816083BF889583B78E7F38
:104F900083BF089583B7817F83BF83B7816083BF59
:104FA000889583B78E7F83BF0895FC0176836583E0
:104FB0000895EF92FF920F931F93CF93DF93EC012D
:104FC0008B017A014032510518F481E10E94571596
:104FD000A70141505109400F511F5A8349831C8337
:104FE0000B83DF91CF911F910F91FF90EF90089568
:104FF00025E5FA012083FB0132979083FB0131976D
:105000008083FB01349711821082FB013697118255
:105010001082FB01389711821082FB013A971182AE
:105020001082FB013C9711821082FB013E97118296
:105030001082FB01709711821082FB01729711821E
:105040001082FB01749711821082FB017697118206
:105050001082FB01789711821082FB017A971182EE
:105060001082FB017C9711821082FB017E971182D6
:105070001082FB01B09711821082FB01B29711825E
:105080001082CB018497FC0111821082089585E57E
:1050900080937E41EEEFF1E4F0938306E093820685
:1050A0008EEA94E190838093FF4108958EEA94E123
:1050B0009093FE418093FF4108950E9478240C94C0
:1050C000DD12A0917105B0917205CD91CDBFDD913A
:1050D000DEBFFF91EF91DF91CF91BF91AF919F9193
:1050E0008F917F916F915F914F913F912F911F9180
:1050F0000F91FF90EF90DF90CF90BF90AF909F9077
:105100008F907F906F905F904F903F902F901F9067
:105110000F900FBE0F9018950E94D80E80E190E07E
:105120000E9400120E94E21280E090E00E9497111B
:1051300081E090E00E94971182E090E00E94971138
:1051400083E090E00E94971120E030E0A90160E048
:1051500070E0CB010E94EC1E0E9442080E943A04BB
:105160000E94A01380E090E008956F927F929F923A
:10517000AF92BF92CF92DF92EF92FF920F931F9365
:10518000CF93DF93CDB7DEB72C970FB6F894DEBF81
:105190000FBECDBF8C017B013A01FC011782168244
:1051A000838181FF19C1CE0101965C01F801D38092
:1051B000F701D3FC2591D3FE21917F01222309F42D
:1051C00007C1253249F4D3FC2591D3FE21917F01FB
:1051D000253211F0912C1BC0B801822F90E00E9463
:1051E0009F2B63013601E2CF222309F4F1C0622F25
:1051F00070E081E995E02C870E94402B2C85892B5B
:1052000049F0F701D3FC2591D3FE21917F0197FE50
:10521000EBCF0CC0233221F4F92DF0619F2EF1CF9A
:105220002C3639F4292D2068922EEBCF222309F455
:10523000CFC0622F70E08AE895E02C870E94402B57
:105240002C85892B41F06301F4E0CF0ED11CB8010D
:105250008FE390E012C0233641F0233789F02335E5
:1052600021F5F92DF1609F2E0BC0630122E0C20EE3
:10527000D11CB801F301808191810E949F2BB2CF94
:10528000630122E0C20ED11CF30160807180F30142
:1052900090FC859190FE81913F01882309F4A2CF73
:1052A000B80190E00E949F2BF2CF243611F02936EE
:1052B00039F5630197FE09C0F4E0CF0ED11CF3016C
:1052C00060817181828193810AC0F2E0CF0ED11C8E
:1052D000F30160817181882777FD8095982FF92DE2
:1052E000FF7E9F2E97FF09C09095809570956195E0
:1052F0007F4F8F4F9F4FF0649F2E2AE030E038C0E1
:105300002037A1F040F42835D1F02F3609F060C0E5
:1053100028E030E019C0253719F0283751F058C07F
:10532000292D2F7E922E2AE030E00EC0892D80613B
:10533000982E992D9462992E20E130E005C0E92D38
:10534000E4609E2E20E132E0630197FE09C0F4E0A4
:10535000CF0ED11CF301608171818281938108C0DD
:10536000F2E0CF0ED11CF3016081718180E090E00A
:10537000A5010E94452C782E7A1896FE05C0B8012A
:105380008DE290E00E949F2B94FE16C0FE01E70D77
:10539000F11D8081803381F0B80180E390E00E94AC
:1053A0009F2B92FE09C0292D2072822F90E0B80118
:1053B000885A9F4F0E949F2B7A94F501E70DF11DAB
:1053C0008081B80190E00E949F2B7110F5CF0ACF29
:1053D000F8018681978102C08FEF9FEF2C960FB660
:1053E000F894DEBF0FBECDBFDF91CF911F910F911B
:1053F000FF90EF90DF90CF90BF90AF909F907F9005
:105400006F9008950E94D52AA59F900DB49F900D8E
:10541000A49F800D911D11240895DB018F939F930C
:105420000E94022ABF91AF91A29F800D911DA39F60
:10543000900DB29F900D11240895AA1BBB1B51E142
:1054400007C0AA1FBB1FA617B70710F0A61BB70BF4
:10545000881F991F5A95A9F780959095BC01CD0199
:10546000089597FB072E16F4009407D077FD09D016
:105470000E941D2A07FC05D03EF4909581959F4F10
:105480000895709561957F4F0895A1E21A2EAA1B89
:10549000BB1BFD010DC0AA1FBB1FEE1FFF1FA217E4
:1054A000B307E407F50720F0A21BB30BE40BF50BE1
:1054B000661F771F881F991F1A9469F7609570956A
:1054C000809590959B01AC01BD01CF010895689432
:1054D00001C0E8948F929F92CF93DF930E94752A28
:1054E000DF91CF919F908F90089588249924F401A3
:1054F000E401B0E49F93AA279A158B049C04ED0560
:10550000FE05CF05D007A10798F4AD2FDC2FCF2FD4
:10551000FE2FE92D982C892E982F872F762F652F17
:10552000542F432F322F2227B85031F7BF9127C075
:105530001B2EBF91BB27220F331F441F551F661F11
:10554000771F881F991F881C991CEE1FFF1FCC1FF7
:10555000DD1FAA1FBB1F8A149B04EC05FD05CE05A9
:10556000DF05A007B10748F08A189B08EC09FD0980
:10557000CE09DF09A00BB10B21601A94E1F62EF4DD
:105580009401AF01BE01CD01000C0895EE0FFF1F85
:105590000590F491E02D09942A0D3B1D4C1D5D1DD5
:1055A0006E1D7F1D801F911F0895A29FB001B39FA4
:1055B000C001A39F700D811D1124911DB29F700D1C
:1055C000811D1124911D08958F929F92AF92BF92D9
:1055D000CF92DF92EF92FF92CF93DF93EC0168813D
:1055E00079818A819B81611571058105910521F47D
:1055F00064E279ED8BE597E02DE133EF41E050E097
:105600000E940B2E49015A019B01AC01A7EAB1E4AB
:105610000E94022A6B017C01ACEEB4EFA50194015B
:105620000E94062EC60ED71EE81EF91EF7FE06C003
:1056300081E0C81AD108E10880E8F80AC882D98256
:10564000EA82FB82C6019F77DF91CF91FF90EF90B6
:10565000DF90CF90BF90AF909F908F9008950C9463
:10566000E42A80E092E00C94E42AA0E0B0E0809389
:10567000000290930102A0930202B09303020895E6
:10568000FC010590061621F00020D9F7C00108950D
:105690003197CF010895FB01DC0102C001900D920A
:1056A00041505040D8F708950F931F93CF93DF9345
:1056B000EC018B01009731F46115710519F480E05C
:1056C00090E038C06EE070E081E090E00E94B92C7C
:1056D000FC010097A1F380E883830115110571F0A7
:1056E0001387028781E8838380914B0890914C084F
:1056F000892B21F4F0934C08E0934B082097C9F0D4
:10570000D187C08783818260838380914D08909187
:105710004E08892B71F4F0934E08E0934D08809168
:105720004F0890915008892B21F4F0935008E09392
:105730004F08CF01DF91CF911F910F9108950F93E3
:105740001F93CF93DF93182F092FEB018B8181FDDE
:1057500003C08FEF9FEF20C082FF10C04E815F819A
:105760002C813D81421753077CF4E881F9819F0128
:105770002F5F3F4F39832883108306C0E885F98562
:10578000812F0995892B29F72E813F812F5F3F4F6C
:105790003F832E83812F902FDF91CF911F910F9107
:1057A0000895CF93DF93CDB7DEB7FE0135966191B3
:1057B0007191AF0180914D0890914E080E94B528DB
:1057C000DF91CF91089560914D0870914E080C942F
:1057D0009F2B0F931F93CF93DF93E0914D08F09190
:1057E0004E08238121FF1BC0EC0100E010E08991ED
:1057F00060914D0870914E08DB011896ED91FC9177
:105800001997882331F00995892B89F30FEF1FEF42
:10581000EECF8AE00995892B11F4C80102C08FEF01
:105820009FEFDF91CF911F910F9108950F931F93D9
:10583000CF93DF93CDB7DEB72E970FB6F894DEBFC8
:105840000FBECDBF0D891E8986E08C831A83098324
:105850008FEF9FE79E838D83AE01475E5F4F6F8919
:10586000788DCE0101960E94B528EF81F885E00F72
:10587000F11F10822E960FB6F894DEBF0FBECDBF7B
:10588000DF91CF911F910F910895FA01AA27283037
:1058900051F1203181F1E8946F936E7F6E5F7F4FFD
:1058A0008F4F9F4FAF4FB1E03ED0B4E03CD0670F79
:1058B000781F891F9A1FA11D680F791F8A1F911DCC
:1058C000A11D6A0F711D811D911DA11D20D009F41C
:1058D00068943F912AE0269F11243019305D31935E
:1058E000DEF6CF010895462F4770405D4193B3E047
:1058F0000FD0C9F7F6CF462F4F70405D4A3318F0EE
:10590000495D31FD4052419302D0A9F7EACFB4E09E
:10591000A6959795879577956795BA95C9F7009756
:105920006105710508959B01AC010A2E06945795F7
:10593000479537952795BA95C9F7620F731F841F4E
:10594000951FA01D0895F999FECF92BD81BDF89ACB
:10595000992780B50895262FF999FECF1FBA92BDD9
:1059600081BD20BD0FB6F894FA9AF99A0FBE019640
:1059700008950F931F93CF93DF93869F8001879F96
:10598000100D969F100D1124C8010E94D52CEC011A
:10599000009729F0A80160E070E00E94FC2DCE0184
:1059A000DF91CF911F910F910895CF93DF938230B4
:1059B000910510F482E090E0E0915308F0915408D2
:1059C00020E030E0A0E0B0E0309739F14081518133
:1059D00048175907B8F04817590771F48281938125
:1059E000109729F013969C938E9312972CC0909346
:1059F00054088093530827C02115310531F0421710
:105A0000530718F0A901DB0101C0EF019A01BD01A4
:105A1000DF010280F381E02DD7CF21153105F9F0A8
:105A2000281B390B2430310580F48A819B81611554
:105A3000710521F0FB019383828304C09093540885
:105A400080935308FE01329644C0FE01E20FF31F1B
:105A50008193919322503109398328833AC0209150
:105A6000510830915208232B41F4209106023091C5
:105A7000070230935208209351082091040230917C
:105A800005022115310541F42DB73EB740910802BA
:105A900050910902241B350BE0915108F0915208F6
:105AA000E217F307A0F42E1B3F0B2817390778F0F5
:105AB000AC014E5F5F4F2417350748F04E0F5F1F54
:105AC00050935208409351088193919302C0E0E0B3
:105AD000F0E0CF01DF91CF910895CF93DF9300974E
