:100000000C9488020C946E280C94A0280C94D2288E
:100010000C94A7020C94A7020C94A7020C94A702BC
:100020000C94A7020C943C280C94A7020C94A702F1
:100030000C94A7020C949B260C94A7020C949B266C
:100040000C94A7020C94A7020C94A7020C94A7028C
:100050000C94A7020C94A7020C94A7020C94A7027C
:100060000C94A7020C94A7020C94A7020C94A7026C
:100070000C94A7020C94A7020C94A7020C94A7025C
:100080000C94CE260C94A7020C94A7020C94A70201
:100090000C94A7020C94A7020C94A7020C94A7023C
:1000A0000C94A7020C94A7020C94A7020C94A7022C
:1000B0000C94A7020C94A7020C94A7020C94A7021C
:1000C0000C94A7020C94A7020C94A7020C94A7020C
:1000D0000C94A7020C94A7020C94A7020C94A702FC
:1000E0000C94A7020C94CF080C94C0080C949008B0
:1000F0000C948F090C9481080C9472080C9460087D
:100100000C9451080C94A7020C94A7020C94A7021B
:100110000C94A7020C94A7020C94A7020C94A702BB
:10012000030B0E0B190B240B2F0B3A0B450B640B17
:10013000700B7C0B880B940BA00BA00BBE0BC00BA1
:10014000C20BC40BC60BC80BCA0BE80B080C280C5F
:10015000480C680C880CA80CDE0CEA0CF60C020D9E
:100160000E0D1A0D260D3E0D490D540D5F0D6A0D35
:10017000750D800DD114D714DA14DD14E014E314D6
:10018000E914E614EC14EF14F214FB14FE14011538
:100190000415F814CE14D41407150A15F514CB144D
:1001A000BE15C115CC15D115D815E115E415E91505
:1001B000F015F9154E616E6F2D524B205665727316
:1001C000696F6E20000D0A4E616E6F2D524B2054E8
:1001D00061736B20537461746973746963733A0D4E
:1001E0000A000D0A000D0A2020204F766572666C09
:1001F0006F77204572726F72205374617475733A11
:1002000020000D0A2020204B65726E656C20566917
:100210006F6C6174696F6E733A20000D0A202020A4
:10022000507265656D7074696F6E733A20000D0AC7
:10023000202020537761702D696E733A20000D0ADB
:1002400020202054696D65205B4D696E2C4C6173D4
:10025000742C4D61785D3A20000D0A202020546FE7
:1002600074616C204350553A20000D0A202020492B
:10027000646C65205461736B204465657020536C19
:100280006565702054696D653A20000D0A202020B4
:10029000546F74616C2053797374656D205570745C
:1002A000696D653A2000205461736B2049443A20FF
:1002B00000554E4B4F574E0045787465726E616C19
:1002C0002052657365740042726F776E204F7574AB
:1002D00020446574656374004661696C65642074CC
:1002E0006F206372656174652053656D6170686F1E
:1002F0007265004661696C656420746F2063726585
:10030000617465205369676E616C004B65726E6540
:100310006C2066756E6374696F6E206E6F742069F1
:100320006D706C656D656E746564004465766963B7
:100330006520447269766572204572726F7200574B
:1003400061746368646F67205265737461727400CE
:100350005357205761746368646F672052657374E4
:100360006172740054696D6572204F766572666CB7
:100370006F7700556E68616E646C656420496E74B9
:1003800065727275707420566563746F72004C6F7D
:100390007720566F6C7461676500457874726120D0
:1003A0005461736B20737461727465642C2069737B
:1003B000206E726B5F6366672E68206F6B3F00492B
:1003C000646C65206F72204B65726E656C2053748F
:1003D00061636B204F766572666C6F7700556E6552
:1003E000787065637465642052657374617274001B
:1003F0004475706C696361746564205461736B202B
:100400004944005363686564756C6572204D697377
:100410007365642057616B657570005461736B2060
:10042000526573657276652056696F6C6174656498
:100430000052657365727665204572726F7220692D
:100440006E205363686564756C657200496E7661F1
:100450006C696420537461636B20506F696E7465BE
:1004600072005461736B20537461636B204F766527
:1004700072666C6F7700537461636B2077617320D1
:100480006E6F7420646566696E6564206173206CAC
:100490006172676520656E6F7567682100546173CE
:1004A0006B20706572696F6420746F6F206C61726D
:1004B00067652E20506572696F64206D75737420B6
:1004C0006265206C657373207468616E203631201C
:1004D0007365636F6E64732E00293A20002A4E52B2
:1004E0004B204552524F5228000D0A535441434B62
:1004F0002044554D500D0A0045464765666700206B
:100500002B2D2E30313233343536373839680000F0
:1005100011241FBECFEFD1E4DEBFCDBF14E0A0E0B9
:10052000B2E0E8EDFDE500E00BBF02C007900D92E0
:10053000A030B107D9F719E0A0E0B4E001C01D92E6
:10054000AB36B107E1F70E94F9290C94EA2E0C941E
:100550009126CF93DF93CDB7DEB728970FB6F894E7
:10056000DEBF0FBECDBF84EB91E00E94D00A1F9288
:1005700085E68F938AE093E09F938F930E94B82C37
:100580001F921F9287E592E09F938F930E94B82C51
:100590000E94511D1F928F9381E792E09F938F934A
:1005A0000E94B82C85E090E0A0E0B0E089839A83B7
:1005B000AB83BC831D821E821F82188640E050E000
:1005C000BE016F5F7F4F80E090E00E94702480E06A
:1005D00090E00E94EA24D0902E0260E08D2D0E94CF
:1005E000CA0C0FB6F894DEBF0FBECDBF00E010E01E
:1005F00080E8E82E82E0F82E80E090E00E949324CC
:1006000082E090E00E94970D8D2D0E94AE0B1F920C
:100610008F931F930F93FF92EF920E94B82C0E942A
:10062000A41B0F5F1F4F0F900F900F900F900F9014
:100630000F90E2CF0E94511D1F928F938FE992E09D
:100640009F938F930E94B82C0F900F900F900F9054
:10065000C0E0D0E00EEA12E083E090E00E94970D47
:10066000DF93CF931F930F930E94B82C0E94A41B7B
:1006700021970F900F900F900F90EECF0E94511D79
:100680001F928F9384EC92E09F938F930E94B82CDB
:100690000F900F900F900F90C0E0D0E003ED12E0AC
:1006A00081E090E00E94970DDF93CF931F930F930B
:1006B0000E94B82C0E94A41B21960F900F900F90BF
:1006C0000F90EECF0E94511D1F928F9382EE92E009
:1006D0009F938F930E94B82C0F900F900F900F90C4
:1006E000C0E0D0E001EF12E080E090E00E94970DC2
:1006F000DF93CF931F930F930E94B82C0E94A41BEB
:1007000021960F900F900F900F90EECF8F929F92A7
:10071000AF92BF92CF92DF92EF92FF92CF9369EAAE
:1007200072E08CEA94E00E94422940E850E06EE7D3
:1007300075E08CEA94E00E944629C1E0C093B404BD
:10074000C093B304C093B504C093B6041092B70429
:100750001092B8041092B9041092BA0480E892EB97
:10076000A6EEBEE08093BB049093BC04A093BD04AE
:10077000B093BE04812C912C540183948092BF04C9
:100780009092C004A092C104B092C20480E890EF9D
:10079000AAEFB2E08093C3049093C404A093C5046D
:1007A000B093C6041092C7041092C8041092C904F2
:1007B0001092CA041092CB041092CC041092CD0473
:1007C0001092CE048CEA94E00E94121B6AE173E05E
:1007D00089E997E00E94422940E850E067ED74E023
:1007E00089E997E00E94462982E08093A107C0939F
:1007F000A007C093A207C093A3071092A40710926A
:10080000A5071092A6071092A70780E095E6ADEC29
:10081000BDE18093A8079093A907A093AA07B0937E
:10082000AB071092AC071092AD071092AE07109272
:10083000AF07C12C21EED22E25EFE22E25E0F22EBD
:10084000C092B007D092B107E092B207F092B3071E
:100850001092B4071092B5071092B6071092B7071E
:100860001092B8071092B9071092BA071092BB07FE
:1008700089E997E00E94121B6EE373E08BE595E037
:100880000E94422940E850E06AE274E08BE595E07E
:100890000E94462983E080936305C0936205C0935C
:1008A0006405C09365058092660590926705A092E5
:1008B0006805B092690510926A0510926B05109256
:1008C0006C0510926D0510926E0510926F051092D6
:1008D000700510927105C0927205D0927305E09276
:1008E0007405F092750510927605109277051092B6
:1008F00078051092790510927A0510927B05109276
:100900007C0510927D058BE595E00E94121B62E646
:1009100073E085E094E00E94422940E850E069E1FC
:1009200077E085E094E00E94462984E080930D04FE
:10093000C0930C04C0930E04C0930F0482E090E0B7
:10094000A0E0B0E08093100490931104A0931204EF
:10095000B09313041092140410921504109216040C
:1009600010921704109218041092190410921A048D
:1009700010921B04C0921C04D0921D04E0921E042D
:10098000F0921F041092200410922104109222046D
:10099000109223041092240410922504109226042D
:1009A0001092270485E094E0CF91FF90EF90DF90C4
:1009B000CF90BF90AF909F908F900C94121BBF92DE
:1009C000CF92DF92EF92FF920F931F93CF93DF931B
:1009D000CDB7DEB72A970FB6F894DEBF0FBECDBFF6
:1009E000B82EFE01319690E091939F5F9A30E1F727
:1009F0006E018BE0C80ED11C8E010F5F1F4F33ECD0
:100A0000E32E33E0F32EF80181918F011F928F9333
:100A1000FF92EF920E94B82C0F900F900F900F90C2
:100A20000C151D0581F71F92BF9220E033E03F9324
:100A30002F930E94B82C0F900F900F900F90F1E021
:100A4000FB1520F48FEF8B0D0E94DF0480E02A96C7
:100A50000FB6F894DEBF0FBECDBFDF91CF911F91CF
:100A60000F91FF90EF90DF90CF90BF9008959091FD
:100A700041019F719F31D9F380934201089581E034
:100A80008093C20708951092C20708958091410192
:100A90008F718F31D9F3809141018F71E1F08F30E7
:100AA000D1F0809141018F71883031F4809139010A
:100AB0008260809339010BC088E00E9437058091E5
:100AC00041018F718830D9F7F1CF8F3021F08091BB
:100AD00041018F71D1F70895809141018F718F315C
:100AE000D9F3809141018F7111F08F3051F48091D1
:100AF00039018D7F80933901809141018F71883058
:100B0000D9F70895E5E4F1E09081907F908390819A
:100B10008F70892B80830895E7E5F1E080818D7FD8
:100B200080830895E7E5F1E0808182608083089505
:100B3000EEE6F1E080818F7E80830895EEE6F1E0BD
:100B4000808180618083089580936001909361012A
:100B50009093CC078093CB0708959093C60780931A
:100B6000C507E8E4F1E08081807E80838081682B86
:100B700060830895909303048093020408959093F2
:100B800001048093000408951F93CF93DF9370E2D4
:100B90007093440170EC709345016062609348016A
:100BA00065EC6093490167EA60934B0160E86093EC
:100BB0004C01209360013093610140936201509396
:100BC0006301E6E4F1E0C081A08160811081C295FB
:100BD000C695C77070E4C79FE00111241295169561
:100BE00013701C2BA295A695A37070E1A79FD0014E
:100BF00011241A2B629566956370A4E06A9FB00178
:100C00001124162B10936D01608170817295769579
:100C10007370706462956670672B60936E011092BA
:100C20006C016FEF60934E019093C6078093C507E8
:100C30001092C7071092C8075093CA074093C9077C
:100C40003093CC072093CB071092CD0781E080939F
:100C5000E707109206081092D6071092C207DF919C
:100C6000CF911F91089586E10C94370586E10C948D
:100C7000370588E00E9437051092060808953F92D4
:100C80004F925F926F927F928F929F92AF92BF929C
:100C9000CF92DF92EF92FF920F931F93CF93DF9348
:100CA000EC013B018091E707811102C08FEF0FC17A
:100CB0009E818091C7078F5F8093C70780918101D4
:100CC000807E816090FB85F98F73806480938101C1
:100CD00088E8809382018091C207882361F08FEFBA
:100CE000809383018AEA9AEA90938901809388012C
:100CF0008FEF9FEF10C08091C707809383012091F1
:100D000061018091600190E0922B90938901809322
:100D10008801888199819093870180938601209131
:100D200063018091620190E0922B90938501809302
:100D300084014A81552747FD50956B817C818AE863
:100D400091E00E94322C8A81855F8093800180919E
:100D50004101982F9F71392E8F709FEF980F92301D
:100D6000B0F39FE1391699F398EF930D923018F094
:100D7000863009F09BCF86E10E9437058D81811175
:100D80000AC089E00E9437058E81882391F089E1AD
:100D90000E9437050EC08091480180688093480109
:100DA0008091410187FFFCCF8091410186FF7ECF7A
:100DB000E8CF6114710499F18EEC97E00E94571D01
:100DC0008091CE079091CF07A091D007B091D10725
:100DD0008093E8079093E907A093EA07B093EB07A5
:100DE000D30120E432E44FE050E00E946D2B0091EB
:100DF000D2071091D3072091D4073091D507600F07
:100E0000711F821F931F6093EC077093ED0780930F
:100E1000EE079093EF0788EE97E00E94411E109234
:100E2000D60782E00E943705412C512C8091D607CD
:100E3000811108C08FEF481A580A98EE49169DEFA5
:100E40005906A1F76114710421F48E8181112DC01E
:100E500034C08EEC97E00E94571D8090CE07909092
:100E6000CF07A090D007B090D107C090D207D09004
:100E7000D307E090D407F090D5070091E8071091D0
:100E8000E9072091EA073091EB074091EC07509178
:100E9000ED076091EE077091EF0787E098E00E9400
:100EA000B31D8F3F09F0BBCFD0CF80914201829517
:100EB0008695877011F0CFEF06C088EE48168DEF4B
:100EC0005806C9F3C1E0832D0E9437058C2FDF91AE
:100ED000CF911F910F91FF90EF90DF90CF90BF9037
:100EE000AF909F908F907F906F905F904F903F90CA
:100EF000089560E070E00C943F06CF93DF938091FB
:100F0000E707882321F180914101C82FCF718F70AD
:100F10009FEF980F9230B8F3CF31A9F3C83011F09A
:100F20008630A9F486E10E943705809148018068E7
:100F3000809348018091410187FFFCCFD09141010E
:100F40008C2F0E943705D6FB882780F901C08FEFD0
:100F5000DF91CF9108958091E707882309F49FC01E
:100F600080910608882309F498C080917B01E09164
:100F7000C507F091C60790E002972481332727FD2B
:100F80003095281739070CF48AC0E091C507F09115
:100F9000C607809182018083E091C507F091C60762
:100FA000809187019091880192838183E091C507A8
:100FB000F091C60780917B018B508383A091C50778
:100FC000B091C607E091C507F091C60713969C91B2
:100FD000848189173CF0E091C507F091C6078381B1
:100FE00087FF0DC01092060880914C018F77809387
:100FF0004C0180914C01806880934C0150C0A091BD
:10100000C507B091C607E091C507F091C6071396D2
:101010004C91552747FD509569E871E0858196818F
:101020000E94322CE091C507F091C60780918001A3
:1010300085FB882780F98783E091C507F091C60773
:10104000809147018087E091C507F091C6078091A4
:1010500046018695869586958187E091C507F09132
:10106000C607809147018287E091C507F091C607C6
:10107000A0917B01B0E0A058BE4F8C918387109265
:10108000060880914C018F7780934C0180914C0130
:10109000806880934C0181E0089580E008958FEF8F
:1010A00008951F920F920FB60F9211248F9380E82C
:1010B00080934F018F910F900FBE0F901F90189546
:1010C0001F920F920FB60F9211248F9381E080939D
:1010D000D60780E480934F018F910F900FBE0F9041
:1010E0001F9018951F920F920FB60F9211248F9395
:1010F00080E280934F018F910F900FBE0F901F9051
:1011000018951F920F920FB60F9211248F9380E1C2
:1011100080934F018F910F900FBE0F901F901895E5
:101120001F920F920FB60F9211240BB60F922F93AE
:101130003F934F935F936F937F938F939F93AF935F
:10114000BF93EF93FF9384E080934F01E0910204FB
:10115000F0910304309709F00995FF91EF91BF9149
:10116000AF919F918F917F916F915F914F913F913F
:101170002F910F900BBE0F900FBE0F901F901895E0
:101180001F920F920FB60F9211248F9382E08093DB
:101190004F018F910F900FBE0F901F9018951F92C7
:1011A0000F920FB60F9211248F9381E080934F011D
:1011B0008F910F900FBE0F901F901895E9E4F1E00A
:1011C0009081907F908390818F70892B8083089588
:1011D0008FEF08950895089508958FEF08958091F1
:1011E000C0079091C107089580E00895089581E0B7
:1011F000089581E0089581E008950895089508957F
:1012000008950895089508950895E7E3F1E0808131
:1012100083608083989AA09A8DB1806E8DB98EB1CB
:10122000806E8EB90895E7E3F1E08081836080836A
:10123000989AA0988DB1806E8DB98EB1806E8EB95E
:101240000895CF92DF92EF92FF920F931F93CF9367
:10125000DF93CDB7DEB727970FB6F894DEBF0FBE8A
:10126000CDBF0E94DC0EE091C507F091C607C0809B
:10127000D38005811681E0840E94AB0718161CF00C
:101280008FE093E006C0F801F080F11007C08EE215
:1012900093E00E94D02C0E94DE0E32C0F5E0FF12D7
:1012A00004C08AE090E00E94CA2CC80101969F9376
:1012B0008F938E2D992787FD90959F93EF921F9284
:1012C000FF921F92CF9280E593E09F938F930E94AD
:1012D000B82C1D830C83FA94F801F082DB821E8205
:1012E0001F828FEF9FEF9A8389830E94DE0ECE01CB
:1012F00001960E9479070FB6F894DEBF0FBECDBFEE
:1013000027960FB6F894DEBF0FBECDBFDF91CF9109
:101310001F910F91FF90EF90DF90CF9008951F9253
:101320000F920FB60F9211240BB60F922F933F938B
:101330004F935F936F937F938F939F93AF93BF93DD
:10134000EF93FF9380E090917B01891710F48F5FFA
:10135000FACF8091460187FF04C081E080930608A0
:1013600004C089E793E00E94D02C88E080934F016D
:101370008091460187FF05C08091C20781110E94BC
:101380002109E0910004F0910104309709F00995DA
:10139000FF91EF91BF91AF919F918F917F916F914D
:1013A0005F914F913F912F910F900BBE0F900FBE09
:1013B0000F901F901895E7EDF7E0DC018C91819379
:1013C0008D9180933F0187E0E73EF807B9F780E110
:1013D00010923E018150E1F780E880933C018091BA
:1013E0003D0180FFFCCFE0EFF7E080913F0181936A
:1013F00088E0E030F807C9F70895CF93662309F431
:1014000047C0262F2F7009F043C0E7EDF7E0219188
:1014100020933F0127E0E73EF207C9F7A0E070E024
:10142000B0E220E1A29FA00111244617570774F5EE
:10143000A11103C010923C0102C0B0933C0120E016
:1014400030E0480F591FFA01E20FF31FE081E093EB
:101450003E012F5F3F4F20313105A9F720913C011C
:10146000206820933C0120913D0120FFFCCF20E02B
:1014700030E0C0913E01FA01E20FF31FC0832F5FFD
:101480003F4F20313105A9F7AF5FCBCF80E001C0DE
:1014900081E0CF9108950F931F93CF93DF93613035
:1014A00009F44FC0262F2F7009F04BC0E0EFF7E092
:1014B000219120933F0128E0E030F207C9F76295BF
:1014C0006F70615008E06F3FD1F100933C0120E163
:1014D0006202A001112420E030E0FC01E40FF51FBE
:1014E000DF01A20FB31F7C9170933E012F5F3F4F2E
:1014F00020313105A9F720913C01206820933C015F
:1015000020913D0120FFFCCF4051510920E030E007
:10151000480F591F10913E01DF01A20FB31F1C930A
:10152000662331F0EA01C20FD31F788171277C93C3
:101530002F5F3F4F2031310569F76150C4CF80E004
:1015400001C081E0DF91CF911F910F9108958091AB
:10155000C00087FFFCCF8091C0008F778093C000D0
:101560008091C60008959091C00095FFFCCF9091A6
:10157000C0009F7D9093C0008093C60008958FEFB8
:101580000895813031F48091C80087FD07C080E064
:1015900008958111FCCF8091C000F7CF81E00895BC
:1015A000CF93DF93FC012491EC012196222351F08B
:1015B0006091630970916409822F90E00E94862CEB
:1015C000CE01F0CFDF91CF91089586E084B985B93F
:1015D00088EF8AB980EF8BB982E08DB908950C94B9
:1015E000E50A8F3F09F45CC0482F477050E0473050
:1015F000510508F055C0FA01E057FF4F86958695D2
:1016000086950C94092C92B121E030E0082E01C09F
:10161000220F0A94EAF7922B92B940C095B121E0CB
:1016200030E0082E01C0220F0A94EAF7922B95B9F8
:1016300035C098B121E030E0082E01C0220F0A9495
:10164000EAF7922B98B92AC09BB121E030E0082E2E
:1016500001C0220F0A94EAF7922B9BB91FC09EB1DA
:1016600021E030E0082E01C0220F0A94EAF7922B05
:101670009EB914C091B321E030E0082E01C0220FC2
:101680000A94EAF7922B91BB09C094B321E030E0B1
:1016900001C0220F8A95EAF7922B94BB81E008954E
:1016A0008FEF08958F3F09F457C0482F477050E0DF
:1016B0004730510508F050C0FA01E956FF4F8695B2
:1016C000869586950C94092C92B121E030E0082E85
:1016D00001C0220F0A94EAF72095292322B93AC0C3
:1016E00095B121E030E0082E01C0220F0A94EAF7FC
:1016F0002095292325B92EC098B121E030E0082E8D
:1017000001C0220F0A94EAF72095292328B922C0A4
:101710009BB121E030E0082E01C0220F0A94EAF7C5
:10172000209529232BB916C09EB121E030E0082E68
:1017300001C0220F0A94EAF7209529232EB90AC086
:1017400091B321E030E001C0220F8A95EAF720959D
:10175000292321BB81E008958FEF08958F3F21F168
:10176000482F477050E047305105F0F4FA01E25637
:10177000FF4F8695869586950C94092C20B10BC059
:1017800023B109C026B107C029B105C02CB103C0DF
:101790002FB101C022B330E002C0359527958A955C
:1017A000E2F7822F817008958FEF08958F3F09F43B
:1017B000EFC0482F477050E04730510508F0E8C0AF
:1017C000FA01EB55FF4F8695869586950C94092C6A
:1017D00020B130E0082E02C0359527950A94E2F733
:1017E00092B120FD0AC021E030E0082E01C0220F96
:1017F0000A94EAF7922B92B91EC021E030E0082E3D
:1018000001C0220F0A94EAF72095292322B913C0B8
:1018100023B130E0082E02C0359527950A94E2F7EF
:1018200095B120FD0AC021E030E001C0220F8A9569
:10183000EAF7922B95B981E0089521E030E0082E77
:1018400001C0220F0A94EAF72095292325B9F3CF86
:1018500026B130E0082E02C0359527950A94E2F7AC
:1018600098B120FD0AC021E030E0082E01C0220F0F
:101870000A94EAF7922B98B9DECF21E030E0082EE7
:1018800001C0220F0A94EAF72095292328B9D3CF63
:1018900029B130E0082E02C0359527950A94E2F769
:1018A0009BB120FD0AC021E030E0082E01C0220FCC
:1018B0000A94EAF7922B9BB9BECF21E030E0082EC4
:1018C00001C0220F0A94EAF7209529232BB9B3CF40
:1018D0002CB130E0082E02C0359527950A94E2F726
:1018E0009EB120FD0AC021E030E0082E01C0220F89
:1018F0000A94EAF7922B9EB99ECF21E030E0082EA1
:1019000001C0220F0A94EAF7209529232EB993CF1C
:101910002FB130E0082E02C0359527950A94E2F7E2
:1019200091B320FD0AC021E030E0082E01C0220F53
:101930000A94EAF7922B91BB7ECF21E030E0082E8B
:1019400001C0220F0A94EAF72095292321BB73CF07
:1019500022B330E0082E02C0359527950A94E2F7AD
:1019600094B320FD0AC021E030E0082E01C0220F10
:101970000A94EAF7922B94BB5ECF21E030E0082E68
:1019800001C0220F0A94EAF72095292324BB53CFE4
:101990008FEF08958F3F09F4BEC0482F477050E085
:1019A000611160C04730510508F0B5C0FA01E45537
:1019B000FF4F8695869586950C94092C91B121E070
:1019C00030E0082E01C0220F0A94EAF7209529235F
:1019D00021B99FC094B121E030E0082E01C0220F50
:1019E0000A94EAF72095292324B993C097B121E0FE
:1019F00030E0082E01C0220F0A94EAF7209529232F
:101A000027B987C09AB121E030E0082E01C0220F2B
:101A10000A94EAF7209529232AB97BC09DB121E0D9
:101A200030E0082E01C0220F0A94EAF720952923FE
:101A30002DB96FC090B321E030E0082E01C0220F15
:101A40000A94EAF72095292320BB63C093B321E0D1
:101A500030E0082E01C0220F0A94EAF720952923CE
:101A600023BB57C04730510508F055C0FA01ED546B
:101A7000FF4F8695869586950C94092C91B121E0AF
:101A800030E0082E01C0220F0A94EAF7922B91B998
:101A900040C094B121E030E0082E01C0220F0A942A
:101AA000EAF7922B94B935C097B121E030E0082EC7
:101AB00001C0220F0A94EAF7922B97B92AC09AB173
:101AC00021E030E0082E01C0220F0A94EAF7922BA1
:101AD0009AB91FC09DB121E030E0082E01C0220F4D
:101AE0000A94EAF7922B9DB914C090B321E030E03C
:101AF000082E01C0220F0A94EAF7922B90BB09C06E
:101B000093B321E030E001C0220F8A95EAF7922BCF
:101B100093BB81E008958FEF0895811106C080B1D5
:101B20008695817091E0892708958FEF0895009739
:101B300011F483E20DC08130910511F48BE208C0ED
:101B40008230910511F483E303C0039729F48BE3FA
:101B50000E94D60B81E008958FEF0895009711F44D
:101B600083E20DC08130910511F48BE208C0823010
:101B7000910511F483E303C0039729F48BE30E94DA
:101B8000F10A81E008958FEF0895009711F483E240
:101B90000DC08130910511F48BE208C082309105AF
:101BA00011F483E303C0039729F48BE30E94520BE3
:101BB00081E008958FEF0895882319F085B78F7E0F
:101BC00002C085B7806185BF81E008959091C8000B
:101BD00095FFFCCF8093CE0008959093C50080932D
:101BE000C40086E08093C200E1ECF0E080818B7F4E
:101BF0008083A0ECB0E08C9182608C9380818861BE
:101C0000808308959093CD008093CC0086E08093EC
:101C1000CA00E9ECF0E080818B7F8083A8ECB0E023
:101C20008C9182608C9380818861808308950E946A
:101C3000ED0D67EA7AE083EB9AE00E943B2C9093EB
:101C400064098093630967EA7AE083EB9AE00E9473
:101C50003B2C909362098093610908958091C8009C
:101C600087FFFCCF8091C8008F778093C800809158
:101C7000CE000895000000000000000001970097CA
:101C8000C9F708950C948A2D0E94922D0895EF9221
:101C9000FF920F931F93CF93DF93EC0180E090E0CE
:101CA0000E948A2DF82E8B8381E090E00E948A2D7D
:101CB000E82E8A8382E090E00E948A2D082F898393
:101CC00083E090E00E948A2D182F888384E090E0C2
:101CD0000E948A2D9E2D9F0D900F910F891302C097
:101CE00081E001C08FEFDF91CF911F910F91FF90A5
:101CF000EF900895CF93DF93EC0185E090E00E9490
:101D00008A2D888381E0DF91CF910895FC01608165
:101D100086E090E00E94922D81E00895CF93DF93BA
:101D2000EC0186E090E00E948A2D888381E0DF91BB
:101D3000CF9108950F931F93CF93DF938C01C8E049
:101D4000D0E0CE010E948A2DF80181938F01219667
:101D5000C831D105B1F781E0DF91CF911F910F918B
:101D600008950F931F93CF93DF938C01C8E0D0E0C9
:101D7000F80161918F01CE010E94922D2196C83108
:101D8000D105B1F781E0DF91CF911F910F910895B7
:101D9000CF93DF93EC0187E090E00E948A2D888347
:101DA00081E0DF91CF910895FC01608187E090E0B0
:101DB0000E94922D81E00895F894089578940895F2
:101DC0000E94DC0EFFCFCF93DF93CDB7DEB7A39792
:101DD0000FB6F894DEBF0FBECDBF0E9400178093F0
:101DE000EE088F3F21F460E08EE00E943E150E94D5
:101DF0000A2780FF04C060E086E00E943E150E9432
:101E000021298F3F31F40E94042960E080E10E9483
:101E10003E150E9412291092F1081092FF081092AC
:101E2000FE081092F0081092EF08109200090E942C
:101E30009D101092FD088FEF8093EA088093EC08C4
:101E40008093EB08EBE1F8E093E69083DF011297D3
:101E50008C93BB9628E0E23FF207B9F7EAE3F9E09A
:101E6000CF01059694838383F783E68329E0833546
:101E7000920711F0FC01F4CF10923C0910923B093B
:101E800010925709109256091092F4081092F30814
:101E90008AE399E09093100880930F0868E770E256
:101EA000CE0101960E94422940E850E069E976E0BF
:101EB000CE0101960E94462985E5809399061986F0
:101EC0001C861D861E861F86188A198A1A8A1B8AF6
:101ED0001C8A1D8A1E8A1F8A188E198E1A8E1B8EC6
:101EE0001C8E1D8E1E8E1F8E18A219A21AA21BA256
:101EF00081E0888792E09A878B87CE0101960E94C5
:101F0000121BA3960FB6F894DEBF0FBECDBFDF91B4
:101F1000CF910895C9E1D8E0F12CD8808FEFD81285
:101F200021C0F394AB9695E0F912F7CF0E940F1AF7
:101F30009BE28902F0011124EF5EF74F82858093C6
:101F40000009F093FF08E093FE08F093F008E09397
:101F5000EF088093F1080E94CA290E94B4290E94C8
:101F6000CE2914C009E118E0E12CFE1441F0F8017B
:101F70008081D81204C06D2D85E00E943E15E39447
:101F8000055D1F4FF5E0EF12F0CFCBCFFFCFAF9243
:101F9000BF92CF92DF92EF92FF920F931F93CF9356
:101FA000DF931F92CDB7DEB75C016B017A01DC01D4
:101FB00019968C911997823021F08091ED088C93BD
:101FC00002C0F50110828091ED08853020F060E0BC
:101FD00087E00E943E15D50119968C91823029F038
:101FE0008091ED088F5F8093ED088091ED0881115D
:101FF00003C081E08093ED08F50130812BE23203CC
:10200000F0011124EF5EF74FD182C082D5011896FE
:102010008C91189782873C913203F0011124EF5E76
:10202000F74F83E081873C913203F0011124EF5E8A
:10203000F74F30870C910203800111240F5E174F78
:10204000F8011582C5010B960E94C51FD801919613
:102050006D937D938D939C939497F50183859485DF
:10206000A585B68588339948A144B10528F0D501E6
:102070006C9186E10E943E15F5010081112707FD54
:102080001095C5014B960E94C51F4BE2409FF00181
:10209000419FF00D1124EF5EF74F658B768B878B98
:1020A000908FD5012C91240360011124F601EF5E7D
:1020B000F74F6F01058916892789308D81A192A17B
:1020C000A3A1B4A1080F191F2A1F3B1F018F128F54
:1020D000238F348FC501439649830E94C51FF601A3
:1020E00065A376A387A390A7D5012C9149812403EA
:1020F000F0011124EF5EF74F85A196A1A7A1B0A52D
:10210000858F968FA78FB0A381E090E092A781A7DB
:10211000F382E28281E084870F90DF91CF911F915B
:102120000F91FF90EF90DF90CF90BF90AF90089508
:102130000C949C2085E690E00895CF93DF93109255
:10214000CF041092D0041092D1041092D2041092B5
:10215000D3041092D4041092D5041092D604E2E075
:10216000F6E0AFE1B6E0108211821282138210868F
:10217000118612861386148215821682178214869F
:10218000158616861786108A118A128A138A108E6F
:10219000118E128E138EED01219718821C927E965D
:1021A0005E9686E0E839F807F1F6DF91CF91089561
:1021B0000F931F93E3EDF4E0A82FB0E023EB36EE8E
:1021C0004EE050E00E946D2B00811181228133810D
:1021D000600F711F821F931F6083718382839383BB
:1021E0008FEC94E01F910F910C94411E4091CF040D
:1021F0005091D0046091D1047091D204FC014083CD
:102200005183628373834091D3045091D4046091CD
:10221000D5047091D60444835583668377830895EB
:102220009EE1899FF0011124EE5FF94F858D813089
:1022300039F0848D8F5F848F8F3F11F481E0858F1B
:1022400008959EE1899FF0011124EE5FF94F858D7D
:102250008130B9F0148A158A168A178A4089518903
:10226000628973894F5F5F4F6F4F7F4F408B518BF8
:10227000628B738B4E3F5F4F6F4F7F4F11F481E046
:10228000858F0895CF92DF92EF92FF920F931F9365
:10229000C62E9EE1899FF0011124EE5FF94F858DD6
:1022A000813071F1408D518D628D738D4F5F5F4F25
:1022B0006F4F7F4F408F518F628F738FD12CE12CE6
:1022C000F12C04891589268937890C0D1D1D2E1DB9
:1022D0003F1D048B158B268B378B0081118122814A
:1022E00033810C0D1D1D2E1D3F1D00831183228384
:1022F00033834E3F5F4F6F4F7F4F11F481E0858FE7
:102300001F910F91FF90EF90DF90CF900895CF92A3
:10231000DF92EF92FF920F931F93CF93DF93E82FFB
:10232000F0E09EE1899FD0011124AE5FB94F5D9628
:102330008C915D97813009F45AC0C62ED12CE12CC6
:10234000F12C54964D915D916D917C9157974C0D68
:102350005D1D6E1D7F1D1C964D935D936D937C934B
:102360001F970D911D912D913C9113970C0D1D1DE3
:102370002E1D3F1D0D931D932D933C931397149683
:102380008D919D910D90BC91A02D0097A105B10557
:1023900029F0481759076A077B0780F48EE18E9F62
:1023A000E0018F9FD00D1124CE5FD94F8C859D8584
:1023B000AE85BF858C839D83AE83BF838EE18E9F68
:1023C000E0018F9FD00D1124CE5FD94F8C859D8564
:1023D000AE85BF85488559856A857B85481759072D
:1023E0006A077B0720F488879987AA87BB87DF91D4
:1023F000CF911F910F91FF90EF90DF90CF900895B4
:102400008F929F92AF92BF92CF92DF92EF92FF9204
:102410000F931F93CF93DF93CDB7DEB728970FB6F7
:10242000F894DEBF0FBECDBF182F86EA92E00E945F
:10243000D00AA12EB12C1F921F9322E933E03F93C3
:102440002F930E94B82C0F900F900F900F901111A6
:1024500052C08BE892E00E94D00ACE0101960E9401
:10246000571D6D817E818F819885E0E4CE2EE2E458
:10247000DE2EEFE0EE2EF12CA70196010E94882BB4
:102480005F934F933F932F938C818F938B818F9387
:102490008A818F9389818F9305E913E01F930F93AE
:1024A0000E94B82C8AE692E00E94D00A6091D30480
:1024B0007091D4048091D5049091D604A70196011F
:1024C0000E94882B5F934F933F932F938091D20468
:1024D0008F938091D1048F938091D0048F938091BA
:1024E000CF048F931F930F930E94B82C0FB6F894CC
:1024F000DEBF0FBECDBF89E592E00E94D00A8EE11B
:102500008A9D80018B9D100D11240E5F194FF801DB
:1025100060817181828193810E948A1F29833A831D
:102520004B835C836D837E838F8398876D817E81EF
:102530008F81988520E4C22E22E4D22E2FE0E22E55
:10254000F12CA70196010E94882B5F934F933F9334
:102550002F938C818F938B818F938A818F93898125
:102560008F9335E9A32E33E0B32EBF92AF920E9432
:10257000B82C8EE392E00E94D00AF8016481758144
:10258000868197810E948A1F29833A834B835C83CB
:102590006D837E838F8398876D817E818F819885FF
:1025A000A70196010E94882B5F934F933F932F932F
:1025B0008C818F938B818F938A818F9389818F9365
:1025C00045EA842E43E0942E9F928F920E94B82C6D
:1025D000F80164857585868597850E948A1F298301
:1025E0003A834B835C836D837E838F8398876D8171
:1025F0007E818F819885A70196010E94882B5F9329
:102600004F933F932F938C818F938B818F938A81EC
:102610008F9389818F939F928F920E94B82CF8019B
:1026200060857185828593850E948A1F29833A83FC
:102630004B835C836D837E838F8398876D817E81DE
:102640008F819885A70196010E94882B5F934F93F5
:102650003F932F938C818F938B818F938A818F935C
:1026600089818F93BF92AF920E94B82C0FB6F894D5
:10267000DEBF0FBECDBF8EE292E00E94D00AF8010D
:10268000709683818F9382818F9381818F93F801DC
:1026900080898F9357EBE52E53E0F52EFF92EF9252
:1026A0000E94B82C8BE192E00E94D00AF801789643
:1026B00083818F9382818F9381818F93F801808DA5
:1026C0008F93FF92EF920E94B82C82E092E00E94DA
:1026D000D00AF801848D1F928F936BEBE62E63E096
:1026E000F62EFF92EF920E94B82C85EE91E00E94A8
:1026F000D00AF801858D1F928F93FF92EF920E946E
:10270000B82C82EE91E00E94D00A0FB6F894DEBF9A
:102710000FBECDBF28960FB6F894DEBF0FBECDBF5B
:10272000DF91CF911F910F91FF90EF90DF90CF90AD
:10273000BF90AF909F908F900895CF9385EC91E0DC
:102740000E94D00AC0E08C2F0E940012CF5FC530DB
:10275000D1F7CF910895DB01853008F054C09EE198
:10276000899FF0011124EE5FF94F40815181628110
:1027700073814D935D936D937C9313974481558141
:102780006681778114964D935D936D937C93179733
:10279000408551856285738518964D935D936D9341
:1027A0007C931B9744855585668577851C964D934C
:1027B0005D936D937C931F974089518962897389DA
:1027C00050964D935D936D937C93539744895589AF
:1027D0006689778954964D935D936D937C93579753
:1027E000408D518D628D738D58964D935D936D9391
:1027F0007C935B97848D5C968C935C97858D5D96BE
:102800008C9381E008958FEF0895E091FE08F09198
:10281000FF0884870895E091FE08F091FF08848501
:102820000895CF93DF93D82FC62F80E092E00E94C7
:10283000420E8F5F8F3F19F08093040402C0109204
:1028400004042091040436E0239FC00111246D2F5D
:102850008F5F9D4F0E94440E8091040446E0849F48
:10286000C00111246C2F8E5F9D4F0E94440E209159
:1028700004048091F5089091F608A091F708B091B2
:10288000F8086B2F77278827992746E0249F900127
:102890001124C9018D5F9D4F0E94440E20910404B4
:1028A0008091F5089091F608A091F708B091F8088A
:1028B000BD018827992746E0249F90011124C90172
:1028C0008C5F9D4F0E94440E209104048091F50876
:1028D0009091F608A091F708B091F808692F7A2F27
:1028E0008B2F992746E0249F90011124C9018B5F0B
:1028F0009D4F0E94440E8091040426E0829FC001F7
:1029000011246091F5088A5F9D4F0E94440E6091EA
:10291000040480E092E0DF91CF910C94440E20916A
:102920009806222341F0FB0120832091AA04FC0198
:10293000208381E0089580E008958091980688239F
:1029400009F48DC08DED94E00E94D00A8091AA0414
:102950001F928F9382E993E09F938F930E94B82CEC
:1029600089ED94E00E94D00A0F900F900F900F9085
:1029700080919806883110F0109298068091980600
:1029800090E0FC013197E631F10508F046C0E654CD
:10299000FF4F0C94092C8DE994E041C086E794E048
:1029A0003EC082E694E03BC08CE494E038C081E312
:1029B00094E035C08BE194E032C083E094E02FC016
:1029C00080EF93E02CC08DED93E029C08FEB93E076
:1029D00026C08AE993E023C08EE893E020C083E715
:1029E00093E01DC084E693E01AC080E593E017C031
:1029F0008FE393E014C08BE293E011C08BE093E08F
:102A00000EC083EF92E00BC088ED92E008C087EC27
:102A100092E005C088EB92E002C081EB92E00E9458
:102A2000D00A60916309709164098DE090E00E9482
:102A3000862C60916309709164098AE090E00E949D
:102A4000862C80919806803141F08351823028F0A5
:102A50000E9412290E94DC0EFFCF1092980680E09F
:102A6000089580939806E091FE08F091FF08608534
:102A70006093AA040E9411140C949D14CF93C82F44
:102A8000809398066093AA040E9411140E949D14DA
:102A9000C03141F0C351C23028F00E9412290E9477
:102AA000DC0EFFCFCF910895CF93DF931F92CDB768
:102AB000DEB719828981843640F480ED97E00E9468
:102AC0003F2589818F5F8983F5CF0F90DF91CF916B
:102AD000089581E090E00E94C50D0E9454150E9467
:102AE00054150E94541581E090E00E94AE0D0C94A4
:102AF000541581E090E00E94C50D0E94541581E0BC
:102B000090E00E94AE0D0C945415FF920F931F930A
:102B1000CF93DF9300D01F92CDB7DEB71F928F9374
:102B200082E993E09F938F938E010F5F1F4F1F9356
:102B30000F930E94FD2C0F900F900F900F900F900D
:102B40000F90F12CF80101900020E9F73197E01B7C
:102B5000F10B8F2D90E08E179F0708F05CC0F801F5
:102B6000E80FF91F808190E0FC01F097EA30F10551
:102B700008F049C0E053FF4F0C94092C0E946915DE
:102B800002C00E9479150E9469150E9469150E9471
:102B900069150E94691537C00E9479150E94791540
:102BA000F4CF0E9479150E9479150E947915EFCF14
:102BB0000E9479150E9479150E9479150E94791555
:102BC000E8CF0E94791502C00E9469150E9479150C
:102BD00004C00E9469150E9469150E94791506C0FB
:102BE0000E9469150E9469150E9469150E94791555
:102BF00008C00E9469150E9469150E9469150E940B
:102C000069150E9479150E9454150E9454150E945E
:102C10005415F39497CF0F900F900F90DF91CF91B1
:102C20001F910F91FF9008956F927F928F929F92C4
:102C3000AF92BF92CF92DF92EF92FF920F931F93CA
:102C4000CF93DF9389EE94E00E94D00AE091FE08D2
:102C5000F091FF082085822F992787FD90959F93FB
:102C60002F938EEB93E09F938F930E94B82CE0916B
:102C7000FE08F091FF08C281D381DF93CF9382EFEA
:102C800093E09F938F930E94B82C88811F928F931B
:102C900087EC93E09F938F930E94B82CE091FE08FD
:102CA000F091FF0881818F9380818F9384ED93E071
:102CB0009F938F930E94B82C8091FF088F938091EF
:102CC000FE088F938EED93E09F938F930E94B82C14
:102CD000C1E1D8E0EDB7FEB774960FB6F894FEBF29
:102CE0000FBEEDBF00E010E08EEE682E83E0782E80
:102CF00097EC892E93E0992E24EDA22E23E0B22E9C
:102D00003EEDC32E33E0D32EEA80FB80FF92EF929C
:102D10001F930F937F926F920E94B82CF7018081CE
:102D20001F928F939F928F920E94B82C89818F93CC
:102D300088818F93BF92AF920E94B82CDF93CF937C
:102D4000DF92CF920E94B82C0F5F1F4FAB96EDB76A
:102D5000FEB772960FB6F894FEBF0FBEEDBF0530FA
:102D6000110591F6DF91CF911F910F91FF90EF9098
:102D7000DF90CF90BF90AF909F908F907F906F909B
:102D80000895CF93DF93E091FE08F091FF08C28190
:102D9000D3818881853539F00E94141681E00E9424
:102DA000311585E58883E091FE08F091FF08808168
:102DB00091818115924438F00E94141682E1DF91CE
:102DC000CF910C943115DF91CF9108952BE28202BF
:102DD000F0011124EF5EF74FA281B3818C9185350C
:102DE00019F085E58C9308C080819181811592440A
:102DF00028F082E10E9431158FEF089581E0089557
:102E00000F931F9300915705109158052091590574
:102E100030915A0580E090E0B901A801082E04C065
:102E200076956795579547950A94D2F740FD19C056
:102E300041E050E060E070E0082E04C0440F551FF0
:102E4000661F771F0A94D2F7402B512B622B732BEE
:102E500040935705509358056093590570935A0550
:102E600005C0019680329105B9F68FEF1F910F9141
:102E70000895E091FE08F091FF08658576858785C5
:102E800090890895CF92DF92EF92FF920F931F9354
:102E9000CF93DF931F92CDB7DEB7C12CD12C760133
:102EA000C394082E04C0CC0CDD1CEE1CFF1C0A943D
:102EB000D2F740915705509158056091590570918E
:102EC0005A054C215D216E217F21452B462B472B36
:102ED00009F463C089830E94DC0EEAE1F8E09701FF
:102EE0008601009510952095309593E08981DF014A
:102EF00011974C914F3F49F144815581668177810B
:102F00004C155D056E057F0541F41086118612860D
:102F10001386DF0112971C9290834481558166814C
:102F2000778140235123622373234483558366832F
:102F300077834085518562857385402351236223C1
:102F400073234087518762877387BB9648E0E13FD0
:102F5000F40769F64EEF5FEF6FEF7FEF04C0440FA9
:102F6000551F661F771F8A95D2F78091570590915C
:102F70005805A0915905B0915A0584239523A6239D
:102F8000B7238093570590935805A0935905B093A4
:102F90005A050E94DE0E81E001C08FEF0F90DF9195
:102FA000CF911F910F91FF90EF90DF90CF900895F8
:102FB0000F931F9341E050E060E070E004C0440FC5
:102FC000551F661F771F8A95D2F7E091FE08F09192
:102FD000FF0885859685A785B0898A019B0108230E
:102FE00019232A233B23012B022B032BD1F04095DD
:102FF00050956095709584239523A623B7238587E4
:103000009687A787B08B81899289A389B489842305
:103010009523A623B723818B928BA38BB48B81E05E
:1030200001C08FEF1F910F91089540915705509166
:1030300058056091590570915A05082E04C076957F
:103040006795579547950A94D2F740FF1DC0E091C8
:10305000FE08F091FF0841E050E060E070E004C03D
:10306000440F551F661F771F8A95D2F78585968571
:10307000A785B089842B952BA62BB72B85879687A0
:10308000A787B08B81E008958FEF0895CF92DF92EC
:10309000EF92FF921F93CF93DF93C12CD12C760137
:1030A000C39404C0CC0CDD1CEE1CFF1C8A95D2F727
:1030B0008091570590915805A0915905B0915A05F6
:1030C0008C219D21AE21BF21892B8A2B8B2B11F4C2
:1030D00081E044C00E94DC0EE8E1F8E0CAE1D8E0FB
:1030E00010E023E080818130B9F482859385A48546
:1030F000B5858C219D21AE21BF21892B8A2B8B2B5D
:1031000059F0288316861786108A118A1082C28683
:10311000D386E486F58611E080818230A1F4828531
:103120009385A485B5858C159D05AE05BF0559F41D
:10313000288316861786108A118A108212861386B3
:103140001486158611E0BB96AB9688E0EF3EF80733
:1031500049F60E94DE0E111105C082E00E9405149E
:103160008FEF01C081E0DF91CF911F91FF90EF9031
:10317000DF90CF9008950F931F93E091FE08F09198
:10318000FF08058516852785308906231723282300
:103190003923012B022B032B19F1618B728B838B4B
:1031A000948B21E02783DC01CB010090EE0804C062
:1031B000B695A795979587950A94D2F780FF03C097
:1031C0000E947E1C04C080E090E00E944E1CE091B2
:1031D000FE08F091FF08618972898389948903C090
:1031E00060E070E0CB011F910F91089580E090E0C6
:1031F000089521E08A5E984009F420E0822F8195AD
:1032000008950E94F9188F3F11F481E003C08130C6
:1032100029F482E00E9405148FEF0895992787FD15
:103220009095FC01EE0FFF1FE80FF91FE451F74FD7
:1032300080810895EF92FF920F931F93CF93DF93B6
:103240001F92CDB7DEB70E94F9188F3F11F481E0CD
:1032500003C0813029F482E00E9405148FEF3FC043
:1032600089830E94DC0E8981E82EFF24E7FCF0941C
:103270008701000F111FF801EE0DFF1DE451F74FFC
:103280009081911116C0E091FE08F091FF0897819E
:1032900092609783992787FD9095A92FB92F818BED
:1032A000928BA38BB48B0E94DE0E80E090E00E9494
:1032B0004E1C0E0D1F1DF801E451F74F8081815007
:1032C0008083E091FE08F091FF08D801A551B74F27
:1032D0008C91838781E084830E94DE0E81E00F90D1
:1032E000DF91CF911F910F91FF90EF900895CF92B2
:1032F000DF92EF92FF920F931F93CF93DF931F9272
:10330000CDB7DEB70E94F9188F3F11F481E003C0FA
:10331000813029F482E00E9405148FEF4DC0482FC0
:10332000552747FD50959A01220F331F240F351F53
:1033300089010451174FF901E651F74FD8014C911B
:1033400090814917C4F589830E94DC0EF8019081B1
:103350009F5F9083E091FE08F091FF081482E8E1FE
:10336000F8E00AE118E08981C82EDD24C7FCD0947A
:10337000ED2CFD2C23E030813230A1F442855385C1
:10338000648575854C155D056E057F0559F4D8017A
:103390002C9316861786108A118A1082128613863D
:1033A00014861586BB96055D1F4FB8E0EF3EFB0700
:1033B00011F70E94DE0E81E00F90DF91CF911F91F7
:1033C0000F91FF90EF90DF90CF9008950E94F91831
:1033D0008F3F11F481E003C0813029F482E00E9424
:1033E00005148FEF0895992787FD90959C01220F72
:1033F000331F280F391FF901E651F74F8FEF8083F4
:10340000F901E451F74F8083F901E551F74F8083CB
:103410008091FD0881508093FD0881E00895E0913E
:10342000F308F091F40880810895E091F308F09199
:10343000F408309721F00380F481E02DFACF08954D
:10344000CF92DF92EF92FF920F931F93CF93DF9370
:10345000E0910F08F0911008309709F48AC040916C
:10346000F3085091F4084115510509F446C0DA01FA
:103470009BE2692F782F7603900111242F5E374F3E
:103480008901065F1F4F7901C4E0EC0EF11C255F36
:103490003F4F6C9170E0969FE001979FD00D1124F3
:1034A000CF5ED74FDC80DD2029F0DB84E801C880C7
:1034B000DC1428F1E701D880DD2061F0969FE0015F
:1034C000979FD00D1124CF5ED74FDA84E901C880D1
:1034D000DC14A8F0969FE001979FD00D1124CF5ED9
:1034E000D74F7A85E8016881761748F013960D90DA
:1034F000BC91A02D109769F602C0A0E0B0E08083D7
:10350000C381D481D0931008C0930F08A417B507C6
:10351000B1F4109749F0B483A383128211821296FA
:10352000FC93EE93119706C01482138212821182CB
:10353000FA83E983F093F408E093F3081AC0119634
:103540008D919C911297AC17BD0759F0928381839E
:10355000B483A3831196CD91DC911297FC83EB8306
:1035600004C014821382928381831296FC93EE939B
:103570001197DF91CF911F910F91FF90EF90DF9006
:10358000CF900895CF93DF93E091F308F091F40882
:10359000309709F444C0992787FD9095208130E049
:1035A0002817390781F4A381B481B093F408A0935C
:1035B000F30812961C921E92119718C00380F48192
:1035C000E02D309761F1208130E028173907B1F7FD
:1035D000C181D281838194819C838B83A381B481B7
:1035E000109721F01296DC93CE931197A0910F08BB
:1035F000B0911008109739F4F0931008E0930F0879
:10360000148213820AC0B483A3831296FC93EE93B0
:103610001197F0931008E0930F0812821182DF9146
:10362000CF910895EF92FF920F931F93CF93DF9363
:10363000EC014B815C8169817A818D819E810E9440
:1036400065292F81222371F04B815C81E12CF12CC3
:1036500000E010E020E030E0BC01CE010E94C70F86
:103660001F820CC0E8812BE2E202F0011124EF5E20
:10367000F74F21852330B9F491838083E8818BE271
:10368000E802F0011124EF5EF74F458956896789FA
:10369000708D452B462B472B41F482E08187888132
:1036A0000E94201A02C08FEF01C081E0DF91CF910C
:1036B0001F910F91FF90EF9008951F93CF93DF9389
:1036C000CDB7DEB728970FB6F894DEBF0FBECDBFDB
:1036D00029833A834B835C836D837E838F839887B2
:1036E0000E94DC0E0E948E26182FCE0101960E94A9
:1036F000C51F6330710598F0E091FE08F091FF0856
:10370000212F30E0260F371FC901A0E0B0E0858BE4
:10371000968BA78BB08F0E94DE0E81E001C08FEFE9
:1037200028960FB6F894DEBF0FBECDBFDF91CF91C4
:103730001F9108950E943729E091FE08F091FF083B
:1037400085818111F7CF0895CF930E94C1160E9401
:10375000DC0EE091FE08F091FF0881E090E092A776
:1037600081A781E085830E948E26C82F883F88F438
:103770000E9428262C2F30E02F5F3F4F482F50E02B
:103780002417350734F482E08C0F809301060E94E1
:103790002C260E94DE0E0E949A1B81E0CF91089594
:1037A000E091FE08F091FF0880850E94C21AE09126
:1037B000FE08F091FF0884E081870E94A41B81E04D
:1037C0000895CF93DF93EC010E94C116209711F466
:1037D000C1E0D0E00E94DC0EE091FE08F091FF080D
:1037E00081E08583D2A7C1A70E948E26C82F883F7B
:1037F00088F40E9428262C2F30E02F5F3F4F482F5F
:1038000050E02417350734F482E08C0F80930106D2
:103810000E942C260E94DE0E0E949A1B81E0DF91FE
:10382000CF910895FF920F931F93CF93DF938C0155
:103830000E94DC0EE091FE08F091FF0881E0858394
:103840000E948E26F82EE091FE08F091FF08C82F06
:10385000D0E0AE01400F511F60E070E0458B568B09
:10386000678B708F87EF8F1570F00E942826219646
:10387000282F30E0C217D30734F482E08F0D8093F5
:1038800001060E942C260E94DE0E0E949A1B81E0F7
:10389000DF91CF911F910F91FF900895CF93DF9308
:1038A000EC010E94DC0EE091FE08F091FF0821E09F
:1038B0002583CE01A0E0B0E0858B968BA78BB08FDF
:1038C0000E948E26C82F883F88F40E9428262C2F1D
:1038D00030E02F5F3F4F482F50E02417350734F476
:1038E00082E08C0F809301060E942C260E94DE0E3F
:1038F0000E949A1B81E0DF91CF910895CF930E949F
:10390000DC0EE091FE08F091FF0881E0858386835C
:103910000E948E26C82F883F88F40E9428262C2FCC
:1039200030E02F5F3F4F482F50E02417350734F425
:1039300082E08C0F809301060E942C260E94DE0EEE
:103940000E949A1B81E0CF9108951F93CF93DF933C
:10395000CDB7DEB728970FB6F894DEBF0FBECDBF48
:1039600029833A834B835C836D837E838F8398871F
:103970000E94C1160E94DC0EE091FE08F091FF0843
:1039800081E0858381E090E092A781A70E948E2646
:10399000182FCE0101960E94C51FE091FE08F091FC
:1039A000FF08610F711D811D911D658B768B878BC3
:1039B000908F183F88F40E942826212F30E02F5F37
:1039C0003F4F482F50E02417350734F482E0810F31
:1039D000809301060E942C260E94DE0E0E949A1BF4
:1039E00081E028960FB6F894DEBF0FBECDBFDF9101
:1039F000CF911F9108958F929F92AF92BF92CF92D5
:103A0000DF92EF92FF920F931F93CF93DF93CDB787
:103A1000DEB760970FB6F894DEBF0FBECDBF298723
:103A20003A874B875C876D877E878F87988BCE011F
:103A300001960E94571D89809A80AB80BC80CD8002
:103A4000DE80EF80F88409851A852B853C854D85BD
:103A50005E856F857889CE0109960E94B31D8F3FE0
:103A600061F029853A854B855C856D857E858F85DE
:103A700098890E94A51C81E001C08FEF60960FB667
:103A8000F894DEBF0FBECDBFDF91CF911F910F9194
:103A9000FF90EF90DF90CF90BF90AF909F908F906E
:103AA0000895E091FE08F091FF0880850895CF9277
:103AB000DF92EF92FF92CF93DF93EC011C821D8285
:103AC0001E821F824091F5085091F6086091F70818
:103AD0007091F808488359836A837B83C090F90802
:103AE000D090FA08E090FB08F090FC08CC82DD82D0
:103AF000EE82FF820E948E26A82FB0E023EB36EEE6
:103B00004EE050E00E946D2B6C0D7D1D8E1D9F1DA3
:103B10006C837D838E839F834C815D816E817F81E9
:103B200041158AEC58078AE968078BE37807A0F00B
:103B30005A5C6A497B434C835D836E837F834881F3
:103B400059816A817B814F5F5F4F6F4F7F4F488301
:103B500059836A837B83E0CFDF91CF91FF90EF9011
:103B6000DF90CF9008958F929F92AF92BF92CF92A5
:103B7000DF92EF92FF920F931F93CF93DF93CDB716
:103B8000DEB760970FB6F894DEBF0FBECDBFFC0165
:103B900009831A832B833C834D835E836F837887ED
:103BA00089869A86AB86BC86CD86DE86EF86F88AC5
:103BB00089809A80AB80BC800D811E812F813885E1
:103BC000C984DA84EB84FC844D855E856F857889B1
:103BD0008C149D04AE04BF0408F43FC0C814D9047B
:103BE000EA04FB0491F40417150726073707A8F128
:103BF000041B150B260B370B048315832683378391
:103C0000108211821282138226C00417150726071C
:103C1000370788F481E0881A9108A108B1088C1848
:103C20009D08AE08BF0880829182A282B38216539B
:103C30002546344C08C08C189D08AE08BF08808209
:103C40009182A282B382041B150B260B370B0483CF
:103C500015832683378381E001C08FEF60960FB60E
:103C6000F894DEBF0FBECDBFDF91CF911F910F91B2
:103C7000FF90EF90DF90CF90BF90AF909F908F908C
:103C80000895FC01448155816681778141158AEC54
:103C900058078AE968078BE37807A0F05A5C6A49FD
:103CA0007B4344835583668377834081518162815E
:103CB00073814F5F5F4F6F4F7F4F408351836283AC
:103CC0007383E0CF08958F929F92AF92BF92CF926D
:103CD000DF92EF92FF920F931F93CF93DF93CDB7B5
:103CE000DEB760970FB6F894DEBF0FBECDBF098375
:103CF0001A832B833C834D835E836F837887898609
:103D00009A86AB86BC86CD86DE86EF86F88A4985A4
:103D10005A856B857C8509811A812B813C81400FF6
:103D2000511F621F731FFC014083518362837383A1
:103D30004D855E856F8578890D811E812F8138853F
:103D4000400F511F621F731F44835583668377831F
:103D50000E94411E81E060960FB6F894DEBF0FBE50
:103D6000CDBFDF91CF911F910F91FF90EF90DF902A
:103D7000CF90BF90AF909F908F9008956093F5087B
:103D80007093F6088093F7089093F8082093F90849
:103D90003093FA084093FB085093FC0808952F9243
:103DA0003F924F925F926F927F928F929F92AF92CB
:103DB000BF92CF92DF92EF92FF920F931F93CF9318
:103DC000DF93CDB7DEB762970FB6F894DEBF0FBEB4
:103DD000CDBFDC014D905D906D907C901397149653
:103DE0006D917D918D919C911797411451046104BF
:103DF000710409F46CC0B2E44B16510461047104FF
:103E000008F06DC07B018C0120E030E0A9016983DE
:103E1000FA820B831C832D833E834F835887A0E057
:103E2000B0E0198A1A8A312C812CF0E0E0E0912C64
:103E30009D0149895A89632D782D8F2F9E2FA98046
:103E4000BA80CB80DC80ED80FE800F8118850E94D7
:103E50000F2C222E39874A875B876C877D878E8758
:103E60009F879D0149895A89632D782D8F2F9E2F19
:103E700036534546544C6F4F7F4F8F4F9F4FD9015C
:103E8000498B5A8B362E872EF82FE92F492D50E07B
:103E900060E070E0441555056605770510F49394CD
:103EA000C7CF83EBA82E96EEB92E2EE0C22ED12CD2
:103EB000E12CF12C00E010E0222D39854A855B854C
:103EC0006C857D858E859F850E94AC2B06C023EB7B
:103ED00036EE4EE050E00E94882BC90102C080E01F
:103EE00090E062960FB6F894DEBF0FBECDBFDF91B3
:103EF000CF911F910F91FF90EF90DF90CF90BF90E7
:103F0000AF909F908F907F906F905F904F903F9079
:103F10002F900895CF92DF92EF92FF92CF93DF938D
:103F2000CDB7DEB728970FB6F894DEBF0FBECDBF72
:103F30006B017C013AE0F694E794D794C7943A95E4
:103F4000D1F7C982DA82EB82FC829B01AC0133702B
:103F50004427552763EB76EE8EE090E00E94782BA5
:103F60006D837E838F8398872C2D3A814B815C8172
:103F700028960FB6F894DEBF0FBECDBFDF91CF916C
:103F8000FF90EF90DF90CF9008952F923F924F9245
:103F90005F926F927F928F929F92AF92BF92CF92D9
:103FA000DF92EF92FF920F931F93CF93DF93CDB7E2
:103FB000DEB762970FB6F894DEBF0FBECDBFDC014F
:103FC0004D905D906D907C90139714966D917D91BE
:103FD0008D919C911797411451046104710409F467
:103FE00066C07B018C0120E030E0A9016983FA8280
:103FF0000B831C832D833E834F835887A0E0B0E062
:10400000198A1A8A312C812CF0E0E0E0912C9D0174
:1040100049895A89632D782D8F2F9E2FA980BA80C8
:10402000CB80DC80ED80FE800F8118850E940F2CF4
:10403000222E39874A875B876C877D878E879F878B
:104040009D0149895A89632D782D8F2F9E2F3653D4
:104050004546544C6F4F7F4F8F4F9F4FD901498B2F
:104060005A8B362E872EF82FE92F492D50E060E02D
:1040700070E0441555056605770510F49394C7CF95
:1040800043EBA42E56EEB52E6EE0C62ED12CE12CBD
:10409000F12C00E010E0222D39854A855B856C8586
:1040A0007D858E859F850E94AC2BCA0107C023EBBE
:1040B00036EE4EE050E00E94882BCA01B9016296AC
:1040C0000FB6F894DEBF0FBECDBFDF91CF911F9129
:1040D0000F91FF90EF90DF90CF90BF90AF909F90A7
:1040E0008F907F906F905F904F903F902F900895AA
:1040F000C2E0D1E00E94C1160E942826843028F434
:10410000D093F2080E94372908C08AE090E00E940C
:104110003F25C093F2080E942B298091990685358E
:1041200019F088E00E94311580917E41853511F3A8
:1041300088E00E943115DECF2F923F924F925F921E
:104140006F927F928F929F92AF92BF92CF92DF92A7
:10415000EF92FF920F931F93CF93DF93CDB7DEB70C
:1041600027970FB6F894DEBF0FBECDBF0E945C2527
:104170000E94DC0E8AEF0E942C260E9428290E94B1
:10418000F22310910106A12FB0E023EB36EE4EE0B2
:1041900050E00E946D2B6B017C014091F908509119
:1041A000FA086091FB087091FC08C40ED51EE61E4B
:1041B000F71EC701B60123EB36EE4EE050E00E9439
:1041C000882BC61AD70AE80AF90AC092F908D092D1
:1041D000FA08E092FB08F092FC08E091FE08F091EA
:1041E000FF088085811130C08091F208823019F477
:1041F000812F0E94D810E091FE08F091FF08609195
:10420000010680850E944211E091FE08F091FF08AE
:1042100060E080850E9487118091F9089091FA08EA
:10422000A091FB08B091FC084091F5085091F60868
:104230006091F7087091F808E3EB8E2EE6EE9E2E63
:10424000EEE0AE2EB12C07C09581612F9111E2CF27
:104250000E944211E1CF6A017B013FEFC31AD30AEA
:10426000E30AF30A8115EAEC9E07EAE9AE07EBE3FD
:10427000BE07C8F02C013D012AEC521A2AE9620A55
:104280002BE3720AC301B201A50194010E94882B9D
:10429000A3019201261B370B480B590BDA01C90108
:1042A000B701A601D8CF4093F5085093F608609364
:1042B000F7087093F8088093F9089093FA08A09390
:1042C000FB08B093FC08E091FE08F091FF0885819F
:1042D000882339F18185843021F18781823029F06A
:1042E000882341F08681811102C085E001C083E00E
:1042F000818714C083E08187178216828589968919
:10430000A789B08D892B8A2B8B2B41F4818D928DBF
:10431000A38DB48D858B968BA78BB08F80850E94E3
:10432000C21AE091FE08F091FF0885A196A1A7A10D
:10433000B0A5892B8A2B8B2B09F44EC0808588234E
:1043400009F44AC09185943009F446C0058D168D54
:10435000278D30A14091010650E060E070E0041725
:1043600015072607370798F40E941011E091FE0800
:10437000F091FF08608582E00E943E15E091FE0802
:10438000F091FF08158E168E178E10A208C0041B20
:10439000150B260B370B058F168F278F30A3E09157
:1043A000FE08F091FF081085458D568D678D70A130
:1043B000452B462B472B81F4812F0E941011612F32
:1043C00083E00E943E15E091FE08F091FF0883E033
:1043D0008187812F0E94C21A09E118E03AE1232E59
:1043E00038E0332E46E2A42E48E0B42E28E138E02F
:1043F0003A83298347E158E05C834B8356E1852E5D
:1044000058E0952E80E69AEE9F838E831D82D80118
:104410008C918F3F09F42AC1F40110828C9188237A
:1044200009F46AC0D1018C91843009F465C0F501AA
:10443000C080D180E280F3806091010670E080E06E
:1044400090E0C616D706E806F90648F0C61AD70A5D
:10445000E80AF90AC082D182E282F38205C0F5013E
:104460001082118212821382D8015196CD90DD9074
:10447000ED90FC905497C616D706E806F90650F062
:10448000C61AD70AE80AF90AF801C18AD28AE38A69
:10449000F48A21C0D80159962D913D914D915C919E
:1044A0005C97621773078407950760F469017A01C6
:1044B000C61AD70AE80AF90AF801C18AD28AE38A39
:1044C000F48A09C00E94882BD80151966D937D9380
:1044D0008D939C935497F80181899289A389B4891B
:1044E000892B8A2B8B2B41F4818D928DA38DB48DDA
:1044F000818B928BA38BB48BD1018C91833009F08B
:10450000B5C0F50180819181A281B381892B8A2B6D
:104510008B2B09F096C0A981BA818C918823B9F0C0
:10452000EB81FC818081882391F081E090E0A0E024
:10453000B0E00090EE0804C0880F991FAA1FBB1FAF
:104540000A94D2F7F80181879287A387B487A9815B
:10455000BA811C92EB81FC811082D4011C92F5017E
:1045600084899589D8015D964D915D916D917C917D
:104570009097F801458B568B678B708F019729F5C3
:10458000E2E0D101EC93F80181899289A389B48991
:10459000F50180839183A283B383F801818D928D8D
:1045A000A38DB48D892B8A2B8B2B59F42AEFC22E25
:1045B000D12CE12CF12CD501CD92DD92ED92FC9223
:1045C00013978D810E94201A3CC0D50154964D90BE
:1045D0005C905597B1E04B1A5108612C712C618D9C
:1045E000728D838D948DA30192010E94782BF50129
:1045F0006083718382839383D8015996CD90DD9037
:10460000ED90FC905C97C701B6010E94782BF801F1
:10461000618B728B838B948BCD28CE28CF2859F455
:104620009AEFC92ED12CE12CF12CD501CD92DD923F
:10463000ED92FC921397CC24C394D12CF501D58A2A
:10464000C48AF50180819181A281B3810097A1057F
:10465000B10561F0CE80DF80A60160E070E08417D4
:104660009507A607B70710F49F838E832D812F5FD0
:104670002D83055D1F4F3BE2230E311C4BE2A40E40
:10468000B11C89819A818B969A838983AB81BC8185
:104690009B96BC83AB83BBE28B0E911C253009F04B
:1046A000B6CEE091FE08F091FF0880850E942111AE
:1046B0000E940F1AF82E2BE28202F0011124EF5E05
:1046C000F74F828580930009F093F008E093EF089C
:1046D000FF2031F145A156A167A170A5452B462BBE
:1046E000472BA1F0458D568D678D70A14A3F51052E
:1046F0006105710558F4CE80DF80860120E030E04E
:10470000401751076207730760F507C02E813F818C
:104710002B3F310530F14AEF50E05F834E8321C0DB
:10472000AE81BF81A430B105E0F09D012350310975
:104730002A3F310540F43F832E832230310588F42F
:1047400022E030E00CC04E815F814D3F510529F0E1
:10475000AAEFB0E0BF83AE8304C027EF30E03F8311
:104760002E838093F108F093FF08E093FE083E81CA
:10477000309301060E948E26282F30E02F5F3F4F96
:10478000CE80DF802C153D0558F00E948E26C82E65
:10479000D12C96012E5F3F4F3F832E83209301063D
:1047A000F1101092F2088E810E942C260E94C329DB
:1047B00027960FB6F894DEBF0FBECDBFDF91CF9125
:1047C0001F910F91FF90EF90DF90CF90BF90AF902F
:1047D0009F908F907F906F905F904F903F902F9021
:1047E0000C94CE293F924F925F926F927F928F925C
:1047F0009F92AF92BF92CF92DF92EF92FF920F9370
:104800001F93CF93DF93CDB7DEB760970FB6F894C1
:10481000DEBF0FBECDBFCE0109960E94571D83E0BB
:10482000482E89E0582E612C712C93E1392EF2012B
:104830008081813061F5369CF001379CF00D1124A8
:10484000E45FF64F89849A84AB84BC84CD84DE8493
:10485000EF84F88800811181228133814481558160
:1048600066817781CE0101960E94B31D8F3F79F456
:10487000662D85E10E943E15F20132970190F0818C
:10488000E02D309719F40E94E00E01C00995FFEF6A
:104890006F1A7F0A83E1480E511CE3E06E16710423
:1048A00031F660960FB6F894DEBF0FBECDBFDF9134
:1048B000CF911F910F91FF90EF90DF90CF90BF901D
:1048C000AF909F908F907F906F905F904F903F90B0
:1048D000089510920309109216091092290908955B
:1048E000DB018330F0F493E1899FF0011124EF5F45
:1048F000F64F518340834D915D916D917C9113975B
:10490000438354836583768314964D915D916D91B5
:104910007C9117974783508761877287128281E065
:1049200008958FEF0895CF92DF92EF92FF920F9349
:104930001F93CF93DF93CDB7DEB728970FB6F894C8
:10494000DEBF0FBECDBF182F8330A0F5CE0101967C
:104950000E94571D23E1129FC00111248C010F5F9B
:10496000164FF8014381548165817681C980DA80D0
:10497000EB80FC804C0D5D1D6E1D7F1D43875487B1
:10498000658776874781508561857285CD80DE8019
:10499000EF80F8844C0D5D1D6E1D7F1D4787508B89
:1049A000618B728B845F964F0E94411E81E0F801FB
:1049B000828301C08FEF28960FB6F894DEBF0FBE3A
:1049C000CDBFDF91CF911F910F91FF90EF90DF90BE
:1049D000CF9008950F931F93CF93DF93CDB7DEB79A
:1049E00028970FB6F894DEBF0FBECDBF182F8330C7
:1049F00068F5CE0101960E94571D83E1189FF001D2
:104A00001124EF5FF64F43815481658176810981DE
:104A10001A812B813C81400F511F621F731F4387F6
:104A200054876587768747815085618572850D81BA
:104A30001E812F813885400F511F621F731F4787CA
:104A4000508B618B728B81E0828301C08FEF28963F
:104A50000FB6F894DEBF0FBECDBFDF91CF911F918F
:104A60000F910895833048F493E1899FF001112458
:104A7000EF5FF64F128281E008958FEF08950000F6
:104A80000000000000000000000000000000000026
:104A90000000000000000197009789F70895109228
:104AA0002101089589E0809321018DE89CE3909392
:104AB0002901809328010895109225011092240164
:104AC0000895CF93DF9300D0CDB7DEB78091240156
:104AD000909125019A83898389819A810F900F9003
:104AE000DF91CF91089510928100089581E0809325
:104AF0008100089583B5816083BD10928500109276
:104B000084000895CF93DF9300D0CDB7DEB78091B6
:104B10008400909185009A83898389819A810F907E
:104B20000F90DF91CF910895CF92DF92EF92FF9295
:104B3000CF93DF93EC01CC0FDD1FC9378FEFD80780
:104B400010F0C0E0D0E06B01E12CF12CCC0EDD1EAA
:104B5000E11CF11C81E0C816D104E806F10440F024
:104B600081E0E81AF1080E948225C817D907D8F316
:104B70000E9482258C159D05D8F3DF91CF91FF907F
:104B8000EF90DF90CF9008951092B100E0E7F0E051
:104B900080818D7F808380818E7F80830895809344
:104BA000B2000895E0E7F0E080818360808383E0D5
:104BB0008093B100089583B5826083BD1092B200E6
:104BC0001092AB04109201060895CF93DF938EEFFD
:104BD0008093010680E28093B60080910106809365
:104BE000B30083E087BB92E09093B0008093B10064
:104BF00093B5926093BD87BB84BD83B5826083BD4E
:104C00001092800081E080938100109285001092C4
:104C1000840083B5826083BD83B5816083BD1092BB
:104C20002001C4E2D1E01982188283B5826083BD7D
:104C300083B5816083BD0E94DB25198218820E94A2
:104C4000D2250E9452251092AB04DF91CF91089596
:104C50008091B3008F5F089581508093B3000895D1
:104C6000811102C0109271008FEF0895811106C06A
:104C7000109295001092940081E008958FEF0895AE
:104C8000811105C08091940090919500089580E075
:104C900090E00895811105C082E08093710081E069
:104CA00008958FEF0895811135C0CB0101970597C5
:104CB00010F4609300061092900088E080939100B9
:104CC000509399004093980030932904209328042E
:104CD00080910006813021F480919100816011C0A3
:104CE000823021F48091910082600BC0833021F4E6
:104CF00080919100836005C0843031F480919100EF
:104D000084608093910008C0853031F480919100D7
:104D10008560F7CF8FEF089581E008958091B2000C
:104D200008951F920F920FB60F92112460E08AE04F
:104D30000E943E15FFCF0F920FB60F921F922F9237
:104D40003F924F925F926F927F928F929F92AF921B
:104D5000BF92CF92DF92EF92FF920F931F932F9308
:104D60003F934F935F936F937F938F939F93AF93F3
:104D7000BF93CF93DF93EF93FF93A091FE08B09181
:104D8000FF080DB60D920EB60D921F92A091FE0572
:104D9000B091FF051E90BEBFADBF08951F920F9248
:104DA0000FB60F9211240BB60F922F933F934F9390
:104DB0005F936F937F938F939F93AF93BF93EF9383
:104DC000FF93E0912804F0912904309711F00995A0
:104DD00004C060E08AE00E943E15FF91EF91BF9110
:104DE000AF919F918F917F916F915F914F913F9183
:104DF0002F910F900BBE0F900FBE0F901F90189524
:104E00001F920F920FB60F9211240F900FBE0F90AA
:104E10001F90189504B603FC02C080E001C080E139
:104E200004B602FE06C094B79B7F94BF04B600FE92
:104E3000846004B601FE05C094B79D7F94BF826074
:104E4000089581110CC004B600FE04C094B79E7F83
:104E500094BF01C081E09091B000911181E008956C
:104E6000811102C0E89A39C0813011F4E99A08959D
:104E7000823011F4EA9A31C0833021F480916B00C2
:104E8000816029C0843021F480916B00826023C04E
:104E9000853021F480916B0084601DC0863021F440
:104EA00080916B00886017C0873021F480916B007F
:104EB000806111C0883021F480916B0080620BC04A
:104EC000893021F480916B00806405C08A3039F408
:104ED00080916B00806880936B0081E008958FEF74
:104EE0000895811102C0E89839C0813011F4E99821
:104EF0000895823011F4E99831C0833021F4809113
:104F00006B008E7F29C0843021F480916B008D7FEF
:104F100023C0853021F480916B008B7F1DC08630CB
:104F200021F480916B00877F17C0873021F4809136
:104F30006B008F7E11C0883021F480916B008F7DD3
:104F40000BC0893021F480916B008F7B05C08A30C3
:104F500039F480916B008F7780936B0081E0089526
:104F60008FEF0895811126C050935C0940935B092F
:104F7000611104C0809169008C7F3DC0613049F4AB
:104F8000809169008D7F80936900809169008160C4
:104F900032C0623049F48091690082608093690078
:104FA000809169008E7F27C0633039F58091690058
:104FB000836021C0813049F550935A0940935909C3
:104FC000611104C080916900837F15C0613049F48C
:104FD00080916900877F8093690080916900846077
:104FE0000AC0623061F48091690088608093690032
:104FF000809169008B7F8093690081E00895633020
:10500000E1F7809169008C60F6CF823031F55093E2
:105010005E0940935D09611104C0809169008F7C35
:10502000EACF613049F4809169008F7D80936900F7
:10503000809169008061DFCF623049F4809169001E
:10504000806280936900809169008F7ED4CF633045
:10505000A1F6809169008063CECF8350883050F4F0
:10506000809168008160809368005093600940934C
:105070005F09C3CF8FEF08951F920F920FB60F9263
:1050800011240BB60F922F933F934F935F936F931F
:105090007F938F939F93AF93BF93EF93FF93E09191
:1050A0005F09F0916009309711F0099504C060E044
:1050B0008AE00E943E15FF91EF91BF91AF919F91C1
:1050C0008F917F916F915F914F913F912F910F90B1
:1050D0000BBE0F900FBE0F901F9018951F920F924E
:1050E0000FB60F9211240BB60F922F933F934F934D
:1050F0005F936F937F938F939F93AF93BF93EF9340
:10510000FF93E0915B09F0915C09309711F00995EC
:1051100004C060E08AE00E943E15FF91EF91BF91CC
:10512000AF919F918F917F916F915F914F913F913F
:105130002F910F900BBE0F900FBE0F901F901895E0
:105140001F920F920FB60F9211240BB60F922F934E
:105150003F934F935F936F937F938F939F93AF93FF
:10516000BF93EF93FF93E0915909F0915A0930975B
:1051700011F0099504C060E08AE00E943E15FF919D
:10518000EF91BF91AF919F918F917F916F915F91BF
:105190004F913F912F910F900BBE0F900FBE0F902C
:1051A0001F9018951F920F920FB60F9211240BB6F5
:1051B0000F922F933F934F935F936F937F938F93B0
:1051C0009F93AF93BF93EF93FF93E0915D09F091AD
:1051D0005E09309711F0099504C060E08AE00E94F2
:1051E0003E15FF91EF91BF91AF919F918F917F916C
:1051F0006F915F914F913F912F910F900BBE0F9048
:105200000FBE0F901F9018950E94DC0EA89584B7D2
:10521000877F84BFE0E6F0E0808188618083108230
:105220000C94DE0E0E94DC0EA89584B7877F84BFA5
:10523000E0E6F0E08081886180838DE080830C94DB
:10524000DE0E04B603FC02C081E008958FEF0895DE
:10525000A8950895089583B7817F866083BF83B73B
:10526000816083BF889583B78E7F83BF089583B79E
:10527000817F83BF83B7816083BF889583B78E7F2B
:1052800083BF0895FC01768365830895EF92FF92B2
:105290000F931F93CF93DF93EC018B017A01403280
:1052A000510518F481E10E943115A70141505109BF
:1052B000400F511F5A8349831C830B83DF91CF9189
:1052C0001F910F91FF90EF90089525E5FA0120833B
:1052D000FB0132979083FB0131978083FB01349768
:1052E00011821082FB01369711821082FB013897E0
:1052F00011821082FB013A9711821082FB013C97C8
:1053000011821082FB013E9711821082FB0170977F
:1053100011821082FB01729711821082FB01749737
:1053200011821082FB01769711821082FB0178971F
:1053300011821082FB017A9711821082FB017C9707
:1053400011821082FB017E9711821082FB01B097BF
:1053500011821082FB01B29711821082CB018497D7
:10536000FC0111821082089585E580937E41EEEF65
:10537000F1E4F093FF05E093FE0588E990E1908366
:105380008093FF41089588E990E19093FE418093D6
:10539000FF4108950E94E5250C94DE0EA091EF08D0
:1053A000B091F008CD91CDBFDD91DEBFFF91EF91BF
:1053B000DF91CF91BF91AF919F918F917F916F912D
:1053C0005F914F913F912F911F910F91FF90EF901F
:1053D000DF90CF90BF90AF909F908F907F906F9015
:1053E0005F904F903F902F901F900F900FBE0F90A7
:1053F00018950E94EF0A80E190E00E94170E0E942B
:10540000E30E82E090E00E94AE0D83E090E00E9407
:10541000AE0D81E090E00E94AE0D80E090E00E9431
:10542000AE0D20E030E0A90160E070E0CB010E9409
:10543000BE1E0E9486030E948A0F80E090E00895BD
:105440006F927F929F92AF92BF92CF92DF92EF9234
:10545000FF920F931F93CF93DF93CDB7DEB72C97B7
:105460000FB6F894DEBF0FBECDBF8C017B013A01B1
:10547000FC0117821682838181FF19C1CE0101963A
:105480005C01F801D380F701D3FC2591D3FE219173
:105490007F01222309F407C1253249F4D3FC259169
:1054A000D3FE21917F01253211F0912C1BC0B80150
:1054B000822F90E00E94862C63013601E2CF2223E6
:1054C00009F4F1C0622F70E08FEF94E02C870E9406
:1054D000272C2C85892B49F0F701D3FC2591D3FE8D
:1054E00021917F0197FEEBCF0CC0233221F4F92DDF
:1054F000F0619F2EF1CF2C3639F4292D2068922EA1
:10550000EBCF222309F4CFC0622F70E088EF94E044
:105510002C870E94272C2C85892B41F06301F4E015
:10552000CF0ED11CB8018FE390E012C0233641F0BA
:10553000233789F0233521F5F92DF1609F2E0BC01B
:10554000630122E0C20ED11CB801F3018081918178
:105550000E94862CB2CF630122E0C20ED11CF3015F
:1055600060807180F30190FC859190FE81913F01F4
:10557000882309F4A2CFB80190E00E94862CF2CFD4
:10558000243611F0293639F5630197FE09C0F4E09D
:10559000CF0ED11CF30160817181828193810AC099
:1055A000F2E0CF0ED11CF30160817181882777FD75
:1055B0008095982FF92DFF7E9F2E97FF09C090951B
:1055C0008095709561957F4F8F4F9F4FF0649F2E10
:1055D0002AE030E038C02037A1F040F42835D1F07F
:1055E0002F3609F060C028E030E019C0253719F0E7
:1055F000283751F058C0292D2F7E922E2AE030E016
:105600000EC0892D8061982E992D9462992E20E1EB
:1056100030E005C0E92DE4609E2E20E132E0630118
:1056200097FE09C0F4E0CF0ED11CF30160817181B7
:105630008281938108C0F2E0CF0ED11CF30160811A
:10564000718180E090E0A5010E942C2D782E7A18BF
:1056500096FE05C0B8018DE290E00E94862C94FE73
:1056600016C0FE01E70DF11D8081803381F0B80185
:1056700080E390E00E94862C92FE09C0292D2072C2
:10568000822F90E0B801885A9F4F0E94862C7A940E
:10569000F501E70DF11D8081B80190E00E94862C94
:1056A0007110F5CF0ACFF8018681978102C08FEF84
:1056B0009FEF2C960FB6F894DEBF0FBECDBFDF91E3
:1056C000CF911F910F91FF90EF90DF90CF90BF90FF
:1056D000AF909F907F906F9008950E94182CA59F87
:1056E000900DB49F900DA49F800D911D11240895DD
:1056F000DB018F939F930E946D2BBF91AF91A29F6F
:10570000800D911DA39F900DB29F900D11240895BF
:10571000A1E21A2EAA1BBB1BFD010DC0AA1FBB1FB5
:10572000EE1FFF1FA217B307E407F50720F0A21B27
:10573000B30BE40BF50B661F771F881F991F1A9494
:1057400069F760957095809590959B01AC01BD01BE
:10575000CF010895689401C0E8948F929F92CF93EF
:10576000DF930E94B82BDF91CF919F908F90089587
:1057700088249924F401E401B0E49F93AA279A15A0
:105780008B049C04ED05FE05CF05D007A10798F416
:10579000AD2FDC2FCF2FFE2FE92D982C892E982F9F
:1057A000872F762F652F542F432F322F2227B85063
:1057B00031F7BF9127C01B2EBF91BB27220F331F8C
:1057C000441F551F661F771F881F991F881C991C2F
:1057D000EE1FFF1FCC1FDD1FAA1FBB1F8A149B04D7
:1057E000EC05FD05CE05DF05A007B10748F08A18D6
:1057F0009B08EC09FD09CE09DF09A00BB10B216064
:105800001A94E1F62EF49401AF01BE01CD01000C13
:105810000895EE0FFF1F0590F491E02D09942A0DD5
:105820003B1D4C1D5D1D6E1D7F1D801F911F08952A
:10583000A29FB001B39FC001A39F700D811D1124D1
:10584000911DB29F700D811D1124911D0895FC01C1
:105850000590061621F00020D9F7C0010895319770
:10586000CF010895FB01DC0102C001900D9241506F
:105870005040D8F708950F931F93CF93DF93EC0117
:105880008B01009731F46115710519F480E090E007
:1058900038C06EE070E081E090E00E94A02DFC0135
:1058A0000097A1F380E883830115110571F0138738
:1058B000028781E883838091610990916209892B35
:1058C00021F4F0936209E09361092097C9F0D18730
:1058D000C08783818260838380916309909164098A
:1058E000892B71F4F0936409E09363098091650951
:1058F00090916609892B21F4F0936609E09365097C
:10590000CF01DF91CF911F910F9108950F931F93B6
:10591000CF93DF93182F092FEB018B8181FD03C0FB
:105920008FEF9FEF20C082FF10C04E815F812C81DE
:105930003D81421753077CF4E881F9819F012F5F75
:105940003F4F39832883108306C0E885F985812F6E
:105950000995892B29F72E813F812F5F3F4F3F8388
:105960002E83812F902FDF91CF911F910F9108955A
:10597000CF93DF93CDB7DEB7FE013596619171917C
:10598000AF0180916309909164090E94202ADF9100
:10599000CF91089560916309709164090C94862CED
:1059A0000F931F93CF93DF93E0916309F091640904
:1059B000238121FF1BC0EC0100E010E08991609180
:1059C000630970916409DB011896ED91FC911997B8
:1059D000882331F00995892B89F30FEF1FEFEECF64
:1059E0008AE00995892B11F4C80102C08FEF9FEF5F
:1059F000DF91CF911F910F9108950F931F93CF9334
:105A0000DF93CDB7DEB72E970FB6F894DEBF0FBE8B
:105A1000CDBF0D891E8986E08C831A8309838FEFA1
:105A20009FE79E838D83AE01475E5F4F6F89788DC0
:105A3000CE0101960E94202AEF81F885E00FF11F28
:105A400010822E960FB6F894DEBF0FBECDBFDF9149
:105A5000CF911F910F910895FA01AA27283051F193
:105A6000203181F1E8946F936E7F6E5F7F4F8F4F8F
:105A70009F4FAF4FB1E03ED0B4E03CD0670F781FEE
:105A8000891F9A1FA11D680F791F8A1F911DA11DD3
:105A90006A0F711D811D911DA11D20D009F468940C
:105AA0003F912AE0269F11243019305D3193DEF6B4
:105AB000CF010895462F4770405D4193B3E00FD06A
:105AC000C9F7F6CF462F4F70405D4A3318F0495D55
:105AD00031FD4052419302D0A9F7EACFB4E0A69538
